{
	"data": {
		"bytecode": {
			"linkReferences": {},
			"object": "608060405234801562000010575f80fd5b50620000345f801b620000286200008c60201b60201c565b6200009360201b60201c565b620000867ffacaf2747a7486cf5730e9265973fb54447d3ace6e7e4711f6360826b07319417fa49807205ce4d355092ef5a8a18f56e8913cf4a201fbe287825b095693c21775620000cd60201b60201c565b620003af565b5f33905090565b620000a4826200012d60201b60201c565b620000b5816200014960201b60201c565b620000c783836200016d60201b60201c565b50505050565b5f620000df836200012d60201b60201c565b9050815f808581526020019081526020015f20600101819055508181847fbd79b86ffe0ab8e8776151514217cd7cacd52c909f66475c3af44e129f0b00ff60405160405180910390a4505050565b5f805f8381526020019081526020015f20600101549050919050565b6200016a816200015e6200008c60201b60201c565b6200026860201b60201c565b50565b5f620001808383620002c460201b60201c565b6200025e5760015f808581526020019081526020015f205f015f8473ffffffffffffffffffffffffffffffffffffffff1673ffffffffffffffffffffffffffffffffffffffff1681526020019081526020015f205f6101000a81548160ff021916908315150217905550620001fa6200008c60201b60201c565b73ffffffffffffffffffffffffffffffffffffffff168273ffffffffffffffffffffffffffffffffffffffff16847f2f8788117e7eff1d82e926ec794901d17c78024a50270940304540a733656f0d60405160405180910390a46001905062000262565b5f90505b92915050565b6200027a8282620002c460201b60201c565b620002c05780826040517fe2517d3f000000000000000000000000000000000000000000000000000000008152600401620002b792919062000384565b60405180910390fd5b5050565b5f805f8481526020019081526020015f205f015f8373ffffffffffffffffffffffffffffffffffffffff1673ffffffffffffffffffffffffffffffffffffffff1681526020019081526020015f205f9054906101000a900460ff16905092915050565b5f73ffffffffffffffffffffffffffffffffffffffff82169050919050565b5f620003528262000327565b9050919050565b620003648162000346565b82525050565b5f819050919050565b6200037e816200036a565b82525050565b5f604082019050620003995f83018562000359565b620003a8602083018462000373565b9392505050565b6135ff80620003bd5f395ff3fe608060405234801562000010575f80fd5b5060043610620000fe575f3560e01c80635d428e08116200009757806391d14854116200006d57806391d148541462000286578063a217fddf14620002bc578063d547741f14620002de578063f0a56fc814620002fe57620000fe565b80635d428e08146200022457806375b238fc146200024457806382520648146200026657620000fe565b80632f2ff15d11620000d95780632f2ff15d146200018e57806336568abe14620001ae578063404a3d6114620001ce57806353fcc3be14620001ee57620000fe565b806301ffc9a714620001025780630a1f194f1462000138578063248a9ca31462000158575b5f80fd5b6200012060048036038101906200011a919062000b23565b62000320565b6040516200012f919062000b6f565b60405180910390f35b62000156600480360381019062000150919062000beb565b6200039c565b005b62000176600480360381019062000170919062000c53565b620003f8565b60405162000185919062000c94565b60405180910390f35b620001ac6004803603810190620001a6919062000caf565b62000414565b005b620001cc6004803603810190620001c6919062000caf565b6200043c565b005b620001ec6004803603810190620001e6919062000d2c565b620004bc565b005b6200020c600480360381019062000206919062000db0565b620005a3565b6040516200021b919062000e47565b60405180910390f35b6200024260048036038101906200023c919062000beb565b620005df565b005b6200024e6200063b565b6040516200025d919062000c94565b60405180910390f35b6200028460048036038101906200027e919062000fce565b6200065f565b005b620002a460048036038101906200029e919062000caf565b62000739565b604051620002b3919062000b6f565b60405180910390f35b620002c66200079c565b604051620002d5919062000c94565b60405180910390f35b620002fc6004803603810190620002f6919062000caf565b620007a2565b005b62000308620007ca565b60405162000317919062000c94565b60405180910390f35b5f7f7965db0b000000000000000000000000000000000000000000000000000000007bffffffffffffffffffffffffffffffffffffffffffffffffffffffff1916827bffffffffffffffffffffffffffffffffffffffffffffffffffffffff191614806200039557506200039482620007ee565b5b9050919050565b7fa49807205ce4d355092ef5a8a18f56e8913cf4a201fbe287825b095693c21775620003c88162000857565b620003f47ffacaf2747a7486cf5730e9265973fb54447d3ace6e7e4711f6360826b073194183620007a2565b5050565b5f805f8381526020019081526020015f20600101549050919050565b6200041f82620003f8565b6200042a8162000857565b6200043683836200086f565b50505050565b620004466200095e565b73ffffffffffffffffffffffffffffffffffffffff168173ffffffffffffffffffffffffffffffffffffffff1614620004ab576040517f6697b23200000000000000000000000000000000000000000000000000000000815260040160405180910390fd5b620004b7828262000965565b505050565b7ffacaf2747a7486cf5730e9265973fb54447d3ace6e7e4711f6360826b0731941620004e88162000857565b5f600187815481106200050057620004ff62001032565b5b905f5260205f20015f9054906101000a900473ffffffffffffffffffffffffffffffffffffffff1690508073ffffffffffffffffffffffffffffffffffffffff1663bb39a960878787876040518563ffffffff1660e01b81526004016200056b949392919062001094565b5f604051808303815f87803b15801562000583575f80fd5b505af115801562000596573d5f803e3d5ffd5b5050505050505050505050565b60018181548110620005b3575f80fd5b905f5260205f20015f915054906101000a900473ffffffffffffffffffffffffffffffffffffffff1681565b7fa49807205ce4d355092ef5a8a18f56e8913cf4a201fbe287825b095693c217756200060b8162000857565b620006377ffacaf2747a7486cf5730e9265973fb54447d3ace6e7e4711f6360826b07319418362000414565b5050565b7fa49807205ce4d355092ef5a8a18f56e8913cf4a201fbe287825b095693c2177581565b7fa49807205ce4d355092ef5a8a18f56e8913cf4a201fbe287825b095693c217756200068b8162000857565b5f308484620006996200095e565b604051620006a79062000aaa565b620006b69493929190620011b7565b604051809103905ff080158015620006d0573d5f803e3d5ffd5b509050600181908060018154018082558091505060019003905f5260205f20015f9091909190916101000a81548173ffffffffffffffffffffffffffffffffffffffff021916908373ffffffffffffffffffffffffffffffffffffffff16021790555050505050565b5f805f8481526020019081526020015f205f015f8373ffffffffffffffffffffffffffffffffffffffff1673ffffffffffffffffffffffffffffffffffffffff1681526020019081526020015f205f9054906101000a900460ff16905092915050565b5f801b81565b620007ad82620003f8565b620007b88162000857565b620007c4838362000965565b50505050565b7ffacaf2747a7486cf5730e9265973fb54447d3ace6e7e4711f6360826b073194181565b5f7f01ffc9a7000000000000000000000000000000000000000000000000000000007bffffffffffffffffffffffffffffffffffffffffffffffffffffffff1916827bffffffffffffffffffffffffffffffffffffffffffffffffffffffff1916149050919050565b6200086c81620008666200095e565b62000a54565b50565b5f6200087c838362000739565b620009545760015f808581526020019081526020015f205f015f8473ffffffffffffffffffffffffffffffffffffffff1673ffffffffffffffffffffffffffffffffffffffff1681526020019081526020015f205f6101000a81548160ff021916908315150217905550620008f06200095e565b73ffffffffffffffffffffffffffffffffffffffff168273ffffffffffffffffffffffffffffffffffffffff16847f2f8788117e7eff1d82e926ec794901d17c78024a50270940304540a733656f0d60405160405180910390a46001905062000958565b5f90505b92915050565b5f33905090565b5f62000972838362000739565b1562000a4a575f805f8581526020019081526020015f205f015f8473ffffffffffffffffffffffffffffffffffffffff1673ffffffffffffffffffffffffffffffffffffffff1681526020019081526020015f205f6101000a81548160ff021916908315150217905550620009e66200095e565b73ffffffffffffffffffffffffffffffffffffffff168273ffffffffffffffffffffffffffffffffffffffff16847ff6391f5c32d9c69d2a47ea670b442974b53935d1edc7fd64eb21e047a839171b60405160405180910390a46001905062000a4e565b5f90505b92915050565b62000a60828262000739565b62000aa65780826040517fe2517d3f00000000000000000000000000000000000000000000000000000000815260040162000a9d92919062001209565b60405180910390fd5b5050565b612395806200123583390190565b5f604051905090565b5f80fd5b5f80fd5b5f7fffffffff0000000000000000000000000000000000000000000000000000000082169050919050565b62000aff8162000ac9565b811462000b0a575f80fd5b50565b5f8135905062000b1d8162000af4565b92915050565b5f6020828403121562000b3b5762000b3a62000ac1565b5b5f62000b4a8482850162000b0d565b91505092915050565b5f8115159050919050565b62000b698162000b53565b82525050565b5f60208201905062000b845f83018462000b5e565b92915050565b5f73ffffffffffffffffffffffffffffffffffffffff82169050919050565b5f62000bb58262000b8a565b9050919050565b62000bc78162000ba9565b811462000bd2575f80fd5b50565b5f8135905062000be58162000bbc565b92915050565b5f6020828403121562000c035762000c0262000ac1565b5b5f62000c128482850162000bd5565b91505092915050565b5f819050919050565b62000c2f8162000c1b565b811462000c3a575f80fd5b50565b5f8135905062000c4d8162000c24565b92915050565b5f6020828403121562000c6b5762000c6a62000ac1565b5b5f62000c7a8482850162000c3d565b91505092915050565b62000c8e8162000c1b565b82525050565b5f60208201905062000ca95f83018462000c83565b92915050565b5f806040838503121562000cc85762000cc762000ac1565b5b5f62000cd78582860162000c3d565b925050602062000cea8582860162000bd5565b9150509250929050565b5f819050919050565b62000d088162000cf4565b811462000d13575f80fd5b50565b5f8135905062000d268162000cfd565b92915050565b5f805f805f60a0868803121562000d485762000d4762000ac1565b5b5f62000d578882890162000d16565b955050602062000d6a8882890162000bd5565b945050604062000d7d8882890162000d16565b935050606062000d908882890162000bd5565b925050608062000da38882890162000d16565b9150509295509295909350565b5f6020828403121562000dc85762000dc762000ac1565b5b5f62000dd78482850162000d16565b91505092915050565b5f819050919050565b5f62000e0962000e0362000dfd8462000b8a565b62000de0565b62000b8a565b9050919050565b5f62000e1c8262000de9565b9050919050565b5f62000e2f8262000e10565b9050919050565b62000e418162000e23565b82525050565b5f60208201905062000e5c5f83018462000e36565b92915050565b5f80fd5b5f601f19601f8301169050919050565b7f4e487b71000000000000000000000000000000000000000000000000000000005f52604160045260245ffd5b62000eae8262000e66565b810181811067ffffffffffffffff8211171562000ed05762000ecf62000e76565b5b80604052505050565b5f62000ee462000ab8565b905062000ef2828262000ea3565b919050565b5f67ffffffffffffffff82111562000f145762000f1362000e76565b5b602082029050602081019050919050565b5f80fd5b5f62000f3f62000f398462000ef7565b62000ed9565b9050808382526020820190506020840283018581111562000f655762000f6462000f25565b5b835b8181101562000f92578062000f7d888262000bd5565b84526020840193505060208101905062000f67565b5050509392505050565b5f82601f83011262000fb35762000fb262000e62565b5b813562000fc584826020860162000f29565b91505092915050565b5f806040838503121562000fe75762000fe662000ac1565b5b5f83013567ffffffffffffffff81111562001007576200100662000ac5565b5b620010158582860162000f9c565b9250506020620010288582860162000d16565b9150509250929050565b7f4e487b71000000000000000000000000000000000000000000000000000000005f52603260045260245ffd5b5f6200106b8262000e10565b9050919050565b6200107d816200105f565b82525050565b6200108e8162000cf4565b82525050565b5f608082019050620010a95f83018762001072565b620010b8602083018662001083565b620010c7604083018562001072565b620010d6606083018462001083565b95945050505050565b620010ea8162000ba9565b82525050565b5f81519050919050565b5f82825260208201905092915050565b5f819050602082019050919050565b620011248162000ba9565b82525050565b5f62001137838362001119565b60208301905092915050565b5f602082019050919050565b5f6200115b82620010f0565b620011678185620010fa565b935062001174836200110a565b805f5b83811015620011aa5781516200118e88826200112a565b97506200119b8362001143565b92505060018101905062001177565b5085935050505092915050565b5f608082019050620011cc5f830187620010df565b8181036020830152620011e081866200114f565b9050620011f1604083018562001083565b620012006060830184620010df565b95945050505050565b5f6040820190506200121e5f830185620010df565b6200122d602083018462000c83565b939250505056fe608060405234801562000010575f80fd5b50604051620023953803806200239583398181016040528101906200003691906200062f565b620000687fd1473398bb66596de5d1ea1fc8e303ff2ac23265adc9144b1b52065dc4f0934b856200017e60201b60201c565b6200007c5f801b826200017e60201b60201c565b620000ce7fd1473398bb66596de5d1ea1fc8e303ff2ac23265adc9144b1b52065dc4f0934b7fa49807205ce4d355092ef5a8a18f56e8913cf4a201fbe287825b095693c21775620001b860201b60201c565b5f5b835181101562000165576002848281518110620000f257620000f1620006bd565b5b6020026020010151908060018154018082558091505060019003905f5260205f20015f9091909190916101000a81548173ffffffffffffffffffffffffffffffffffffffff021916908373ffffffffffffffffffffffffffffffffffffffff1602179055508080600101915050620000d0565b50816007819055505f6008819055505050505062000740565b6200018f826200021860201b60201c565b620001a0816200023460201b60201c565b620001b283836200025860201b60201c565b50505050565b5f620001ca836200021860201b60201c565b9050815f808581526020019081526020015f20600101819055508181847fbd79b86ffe0ab8e8776151514217cd7cacd52c909f66475c3af44e129f0b00ff60405160405180910390a4505050565b5f805f8381526020019081526020015f20600101549050919050565b6200025581620002496200035360201b60201c565b6200035a60201b60201c565b50565b5f6200026b8383620003b660201b60201c565b620003495760015f808581526020019081526020015f205f015f8473ffffffffffffffffffffffffffffffffffffffff1673ffffffffffffffffffffffffffffffffffffffff1681526020019081526020015f205f6101000a81548160ff021916908315150217905550620002e56200035360201b60201c565b73ffffffffffffffffffffffffffffffffffffffff168273ffffffffffffffffffffffffffffffffffffffff16847f2f8788117e7eff1d82e926ec794901d17c78024a50270940304540a733656f0d60405160405180910390a4600190506200034d565b5f90505b92915050565b5f33905090565b6200036c8282620003b660201b60201c565b620003b25780826040517fe2517d3f000000000000000000000000000000000000000000000000000000008152600401620003a992919062000715565b60405180910390fd5b5050565b5f805f8481526020019081526020015f205f015f8373ffffffffffffffffffffffffffffffffffffffff1673ffffffffffffffffffffffffffffffffffffffff1681526020019081526020015f205f9054906101000a900460ff16905092915050565b5f604051905090565b5f80fd5b5f80fd5b5f73ffffffffffffffffffffffffffffffffffffffff82169050919050565b5f62000455826200042a565b9050919050565b620004678162000449565b811462000472575f80fd5b50565b5f8151905062000485816200045c565b92915050565b5f80fd5b5f601f19601f8301169050919050565b7f4e487b71000000000000000000000000000000000000000000000000000000005f52604160045260245ffd5b620004d7826200048f565b810181811067ffffffffffffffff82111715620004f957620004f86200049f565b5b80604052505050565b5f6200050d62000419565b90506200051b8282620004cc565b919050565b5f67ffffffffffffffff8211156200053d576200053c6200049f565b5b602082029050602081019050919050565b5f80fd5b5f62000568620005628462000520565b62000502565b905080838252602082019050602084028301858111156200058e576200058d6200054e565b5b835b81811015620005bb5780620005a6888262000475565b84526020840193505060208101905062000590565b5050509392505050565b5f82601f830112620005dc57620005db6200048b565b5b8151620005ee84826020860162000552565b91505092915050565b5f819050919050565b6200060b81620005f7565b811462000616575f80fd5b50565b5f81519050620006298162000600565b92915050565b5f805f80608085870312156200064a576200064962000422565b5b5f620006598782880162000475565b945050602085015167ffffffffffffffff8111156200067d576200067c62000426565b5b6200068b87828801620005c5565b93505060406200069e8782880162000619565b9250506060620006b18782880162000475565b91505092959194509250565b7f4e487b71000000000000000000000000000000000000000000000000000000005f52603260045260245ffd5b620006f58162000449565b82525050565b5f819050919050565b6200070f81620006fb565b82525050565b5f6040820190506200072a5f830185620006ea565b62000739602083018462000704565b9392505050565b611c47806200074e5f395ff3fe608060405234801561000f575f80fd5b5060043610610140575f3560e01c806390805c34116100b6578063bd998cb31161007a578063bd998cb314610360578063be3548361461037e578063c68dbb37146103ae578063d547741f146103de578063f3fef3a3146103fa578063f4457fab1461041657610140565b806390805c34146102bc57806391d14854146102d85780639e4a936914610308578063a217fddf14610326578063bb39a9601461034457610140565b806330e5065e1161010857806330e5065e146101fa57806336568abe1461022a57806347e7ef2414610246578063523820a1146102625780635e5a24a41461028057806375b238fc1461029e57610140565b806301ffc9a71461014457806306f34c2f146101745780630ba36dcd1461017e578063248a9ca3146101ae5780632f2ff15d146101de575b5f80fd5b61015e60048036038101906101599190611433565b610434565b60405161016b9190611478565b60405180910390f35b61017c6104ad565b005b610198600480360381019061019391906114eb565b610514565b6040516101a5919061152e565b60405180910390f35b6101c860048036038101906101c3919061157a565b61052e565b6040516101d591906115b4565b60405180910390f35b6101f860048036038101906101f391906115cd565b61054a565b005b610214600480360381019061020f91906114eb565b61056c565b604051610221919061152e565b60405180910390f35b610244600480360381019061023f91906115cd565b610581565b005b610260600480360381019061025b9190611635565b6105fc565b005b61026a61081d565b604051610277919061152e565b60405180910390f35b610288610823565b60405161029591906115b4565b60405180910390f35b6102a6610847565b6040516102b391906115b4565b60405180910390f35b6102d660048036038101906102d19190611673565b61086b565b005b6102f260048036038101906102ed91906115cd565b610915565b6040516102ff9190611478565b60405180910390f35b610310610978565b60405161031d919061152e565b60405180910390f35b61032e610a6b565b60405161033b91906115b4565b60405180910390f35b61035e600480360381019061035991906116ec565b610a71565b005b610368610ae6565b604051610375919061152e565b60405180910390f35b610398600480360381019061039391906114eb565b610aec565b6040516103a5919061152e565b60405180910390f35b6103c860048036038101906103c39190611750565b610b01565b6040516103d591906117d6565b60405180910390f35b6103f860048036038101906103f391906115cd565b610b3c565b005b610414600480360381019061040f9190611635565b610b5e565b005b61041e610f00565b60405161042b919061152e565b60405180910390f35b5f7f7965db0b000000000000000000000000000000000000000000000000000000007bffffffffffffffffffffffffffffffffffffffffffffffffffffffff1916827bffffffffffffffffffffffffffffffffffffffffffffffffffffffff191614806104a657506104a582610f06565b5b9050919050565b7fd1473398bb66596de5d1ea1fc8e303ff2ac23265adc9144b1b52065dc4f0934b6104d781610f6f565b5f6104e0610f83565b90505f811115610510575f6064600754836104fb919061181c565b610505919061188a565b905080600881905550505b5050565b6005602052805f5260405f205f91509050805f0154905081565b5f805f8381526020019081526020015f20600101549050919050565b6105538261052e565b61055c81610f6f565b6105668383610f87565b50505050565b6003602052805f5260405f205f915090505481565b610589611070565b73ffffffffffffffffffffffffffffffffffffffff168173ffffffffffffffffffffffffffffffffffffffff16146105ed576040517f6697b23200000000000000000000000000000000000000000000000000000000815260040160405180910390fd5b6105f78282611077565b505050565b61060582611160565b610644576040517f08c379a000000000000000000000000000000000000000000000000000000000815260040161063b90611914565b60405180910390fd5b8173ffffffffffffffffffffffffffffffffffffffff166323b872dd610668611070565b30846040518463ffffffff1660e01b815260040161068893929190611941565b6020604051808303815f875af11580156106a4573d5f803e3d5ffd5b505050506040513d601f19601f820116820180604052508101906106c891906119a0565b508060035f8473ffffffffffffffffffffffffffffffffffffffff1673ffffffffffffffffffffffffffffffffffffffff1681526020019081526020015f205f82825461071591906119cb565b925050819055506107268282611202565b60055f610731611070565b73ffffffffffffffffffffffffffffffffffffffff1673ffffffffffffffffffffffffffffffffffffffff1681526020019081526020015f205f015f82825461077a91906119cb565b925050819055508060055f61078d611070565b73ffffffffffffffffffffffffffffffffffffffff1673ffffffffffffffffffffffffffffffffffffffff1681526020019081526020015f206001015f8473ffffffffffffffffffffffffffffffffffffffff1673ffffffffffffffffffffffffffffffffffffffff1681526020019081526020015f205f82825461081291906119cb565b925050819055505050565b60085481565b7fd1473398bb66596de5d1ea1fc8e303ff2ac23265adc9144b1b52065dc4f0934b81565b7fa49807205ce4d355092ef5a8a18f56e8913cf4a201fbe287825b095693c2177581565b7fa49807205ce4d355092ef5a8a18f56e8913cf4a201fbe287825b095693c2177561089581610f6f565b8160045f8573ffffffffffffffffffffffffffffffffffffffff1673ffffffffffffffffffffffffffffffffffffffff1681526020019081526020015f205f6101000a81548173ffffffffffffffffffffffffffffffffffffffff021916908373ffffffffffffffffffffffffffffffffffffffff160217905550505050565b5f805f8481526020019081526020015f205f015f8373ffffffffffffffffffffffffffffffffffffffff1673ffffffffffffffffffffffffffffffffffffffff1681526020019081526020015f205f9054906101000a900460ff16905092915050565b5f805f90505f5b600280549050811015610a6357610a49600282815481106109a3576109a26119fe565b5b905f5260205f20015f9054906101000a900473ffffffffffffffffffffffffffffffffffffffff1660035f600285815481106109e2576109e16119fe565b5b905f5260205f20015f9054906101000a900473ffffffffffffffffffffffffffffffffffffffff1673ffffffffffffffffffffffffffffffffffffffff1673ffffffffffffffffffffffffffffffffffffffff1681526020019081526020015f2054611202565b82610a5491906119cb565b9150808060010191505061097f565b508091505090565b5f801b81565b7fd1473398bb66596de5d1ea1fc8e303ff2ac23265adc9144b1b52065dc4f0934b610a9b81610f6f565b5f610aa68484611202565b90505f610ab38787611202565b90505f8183610ac29190611a2b565b90508060095f828254610ad591906119cb565b925050819055505050505050505050565b60095481565b6006602052805f5260405f205f915090505481565b60028181548110610b10575f80fd5b905f5260205f20015f915054906101000a900473ffffffffffffffffffffffffffffffffffffffff1681565b610b458261052e565b610b4e81610f6f565b610b588383611077565b50505050565b8060055f610b6a611070565b73ffffffffffffffffffffffffffffffffffffffff1673ffffffffffffffffffffffffffffffffffffffff1681526020019081526020015f206001015f8473ffffffffffffffffffffffffffffffffffffffff1673ffffffffffffffffffffffffffffffffffffffff1681526020019081526020015f20541015610c23576040517f08c379a0000000000000000000000000000000000000000000000000000000008152600401610c1a90611aa8565b60405180910390fd5b8060055f610c2f611070565b73ffffffffffffffffffffffffffffffffffffffff1673ffffffffffffffffffffffffffffffffffffffff1681526020019081526020015f206001015f8473ffffffffffffffffffffffffffffffffffffffff1673ffffffffffffffffffffffffffffffffffffffff1681526020019081526020015f205f828254610cb49190611a2b565b925050819055508060035f8473ffffffffffffffffffffffffffffffffffffffff1673ffffffffffffffffffffffffffffffffffffffff1681526020019081526020015f205f828254610d079190611a2b565b925050819055508173ffffffffffffffffffffffffffffffffffffffff1663a9059cbb610d32611070565b836040518363ffffffff1660e01b8152600401610d50929190611ac6565b6020604051808303815f875af1158015610d6c573d5f803e3d5ffd5b505050506040513d601f19601f82011682018060405250810190610d9091906119a0565b505f610da2610d9d611070565b6112f2565b90508060065f610db0611070565b73ffffffffffffffffffffffffffffffffffffffff1673ffffffffffffffffffffffffffffffffffffffff1681526020019081526020015f205f828254610df791906119cb565b92505081905550610e088383611202565b60055f610e13611070565b73ffffffffffffffffffffffffffffffffffffffff1673ffffffffffffffffffffffffffffffffffffffff1681526020019081526020015f205f015f828254610e5c9190611a2b565b925050819055508160055f610e6f611070565b73ffffffffffffffffffffffffffffffffffffffff1673ffffffffffffffffffffffffffffffffffffffff1681526020019081526020015f206001015f8573ffffffffffffffffffffffffffffffffffffffff1673ffffffffffffffffffffffffffffffffffffffff1681526020019081526020015f205f828254610ef49190611a2b565b92505081905550505050565b60075481565b5f7f01ffc9a7000000000000000000000000000000000000000000000000000000007bffffffffffffffffffffffffffffffffffffffffffffffffffffffff1916827bffffffffffffffffffffffffffffffffffffffffffffffffffffffff1916149050919050565b610f8081610f7b611070565b611389565b50565b5f90565b5f610f928383610915565b6110665760015f808581526020019081526020015f205f015f8473ffffffffffffffffffffffffffffffffffffffff1673ffffffffffffffffffffffffffffffffffffffff1681526020019081526020015f205f6101000a81548160ff021916908315150217905550611003611070565b73ffffffffffffffffffffffffffffffffffffffff168273ffffffffffffffffffffffffffffffffffffffff16847f2f8788117e7eff1d82e926ec794901d17c78024a50270940304540a733656f0d60405160405180910390a46001905061106a565b5f90505b92915050565b5f33905090565b5f6110828383610915565b15611156575f805f8581526020019081526020015f205f015f8473ffffffffffffffffffffffffffffffffffffffff1673ffffffffffffffffffffffffffffffffffffffff1681526020019081526020015f205f6101000a81548160ff0219169083151502179055506110f3611070565b73ffffffffffffffffffffffffffffffffffffffff168273ffffffffffffffffffffffffffffffffffffffff16847ff6391f5c32d9c69d2a47ea670b442974b53935d1edc7fd64eb21e047a839171b60405160405180910390a46001905061115a565b5f90505b92915050565b5f805f90505b6002805490508110156111f8578273ffffffffffffffffffffffffffffffffffffffff166002828154811061119e5761119d6119fe565b5b905f5260205f20015f9054906101000a900473ffffffffffffffffffffffffffffffffffffffff1673ffffffffffffffffffffffffffffffffffffffff16036111eb5760019150506111fd565b8080600101915050611166565b505f90505b919050565b5f8060045f8573ffffffffffffffffffffffffffffffffffffffff1673ffffffffffffffffffffffffffffffffffffffff1681526020019081526020015f205f9054906101000a900473ffffffffffffffffffffffffffffffffffffffff1690505f8173ffffffffffffffffffffffffffffffffffffffff1663feaf968c6040518163ffffffff1660e01b815260040160a060405180830381865afa1580156112ad573d5f803e3d5ffd5b505050506040513d601f19601f820116820180604052508101906112d19190611b73565b5050509150505f84826112e4919061181c565b905080935050505092915050565b5f806112fc610978565b670de0b6b3a764000060055f8673ffffffffffffffffffffffffffffffffffffffff1673ffffffffffffffffffffffffffffffffffffffff1681526020019081526020015f205f015461134f919061181c565b611359919061188a565b90505f670de0b6b3a764000082600954611373919061181c565b61137d919061188a565b90508092505050919050565b6113938282610915565b6113d65780826040517fe2517d3f0000000000000000000000000000000000000000000000000000000081526004016113cd929190611bea565b60405180910390fd5b5050565b5f80fd5b5f7fffffffff0000000000000000000000000000000000000000000000000000000082169050919050565b611412816113de565b811461141c575f80fd5b50565b5f8135905061142d81611409565b92915050565b5f60208284031215611448576114476113da565b5b5f6114558482850161141f565b91505092915050565b5f8115159050919050565b6114728161145e565b82525050565b5f60208201905061148b5f830184611469565b92915050565b5f73ffffffffffffffffffffffffffffffffffffffff82169050919050565b5f6114ba82611491565b9050919050565b6114ca816114b0565b81146114d4575f80fd5b50565b5f813590506114e5816114c1565b92915050565b5f60208284031215611500576114ff6113da565b5b5f61150d848285016114d7565b91505092915050565b5f819050919050565b61152881611516565b82525050565b5f6020820190506115415f83018461151f565b92915050565b5f819050919050565b61155981611547565b8114611563575f80fd5b50565b5f8135905061157481611550565b92915050565b5f6020828403121561158f5761158e6113da565b5b5f61159c84828501611566565b91505092915050565b6115ae81611547565b82525050565b5f6020820190506115c75f8301846115a5565b92915050565b5f80604083850312156115e3576115e26113da565b5b5f6115f085828601611566565b9250506020611601858286016114d7565b9150509250929050565b61161481611516565b811461161e575f80fd5b50565b5f8135905061162f8161160b565b92915050565b5f806040838503121561164b5761164a6113da565b5b5f611658858286016114d7565b925050602061166985828601611621565b9150509250929050565b5f8060408385031215611689576116886113da565b5b5f611696858286016114d7565b92505060206116a7858286016114d7565b9150509250929050565b5f6116bb826114b0565b9050919050565b6116cb816116b1565b81146116d5575f80fd5b50565b5f813590506116e6816116c2565b92915050565b5f805f8060808587031215611704576117036113da565b5b5f611711878288016116d8565b945050602061172287828801611621565b9350506040611733878288016116d8565b925050606061174487828801611621565b91505092959194509250565b5f60208284031215611765576117646113da565b5b5f61177284828501611621565b91505092915050565b5f819050919050565b5f61179e61179961179484611491565b61177b565b611491565b9050919050565b5f6117af82611784565b9050919050565b5f6117c0826117a5565b9050919050565b6117d0816117b6565b82525050565b5f6020820190506117e95f8301846117c7565b92915050565b7f4e487b71000000000000000000000000000000000000000000000000000000005f52601160045260245ffd5b5f61182682611516565b915061183183611516565b925082820261183f81611516565b91508282048414831517611856576118556117ef565b5b5092915050565b7f4e487b71000000000000000000000000000000000000000000000000000000005f52601260045260245ffd5b5f61189482611516565b915061189f83611516565b9250826118af576118ae61185d565b5b828204905092915050565b5f82825260208201905092915050565b7f4173736574206e6f7420737570706f72746564000000000000000000000000005f82015250565b5f6118fe6013836118ba565b9150611909826118ca565b602082019050919050565b5f6020820190508181035f83015261192b816118f2565b9050919050565b61193b816114b0565b82525050565b5f6060820190506119545f830186611932565b6119616020830185611932565b61196e604083018461151f565b949350505050565b61197f8161145e565b8114611989575f80fd5b50565b5f8151905061199a81611976565b92915050565b5f602082840312156119b5576119b46113da565b5b5f6119c28482850161198c565b91505092915050565b5f6119d582611516565b91506119e083611516565b92508282019050808211156119f8576119f76117ef565b5b92915050565b7f4e487b71000000000000000000000000000000000000000000000000000000005f52603260045260245ffd5b5f611a3582611516565b9150611a4083611516565b9250828203905081811115611a5857611a576117ef565b5b92915050565b7f496e73756666696369656e742062616c616e63650000000000000000000000005f82015250565b5f611a926014836118ba565b9150611a9d82611a5e565b602082019050919050565b5f6020820190508181035f830152611abf81611a86565b9050919050565b5f604082019050611ad95f830185611932565b611ae6602083018461151f565b9392505050565b5f69ffffffffffffffffffff82169050919050565b611b0b81611aed565b8114611b15575f80fd5b50565b5f81519050611b2681611b02565b92915050565b5f819050919050565b611b3e81611b2c565b8114611b48575f80fd5b50565b5f81519050611b5981611b35565b92915050565b5f81519050611b6d8161160b565b92915050565b5f805f805f60a08688031215611b8c57611b8b6113da565b5b5f611b9988828901611b18565b9550506020611baa88828901611b4b565b9450506040611bbb88828901611b5f565b9350506060611bcc88828901611b5f565b9250506080611bdd88828901611b18565b9150509295509295909350565b5f604082019050611bfd5f830185611932565b611c0a60208301846115a5565b939250505056fea264697066735822122064a6fc8b96eabaf17f56a114cbd289490cad0b7b5e65dbf30c3508408c66373564736f6c63430008170033a2646970667358221220aa9a986ff73f3c8f197fbe58c22b60bca7221504feba4c9dbc2ae58e73dfbb6e64736f6c63430008170033",
			"opcodes": "PUSH1 0x80 PUSH1 0x40 MSTORE CALLVALUE DUP1 ISZERO PUSH3 0x10 JUMPI PUSH0 DUP1 REVERT JUMPDEST POP PUSH3 0x34 PUSH0 DUP1 SHL PUSH3 0x28 PUSH3 0x8C PUSH1 0x20 SHL PUSH1 0x20 SHR JUMP JUMPDEST PUSH3 0x93 PUSH1 0x20 SHL PUSH1 0x20 SHR JUMP JUMPDEST PUSH3 0x86 PUSH32 0xFACAF2747A7486CF5730E9265973FB54447D3ACE6E7E4711F6360826B0731941 PUSH32 0xA49807205CE4D355092EF5A8A18F56E8913CF4A201FBE287825B095693C21775 PUSH3 0xCD PUSH1 0x20 SHL PUSH1 0x20 SHR JUMP JUMPDEST PUSH3 0x3AF JUMP JUMPDEST PUSH0 CALLER SWAP1 POP SWAP1 JUMP JUMPDEST PUSH3 0xA4 DUP3 PUSH3 0x12D PUSH1 0x20 SHL PUSH1 0x20 SHR JUMP JUMPDEST PUSH3 0xB5 DUP2 PUSH3 0x149 PUSH1 0x20 SHL PUSH1 0x20 SHR JUMP JUMPDEST PUSH3 0xC7 DUP4 DUP4 PUSH3 0x16D PUSH1 0x20 SHL PUSH1 0x20 SHR JUMP JUMPDEST POP POP POP POP JUMP JUMPDEST PUSH0 PUSH3 0xDF DUP4 PUSH3 0x12D PUSH1 0x20 SHL PUSH1 0x20 SHR JUMP JUMPDEST SWAP1 POP DUP2 PUSH0 DUP1 DUP6 DUP2 MSTORE PUSH1 0x20 ADD SWAP1 DUP2 MSTORE PUSH1 0x20 ADD PUSH0 KECCAK256 PUSH1 0x1 ADD DUP2 SWAP1 SSTORE POP DUP2 DUP2 DUP5 PUSH32 0xBD79B86FFE0AB8E8776151514217CD7CACD52C909F66475C3AF44E129F0B00FF PUSH1 0x40 MLOAD PUSH1 0x40 MLOAD DUP1 SWAP2 SUB SWAP1 LOG4 POP POP POP JUMP JUMPDEST PUSH0 DUP1 PUSH0 DUP4 DUP2 MSTORE PUSH1 0x20 ADD SWAP1 DUP2 MSTORE PUSH1 0x20 ADD PUSH0 KECCAK256 PUSH1 0x1 ADD SLOAD SWAP1 POP SWAP2 SWAP1 POP JUMP JUMPDEST PUSH3 0x16A DUP2 PUSH3 0x15E PUSH3 0x8C PUSH1 0x20 SHL PUSH1 0x20 SHR JUMP JUMPDEST PUSH3 0x268 PUSH1 0x20 SHL PUSH1 0x20 SHR JUMP JUMPDEST POP JUMP JUMPDEST PUSH0 PUSH3 0x180 DUP4 DUP4 PUSH3 0x2C4 PUSH1 0x20 SHL PUSH1 0x20 SHR JUMP JUMPDEST PUSH3 0x25E JUMPI PUSH1 0x1 PUSH0 DUP1 DUP6 DUP2 MSTORE PUSH1 0x20 ADD SWAP1 DUP2 MSTORE PUSH1 0x20 ADD PUSH0 KECCAK256 PUSH0 ADD PUSH0 DUP5 PUSH20 0xFFFFFFFFFFFFFFFFFFFFFFFFFFFFFFFFFFFFFFFF AND PUSH20 0xFFFFFFFFFFFFFFFFFFFFFFFFFFFFFFFFFFFFFFFF AND DUP2 MSTORE PUSH1 0x20 ADD SWAP1 DUP2 MSTORE PUSH1 0x20 ADD PUSH0 KECCAK256 PUSH0 PUSH2 0x100 EXP DUP2 SLOAD DUP2 PUSH1 0xFF MUL NOT AND SWAP1 DUP4 ISZERO ISZERO MUL OR SWAP1 SSTORE POP PUSH3 0x1FA PUSH3 0x8C PUSH1 0x20 SHL PUSH1 0x20 SHR JUMP JUMPDEST PUSH20 0xFFFFFFFFFFFFFFFFFFFFFFFFFFFFFFFFFFFFFFFF AND DUP3 PUSH20 0xFFFFFFFFFFFFFFFFFFFFFFFFFFFFFFFFFFFFFFFF AND DUP5 PUSH32 0x2F8788117E7EFF1D82E926EC794901D17C78024A50270940304540A733656F0D PUSH1 0x40 MLOAD PUSH1 0x40 MLOAD DUP1 SWAP2 SUB SWAP1 LOG4 PUSH1 0x1 SWAP1 POP PUSH3 0x262 JUMP JUMPDEST PUSH0 SWAP1 POP JUMPDEST SWAP3 SWAP2 POP POP JUMP JUMPDEST PUSH3 0x27A DUP3 DUP3 PUSH3 0x2C4 PUSH1 0x20 SHL PUSH1 0x20 SHR JUMP JUMPDEST PUSH3 0x2C0 JUMPI DUP1 DUP3 PUSH1 0x40 MLOAD PUSH32 0xE2517D3F00000000000000000000000000000000000000000000000000000000 DUP2 MSTORE PUSH1 0x4 ADD PUSH3 0x2B7 SWAP3 SWAP2 SWAP1 PUSH3 0x384 JUMP JUMPDEST PUSH1 0x40 MLOAD DUP1 SWAP2 SUB SWAP1 REVERT JUMPDEST POP POP JUMP JUMPDEST PUSH0 DUP1 PUSH0 DUP5 DUP2 MSTORE PUSH1 0x20 ADD SWAP1 DUP2 MSTORE PUSH1 0x20 ADD PUSH0 KECCAK256 PUSH0 ADD PUSH0 DUP4 PUSH20 0xFFFFFFFFFFFFFFFFFFFFFFFFFFFFFFFFFFFFFFFF AND PUSH20 0xFFFFFFFFFFFFFFFFFFFFFFFFFFFFFFFFFFFFFFFF AND DUP2 MSTORE PUSH1 0x20 ADD SWAP1 DUP2 MSTORE PUSH1 0x20 ADD PUSH0 KECCAK256 PUSH0 SWAP1 SLOAD SWAP1 PUSH2 0x100 EXP SWAP1 DIV PUSH1 0xFF AND SWAP1 POP SWAP3 SWAP2 POP POP JUMP JUMPDEST PUSH0 PUSH20 0xFFFFFFFFFFFFFFFFFFFFFFFFFFFFFFFFFFFFFFFF DUP3 AND SWAP1 POP SWAP2 SWAP1 POP JUMP JUMPDEST PUSH0 PUSH3 0x352 DUP3 PUSH3 0x327 JUMP JUMPDEST SWAP1 POP SWAP2 SWAP1 POP JUMP JUMPDEST PUSH3 0x364 DUP2 PUSH3 0x346 JUMP JUMPDEST DUP3 MSTORE POP POP JUMP JUMPDEST PUSH0 DUP2 SWAP1 POP SWAP2 SWAP1 POP JUMP JUMPDEST PUSH3 0x37E DUP2 PUSH3 0x36A JUMP JUMPDEST DUP3 MSTORE POP POP JUMP JUMPDEST PUSH0 PUSH1 0x40 DUP3 ADD SWAP1 POP PUSH3 0x399 PUSH0 DUP4 ADD DUP6 PUSH3 0x359 JUMP JUMPDEST PUSH3 0x3A8 PUSH1 0x20 DUP4 ADD DUP5 PUSH3 0x373 JUMP JUMPDEST SWAP4 SWAP3 POP POP POP JUMP JUMPDEST PUSH2 0x35FF DUP1 PUSH3 0x3BD PUSH0 CODECOPY PUSH0 RETURN INVALID PUSH1 0x80 PUSH1 0x40 MSTORE CALLVALUE DUP1 ISZERO PUSH3 0x10 JUMPI PUSH0 DUP1 REVERT JUMPDEST POP PUSH1 0x4 CALLDATASIZE LT PUSH3 0xFE JUMPI PUSH0 CALLDATALOAD PUSH1 0xE0 SHR DUP1 PUSH4 0x5D428E08 GT PUSH3 0x97 JUMPI DUP1 PUSH4 0x91D14854 GT PUSH3 0x6D JUMPI DUP1 PUSH4 0x91D14854 EQ PUSH3 0x286 JUMPI DUP1 PUSH4 0xA217FDDF EQ PUSH3 0x2BC JUMPI DUP1 PUSH4 0xD547741F EQ PUSH3 0x2DE JUMPI DUP1 PUSH4 0xF0A56FC8 EQ PUSH3 0x2FE JUMPI PUSH3 0xFE JUMP JUMPDEST DUP1 PUSH4 0x5D428E08 EQ PUSH3 0x224 JUMPI DUP1 PUSH4 0x75B238FC EQ PUSH3 0x244 JUMPI DUP1 PUSH4 0x82520648 EQ PUSH3 0x266 JUMPI PUSH3 0xFE JUMP JUMPDEST DUP1 PUSH4 0x2F2FF15D GT PUSH3 0xD9 JUMPI DUP1 PUSH4 0x2F2FF15D EQ PUSH3 0x18E JUMPI DUP1 PUSH4 0x36568ABE EQ PUSH3 0x1AE JUMPI DUP1 PUSH4 0x404A3D61 EQ PUSH3 0x1CE JUMPI DUP1 PUSH4 0x53FCC3BE EQ PUSH3 0x1EE JUMPI PUSH3 0xFE JUMP JUMPDEST DUP1 PUSH4 0x1FFC9A7 EQ PUSH3 0x102 JUMPI DUP1 PUSH4 0xA1F194F EQ PUSH3 0x138 JUMPI DUP1 PUSH4 0x248A9CA3 EQ PUSH3 0x158 JUMPI JUMPDEST PUSH0 DUP1 REVERT JUMPDEST PUSH3 0x120 PUSH1 0x4 DUP1 CALLDATASIZE SUB DUP2 ADD SWAP1 PUSH3 0x11A SWAP2 SWAP1 PUSH3 0xB23 JUMP JUMPDEST PUSH3 0x320 JUMP JUMPDEST PUSH1 0x40 MLOAD PUSH3 0x12F SWAP2 SWAP1 PUSH3 0xB6F JUMP JUMPDEST PUSH1 0x40 MLOAD DUP1 SWAP2 SUB SWAP1 RETURN JUMPDEST PUSH3 0x156 PUSH1 0x4 DUP1 CALLDATASIZE SUB DUP2 ADD SWAP1 PUSH3 0x150 SWAP2 SWAP1 PUSH3 0xBEB JUMP JUMPDEST PUSH3 0x39C JUMP JUMPDEST STOP JUMPDEST PUSH3 0x176 PUSH1 0x4 DUP1 CALLDATASIZE SUB DUP2 ADD SWAP1 PUSH3 0x170 SWAP2 SWAP1 PUSH3 0xC53 JUMP JUMPDEST PUSH3 0x3F8 JUMP JUMPDEST PUSH1 0x40 MLOAD PUSH3 0x185 SWAP2 SWAP1 PUSH3 0xC94 JUMP JUMPDEST PUSH1 0x40 MLOAD DUP1 SWAP2 SUB SWAP1 RETURN JUMPDEST PUSH3 0x1AC PUSH1 0x4 DUP1 CALLDATASIZE SUB DUP2 ADD SWAP1 PUSH3 0x1A6 SWAP2 SWAP1 PUSH3 0xCAF JUMP JUMPDEST PUSH3 0x414 JUMP JUMPDEST STOP JUMPDEST PUSH3 0x1CC PUSH1 0x4 DUP1 CALLDATASIZE SUB DUP2 ADD SWAP1 PUSH3 0x1C6 SWAP2 SWAP1 PUSH3 0xCAF JUMP JUMPDEST PUSH3 0x43C JUMP JUMPDEST STOP JUMPDEST PUSH3 0x1EC PUSH1 0x4 DUP1 CALLDATASIZE SUB DUP2 ADD SWAP1 PUSH3 0x1E6 SWAP2 SWAP1 PUSH3 0xD2C JUMP JUMPDEST PUSH3 0x4BC JUMP JUMPDEST STOP JUMPDEST PUSH3 0x20C PUSH1 0x4 DUP1 CALLDATASIZE SUB DUP2 ADD SWAP1 PUSH3 0x206 SWAP2 SWAP1 PUSH3 0xDB0 JUMP JUMPDEST PUSH3 0x5A3 JUMP JUMPDEST PUSH1 0x40 MLOAD PUSH3 0x21B SWAP2 SWAP1 PUSH3 0xE47 JUMP JUMPDEST PUSH1 0x40 MLOAD DUP1 SWAP2 SUB SWAP1 RETURN JUMPDEST PUSH3 0x242 PUSH1 0x4 DUP1 CALLDATASIZE SUB DUP2 ADD SWAP1 PUSH3 0x23C SWAP2 SWAP1 PUSH3 0xBEB JUMP JUMPDEST PUSH3 0x5DF JUMP JUMPDEST STOP JUMPDEST PUSH3 0x24E PUSH3 0x63B JUMP JUMPDEST PUSH1 0x40 MLOAD PUSH3 0x25D SWAP2 SWAP1 PUSH3 0xC94 JUMP JUMPDEST PUSH1 0x40 MLOAD DUP1 SWAP2 SUB SWAP1 RETURN JUMPDEST PUSH3 0x284 PUSH1 0x4 DUP1 CALLDATASIZE SUB DUP2 ADD SWAP1 PUSH3 0x27E SWAP2 SWAP1 PUSH3 0xFCE JUMP JUMPDEST PUSH3 0x65F JUMP JUMPDEST STOP JUMPDEST PUSH3 0x2A4 PUSH1 0x4 DUP1 CALLDATASIZE SUB DUP2 ADD SWAP1 PUSH3 0x29E SWAP2 SWAP1 PUSH3 0xCAF JUMP JUMPDEST PUSH3 0x739 JUMP JUMPDEST PUSH1 0x40 MLOAD PUSH3 0x2B3 SWAP2 SWAP1 PUSH3 0xB6F JUMP JUMPDEST PUSH1 0x40 MLOAD DUP1 SWAP2 SUB SWAP1 RETURN JUMPDEST PUSH3 0x2C6 PUSH3 0x79C JUMP JUMPDEST PUSH1 0x40 MLOAD PUSH3 0x2D5 SWAP2 SWAP1 PUSH3 0xC94 JUMP JUMPDEST PUSH1 0x40 MLOAD DUP1 SWAP2 SUB SWAP1 RETURN JUMPDEST PUSH3 0x2FC PUSH1 0x4 DUP1 CALLDATASIZE SUB DUP2 ADD SWAP1 PUSH3 0x2F6 SWAP2 SWAP1 PUSH3 0xCAF JUMP JUMPDEST PUSH3 0x7A2 JUMP JUMPDEST STOP JUMPDEST PUSH3 0x308 PUSH3 0x7CA JUMP JUMPDEST PUSH1 0x40 MLOAD PUSH3 0x317 SWAP2 SWAP1 PUSH3 0xC94 JUMP JUMPDEST PUSH1 0x40 MLOAD DUP1 SWAP2 SUB SWAP1 RETURN JUMPDEST PUSH0 PUSH32 0x7965DB0B00000000000000000000000000000000000000000000000000000000 PUSH28 0xFFFFFFFFFFFFFFFFFFFFFFFFFFFFFFFFFFFFFFFFFFFFFFFFFFFFFFFF NOT AND DUP3 PUSH28 0xFFFFFFFFFFFFFFFFFFFFFFFFFFFFFFFFFFFFFFFFFFFFFFFFFFFFFFFF NOT AND EQ DUP1 PUSH3 0x395 JUMPI POP PUSH3 0x394 DUP3 PUSH3 0x7EE JUMP JUMPDEST JUMPDEST SWAP1 POP SWAP2 SWAP1 POP JUMP JUMPDEST PUSH32 0xA49807205CE4D355092EF5A8A18F56E8913CF4A201FBE287825B095693C21775 PUSH3 0x3C8 DUP2 PUSH3 0x857 JUMP JUMPDEST PUSH3 0x3F4 PUSH32 0xFACAF2747A7486CF5730E9265973FB54447D3ACE6E7E4711F6360826B0731941 DUP4 PUSH3 0x7A2 JUMP JUMPDEST POP POP JUMP JUMPDEST PUSH0 DUP1 PUSH0 DUP4 DUP2 MSTORE PUSH1 0x20 ADD SWAP1 DUP2 MSTORE PUSH1 0x20 ADD PUSH0 KECCAK256 PUSH1 0x1 ADD SLOAD SWAP1 POP SWAP2 SWAP1 POP JUMP JUMPDEST PUSH3 0x41F DUP3 PUSH3 0x3F8 JUMP JUMPDEST PUSH3 0x42A DUP2 PUSH3 0x857 JUMP JUMPDEST PUSH3 0x436 DUP4 DUP4 PUSH3 0x86F JUMP JUMPDEST POP POP POP POP JUMP JUMPDEST PUSH3 0x446 PUSH3 0x95E JUMP JUMPDEST PUSH20 0xFFFFFFFFFFFFFFFFFFFFFFFFFFFFFFFFFFFFFFFF AND DUP2 PUSH20 0xFFFFFFFFFFFFFFFFFFFFFFFFFFFFFFFFFFFFFFFF AND EQ PUSH3 0x4AB JUMPI PUSH1 0x40 MLOAD PUSH32 0x6697B23200000000000000000000000000000000000000000000000000000000 DUP2 MSTORE PUSH1 0x4 ADD PUSH1 0x40 MLOAD DUP1 SWAP2 SUB SWAP1 REVERT JUMPDEST PUSH3 0x4B7 DUP3 DUP3 PUSH3 0x965 JUMP JUMPDEST POP POP POP JUMP JUMPDEST PUSH32 0xFACAF2747A7486CF5730E9265973FB54447D3ACE6E7E4711F6360826B0731941 PUSH3 0x4E8 DUP2 PUSH3 0x857 JUMP JUMPDEST PUSH0 PUSH1 0x1 DUP8 DUP2 SLOAD DUP2 LT PUSH3 0x500 JUMPI PUSH3 0x4FF PUSH3 0x1032 JUMP JUMPDEST JUMPDEST SWAP1 PUSH0 MSTORE PUSH1 0x20 PUSH0 KECCAK256 ADD PUSH0 SWAP1 SLOAD SWAP1 PUSH2 0x100 EXP SWAP1 DIV PUSH20 0xFFFFFFFFFFFFFFFFFFFFFFFFFFFFFFFFFFFFFFFF AND SWAP1 POP DUP1 PUSH20 0xFFFFFFFFFFFFFFFFFFFFFFFFFFFFFFFFFFFFFFFF AND PUSH4 0xBB39A960 DUP8 DUP8 DUP8 DUP8 PUSH1 0x40 MLOAD DUP6 PUSH4 0xFFFFFFFF AND PUSH1 0xE0 SHL DUP2 MSTORE PUSH1 0x4 ADD PUSH3 0x56B SWAP5 SWAP4 SWAP3 SWAP2 SWAP1 PUSH3 0x1094 JUMP JUMPDEST PUSH0 PUSH1 0x40 MLOAD DUP1 DUP4 SUB DUP2 PUSH0 DUP8 DUP1 EXTCODESIZE ISZERO DUP1 ISZERO PUSH3 0x583 JUMPI PUSH0 DUP1 REVERT JUMPDEST POP GAS CALL ISZERO DUP1 ISZERO PUSH3 0x596 JUMPI RETURNDATASIZE PUSH0 DUP1 RETURNDATACOPY RETURNDATASIZE PUSH0 REVERT JUMPDEST POP POP POP POP POP POP POP POP POP POP POP JUMP JUMPDEST PUSH1 0x1 DUP2 DUP2 SLOAD DUP2 LT PUSH3 0x5B3 JUMPI PUSH0 DUP1 REVERT JUMPDEST SWAP1 PUSH0 MSTORE PUSH1 0x20 PUSH0 KECCAK256 ADD PUSH0 SWAP2 POP SLOAD SWAP1 PUSH2 0x100 EXP SWAP1 DIV PUSH20 0xFFFFFFFFFFFFFFFFFFFFFFFFFFFFFFFFFFFFFFFF AND DUP2 JUMP JUMPDEST PUSH32 0xA49807205CE4D355092EF5A8A18F56E8913CF4A201FBE287825B095693C21775 PUSH3 0x60B DUP2 PUSH3 0x857 JUMP JUMPDEST PUSH3 0x637 PUSH32 0xFACAF2747A7486CF5730E9265973FB54447D3ACE6E7E4711F6360826B0731941 DUP4 PUSH3 0x414 JUMP JUMPDEST POP POP JUMP JUMPDEST PUSH32 0xA49807205CE4D355092EF5A8A18F56E8913CF4A201FBE287825B095693C21775 DUP2 JUMP JUMPDEST PUSH32 0xA49807205CE4D355092EF5A8A18F56E8913CF4A201FBE287825B095693C21775 PUSH3 0x68B DUP2 PUSH3 0x857 JUMP JUMPDEST PUSH0 ADDRESS DUP5 DUP5 PUSH3 0x699 PUSH3 0x95E JUMP JUMPDEST PUSH1 0x40 MLOAD PUSH3 0x6A7 SWAP1 PUSH3 0xAAA JUMP JUMPDEST PUSH3 0x6B6 SWAP5 SWAP4 SWAP3 SWAP2 SWAP1 PUSH3 0x11B7 JUMP JUMPDEST PUSH1 0x40 MLOAD DUP1 SWAP2 SUB SWAP1 PUSH0 CREATE DUP1 ISZERO DUP1 ISZERO PUSH3 0x6D0 JUMPI RETURNDATASIZE PUSH0 DUP1 RETURNDATACOPY RETURNDATASIZE PUSH0 REVERT JUMPDEST POP SWAP1 POP PUSH1 0x1 DUP2 SWAP1 DUP1 PUSH1 0x1 DUP2 SLOAD ADD DUP1 DUP3 SSTORE DUP1 SWAP2 POP POP PUSH1 0x1 SWAP1 SUB SWAP1 PUSH0 MSTORE PUSH1 0x20 PUSH0 KECCAK256 ADD PUSH0 SWAP1 SWAP2 SWAP1 SWAP2 SWAP1 SWAP2 PUSH2 0x100 EXP DUP2 SLOAD DUP2 PUSH20 0xFFFFFFFFFFFFFFFFFFFFFFFFFFFFFFFFFFFFFFFF MUL NOT AND SWAP1 DUP4 PUSH20 0xFFFFFFFFFFFFFFFFFFFFFFFFFFFFFFFFFFFFFFFF AND MUL OR SWAP1 SSTORE POP POP POP POP POP JUMP JUMPDEST PUSH0 DUP1 PUSH0 DUP5 DUP2 MSTORE PUSH1 0x20 ADD SWAP1 DUP2 MSTORE PUSH1 0x20 ADD PUSH0 KECCAK256 PUSH0 ADD PUSH0 DUP4 PUSH20 0xFFFFFFFFFFFFFFFFFFFFFFFFFFFFFFFFFFFFFFFF AND PUSH20 0xFFFFFFFFFFFFFFFFFFFFFFFFFFFFFFFFFFFFFFFF AND DUP2 MSTORE PUSH1 0x20 ADD SWAP1 DUP2 MSTORE PUSH1 0x20 ADD PUSH0 KECCAK256 PUSH0 SWAP1 SLOAD SWAP1 PUSH2 0x100 EXP SWAP1 DIV PUSH1 0xFF AND SWAP1 POP SWAP3 SWAP2 POP POP JUMP JUMPDEST PUSH0 DUP1 SHL DUP2 JUMP JUMPDEST PUSH3 0x7AD DUP3 PUSH3 0x3F8 JUMP JUMPDEST PUSH3 0x7B8 DUP2 PUSH3 0x857 JUMP JUMPDEST PUSH3 0x7C4 DUP4 DUP4 PUSH3 0x965 JUMP JUMPDEST POP POP POP POP JUMP JUMPDEST PUSH32 0xFACAF2747A7486CF5730E9265973FB54447D3ACE6E7E4711F6360826B0731941 DUP2 JUMP JUMPDEST PUSH0 PUSH32 0x1FFC9A700000000000000000000000000000000000000000000000000000000 PUSH28 0xFFFFFFFFFFFFFFFFFFFFFFFFFFFFFFFFFFFFFFFFFFFFFFFFFFFFFFFF NOT AND DUP3 PUSH28 0xFFFFFFFFFFFFFFFFFFFFFFFFFFFFFFFFFFFFFFFFFFFFFFFFFFFFFFFF NOT AND EQ SWAP1 POP SWAP2 SWAP1 POP JUMP JUMPDEST PUSH3 0x86C DUP2 PUSH3 0x866 PUSH3 0x95E JUMP JUMPDEST PUSH3 0xA54 JUMP JUMPDEST POP JUMP JUMPDEST PUSH0 PUSH3 0x87C DUP4 DUP4 PUSH3 0x739 JUMP JUMPDEST PUSH3 0x954 JUMPI PUSH1 0x1 PUSH0 DUP1 DUP6 DUP2 MSTORE PUSH1 0x20 ADD SWAP1 DUP2 MSTORE PUSH1 0x20 ADD PUSH0 KECCAK256 PUSH0 ADD PUSH0 DUP5 PUSH20 0xFFFFFFFFFFFFFFFFFFFFFFFFFFFFFFFFFFFFFFFF AND PUSH20 0xFFFFFFFFFFFFFFFFFFFFFFFFFFFFFFFFFFFFFFFF AND DUP2 MSTORE PUSH1 0x20 ADD SWAP1 DUP2 MSTORE PUSH1 0x20 ADD PUSH0 KECCAK256 PUSH0 PUSH2 0x100 EXP DUP2 SLOAD DUP2 PUSH1 0xFF MUL NOT AND SWAP1 DUP4 ISZERO ISZERO MUL OR SWAP1 SSTORE POP PUSH3 0x8F0 PUSH3 0x95E JUMP JUMPDEST PUSH20 0xFFFFFFFFFFFFFFFFFFFFFFFFFFFFFFFFFFFFFFFF AND DUP3 PUSH20 0xFFFFFFFFFFFFFFFFFFFFFFFFFFFFFFFFFFFFFFFF AND DUP5 PUSH32 0x2F8788117E7EFF1D82E926EC794901D17C78024A50270940304540A733656F0D PUSH1 0x40 MLOAD PUSH1 0x40 MLOAD DUP1 SWAP2 SUB SWAP1 LOG4 PUSH1 0x1 SWAP1 POP PUSH3 0x958 JUMP JUMPDEST PUSH0 SWAP1 POP JUMPDEST SWAP3 SWAP2 POP POP JUMP JUMPDEST PUSH0 CALLER SWAP1 POP SWAP1 JUMP JUMPDEST PUSH0 PUSH3 0x972 DUP4 DUP4 PUSH3 0x739 JUMP JUMPDEST ISZERO PUSH3 0xA4A JUMPI PUSH0 DUP1 PUSH0 DUP6 DUP2 MSTORE PUSH1 0x20 ADD SWAP1 DUP2 MSTORE PUSH1 0x20 ADD PUSH0 KECCAK256 PUSH0 ADD PUSH0 DUP5 PUSH20 0xFFFFFFFFFFFFFFFFFFFFFFFFFFFFFFFFFFFFFFFF AND PUSH20 0xFFFFFFFFFFFFFFFFFFFFFFFFFFFFFFFFFFFFFFFF AND DUP2 MSTORE PUSH1 0x20 ADD SWAP1 DUP2 MSTORE PUSH1 0x20 ADD PUSH0 KECCAK256 PUSH0 PUSH2 0x100 EXP DUP2 SLOAD DUP2 PUSH1 0xFF MUL NOT AND SWAP1 DUP4 ISZERO ISZERO MUL OR SWAP1 SSTORE POP PUSH3 0x9E6 PUSH3 0x95E JUMP JUMPDEST PUSH20 0xFFFFFFFFFFFFFFFFFFFFFFFFFFFFFFFFFFFFFFFF AND DUP3 PUSH20 0xFFFFFFFFFFFFFFFFFFFFFFFFFFFFFFFFFFFFFFFF AND DUP5 PUSH32 0xF6391F5C32D9C69D2A47EA670B442974B53935D1EDC7FD64EB21E047A839171B PUSH1 0x40 MLOAD PUSH1 0x40 MLOAD DUP1 SWAP2 SUB SWAP1 LOG4 PUSH1 0x1 SWAP1 POP PUSH3 0xA4E JUMP JUMPDEST PUSH0 SWAP1 POP JUMPDEST SWAP3 SWAP2 POP POP JUMP JUMPDEST PUSH3 0xA60 DUP3 DUP3 PUSH3 0x739 JUMP JUMPDEST PUSH3 0xAA6 JUMPI DUP1 DUP3 PUSH1 0x40 MLOAD PUSH32 0xE2517D3F00000000000000000000000000000000000000000000000000000000 DUP2 MSTORE PUSH1 0x4 ADD PUSH3 0xA9D SWAP3 SWAP2 SWAP1 PUSH3 0x1209 JUMP JUMPDEST PUSH1 0x40 MLOAD DUP1 SWAP2 SUB SWAP1 REVERT JUMPDEST POP POP JUMP JUMPDEST PUSH2 0x2395 DUP1 PUSH3 0x1235 DUP4 CODECOPY ADD SWAP1 JUMP JUMPDEST PUSH0 PUSH1 0x40 MLOAD SWAP1 POP SWAP1 JUMP JUMPDEST PUSH0 DUP1 REVERT JUMPDEST PUSH0 DUP1 REVERT JUMPDEST PUSH0 PUSH32 0xFFFFFFFF00000000000000000000000000000000000000000000000000000000 DUP3 AND SWAP1 POP SWAP2 SWAP1 POP JUMP JUMPDEST PUSH3 0xAFF DUP2 PUSH3 0xAC9 JUMP JUMPDEST DUP2 EQ PUSH3 0xB0A JUMPI PUSH0 DUP1 REVERT JUMPDEST POP JUMP JUMPDEST PUSH0 DUP2 CALLDATALOAD SWAP1 POP PUSH3 0xB1D DUP2 PUSH3 0xAF4 JUMP JUMPDEST SWAP3 SWAP2 POP POP JUMP JUMPDEST PUSH0 PUSH1 0x20 DUP3 DUP5 SUB SLT ISZERO PUSH3 0xB3B JUMPI PUSH3 0xB3A PUSH3 0xAC1 JUMP JUMPDEST JUMPDEST PUSH0 PUSH3 0xB4A DUP5 DUP3 DUP6 ADD PUSH3 0xB0D JUMP JUMPDEST SWAP2 POP POP SWAP3 SWAP2 POP POP JUMP JUMPDEST PUSH0 DUP2 ISZERO ISZERO SWAP1 POP SWAP2 SWAP1 POP JUMP JUMPDEST PUSH3 0xB69 DUP2 PUSH3 0xB53 JUMP JUMPDEST DUP3 MSTORE POP POP JUMP JUMPDEST PUSH0 PUSH1 0x20 DUP3 ADD SWAP1 POP PUSH3 0xB84 PUSH0 DUP4 ADD DUP5 PUSH3 0xB5E JUMP JUMPDEST SWAP3 SWAP2 POP POP JUMP JUMPDEST PUSH0 PUSH20 0xFFFFFFFFFFFFFFFFFFFFFFFFFFFFFFFFFFFFFFFF DUP3 AND SWAP1 POP SWAP2 SWAP1 POP JUMP JUMPDEST PUSH0 PUSH3 0xBB5 DUP3 PUSH3 0xB8A JUMP JUMPDEST SWAP1 POP SWAP2 SWAP1 POP JUMP JUMPDEST PUSH3 0xBC7 DUP2 PUSH3 0xBA9 JUMP JUMPDEST DUP2 EQ PUSH3 0xBD2 JUMPI PUSH0 DUP1 REVERT JUMPDEST POP JUMP JUMPDEST PUSH0 DUP2 CALLDATALOAD SWAP1 POP PUSH3 0xBE5 DUP2 PUSH3 0xBBC JUMP JUMPDEST SWAP3 SWAP2 POP POP JUMP JUMPDEST PUSH0 PUSH1 0x20 DUP3 DUP5 SUB SLT ISZERO PUSH3 0xC03 JUMPI PUSH3 0xC02 PUSH3 0xAC1 JUMP JUMPDEST JUMPDEST PUSH0 PUSH3 0xC12 DUP5 DUP3 DUP6 ADD PUSH3 0xBD5 JUMP JUMPDEST SWAP2 POP POP SWAP3 SWAP2 POP POP JUMP JUMPDEST PUSH0 DUP2 SWAP1 POP SWAP2 SWAP1 POP JUMP JUMPDEST PUSH3 0xC2F DUP2 PUSH3 0xC1B JUMP JUMPDEST DUP2 EQ PUSH3 0xC3A JUMPI PUSH0 DUP1 REVERT JUMPDEST POP JUMP JUMPDEST PUSH0 DUP2 CALLDATALOAD SWAP1 POP PUSH3 0xC4D DUP2 PUSH3 0xC24 JUMP JUMPDEST SWAP3 SWAP2 POP POP JUMP JUMPDEST PUSH0 PUSH1 0x20 DUP3 DUP5 SUB SLT ISZERO PUSH3 0xC6B JUMPI PUSH3 0xC6A PUSH3 0xAC1 JUMP JUMPDEST JUMPDEST PUSH0 PUSH3 0xC7A DUP5 DUP3 DUP6 ADD PUSH3 0xC3D JUMP JUMPDEST SWAP2 POP POP SWAP3 SWAP2 POP POP JUMP JUMPDEST PUSH3 0xC8E DUP2 PUSH3 0xC1B JUMP JUMPDEST DUP3 MSTORE POP POP JUMP JUMPDEST PUSH0 PUSH1 0x20 DUP3 ADD SWAP1 POP PUSH3 0xCA9 PUSH0 DUP4 ADD DUP5 PUSH3 0xC83 JUMP JUMPDEST SWAP3 SWAP2 POP POP JUMP JUMPDEST PUSH0 DUP1 PUSH1 0x40 DUP4 DUP6 SUB SLT ISZERO PUSH3 0xCC8 JUMPI PUSH3 0xCC7 PUSH3 0xAC1 JUMP JUMPDEST JUMPDEST PUSH0 PUSH3 0xCD7 DUP6 DUP3 DUP7 ADD PUSH3 0xC3D JUMP JUMPDEST SWAP3 POP POP PUSH1 0x20 PUSH3 0xCEA DUP6 DUP3 DUP7 ADD PUSH3 0xBD5 JUMP JUMPDEST SWAP2 POP POP SWAP3 POP SWAP3 SWAP1 POP JUMP JUMPDEST PUSH0 DUP2 SWAP1 POP SWAP2 SWAP1 POP JUMP JUMPDEST PUSH3 0xD08 DUP2 PUSH3 0xCF4 JUMP JUMPDEST DUP2 EQ PUSH3 0xD13 JUMPI PUSH0 DUP1 REVERT JUMPDEST POP JUMP JUMPDEST PUSH0 DUP2 CALLDATALOAD SWAP1 POP PUSH3 0xD26 DUP2 PUSH3 0xCFD JUMP JUMPDEST SWAP3 SWAP2 POP POP JUMP JUMPDEST PUSH0 DUP1 PUSH0 DUP1 PUSH0 PUSH1 0xA0 DUP7 DUP9 SUB SLT ISZERO PUSH3 0xD48 JUMPI PUSH3 0xD47 PUSH3 0xAC1 JUMP JUMPDEST JUMPDEST PUSH0 PUSH3 0xD57 DUP9 DUP3 DUP10 ADD PUSH3 0xD16 JUMP JUMPDEST SWAP6 POP POP PUSH1 0x20 PUSH3 0xD6A DUP9 DUP3 DUP10 ADD PUSH3 0xBD5 JUMP JUMPDEST SWAP5 POP POP PUSH1 0x40 PUSH3 0xD7D DUP9 DUP3 DUP10 ADD PUSH3 0xD16 JUMP JUMPDEST SWAP4 POP POP PUSH1 0x60 PUSH3 0xD90 DUP9 DUP3 DUP10 ADD PUSH3 0xBD5 JUMP JUMPDEST SWAP3 POP POP PUSH1 0x80 PUSH3 0xDA3 DUP9 DUP3 DUP10 ADD PUSH3 0xD16 JUMP JUMPDEST SWAP2 POP POP SWAP3 SWAP6 POP SWAP3 SWAP6 SWAP1 SWAP4 POP JUMP JUMPDEST PUSH0 PUSH1 0x20 DUP3 DUP5 SUB SLT ISZERO PUSH3 0xDC8 JUMPI PUSH3 0xDC7 PUSH3 0xAC1 JUMP JUMPDEST JUMPDEST PUSH0 PUSH3 0xDD7 DUP5 DUP3 DUP6 ADD PUSH3 0xD16 JUMP JUMPDEST SWAP2 POP POP SWAP3 SWAP2 POP POP JUMP JUMPDEST PUSH0 DUP2 SWAP1 POP SWAP2 SWAP1 POP JUMP JUMPDEST PUSH0 PUSH3 0xE09 PUSH3 0xE03 PUSH3 0xDFD DUP5 PUSH3 0xB8A JUMP JUMPDEST PUSH3 0xDE0 JUMP JUMPDEST PUSH3 0xB8A JUMP JUMPDEST SWAP1 POP SWAP2 SWAP1 POP JUMP JUMPDEST PUSH0 PUSH3 0xE1C DUP3 PUSH3 0xDE9 JUMP JUMPDEST SWAP1 POP SWAP2 SWAP1 POP JUMP JUMPDEST PUSH0 PUSH3 0xE2F DUP3 PUSH3 0xE10 JUMP JUMPDEST SWAP1 POP SWAP2 SWAP1 POP JUMP JUMPDEST PUSH3 0xE41 DUP2 PUSH3 0xE23 JUMP JUMPDEST DUP3 MSTORE POP POP JUMP JUMPDEST PUSH0 PUSH1 0x20 DUP3 ADD SWAP1 POP PUSH3 0xE5C PUSH0 DUP4 ADD DUP5 PUSH3 0xE36 JUMP JUMPDEST SWAP3 SWAP2 POP POP JUMP JUMPDEST PUSH0 DUP1 REVERT JUMPDEST PUSH0 PUSH1 0x1F NOT PUSH1 0x1F DUP4 ADD AND SWAP1 POP SWAP2 SWAP1 POP JUMP JUMPDEST PUSH32 0x4E487B7100000000000000000000000000000000000000000000000000000000 PUSH0 MSTORE PUSH1 0x41 PUSH1 0x4 MSTORE PUSH1 0x24 PUSH0 REVERT JUMPDEST PUSH3 0xEAE DUP3 PUSH3 0xE66 JUMP JUMPDEST DUP2 ADD DUP2 DUP2 LT PUSH8 0xFFFFFFFFFFFFFFFF DUP3 GT OR ISZERO PUSH3 0xED0 JUMPI PUSH3 0xECF PUSH3 0xE76 JUMP JUMPDEST JUMPDEST DUP1 PUSH1 0x40 MSTORE POP POP POP JUMP JUMPDEST PUSH0 PUSH3 0xEE4 PUSH3 0xAB8 JUMP JUMPDEST SWAP1 POP PUSH3 0xEF2 DUP3 DUP3 PUSH3 0xEA3 JUMP JUMPDEST SWAP2 SWAP1 POP JUMP JUMPDEST PUSH0 PUSH8 0xFFFFFFFFFFFFFFFF DUP3 GT ISZERO PUSH3 0xF14 JUMPI PUSH3 0xF13 PUSH3 0xE76 JUMP JUMPDEST JUMPDEST PUSH1 0x20 DUP3 MUL SWAP1 POP PUSH1 0x20 DUP2 ADD SWAP1 POP SWAP2 SWAP1 POP JUMP JUMPDEST PUSH0 DUP1 REVERT JUMPDEST PUSH0 PUSH3 0xF3F PUSH3 0xF39 DUP5 PUSH3 0xEF7 JUMP JUMPDEST PUSH3 0xED9 JUMP JUMPDEST SWAP1 POP DUP1 DUP4 DUP3 MSTORE PUSH1 0x20 DUP3 ADD SWAP1 POP PUSH1 0x20 DUP5 MUL DUP4 ADD DUP6 DUP2 GT ISZERO PUSH3 0xF65 JUMPI PUSH3 0xF64 PUSH3 0xF25 JUMP JUMPDEST JUMPDEST DUP4 JUMPDEST DUP2 DUP2 LT ISZERO PUSH3 0xF92 JUMPI DUP1 PUSH3 0xF7D DUP9 DUP3 PUSH3 0xBD5 JUMP JUMPDEST DUP5 MSTORE PUSH1 0x20 DUP5 ADD SWAP4 POP POP PUSH1 0x20 DUP2 ADD SWAP1 POP PUSH3 0xF67 JUMP JUMPDEST POP POP POP SWAP4 SWAP3 POP POP POP JUMP JUMPDEST PUSH0 DUP3 PUSH1 0x1F DUP4 ADD SLT PUSH3 0xFB3 JUMPI PUSH3 0xFB2 PUSH3 0xE62 JUMP JUMPDEST JUMPDEST DUP2 CALLDATALOAD PUSH3 0xFC5 DUP5 DUP3 PUSH1 0x20 DUP7 ADD PUSH3 0xF29 JUMP JUMPDEST SWAP2 POP POP SWAP3 SWAP2 POP POP JUMP JUMPDEST PUSH0 DUP1 PUSH1 0x40 DUP4 DUP6 SUB SLT ISZERO PUSH3 0xFE7 JUMPI PUSH3 0xFE6 PUSH3 0xAC1 JUMP JUMPDEST JUMPDEST PUSH0 DUP4 ADD CALLDATALOAD PUSH8 0xFFFFFFFFFFFFFFFF DUP2 GT ISZERO PUSH3 0x1007 JUMPI PUSH3 0x1006 PUSH3 0xAC5 JUMP JUMPDEST JUMPDEST PUSH3 0x1015 DUP6 DUP3 DUP7 ADD PUSH3 0xF9C JUMP JUMPDEST SWAP3 POP POP PUSH1 0x20 PUSH3 0x1028 DUP6 DUP3 DUP7 ADD PUSH3 0xD16 JUMP JUMPDEST SWAP2 POP POP SWAP3 POP SWAP3 SWAP1 POP JUMP JUMPDEST PUSH32 0x4E487B7100000000000000000000000000000000000000000000000000000000 PUSH0 MSTORE PUSH1 0x32 PUSH1 0x4 MSTORE PUSH1 0x24 PUSH0 REVERT JUMPDEST PUSH0 PUSH3 0x106B DUP3 PUSH3 0xE10 JUMP JUMPDEST SWAP1 POP SWAP2 SWAP1 POP JUMP JUMPDEST PUSH3 0x107D DUP2 PUSH3 0x105F JUMP JUMPDEST DUP3 MSTORE POP POP JUMP JUMPDEST PUSH3 0x108E DUP2 PUSH3 0xCF4 JUMP JUMPDEST DUP3 MSTORE POP POP JUMP JUMPDEST PUSH0 PUSH1 0x80 DUP3 ADD SWAP1 POP PUSH3 0x10A9 PUSH0 DUP4 ADD DUP8 PUSH3 0x1072 JUMP JUMPDEST PUSH3 0x10B8 PUSH1 0x20 DUP4 ADD DUP7 PUSH3 0x1083 JUMP JUMPDEST PUSH3 0x10C7 PUSH1 0x40 DUP4 ADD DUP6 PUSH3 0x1072 JUMP JUMPDEST PUSH3 0x10D6 PUSH1 0x60 DUP4 ADD DUP5 PUSH3 0x1083 JUMP JUMPDEST SWAP6 SWAP5 POP POP POP POP POP JUMP JUMPDEST PUSH3 0x10EA DUP2 PUSH3 0xBA9 JUMP JUMPDEST DUP3 MSTORE POP POP JUMP JUMPDEST PUSH0 DUP2 MLOAD SWAP1 POP SWAP2 SWAP1 POP JUMP JUMPDEST PUSH0 DUP3 DUP3 MSTORE PUSH1 0x20 DUP3 ADD SWAP1 POP SWAP3 SWAP2 POP POP JUMP JUMPDEST PUSH0 DUP2 SWAP1 POP PUSH1 0x20 DUP3 ADD SWAP1 POP SWAP2 SWAP1 POP JUMP JUMPDEST PUSH3 0x1124 DUP2 PUSH3 0xBA9 JUMP JUMPDEST DUP3 MSTORE POP POP JUMP JUMPDEST PUSH0 PUSH3 0x1137 DUP4 DUP4 PUSH3 0x1119 JUMP JUMPDEST PUSH1 0x20 DUP4 ADD SWAP1 POP SWAP3 SWAP2 POP POP JUMP JUMPDEST PUSH0 PUSH1 0x20 DUP3 ADD SWAP1 POP SWAP2 SWAP1 POP JUMP JUMPDEST PUSH0 PUSH3 0x115B DUP3 PUSH3 0x10F0 JUMP JUMPDEST PUSH3 0x1167 DUP2 DUP6 PUSH3 0x10FA JUMP JUMPDEST SWAP4 POP PUSH3 0x1174 DUP4 PUSH3 0x110A JUMP JUMPDEST DUP1 PUSH0 JUMPDEST DUP4 DUP2 LT ISZERO PUSH3 0x11AA JUMPI DUP2 MLOAD PUSH3 0x118E DUP9 DUP3 PUSH3 0x112A JUMP JUMPDEST SWAP8 POP PUSH3 0x119B DUP4 PUSH3 0x1143 JUMP JUMPDEST SWAP3 POP POP PUSH1 0x1 DUP2 ADD SWAP1 POP PUSH3 0x1177 JUMP JUMPDEST POP DUP6 SWAP4 POP POP POP POP SWAP3 SWAP2 POP POP JUMP JUMPDEST PUSH0 PUSH1 0x80 DUP3 ADD SWAP1 POP PUSH3 0x11CC PUSH0 DUP4 ADD DUP8 PUSH3 0x10DF JUMP JUMPDEST DUP2 DUP2 SUB PUSH1 0x20 DUP4 ADD MSTORE PUSH3 0x11E0 DUP2 DUP7 PUSH3 0x114F JUMP JUMPDEST SWAP1 POP PUSH3 0x11F1 PUSH1 0x40 DUP4 ADD DUP6 PUSH3 0x1083 JUMP JUMPDEST PUSH3 0x1200 PUSH1 0x60 DUP4 ADD DUP5 PUSH3 0x10DF JUMP JUMPDEST SWAP6 SWAP5 POP POP POP POP POP JUMP JUMPDEST PUSH0 PUSH1 0x40 DUP3 ADD SWAP1 POP PUSH3 0x121E PUSH0 DUP4 ADD DUP6 PUSH3 0x10DF JUMP JUMPDEST PUSH3 0x122D PUSH1 0x20 DUP4 ADD DUP5 PUSH3 0xC83 JUMP JUMPDEST SWAP4 SWAP3 POP POP POP JUMP INVALID PUSH1 0x80 PUSH1 0x40 MSTORE CALLVALUE DUP1 ISZERO PUSH3 0x10 JUMPI PUSH0 DUP1 REVERT JUMPDEST POP PUSH1 0x40 MLOAD PUSH3 0x2395 CODESIZE SUB DUP1 PUSH3 0x2395 DUP4 CODECOPY DUP2 DUP2 ADD PUSH1 0x40 MSTORE DUP2 ADD SWAP1 PUSH3 0x36 SWAP2 SWAP1 PUSH3 0x62F JUMP JUMPDEST PUSH3 0x68 PUSH32 0xD1473398BB66596DE5D1EA1FC8E303FF2AC23265ADC9144B1B52065DC4F0934B DUP6 PUSH3 0x17E PUSH1 0x20 SHL PUSH1 0x20 SHR JUMP JUMPDEST PUSH3 0x7C PUSH0 DUP1 SHL DUP3 PUSH3 0x17E PUSH1 0x20 SHL PUSH1 0x20 SHR JUMP JUMPDEST PUSH3 0xCE PUSH32 0xD1473398BB66596DE5D1EA1FC8E303FF2AC23265ADC9144B1B52065DC4F0934B PUSH32 0xA49807205CE4D355092EF5A8A18F56E8913CF4A201FBE287825B095693C21775 PUSH3 0x1B8 PUSH1 0x20 SHL PUSH1 0x20 SHR JUMP JUMPDEST PUSH0 JUMPDEST DUP4 MLOAD DUP2 LT ISZERO PUSH3 0x165 JUMPI PUSH1 0x2 DUP5 DUP3 DUP2 MLOAD DUP2 LT PUSH3 0xF2 JUMPI PUSH3 0xF1 PUSH3 0x6BD JUMP JUMPDEST JUMPDEST PUSH1 0x20 MUL PUSH1 0x20 ADD ADD MLOAD SWAP1 DUP1 PUSH1 0x1 DUP2 SLOAD ADD DUP1 DUP3 SSTORE DUP1 SWAP2 POP POP PUSH1 0x1 SWAP1 SUB SWAP1 PUSH0 MSTORE PUSH1 0x20 PUSH0 KECCAK256 ADD PUSH0 SWAP1 SWAP2 SWAP1 SWAP2 SWAP1 SWAP2 PUSH2 0x100 EXP DUP2 SLOAD DUP2 PUSH20 0xFFFFFFFFFFFFFFFFFFFFFFFFFFFFFFFFFFFFFFFF MUL NOT AND SWAP1 DUP4 PUSH20 0xFFFFFFFFFFFFFFFFFFFFFFFFFFFFFFFFFFFFFFFF AND MUL OR SWAP1 SSTORE POP DUP1 DUP1 PUSH1 0x1 ADD SWAP2 POP POP PUSH3 0xD0 JUMP JUMPDEST POP DUP2 PUSH1 0x7 DUP2 SWAP1 SSTORE POP PUSH0 PUSH1 0x8 DUP2 SWAP1 SSTORE POP POP POP POP POP PUSH3 0x740 JUMP JUMPDEST PUSH3 0x18F DUP3 PUSH3 0x218 PUSH1 0x20 SHL PUSH1 0x20 SHR JUMP JUMPDEST PUSH3 0x1A0 DUP2 PUSH3 0x234 PUSH1 0x20 SHL PUSH1 0x20 SHR JUMP JUMPDEST PUSH3 0x1B2 DUP4 DUP4 PUSH3 0x258 PUSH1 0x20 SHL PUSH1 0x20 SHR JUMP JUMPDEST POP POP POP POP JUMP JUMPDEST PUSH0 PUSH3 0x1CA DUP4 PUSH3 0x218 PUSH1 0x20 SHL PUSH1 0x20 SHR JUMP JUMPDEST SWAP1 POP DUP2 PUSH0 DUP1 DUP6 DUP2 MSTORE PUSH1 0x20 ADD SWAP1 DUP2 MSTORE PUSH1 0x20 ADD PUSH0 KECCAK256 PUSH1 0x1 ADD DUP2 SWAP1 SSTORE POP DUP2 DUP2 DUP5 PUSH32 0xBD79B86FFE0AB8E8776151514217CD7CACD52C909F66475C3AF44E129F0B00FF PUSH1 0x40 MLOAD PUSH1 0x40 MLOAD DUP1 SWAP2 SUB SWAP1 LOG4 POP POP POP JUMP JUMPDEST PUSH0 DUP1 PUSH0 DUP4 DUP2 MSTORE PUSH1 0x20 ADD SWAP1 DUP2 MSTORE PUSH1 0x20 ADD PUSH0 KECCAK256 PUSH1 0x1 ADD SLOAD SWAP1 POP SWAP2 SWAP1 POP JUMP JUMPDEST PUSH3 0x255 DUP2 PUSH3 0x249 PUSH3 0x353 PUSH1 0x20 SHL PUSH1 0x20 SHR JUMP JUMPDEST PUSH3 0x35A PUSH1 0x20 SHL PUSH1 0x20 SHR JUMP JUMPDEST POP JUMP JUMPDEST PUSH0 PUSH3 0x26B DUP4 DUP4 PUSH3 0x3B6 PUSH1 0x20 SHL PUSH1 0x20 SHR JUMP JUMPDEST PUSH3 0x349 JUMPI PUSH1 0x1 PUSH0 DUP1 DUP6 DUP2 MSTORE PUSH1 0x20 ADD SWAP1 DUP2 MSTORE PUSH1 0x20 ADD PUSH0 KECCAK256 PUSH0 ADD PUSH0 DUP5 PUSH20 0xFFFFFFFFFFFFFFFFFFFFFFFFFFFFFFFFFFFFFFFF AND PUSH20 0xFFFFFFFFFFFFFFFFFFFFFFFFFFFFFFFFFFFFFFFF AND DUP2 MSTORE PUSH1 0x20 ADD SWAP1 DUP2 MSTORE PUSH1 0x20 ADD PUSH0 KECCAK256 PUSH0 PUSH2 0x100 EXP DUP2 SLOAD DUP2 PUSH1 0xFF MUL NOT AND SWAP1 DUP4 ISZERO ISZERO MUL OR SWAP1 SSTORE POP PUSH3 0x2E5 PUSH3 0x353 PUSH1 0x20 SHL PUSH1 0x20 SHR JUMP JUMPDEST PUSH20 0xFFFFFFFFFFFFFFFFFFFFFFFFFFFFFFFFFFFFFFFF AND DUP3 PUSH20 0xFFFFFFFFFFFFFFFFFFFFFFFFFFFFFFFFFFFFFFFF AND DUP5 PUSH32 0x2F8788117E7EFF1D82E926EC794901D17C78024A50270940304540A733656F0D PUSH1 0x40 MLOAD PUSH1 0x40 MLOAD DUP1 SWAP2 SUB SWAP1 LOG4 PUSH1 0x1 SWAP1 POP PUSH3 0x34D JUMP JUMPDEST PUSH0 SWAP1 POP JUMPDEST SWAP3 SWAP2 POP POP JUMP JUMPDEST PUSH0 CALLER SWAP1 POP SWAP1 JUMP JUMPDEST PUSH3 0x36C DUP3 DUP3 PUSH3 0x3B6 PUSH1 0x20 SHL PUSH1 0x20 SHR JUMP JUMPDEST PUSH3 0x3B2 JUMPI DUP1 DUP3 PUSH1 0x40 MLOAD PUSH32 0xE2517D3F00000000000000000000000000000000000000000000000000000000 DUP2 MSTORE PUSH1 0x4 ADD PUSH3 0x3A9 SWAP3 SWAP2 SWAP1 PUSH3 0x715 JUMP JUMPDEST PUSH1 0x40 MLOAD DUP1 SWAP2 SUB SWAP1 REVERT JUMPDEST POP POP JUMP JUMPDEST PUSH0 DUP1 PUSH0 DUP5 DUP2 MSTORE PUSH1 0x20 ADD SWAP1 DUP2 MSTORE PUSH1 0x20 ADD PUSH0 KECCAK256 PUSH0 ADD PUSH0 DUP4 PUSH20 0xFFFFFFFFFFFFFFFFFFFFFFFFFFFFFFFFFFFFFFFF AND PUSH20 0xFFFFFFFFFFFFFFFFFFFFFFFFFFFFFFFFFFFFFFFF AND DUP2 MSTORE PUSH1 0x20 ADD SWAP1 DUP2 MSTORE PUSH1 0x20 ADD PUSH0 KECCAK256 PUSH0 SWAP1 SLOAD SWAP1 PUSH2 0x100 EXP SWAP1 DIV PUSH1 0xFF AND SWAP1 POP SWAP3 SWAP2 POP POP JUMP JUMPDEST PUSH0 PUSH1 0x40 MLOAD SWAP1 POP SWAP1 JUMP JUMPDEST PUSH0 DUP1 REVERT JUMPDEST PUSH0 DUP1 REVERT JUMPDEST PUSH0 PUSH20 0xFFFFFFFFFFFFFFFFFFFFFFFFFFFFFFFFFFFFFFFF DUP3 AND SWAP1 POP SWAP2 SWAP1 POP JUMP JUMPDEST PUSH0 PUSH3 0x455 DUP3 PUSH3 0x42A JUMP JUMPDEST SWAP1 POP SWAP2 SWAP1 POP JUMP JUMPDEST PUSH3 0x467 DUP2 PUSH3 0x449 JUMP JUMPDEST DUP2 EQ PUSH3 0x472 JUMPI PUSH0 DUP1 REVERT JUMPDEST POP JUMP JUMPDEST PUSH0 DUP2 MLOAD SWAP1 POP PUSH3 0x485 DUP2 PUSH3 0x45C JUMP JUMPDEST SWAP3 SWAP2 POP POP JUMP JUMPDEST PUSH0 DUP1 REVERT JUMPDEST PUSH0 PUSH1 0x1F NOT PUSH1 0x1F DUP4 ADD AND SWAP1 POP SWAP2 SWAP1 POP JUMP JUMPDEST PUSH32 0x4E487B7100000000000000000000000000000000000000000000000000000000 PUSH0 MSTORE PUSH1 0x41 PUSH1 0x4 MSTORE PUSH1 0x24 PUSH0 REVERT JUMPDEST PUSH3 0x4D7 DUP3 PUSH3 0x48F JUMP JUMPDEST DUP2 ADD DUP2 DUP2 LT PUSH8 0xFFFFFFFFFFFFFFFF DUP3 GT OR ISZERO PUSH3 0x4F9 JUMPI PUSH3 0x4F8 PUSH3 0x49F JUMP JUMPDEST JUMPDEST DUP1 PUSH1 0x40 MSTORE POP POP POP JUMP JUMPDEST PUSH0 PUSH3 0x50D PUSH3 0x419 JUMP JUMPDEST SWAP1 POP PUSH3 0x51B DUP3 DUP3 PUSH3 0x4CC JUMP JUMPDEST SWAP2 SWAP1 POP JUMP JUMPDEST PUSH0 PUSH8 0xFFFFFFFFFFFFFFFF DUP3 GT ISZERO PUSH3 0x53D JUMPI PUSH3 0x53C PUSH3 0x49F JUMP JUMPDEST JUMPDEST PUSH1 0x20 DUP3 MUL SWAP1 POP PUSH1 0x20 DUP2 ADD SWAP1 POP SWAP2 SWAP1 POP JUMP JUMPDEST PUSH0 DUP1 REVERT JUMPDEST PUSH0 PUSH3 0x568 PUSH3 0x562 DUP5 PUSH3 0x520 JUMP JUMPDEST PUSH3 0x502 JUMP JUMPDEST SWAP1 POP DUP1 DUP4 DUP3 MSTORE PUSH1 0x20 DUP3 ADD SWAP1 POP PUSH1 0x20 DUP5 MUL DUP4 ADD DUP6 DUP2 GT ISZERO PUSH3 0x58E JUMPI PUSH3 0x58D PUSH3 0x54E JUMP JUMPDEST JUMPDEST DUP4 JUMPDEST DUP2 DUP2 LT ISZERO PUSH3 0x5BB JUMPI DUP1 PUSH3 0x5A6 DUP9 DUP3 PUSH3 0x475 JUMP JUMPDEST DUP5 MSTORE PUSH1 0x20 DUP5 ADD SWAP4 POP POP PUSH1 0x20 DUP2 ADD SWAP1 POP PUSH3 0x590 JUMP JUMPDEST POP POP POP SWAP4 SWAP3 POP POP POP JUMP JUMPDEST PUSH0 DUP3 PUSH1 0x1F DUP4 ADD SLT PUSH3 0x5DC JUMPI PUSH3 0x5DB PUSH3 0x48B JUMP JUMPDEST JUMPDEST DUP2 MLOAD PUSH3 0x5EE DUP5 DUP3 PUSH1 0x20 DUP7 ADD PUSH3 0x552 JUMP JUMPDEST SWAP2 POP POP SWAP3 SWAP2 POP POP JUMP JUMPDEST PUSH0 DUP2 SWAP1 POP SWAP2 SWAP1 POP JUMP JUMPDEST PUSH3 0x60B DUP2 PUSH3 0x5F7 JUMP JUMPDEST DUP2 EQ PUSH3 0x616 JUMPI PUSH0 DUP1 REVERT JUMPDEST POP JUMP JUMPDEST PUSH0 DUP2 MLOAD SWAP1 POP PUSH3 0x629 DUP2 PUSH3 0x600 JUMP JUMPDEST SWAP3 SWAP2 POP POP JUMP JUMPDEST PUSH0 DUP1 PUSH0 DUP1 PUSH1 0x80 DUP6 DUP8 SUB SLT ISZERO PUSH3 0x64A JUMPI PUSH3 0x649 PUSH3 0x422 JUMP JUMPDEST JUMPDEST PUSH0 PUSH3 0x659 DUP8 DUP3 DUP9 ADD PUSH3 0x475 JUMP JUMPDEST SWAP5 POP POP PUSH1 0x20 DUP6 ADD MLOAD PUSH8 0xFFFFFFFFFFFFFFFF DUP2 GT ISZERO PUSH3 0x67D JUMPI PUSH3 0x67C PUSH3 0x426 JUMP JUMPDEST JUMPDEST PUSH3 0x68B DUP8 DUP3 DUP9 ADD PUSH3 0x5C5 JUMP JUMPDEST SWAP4 POP POP PUSH1 0x40 PUSH3 0x69E DUP8 DUP3 DUP9 ADD PUSH3 0x619 JUMP JUMPDEST SWAP3 POP POP PUSH1 0x60 PUSH3 0x6B1 DUP8 DUP3 DUP9 ADD PUSH3 0x475 JUMP JUMPDEST SWAP2 POP POP SWAP3 SWAP6 SWAP2 SWAP5 POP SWAP3 POP JUMP JUMPDEST PUSH32 0x4E487B7100000000000000000000000000000000000000000000000000000000 PUSH0 MSTORE PUSH1 0x32 PUSH1 0x4 MSTORE PUSH1 0x24 PUSH0 REVERT JUMPDEST PUSH3 0x6F5 DUP2 PUSH3 0x449 JUMP JUMPDEST DUP3 MSTORE POP POP JUMP JUMPDEST PUSH0 DUP2 SWAP1 POP SWAP2 SWAP1 POP JUMP JUMPDEST PUSH3 0x70F DUP2 PUSH3 0x6FB JUMP JUMPDEST DUP3 MSTORE POP POP JUMP JUMPDEST PUSH0 PUSH1 0x40 DUP3 ADD SWAP1 POP PUSH3 0x72A PUSH0 DUP4 ADD DUP6 PUSH3 0x6EA JUMP JUMPDEST PUSH3 0x739 PUSH1 0x20 DUP4 ADD DUP5 PUSH3 0x704 JUMP JUMPDEST SWAP4 SWAP3 POP POP POP JUMP JUMPDEST PUSH2 0x1C47 DUP1 PUSH3 0x74E PUSH0 CODECOPY PUSH0 RETURN INVALID PUSH1 0x80 PUSH1 0x40 MSTORE CALLVALUE DUP1 ISZERO PUSH2 0xF JUMPI PUSH0 DUP1 REVERT JUMPDEST POP PUSH1 0x4 CALLDATASIZE LT PUSH2 0x140 JUMPI PUSH0 CALLDATALOAD PUSH1 0xE0 SHR DUP1 PUSH4 0x90805C34 GT PUSH2 0xB6 JUMPI DUP1 PUSH4 0xBD998CB3 GT PUSH2 0x7A JUMPI DUP1 PUSH4 0xBD998CB3 EQ PUSH2 0x360 JUMPI DUP1 PUSH4 0xBE354836 EQ PUSH2 0x37E JUMPI DUP1 PUSH4 0xC68DBB37 EQ PUSH2 0x3AE JUMPI DUP1 PUSH4 0xD547741F EQ PUSH2 0x3DE JUMPI DUP1 PUSH4 0xF3FEF3A3 EQ PUSH2 0x3FA JUMPI DUP1 PUSH4 0xF4457FAB EQ PUSH2 0x416 JUMPI PUSH2 0x140 JUMP JUMPDEST DUP1 PUSH4 0x90805C34 EQ PUSH2 0x2BC JUMPI DUP1 PUSH4 0x91D14854 EQ PUSH2 0x2D8 JUMPI DUP1 PUSH4 0x9E4A9369 EQ PUSH2 0x308 JUMPI DUP1 PUSH4 0xA217FDDF EQ PUSH2 0x326 JUMPI DUP1 PUSH4 0xBB39A960 EQ PUSH2 0x344 JUMPI PUSH2 0x140 JUMP JUMPDEST DUP1 PUSH4 0x30E5065E GT PUSH2 0x108 JUMPI DUP1 PUSH4 0x30E5065E EQ PUSH2 0x1FA JUMPI DUP1 PUSH4 0x36568ABE EQ PUSH2 0x22A JUMPI DUP1 PUSH4 0x47E7EF24 EQ PUSH2 0x246 JUMPI DUP1 PUSH4 0x523820A1 EQ PUSH2 0x262 JUMPI DUP1 PUSH4 0x5E5A24A4 EQ PUSH2 0x280 JUMPI DUP1 PUSH4 0x75B238FC EQ PUSH2 0x29E JUMPI PUSH2 0x140 JUMP JUMPDEST DUP1 PUSH4 0x1FFC9A7 EQ PUSH2 0x144 JUMPI DUP1 PUSH4 0x6F34C2F EQ PUSH2 0x174 JUMPI DUP1 PUSH4 0xBA36DCD EQ PUSH2 0x17E JUMPI DUP1 PUSH4 0x248A9CA3 EQ PUSH2 0x1AE JUMPI DUP1 PUSH4 0x2F2FF15D EQ PUSH2 0x1DE JUMPI JUMPDEST PUSH0 DUP1 REVERT JUMPDEST PUSH2 0x15E PUSH1 0x4 DUP1 CALLDATASIZE SUB DUP2 ADD SWAP1 PUSH2 0x159 SWAP2 SWAP1 PUSH2 0x1433 JUMP JUMPDEST PUSH2 0x434 JUMP JUMPDEST PUSH1 0x40 MLOAD PUSH2 0x16B SWAP2 SWAP1 PUSH2 0x1478 JUMP JUMPDEST PUSH1 0x40 MLOAD DUP1 SWAP2 SUB SWAP1 RETURN JUMPDEST PUSH2 0x17C PUSH2 0x4AD JUMP JUMPDEST STOP JUMPDEST PUSH2 0x198 PUSH1 0x4 DUP1 CALLDATASIZE SUB DUP2 ADD SWAP1 PUSH2 0x193 SWAP2 SWAP1 PUSH2 0x14EB JUMP JUMPDEST PUSH2 0x514 JUMP JUMPDEST PUSH1 0x40 MLOAD PUSH2 0x1A5 SWAP2 SWAP1 PUSH2 0x152E JUMP JUMPDEST PUSH1 0x40 MLOAD DUP1 SWAP2 SUB SWAP1 RETURN JUMPDEST PUSH2 0x1C8 PUSH1 0x4 DUP1 CALLDATASIZE SUB DUP2 ADD SWAP1 PUSH2 0x1C3 SWAP2 SWAP1 PUSH2 0x157A JUMP JUMPDEST PUSH2 0x52E JUMP JUMPDEST PUSH1 0x40 MLOAD PUSH2 0x1D5 SWAP2 SWAP1 PUSH2 0x15B4 JUMP JUMPDEST PUSH1 0x40 MLOAD DUP1 SWAP2 SUB SWAP1 RETURN JUMPDEST PUSH2 0x1F8 PUSH1 0x4 DUP1 CALLDATASIZE SUB DUP2 ADD SWAP1 PUSH2 0x1F3 SWAP2 SWAP1 PUSH2 0x15CD JUMP JUMPDEST PUSH2 0x54A JUMP JUMPDEST STOP JUMPDEST PUSH2 0x214 PUSH1 0x4 DUP1 CALLDATASIZE SUB DUP2 ADD SWAP1 PUSH2 0x20F SWAP2 SWAP1 PUSH2 0x14EB JUMP JUMPDEST PUSH2 0x56C JUMP JUMPDEST PUSH1 0x40 MLOAD PUSH2 0x221 SWAP2 SWAP1 PUSH2 0x152E JUMP JUMPDEST PUSH1 0x40 MLOAD DUP1 SWAP2 SUB SWAP1 RETURN JUMPDEST PUSH2 0x244 PUSH1 0x4 DUP1 CALLDATASIZE SUB DUP2 ADD SWAP1 PUSH2 0x23F SWAP2 SWAP1 PUSH2 0x15CD JUMP JUMPDEST PUSH2 0x581 JUMP JUMPDEST STOP JUMPDEST PUSH2 0x260 PUSH1 0x4 DUP1 CALLDATASIZE SUB DUP2 ADD SWAP1 PUSH2 0x25B SWAP2 SWAP1 PUSH2 0x1635 JUMP JUMPDEST PUSH2 0x5FC JUMP JUMPDEST STOP JUMPDEST PUSH2 0x26A PUSH2 0x81D JUMP JUMPDEST PUSH1 0x40 MLOAD PUSH2 0x277 SWAP2 SWAP1 PUSH2 0x152E JUMP JUMPDEST PUSH1 0x40 MLOAD DUP1 SWAP2 SUB SWAP1 RETURN JUMPDEST PUSH2 0x288 PUSH2 0x823 JUMP JUMPDEST PUSH1 0x40 MLOAD PUSH2 0x295 SWAP2 SWAP1 PUSH2 0x15B4 JUMP JUMPDEST PUSH1 0x40 MLOAD DUP1 SWAP2 SUB SWAP1 RETURN JUMPDEST PUSH2 0x2A6 PUSH2 0x847 JUMP JUMPDEST PUSH1 0x40 MLOAD PUSH2 0x2B3 SWAP2 SWAP1 PUSH2 0x15B4 JUMP JUMPDEST PUSH1 0x40 MLOAD DUP1 SWAP2 SUB SWAP1 RETURN JUMPDEST PUSH2 0x2D6 PUSH1 0x4 DUP1 CALLDATASIZE SUB DUP2 ADD SWAP1 PUSH2 0x2D1 SWAP2 SWAP1 PUSH2 0x1673 JUMP JUMPDEST PUSH2 0x86B JUMP JUMPDEST STOP JUMPDEST PUSH2 0x2F2 PUSH1 0x4 DUP1 CALLDATASIZE SUB DUP2 ADD SWAP1 PUSH2 0x2ED SWAP2 SWAP1 PUSH2 0x15CD JUMP JUMPDEST PUSH2 0x915 JUMP JUMPDEST PUSH1 0x40 MLOAD PUSH2 0x2FF SWAP2 SWAP1 PUSH2 0x1478 JUMP JUMPDEST PUSH1 0x40 MLOAD DUP1 SWAP2 SUB SWAP1 RETURN JUMPDEST PUSH2 0x310 PUSH2 0x978 JUMP JUMPDEST PUSH1 0x40 MLOAD PUSH2 0x31D SWAP2 SWAP1 PUSH2 0x152E JUMP JUMPDEST PUSH1 0x40 MLOAD DUP1 SWAP2 SUB SWAP1 RETURN JUMPDEST PUSH2 0x32E PUSH2 0xA6B JUMP JUMPDEST PUSH1 0x40 MLOAD PUSH2 0x33B SWAP2 SWAP1 PUSH2 0x15B4 JUMP JUMPDEST PUSH1 0x40 MLOAD DUP1 SWAP2 SUB SWAP1 RETURN JUMPDEST PUSH2 0x35E PUSH1 0x4 DUP1 CALLDATASIZE SUB DUP2 ADD SWAP1 PUSH2 0x359 SWAP2 SWAP1 PUSH2 0x16EC JUMP JUMPDEST PUSH2 0xA71 JUMP JUMPDEST STOP JUMPDEST PUSH2 0x368 PUSH2 0xAE6 JUMP JUMPDEST PUSH1 0x40 MLOAD PUSH2 0x375 SWAP2 SWAP1 PUSH2 0x152E JUMP JUMPDEST PUSH1 0x40 MLOAD DUP1 SWAP2 SUB SWAP1 RETURN JUMPDEST PUSH2 0x398 PUSH1 0x4 DUP1 CALLDATASIZE SUB DUP2 ADD SWAP1 PUSH2 0x393 SWAP2 SWAP1 PUSH2 0x14EB JUMP JUMPDEST PUSH2 0xAEC JUMP JUMPDEST PUSH1 0x40 MLOAD PUSH2 0x3A5 SWAP2 SWAP1 PUSH2 0x152E JUMP JUMPDEST PUSH1 0x40 MLOAD DUP1 SWAP2 SUB SWAP1 RETURN JUMPDEST PUSH2 0x3C8 PUSH1 0x4 DUP1 CALLDATASIZE SUB DUP2 ADD SWAP1 PUSH2 0x3C3 SWAP2 SWAP1 PUSH2 0x1750 JUMP JUMPDEST PUSH2 0xB01 JUMP JUMPDEST PUSH1 0x40 MLOAD PUSH2 0x3D5 SWAP2 SWAP1 PUSH2 0x17D6 JUMP JUMPDEST PUSH1 0x40 MLOAD DUP1 SWAP2 SUB SWAP1 RETURN JUMPDEST PUSH2 0x3F8 PUSH1 0x4 DUP1 CALLDATASIZE SUB DUP2 ADD SWAP1 PUSH2 0x3F3 SWAP2 SWAP1 PUSH2 0x15CD JUMP JUMPDEST PUSH2 0xB3C JUMP JUMPDEST STOP JUMPDEST PUSH2 0x414 PUSH1 0x4 DUP1 CALLDATASIZE SUB DUP2 ADD SWAP1 PUSH2 0x40F SWAP2 SWAP1 PUSH2 0x1635 JUMP JUMPDEST PUSH2 0xB5E JUMP JUMPDEST STOP JUMPDEST PUSH2 0x41E PUSH2 0xF00 JUMP JUMPDEST PUSH1 0x40 MLOAD PUSH2 0x42B SWAP2 SWAP1 PUSH2 0x152E JUMP JUMPDEST PUSH1 0x40 MLOAD DUP1 SWAP2 SUB SWAP1 RETURN JUMPDEST PUSH0 PUSH32 0x7965DB0B00000000000000000000000000000000000000000000000000000000 PUSH28 0xFFFFFFFFFFFFFFFFFFFFFFFFFFFFFFFFFFFFFFFFFFFFFFFFFFFFFFFF NOT AND DUP3 PUSH28 0xFFFFFFFFFFFFFFFFFFFFFFFFFFFFFFFFFFFFFFFFFFFFFFFFFFFFFFFF NOT AND EQ DUP1 PUSH2 0x4A6 JUMPI POP PUSH2 0x4A5 DUP3 PUSH2 0xF06 JUMP JUMPDEST JUMPDEST SWAP1 POP SWAP2 SWAP1 POP JUMP JUMPDEST PUSH32 0xD1473398BB66596DE5D1EA1FC8E303FF2AC23265ADC9144B1B52065DC4F0934B PUSH2 0x4D7 DUP2 PUSH2 0xF6F JUMP JUMPDEST PUSH0 PUSH2 0x4E0 PUSH2 0xF83 JUMP JUMPDEST SWAP1 POP PUSH0 DUP2 GT ISZERO PUSH2 0x510 JUMPI PUSH0 PUSH1 0x64 PUSH1 0x7 SLOAD DUP4 PUSH2 0x4FB SWAP2 SWAP1 PUSH2 0x181C JUMP JUMPDEST PUSH2 0x505 SWAP2 SWAP1 PUSH2 0x188A JUMP JUMPDEST SWAP1 POP DUP1 PUSH1 0x8 DUP2 SWAP1 SSTORE POP POP JUMPDEST POP POP JUMP JUMPDEST PUSH1 0x5 PUSH1 0x20 MSTORE DUP1 PUSH0 MSTORE PUSH1 0x40 PUSH0 KECCAK256 PUSH0 SWAP2 POP SWAP1 POP DUP1 PUSH0 ADD SLOAD SWAP1 POP DUP2 JUMP JUMPDEST PUSH0 DUP1 PUSH0 DUP4 DUP2 MSTORE PUSH1 0x20 ADD SWAP1 DUP2 MSTORE PUSH1 0x20 ADD PUSH0 KECCAK256 PUSH1 0x1 ADD SLOAD SWAP1 POP SWAP2 SWAP1 POP JUMP JUMPDEST PUSH2 0x553 DUP3 PUSH2 0x52E JUMP JUMPDEST PUSH2 0x55C DUP2 PUSH2 0xF6F JUMP JUMPDEST PUSH2 0x566 DUP4 DUP4 PUSH2 0xF87 JUMP JUMPDEST POP POP POP POP JUMP JUMPDEST PUSH1 0x3 PUSH1 0x20 MSTORE DUP1 PUSH0 MSTORE PUSH1 0x40 PUSH0 KECCAK256 PUSH0 SWAP2 POP SWAP1 POP SLOAD DUP2 JUMP JUMPDEST PUSH2 0x589 PUSH2 0x1070 JUMP JUMPDEST PUSH20 0xFFFFFFFFFFFFFFFFFFFFFFFFFFFFFFFFFFFFFFFF AND DUP2 PUSH20 0xFFFFFFFFFFFFFFFFFFFFFFFFFFFFFFFFFFFFFFFF AND EQ PUSH2 0x5ED JUMPI PUSH1 0x40 MLOAD PUSH32 0x6697B23200000000000000000000000000000000000000000000000000000000 DUP2 MSTORE PUSH1 0x4 ADD PUSH1 0x40 MLOAD DUP1 SWAP2 SUB SWAP1 REVERT JUMPDEST PUSH2 0x5F7 DUP3 DUP3 PUSH2 0x1077 JUMP JUMPDEST POP POP POP JUMP JUMPDEST PUSH2 0x605 DUP3 PUSH2 0x1160 JUMP JUMPDEST PUSH2 0x644 JUMPI PUSH1 0x40 MLOAD PUSH32 0x8C379A000000000000000000000000000000000000000000000000000000000 DUP2 MSTORE PUSH1 0x4 ADD PUSH2 0x63B SWAP1 PUSH2 0x1914 JUMP JUMPDEST PUSH1 0x40 MLOAD DUP1 SWAP2 SUB SWAP1 REVERT JUMPDEST DUP2 PUSH20 0xFFFFFFFFFFFFFFFFFFFFFFFFFFFFFFFFFFFFFFFF AND PUSH4 0x23B872DD PUSH2 0x668 PUSH2 0x1070 JUMP JUMPDEST ADDRESS DUP5 PUSH1 0x40 MLOAD DUP5 PUSH4 0xFFFFFFFF AND PUSH1 0xE0 SHL DUP2 MSTORE PUSH1 0x4 ADD PUSH2 0x688 SWAP4 SWAP3 SWAP2 SWAP1 PUSH2 0x1941 JUMP JUMPDEST PUSH1 0x20 PUSH1 0x40 MLOAD DUP1 DUP4 SUB DUP2 PUSH0 DUP8 GAS CALL ISZERO DUP1 ISZERO PUSH2 0x6A4 JUMPI RETURNDATASIZE PUSH0 DUP1 RETURNDATACOPY RETURNDATASIZE PUSH0 REVERT JUMPDEST POP POP POP POP PUSH1 0x40 MLOAD RETURNDATASIZE PUSH1 0x1F NOT PUSH1 0x1F DUP3 ADD AND DUP3 ADD DUP1 PUSH1 0x40 MSTORE POP DUP2 ADD SWAP1 PUSH2 0x6C8 SWAP2 SWAP1 PUSH2 0x19A0 JUMP JUMPDEST POP DUP1 PUSH1 0x3 PUSH0 DUP5 PUSH20 0xFFFFFFFFFFFFFFFFFFFFFFFFFFFFFFFFFFFFFFFF AND PUSH20 0xFFFFFFFFFFFFFFFFFFFFFFFFFFFFFFFFFFFFFFFF AND DUP2 MSTORE PUSH1 0x20 ADD SWAP1 DUP2 MSTORE PUSH1 0x20 ADD PUSH0 KECCAK256 PUSH0 DUP3 DUP3 SLOAD PUSH2 0x715 SWAP2 SWAP1 PUSH2 0x19CB JUMP JUMPDEST SWAP3 POP POP DUP2 SWAP1 SSTORE POP PUSH2 0x726 DUP3 DUP3 PUSH2 0x1202 JUMP JUMPDEST PUSH1 0x5 PUSH0 PUSH2 0x731 PUSH2 0x1070 JUMP JUMPDEST PUSH20 0xFFFFFFFFFFFFFFFFFFFFFFFFFFFFFFFFFFFFFFFF AND PUSH20 0xFFFFFFFFFFFFFFFFFFFFFFFFFFFFFFFFFFFFFFFF AND DUP2 MSTORE PUSH1 0x20 ADD SWAP1 DUP2 MSTORE PUSH1 0x20 ADD PUSH0 KECCAK256 PUSH0 ADD PUSH0 DUP3 DUP3 SLOAD PUSH2 0x77A SWAP2 SWAP1 PUSH2 0x19CB JUMP JUMPDEST SWAP3 POP POP DUP2 SWAP1 SSTORE POP DUP1 PUSH1 0x5 PUSH0 PUSH2 0x78D PUSH2 0x1070 JUMP JUMPDEST PUSH20 0xFFFFFFFFFFFFFFFFFFFFFFFFFFFFFFFFFFFFFFFF AND PUSH20 0xFFFFFFFFFFFFFFFFFFFFFFFFFFFFFFFFFFFFFFFF AND DUP2 MSTORE PUSH1 0x20 ADD SWAP1 DUP2 MSTORE PUSH1 0x20 ADD PUSH0 KECCAK256 PUSH1 0x1 ADD PUSH0 DUP5 PUSH20 0xFFFFFFFFFFFFFFFFFFFFFFFFFFFFFFFFFFFFFFFF AND PUSH20 0xFFFFFFFFFFFFFFFFFFFFFFFFFFFFFFFFFFFFFFFF AND DUP2 MSTORE PUSH1 0x20 ADD SWAP1 DUP2 MSTORE PUSH1 0x20 ADD PUSH0 KECCAK256 PUSH0 DUP3 DUP3 SLOAD PUSH2 0x812 SWAP2 SWAP1 PUSH2 0x19CB JUMP JUMPDEST SWAP3 POP POP DUP2 SWAP1 SSTORE POP POP POP JUMP JUMPDEST PUSH1 0x8 SLOAD DUP2 JUMP JUMPDEST PUSH32 0xD1473398BB66596DE5D1EA1FC8E303FF2AC23265ADC9144B1B52065DC4F0934B DUP2 JUMP JUMPDEST PUSH32 0xA49807205CE4D355092EF5A8A18F56E8913CF4A201FBE287825B095693C21775 DUP2 JUMP JUMPDEST PUSH32 0xA49807205CE4D355092EF5A8A18F56E8913CF4A201FBE287825B095693C21775 PUSH2 0x895 DUP2 PUSH2 0xF6F JUMP JUMPDEST DUP2 PUSH1 0x4 PUSH0 DUP6 PUSH20 0xFFFFFFFFFFFFFFFFFFFFFFFFFFFFFFFFFFFFFFFF AND PUSH20 0xFFFFFFFFFFFFFFFFFFFFFFFFFFFFFFFFFFFFFFFF AND DUP2 MSTORE PUSH1 0x20 ADD SWAP1 DUP2 MSTORE PUSH1 0x20 ADD PUSH0 KECCAK256 PUSH0 PUSH2 0x100 EXP DUP2 SLOAD DUP2 PUSH20 0xFFFFFFFFFFFFFFFFFFFFFFFFFFFFFFFFFFFFFFFF MUL NOT AND SWAP1 DUP4 PUSH20 0xFFFFFFFFFFFFFFFFFFFFFFFFFFFFFFFFFFFFFFFF AND MUL OR SWAP1 SSTORE POP POP POP POP JUMP JUMPDEST PUSH0 DUP1 PUSH0 DUP5 DUP2 MSTORE PUSH1 0x20 ADD SWAP1 DUP2 MSTORE PUSH1 0x20 ADD PUSH0 KECCAK256 PUSH0 ADD PUSH0 DUP4 PUSH20 0xFFFFFFFFFFFFFFFFFFFFFFFFFFFFFFFFFFFFFFFF AND PUSH20 0xFFFFFFFFFFFFFFFFFFFFFFFFFFFFFFFFFFFFFFFF AND DUP2 MSTORE PUSH1 0x20 ADD SWAP1 DUP2 MSTORE PUSH1 0x20 ADD PUSH0 KECCAK256 PUSH0 SWAP1 SLOAD SWAP1 PUSH2 0x100 EXP SWAP1 DIV PUSH1 0xFF AND SWAP1 POP SWAP3 SWAP2 POP POP JUMP JUMPDEST PUSH0 DUP1 PUSH0 SWAP1 POP PUSH0 JUMPDEST PUSH1 0x2 DUP1 SLOAD SWAP1 POP DUP2 LT ISZERO PUSH2 0xA63 JUMPI PUSH2 0xA49 PUSH1 0x2 DUP3 DUP2 SLOAD DUP2 LT PUSH2 0x9A3 JUMPI PUSH2 0x9A2 PUSH2 0x19FE JUMP JUMPDEST JUMPDEST SWAP1 PUSH0 MSTORE PUSH1 0x20 PUSH0 KECCAK256 ADD PUSH0 SWAP1 SLOAD SWAP1 PUSH2 0x100 EXP SWAP1 DIV PUSH20 0xFFFFFFFFFFFFFFFFFFFFFFFFFFFFFFFFFFFFFFFF AND PUSH1 0x3 PUSH0 PUSH1 0x2 DUP6 DUP2 SLOAD DUP2 LT PUSH2 0x9E2 JUMPI PUSH2 0x9E1 PUSH2 0x19FE JUMP JUMPDEST JUMPDEST SWAP1 PUSH0 MSTORE PUSH1 0x20 PUSH0 KECCAK256 ADD PUSH0 SWAP1 SLOAD SWAP1 PUSH2 0x100 EXP SWAP1 DIV PUSH20 0xFFFFFFFFFFFFFFFFFFFFFFFFFFFFFFFFFFFFFFFF AND PUSH20 0xFFFFFFFFFFFFFFFFFFFFFFFFFFFFFFFFFFFFFFFF AND PUSH20 0xFFFFFFFFFFFFFFFFFFFFFFFFFFFFFFFFFFFFFFFF AND DUP2 MSTORE PUSH1 0x20 ADD SWAP1 DUP2 MSTORE PUSH1 0x20 ADD PUSH0 KECCAK256 SLOAD PUSH2 0x1202 JUMP JUMPDEST DUP3 PUSH2 0xA54 SWAP2 SWAP1 PUSH2 0x19CB JUMP JUMPDEST SWAP2 POP DUP1 DUP1 PUSH1 0x1 ADD SWAP2 POP POP PUSH2 0x97F JUMP JUMPDEST POP DUP1 SWAP2 POP POP SWAP1 JUMP JUMPDEST PUSH0 DUP1 SHL DUP2 JUMP JUMPDEST PUSH32 0xD1473398BB66596DE5D1EA1FC8E303FF2AC23265ADC9144B1B52065DC4F0934B PUSH2 0xA9B DUP2 PUSH2 0xF6F JUMP JUMPDEST PUSH0 PUSH2 0xAA6 DUP5 DUP5 PUSH2 0x1202 JUMP JUMPDEST SWAP1 POP PUSH0 PUSH2 0xAB3 DUP8 DUP8 PUSH2 0x1202 JUMP JUMPDEST SWAP1 POP PUSH0 DUP2 DUP4 PUSH2 0xAC2 SWAP2 SWAP1 PUSH2 0x1A2B JUMP JUMPDEST SWAP1 POP DUP1 PUSH1 0x9 PUSH0 DUP3 DUP3 SLOAD PUSH2 0xAD5 SWAP2 SWAP1 PUSH2 0x19CB JUMP JUMPDEST SWAP3 POP POP DUP2 SWAP1 SSTORE POP POP POP POP POP POP POP POP POP JUMP JUMPDEST PUSH1 0x9 SLOAD DUP2 JUMP JUMPDEST PUSH1 0x6 PUSH1 0x20 MSTORE DUP1 PUSH0 MSTORE PUSH1 0x40 PUSH0 KECCAK256 PUSH0 SWAP2 POP SWAP1 POP SLOAD DUP2 JUMP JUMPDEST PUSH1 0x2 DUP2 DUP2 SLOAD DUP2 LT PUSH2 0xB10 JUMPI PUSH0 DUP1 REVERT JUMPDEST SWAP1 PUSH0 MSTORE PUSH1 0x20 PUSH0 KECCAK256 ADD PUSH0 SWAP2 POP SLOAD SWAP1 PUSH2 0x100 EXP SWAP1 DIV PUSH20 0xFFFFFFFFFFFFFFFFFFFFFFFFFFFFFFFFFFFFFFFF AND DUP2 JUMP JUMPDEST PUSH2 0xB45 DUP3 PUSH2 0x52E JUMP JUMPDEST PUSH2 0xB4E DUP2 PUSH2 0xF6F JUMP JUMPDEST PUSH2 0xB58 DUP4 DUP4 PUSH2 0x1077 JUMP JUMPDEST POP POP POP POP JUMP JUMPDEST DUP1 PUSH1 0x5 PUSH0 PUSH2 0xB6A PUSH2 0x1070 JUMP JUMPDEST PUSH20 0xFFFFFFFFFFFFFFFFFFFFFFFFFFFFFFFFFFFFFFFF AND PUSH20 0xFFFFFFFFFFFFFFFFFFFFFFFFFFFFFFFFFFFFFFFF AND DUP2 MSTORE PUSH1 0x20 ADD SWAP1 DUP2 MSTORE PUSH1 0x20 ADD PUSH0 KECCAK256 PUSH1 0x1 ADD PUSH0 DUP5 PUSH20 0xFFFFFFFFFFFFFFFFFFFFFFFFFFFFFFFFFFFFFFFF AND PUSH20 0xFFFFFFFFFFFFFFFFFFFFFFFFFFFFFFFFFFFFFFFF AND DUP2 MSTORE PUSH1 0x20 ADD SWAP1 DUP2 MSTORE PUSH1 0x20 ADD PUSH0 KECCAK256 SLOAD LT ISZERO PUSH2 0xC23 JUMPI PUSH1 0x40 MLOAD PUSH32 0x8C379A000000000000000000000000000000000000000000000000000000000 DUP2 MSTORE PUSH1 0x4 ADD PUSH2 0xC1A SWAP1 PUSH2 0x1AA8 JUMP JUMPDEST PUSH1 0x40 MLOAD DUP1 SWAP2 SUB SWAP1 REVERT JUMPDEST DUP1 PUSH1 0x5 PUSH0 PUSH2 0xC2F PUSH2 0x1070 JUMP JUMPDEST PUSH20 0xFFFFFFFFFFFFFFFFFFFFFFFFFFFFFFFFFFFFFFFF AND PUSH20 0xFFFFFFFFFFFFFFFFFFFFFFFFFFFFFFFFFFFFFFFF AND DUP2 MSTORE PUSH1 0x20 ADD SWAP1 DUP2 MSTORE PUSH1 0x20 ADD PUSH0 KECCAK256 PUSH1 0x1 ADD PUSH0 DUP5 PUSH20 0xFFFFFFFFFFFFFFFFFFFFFFFFFFFFFFFFFFFFFFFF AND PUSH20 0xFFFFFFFFFFFFFFFFFFFFFFFFFFFFFFFFFFFFFFFF AND DUP2 MSTORE PUSH1 0x20 ADD SWAP1 DUP2 MSTORE PUSH1 0x20 ADD PUSH0 KECCAK256 PUSH0 DUP3 DUP3 SLOAD PUSH2 0xCB4 SWAP2 SWAP1 PUSH2 0x1A2B JUMP JUMPDEST SWAP3 POP POP DUP2 SWAP1 SSTORE POP DUP1 PUSH1 0x3 PUSH0 DUP5 PUSH20 0xFFFFFFFFFFFFFFFFFFFFFFFFFFFFFFFFFFFFFFFF AND PUSH20 0xFFFFFFFFFFFFFFFFFFFFFFFFFFFFFFFFFFFFFFFF AND DUP2 MSTORE PUSH1 0x20 ADD SWAP1 DUP2 MSTORE PUSH1 0x20 ADD PUSH0 KECCAK256 PUSH0 DUP3 DUP3 SLOAD PUSH2 0xD07 SWAP2 SWAP1 PUSH2 0x1A2B JUMP JUMPDEST SWAP3 POP POP DUP2 SWAP1 SSTORE POP DUP2 PUSH20 0xFFFFFFFFFFFFFFFFFFFFFFFFFFFFFFFFFFFFFFFF AND PUSH4 0xA9059CBB PUSH2 0xD32 PUSH2 0x1070 JUMP JUMPDEST DUP4 PUSH1 0x40 MLOAD DUP4 PUSH4 0xFFFFFFFF AND PUSH1 0xE0 SHL DUP2 MSTORE PUSH1 0x4 ADD PUSH2 0xD50 SWAP3 SWAP2 SWAP1 PUSH2 0x1AC6 JUMP JUMPDEST PUSH1 0x20 PUSH1 0x40 MLOAD DUP1 DUP4 SUB DUP2 PUSH0 DUP8 GAS CALL ISZERO DUP1 ISZERO PUSH2 0xD6C JUMPI RETURNDATASIZE PUSH0 DUP1 RETURNDATACOPY RETURNDATASIZE PUSH0 REVERT JUMPDEST POP POP POP POP PUSH1 0x40 MLOAD RETURNDATASIZE PUSH1 0x1F NOT PUSH1 0x1F DUP3 ADD AND DUP3 ADD DUP1 PUSH1 0x40 MSTORE POP DUP2 ADD SWAP1 PUSH2 0xD90 SWAP2 SWAP1 PUSH2 0x19A0 JUMP JUMPDEST POP PUSH0 PUSH2 0xDA2 PUSH2 0xD9D PUSH2 0x1070 JUMP JUMPDEST PUSH2 0x12F2 JUMP JUMPDEST SWAP1 POP DUP1 PUSH1 0x6 PUSH0 PUSH2 0xDB0 PUSH2 0x1070 JUMP JUMPDEST PUSH20 0xFFFFFFFFFFFFFFFFFFFFFFFFFFFFFFFFFFFFFFFF AND PUSH20 0xFFFFFFFFFFFFFFFFFFFFFFFFFFFFFFFFFFFFFFFF AND DUP2 MSTORE PUSH1 0x20 ADD SWAP1 DUP2 MSTORE PUSH1 0x20 ADD PUSH0 KECCAK256 PUSH0 DUP3 DUP3 SLOAD PUSH2 0xDF7 SWAP2 SWAP1 PUSH2 0x19CB JUMP JUMPDEST SWAP3 POP POP DUP2 SWAP1 SSTORE POP PUSH2 0xE08 DUP4 DUP4 PUSH2 0x1202 JUMP JUMPDEST PUSH1 0x5 PUSH0 PUSH2 0xE13 PUSH2 0x1070 JUMP JUMPDEST PUSH20 0xFFFFFFFFFFFFFFFFFFFFFFFFFFFFFFFFFFFFFFFF AND PUSH20 0xFFFFFFFFFFFFFFFFFFFFFFFFFFFFFFFFFFFFFFFF AND DUP2 MSTORE PUSH1 0x20 ADD SWAP1 DUP2 MSTORE PUSH1 0x20 ADD PUSH0 KECCAK256 PUSH0 ADD PUSH0 DUP3 DUP3 SLOAD PUSH2 0xE5C SWAP2 SWAP1 PUSH2 0x1A2B JUMP JUMPDEST SWAP3 POP POP DUP2 SWAP1 SSTORE POP DUP2 PUSH1 0x5 PUSH0 PUSH2 0xE6F PUSH2 0x1070 JUMP JUMPDEST PUSH20 0xFFFFFFFFFFFFFFFFFFFFFFFFFFFFFFFFFFFFFFFF AND PUSH20 0xFFFFFFFFFFFFFFFFFFFFFFFFFFFFFFFFFFFFFFFF AND DUP2 MSTORE PUSH1 0x20 ADD SWAP1 DUP2 MSTORE PUSH1 0x20 ADD PUSH0 KECCAK256 PUSH1 0x1 ADD PUSH0 DUP6 PUSH20 0xFFFFFFFFFFFFFFFFFFFFFFFFFFFFFFFFFFFFFFFF AND PUSH20 0xFFFFFFFFFFFFFFFFFFFFFFFFFFFFFFFFFFFFFFFF AND DUP2 MSTORE PUSH1 0x20 ADD SWAP1 DUP2 MSTORE PUSH1 0x20 ADD PUSH0 KECCAK256 PUSH0 DUP3 DUP3 SLOAD PUSH2 0xEF4 SWAP2 SWAP1 PUSH2 0x1A2B JUMP JUMPDEST SWAP3 POP POP DUP2 SWAP1 SSTORE POP POP POP POP JUMP JUMPDEST PUSH1 0x7 SLOAD DUP2 JUMP JUMPDEST PUSH0 PUSH32 0x1FFC9A700000000000000000000000000000000000000000000000000000000 PUSH28 0xFFFFFFFFFFFFFFFFFFFFFFFFFFFFFFFFFFFFFFFFFFFFFFFFFFFFFFFF NOT AND DUP3 PUSH28 0xFFFFFFFFFFFFFFFFFFFFFFFFFFFFFFFFFFFFFFFFFFFFFFFFFFFFFFFF NOT AND EQ SWAP1 POP SWAP2 SWAP1 POP JUMP JUMPDEST PUSH2 0xF80 DUP2 PUSH2 0xF7B PUSH2 0x1070 JUMP JUMPDEST PUSH2 0x1389 JUMP JUMPDEST POP JUMP JUMPDEST PUSH0 SWAP1 JUMP JUMPDEST PUSH0 PUSH2 0xF92 DUP4 DUP4 PUSH2 0x915 JUMP JUMPDEST PUSH2 0x1066 JUMPI PUSH1 0x1 PUSH0 DUP1 DUP6 DUP2 MSTORE PUSH1 0x20 ADD SWAP1 DUP2 MSTORE PUSH1 0x20 ADD PUSH0 KECCAK256 PUSH0 ADD PUSH0 DUP5 PUSH20 0xFFFFFFFFFFFFFFFFFFFFFFFFFFFFFFFFFFFFFFFF AND PUSH20 0xFFFFFFFFFFFFFFFFFFFFFFFFFFFFFFFFFFFFFFFF AND DUP2 MSTORE PUSH1 0x20 ADD SWAP1 DUP2 MSTORE PUSH1 0x20 ADD PUSH0 KECCAK256 PUSH0 PUSH2 0x100 EXP DUP2 SLOAD DUP2 PUSH1 0xFF MUL NOT AND SWAP1 DUP4 ISZERO ISZERO MUL OR SWAP1 SSTORE POP PUSH2 0x1003 PUSH2 0x1070 JUMP JUMPDEST PUSH20 0xFFFFFFFFFFFFFFFFFFFFFFFFFFFFFFFFFFFFFFFF AND DUP3 PUSH20 0xFFFFFFFFFFFFFFFFFFFFFFFFFFFFFFFFFFFFFFFF AND DUP5 PUSH32 0x2F8788117E7EFF1D82E926EC794901D17C78024A50270940304540A733656F0D PUSH1 0x40 MLOAD PUSH1 0x40 MLOAD DUP1 SWAP2 SUB SWAP1 LOG4 PUSH1 0x1 SWAP1 POP PUSH2 0x106A JUMP JUMPDEST PUSH0 SWAP1 POP JUMPDEST SWAP3 SWAP2 POP POP JUMP JUMPDEST PUSH0 CALLER SWAP1 POP SWAP1 JUMP JUMPDEST PUSH0 PUSH2 0x1082 DUP4 DUP4 PUSH2 0x915 JUMP JUMPDEST ISZERO PUSH2 0x1156 JUMPI PUSH0 DUP1 PUSH0 DUP6 DUP2 MSTORE PUSH1 0x20 ADD SWAP1 DUP2 MSTORE PUSH1 0x20 ADD PUSH0 KECCAK256 PUSH0 ADD PUSH0 DUP5 PUSH20 0xFFFFFFFFFFFFFFFFFFFFFFFFFFFFFFFFFFFFFFFF AND PUSH20 0xFFFFFFFFFFFFFFFFFFFFFFFFFFFFFFFFFFFFFFFF AND DUP2 MSTORE PUSH1 0x20 ADD SWAP1 DUP2 MSTORE PUSH1 0x20 ADD PUSH0 KECCAK256 PUSH0 PUSH2 0x100 EXP DUP2 SLOAD DUP2 PUSH1 0xFF MUL NOT AND SWAP1 DUP4 ISZERO ISZERO MUL OR SWAP1 SSTORE POP PUSH2 0x10F3 PUSH2 0x1070 JUMP JUMPDEST PUSH20 0xFFFFFFFFFFFFFFFFFFFFFFFFFFFFFFFFFFFFFFFF AND DUP3 PUSH20 0xFFFFFFFFFFFFFFFFFFFFFFFFFFFFFFFFFFFFFFFF AND DUP5 PUSH32 0xF6391F5C32D9C69D2A47EA670B442974B53935D1EDC7FD64EB21E047A839171B PUSH1 0x40 MLOAD PUSH1 0x40 MLOAD DUP1 SWAP2 SUB SWAP1 LOG4 PUSH1 0x1 SWAP1 POP PUSH2 0x115A JUMP JUMPDEST PUSH0 SWAP1 POP JUMPDEST SWAP3 SWAP2 POP POP JUMP JUMPDEST PUSH0 DUP1 PUSH0 SWAP1 POP JUMPDEST PUSH1 0x2 DUP1 SLOAD SWAP1 POP DUP2 LT ISZERO PUSH2 0x11F8 JUMPI DUP3 PUSH20 0xFFFFFFFFFFFFFFFFFFFFFFFFFFFFFFFFFFFFFFFF AND PUSH1 0x2 DUP3 DUP2 SLOAD DUP2 LT PUSH2 0x119E JUMPI PUSH2 0x119D PUSH2 0x19FE JUMP JUMPDEST JUMPDEST SWAP1 PUSH0 MSTORE PUSH1 0x20 PUSH0 KECCAK256 ADD PUSH0 SWAP1 SLOAD SWAP1 PUSH2 0x100 EXP SWAP1 DIV PUSH20 0xFFFFFFFFFFFFFFFFFFFFFFFFFFFFFFFFFFFFFFFF AND PUSH20 0xFFFFFFFFFFFFFFFFFFFFFFFFFFFFFFFFFFFFFFFF AND SUB PUSH2 0x11EB JUMPI PUSH1 0x1 SWAP2 POP POP PUSH2 0x11FD JUMP JUMPDEST DUP1 DUP1 PUSH1 0x1 ADD SWAP2 POP POP PUSH2 0x1166 JUMP JUMPDEST POP PUSH0 SWAP1 POP JUMPDEST SWAP2 SWAP1 POP JUMP JUMPDEST PUSH0 DUP1 PUSH1 0x4 PUSH0 DUP6 PUSH20 0xFFFFFFFFFFFFFFFFFFFFFFFFFFFFFFFFFFFFFFFF AND PUSH20 0xFFFFFFFFFFFFFFFFFFFFFFFFFFFFFFFFFFFFFFFF AND DUP2 MSTORE PUSH1 0x20 ADD SWAP1 DUP2 MSTORE PUSH1 0x20 ADD PUSH0 KECCAK256 PUSH0 SWAP1 SLOAD SWAP1 PUSH2 0x100 EXP SWAP1 DIV PUSH20 0xFFFFFFFFFFFFFFFFFFFFFFFFFFFFFFFFFFFFFFFF AND SWAP1 POP PUSH0 DUP2 PUSH20 0xFFFFFFFFFFFFFFFFFFFFFFFFFFFFFFFFFFFFFFFF AND PUSH4 0xFEAF968C PUSH1 0x40 MLOAD DUP2 PUSH4 0xFFFFFFFF AND PUSH1 0xE0 SHL DUP2 MSTORE PUSH1 0x4 ADD PUSH1 0xA0 PUSH1 0x40 MLOAD DUP1 DUP4 SUB DUP2 DUP7 GAS STATICCALL ISZERO DUP1 ISZERO PUSH2 0x12AD JUMPI RETURNDATASIZE PUSH0 DUP1 RETURNDATACOPY RETURNDATASIZE PUSH0 REVERT JUMPDEST POP POP POP POP PUSH1 0x40 MLOAD RETURNDATASIZE PUSH1 0x1F NOT PUSH1 0x1F DUP3 ADD AND DUP3 ADD DUP1 PUSH1 0x40 MSTORE POP DUP2 ADD SWAP1 PUSH2 0x12D1 SWAP2 SWAP1 PUSH2 0x1B73 JUMP JUMPDEST POP POP POP SWAP2 POP POP PUSH0 DUP5 DUP3 PUSH2 0x12E4 SWAP2 SWAP1 PUSH2 0x181C JUMP JUMPDEST SWAP1 POP DUP1 SWAP4 POP POP POP POP SWAP3 SWAP2 POP POP JUMP JUMPDEST PUSH0 DUP1 PUSH2 0x12FC PUSH2 0x978 JUMP JUMPDEST PUSH8 0xDE0B6B3A7640000 PUSH1 0x5 PUSH0 DUP7 PUSH20 0xFFFFFFFFFFFFFFFFFFFFFFFFFFFFFFFFFFFFFFFF AND PUSH20 0xFFFFFFFFFFFFFFFFFFFFFFFFFFFFFFFFFFFFFFFF AND DUP2 MSTORE PUSH1 0x20 ADD SWAP1 DUP2 MSTORE PUSH1 0x20 ADD PUSH0 KECCAK256 PUSH0 ADD SLOAD PUSH2 0x134F SWAP2 SWAP1 PUSH2 0x181C JUMP JUMPDEST PUSH2 0x1359 SWAP2 SWAP1 PUSH2 0x188A JUMP JUMPDEST SWAP1 POP PUSH0 PUSH8 0xDE0B6B3A7640000 DUP3 PUSH1 0x9 SLOAD PUSH2 0x1373 SWAP2 SWAP1 PUSH2 0x181C JUMP JUMPDEST PUSH2 0x137D SWAP2 SWAP1 PUSH2 0x188A JUMP JUMPDEST SWAP1 POP DUP1 SWAP3 POP POP POP SWAP2 SWAP1 POP JUMP JUMPDEST PUSH2 0x1393 DUP3 DUP3 PUSH2 0x915 JUMP JUMPDEST PUSH2 0x13D6 JUMPI DUP1 DUP3 PUSH1 0x40 MLOAD PUSH32 0xE2517D3F00000000000000000000000000000000000000000000000000000000 DUP2 MSTORE PUSH1 0x4 ADD PUSH2 0x13CD SWAP3 SWAP2 SWAP1 PUSH2 0x1BEA JUMP JUMPDEST PUSH1 0x40 MLOAD DUP1 SWAP2 SUB SWAP1 REVERT JUMPDEST POP POP JUMP JUMPDEST PUSH0 DUP1 REVERT JUMPDEST PUSH0 PUSH32 0xFFFFFFFF00000000000000000000000000000000000000000000000000000000 DUP3 AND SWAP1 POP SWAP2 SWAP1 POP JUMP JUMPDEST PUSH2 0x1412 DUP2 PUSH2 0x13DE JUMP JUMPDEST DUP2 EQ PUSH2 0x141C JUMPI PUSH0 DUP1 REVERT JUMPDEST POP JUMP JUMPDEST PUSH0 DUP2 CALLDATALOAD SWAP1 POP PUSH2 0x142D DUP2 PUSH2 0x1409 JUMP JUMPDEST SWAP3 SWAP2 POP POP JUMP JUMPDEST PUSH0 PUSH1 0x20 DUP3 DUP5 SUB SLT ISZERO PUSH2 0x1448 JUMPI PUSH2 0x1447 PUSH2 0x13DA JUMP JUMPDEST JUMPDEST PUSH0 PUSH2 0x1455 DUP5 DUP3 DUP6 ADD PUSH2 0x141F JUMP JUMPDEST SWAP2 POP POP SWAP3 SWAP2 POP POP JUMP JUMPDEST PUSH0 DUP2 ISZERO ISZERO SWAP1 POP SWAP2 SWAP1 POP JUMP JUMPDEST PUSH2 0x1472 DUP2 PUSH2 0x145E JUMP JUMPDEST DUP3 MSTORE POP POP JUMP JUMPDEST PUSH0 PUSH1 0x20 DUP3 ADD SWAP1 POP PUSH2 0x148B PUSH0 DUP4 ADD DUP5 PUSH2 0x1469 JUMP JUMPDEST SWAP3 SWAP2 POP POP JUMP JUMPDEST PUSH0 PUSH20 0xFFFFFFFFFFFFFFFFFFFFFFFFFFFFFFFFFFFFFFFF DUP3 AND SWAP1 POP SWAP2 SWAP1 POP JUMP JUMPDEST PUSH0 PUSH2 0x14BA DUP3 PUSH2 0x1491 JUMP JUMPDEST SWAP1 POP SWAP2 SWAP1 POP JUMP JUMPDEST PUSH2 0x14CA DUP2 PUSH2 0x14B0 JUMP JUMPDEST DUP2 EQ PUSH2 0x14D4 JUMPI PUSH0 DUP1 REVERT JUMPDEST POP JUMP JUMPDEST PUSH0 DUP2 CALLDATALOAD SWAP1 POP PUSH2 0x14E5 DUP2 PUSH2 0x14C1 JUMP JUMPDEST SWAP3 SWAP2 POP POP JUMP JUMPDEST PUSH0 PUSH1 0x20 DUP3 DUP5 SUB SLT ISZERO PUSH2 0x1500 JUMPI PUSH2 0x14FF PUSH2 0x13DA JUMP JUMPDEST JUMPDEST PUSH0 PUSH2 0x150D DUP5 DUP3 DUP6 ADD PUSH2 0x14D7 JUMP JUMPDEST SWAP2 POP POP SWAP3 SWAP2 POP POP JUMP JUMPDEST PUSH0 DUP2 SWAP1 POP SWAP2 SWAP1 POP JUMP JUMPDEST PUSH2 0x1528 DUP2 PUSH2 0x1516 JUMP JUMPDEST DUP3 MSTORE POP POP JUMP JUMPDEST PUSH0 PUSH1 0x20 DUP3 ADD SWAP1 POP PUSH2 0x1541 PUSH0 DUP4 ADD DUP5 PUSH2 0x151F JUMP JUMPDEST SWAP3 SWAP2 POP POP JUMP JUMPDEST PUSH0 DUP2 SWAP1 POP SWAP2 SWAP1 POP JUMP JUMPDEST PUSH2 0x1559 DUP2 PUSH2 0x1547 JUMP JUMPDEST DUP2 EQ PUSH2 0x1563 JUMPI PUSH0 DUP1 REVERT JUMPDEST POP JUMP JUMPDEST PUSH0 DUP2 CALLDATALOAD SWAP1 POP PUSH2 0x1574 DUP2 PUSH2 0x1550 JUMP JUMPDEST SWAP3 SWAP2 POP POP JUMP JUMPDEST PUSH0 PUSH1 0x20 DUP3 DUP5 SUB SLT ISZERO PUSH2 0x158F JUMPI PUSH2 0x158E PUSH2 0x13DA JUMP JUMPDEST JUMPDEST PUSH0 PUSH2 0x159C DUP5 DUP3 DUP6 ADD PUSH2 0x1566 JUMP JUMPDEST SWAP2 POP POP SWAP3 SWAP2 POP POP JUMP JUMPDEST PUSH2 0x15AE DUP2 PUSH2 0x1547 JUMP JUMPDEST DUP3 MSTORE POP POP JUMP JUMPDEST PUSH0 PUSH1 0x20 DUP3 ADD SWAP1 POP PUSH2 0x15C7 PUSH0 DUP4 ADD DUP5 PUSH2 0x15A5 JUMP JUMPDEST SWAP3 SWAP2 POP POP JUMP JUMPDEST PUSH0 DUP1 PUSH1 0x40 DUP4 DUP6 SUB SLT ISZERO PUSH2 0x15E3 JUMPI PUSH2 0x15E2 PUSH2 0x13DA JUMP JUMPDEST JUMPDEST PUSH0 PUSH2 0x15F0 DUP6 DUP3 DUP7 ADD PUSH2 0x1566 JUMP JUMPDEST SWAP3 POP POP PUSH1 0x20 PUSH2 0x1601 DUP6 DUP3 DUP7 ADD PUSH2 0x14D7 JUMP JUMPDEST SWAP2 POP POP SWAP3 POP SWAP3 SWAP1 POP JUMP JUMPDEST PUSH2 0x1614 DUP2 PUSH2 0x1516 JUMP JUMPDEST DUP2 EQ PUSH2 0x161E JUMPI PUSH0 DUP1 REVERT JUMPDEST POP JUMP JUMPDEST PUSH0 DUP2 CALLDATALOAD SWAP1 POP PUSH2 0x162F DUP2 PUSH2 0x160B JUMP JUMPDEST SWAP3 SWAP2 POP POP JUMP JUMPDEST PUSH0 DUP1 PUSH1 0x40 DUP4 DUP6 SUB SLT ISZERO PUSH2 0x164B JUMPI PUSH2 0x164A PUSH2 0x13DA JUMP JUMPDEST JUMPDEST PUSH0 PUSH2 0x1658 DUP6 DUP3 DUP7 ADD PUSH2 0x14D7 JUMP JUMPDEST SWAP3 POP POP PUSH1 0x20 PUSH2 0x1669 DUP6 DUP3 DUP7 ADD PUSH2 0x1621 JUMP JUMPDEST SWAP2 POP POP SWAP3 POP SWAP3 SWAP1 POP JUMP JUMPDEST PUSH0 DUP1 PUSH1 0x40 DUP4 DUP6 SUB SLT ISZERO PUSH2 0x1689 JUMPI PUSH2 0x1688 PUSH2 0x13DA JUMP JUMPDEST JUMPDEST PUSH0 PUSH2 0x1696 DUP6 DUP3 DUP7 ADD PUSH2 0x14D7 JUMP JUMPDEST SWAP3 POP POP PUSH1 0x20 PUSH2 0x16A7 DUP6 DUP3 DUP7 ADD PUSH2 0x14D7 JUMP JUMPDEST SWAP2 POP POP SWAP3 POP SWAP3 SWAP1 POP JUMP JUMPDEST PUSH0 PUSH2 0x16BB DUP3 PUSH2 0x14B0 JUMP JUMPDEST SWAP1 POP SWAP2 SWAP1 POP JUMP JUMPDEST PUSH2 0x16CB DUP2 PUSH2 0x16B1 JUMP JUMPDEST DUP2 EQ PUSH2 0x16D5 JUMPI PUSH0 DUP1 REVERT JUMPDEST POP JUMP JUMPDEST PUSH0 DUP2 CALLDATALOAD SWAP1 POP PUSH2 0x16E6 DUP2 PUSH2 0x16C2 JUMP JUMPDEST SWAP3 SWAP2 POP POP JUMP JUMPDEST PUSH0 DUP1 PUSH0 DUP1 PUSH1 0x80 DUP6 DUP8 SUB SLT ISZERO PUSH2 0x1704 JUMPI PUSH2 0x1703 PUSH2 0x13DA JUMP JUMPDEST JUMPDEST PUSH0 PUSH2 0x1711 DUP8 DUP3 DUP9 ADD PUSH2 0x16D8 JUMP JUMPDEST SWAP5 POP POP PUSH1 0x20 PUSH2 0x1722 DUP8 DUP3 DUP9 ADD PUSH2 0x1621 JUMP JUMPDEST SWAP4 POP POP PUSH1 0x40 PUSH2 0x1733 DUP8 DUP3 DUP9 ADD PUSH2 0x16D8 JUMP JUMPDEST SWAP3 POP POP PUSH1 0x60 PUSH2 0x1744 DUP8 DUP3 DUP9 ADD PUSH2 0x1621 JUMP JUMPDEST SWAP2 POP POP SWAP3 SWAP6 SWAP2 SWAP5 POP SWAP3 POP JUMP JUMPDEST PUSH0 PUSH1 0x20 DUP3 DUP5 SUB SLT ISZERO PUSH2 0x1765 JUMPI PUSH2 0x1764 PUSH2 0x13DA JUMP JUMPDEST JUMPDEST PUSH0 PUSH2 0x1772 DUP5 DUP3 DUP6 ADD PUSH2 0x1621 JUMP JUMPDEST SWAP2 POP POP SWAP3 SWAP2 POP POP JUMP JUMPDEST PUSH0 DUP2 SWAP1 POP SWAP2 SWAP1 POP JUMP JUMPDEST PUSH0 PUSH2 0x179E PUSH2 0x1799 PUSH2 0x1794 DUP5 PUSH2 0x1491 JUMP JUMPDEST PUSH2 0x177B JUMP JUMPDEST PUSH2 0x1491 JUMP JUMPDEST SWAP1 POP SWAP2 SWAP1 POP JUMP JUMPDEST PUSH0 PUSH2 0x17AF DUP3 PUSH2 0x1784 JUMP JUMPDEST SWAP1 POP SWAP2 SWAP1 POP JUMP JUMPDEST PUSH0 PUSH2 0x17C0 DUP3 PUSH2 0x17A5 JUMP JUMPDEST SWAP1 POP SWAP2 SWAP1 POP JUMP JUMPDEST PUSH2 0x17D0 DUP2 PUSH2 0x17B6 JUMP JUMPDEST DUP3 MSTORE POP POP JUMP JUMPDEST PUSH0 PUSH1 0x20 DUP3 ADD SWAP1 POP PUSH2 0x17E9 PUSH0 DUP4 ADD DUP5 PUSH2 0x17C7 JUMP JUMPDEST SWAP3 SWAP2 POP POP JUMP JUMPDEST PUSH32 0x4E487B7100000000000000000000000000000000000000000000000000000000 PUSH0 MSTORE PUSH1 0x11 PUSH1 0x4 MSTORE PUSH1 0x24 PUSH0 REVERT JUMPDEST PUSH0 PUSH2 0x1826 DUP3 PUSH2 0x1516 JUMP JUMPDEST SWAP2 POP PUSH2 0x1831 DUP4 PUSH2 0x1516 JUMP JUMPDEST SWAP3 POP DUP3 DUP3 MUL PUSH2 0x183F DUP2 PUSH2 0x1516 JUMP JUMPDEST SWAP2 POP DUP3 DUP3 DIV DUP5 EQ DUP4 ISZERO OR PUSH2 0x1856 JUMPI PUSH2 0x1855 PUSH2 0x17EF JUMP JUMPDEST JUMPDEST POP SWAP3 SWAP2 POP POP JUMP JUMPDEST PUSH32 0x4E487B7100000000000000000000000000000000000000000000000000000000 PUSH0 MSTORE PUSH1 0x12 PUSH1 0x4 MSTORE PUSH1 0x24 PUSH0 REVERT JUMPDEST PUSH0 PUSH2 0x1894 DUP3 PUSH2 0x1516 JUMP JUMPDEST SWAP2 POP PUSH2 0x189F DUP4 PUSH2 0x1516 JUMP JUMPDEST SWAP3 POP DUP3 PUSH2 0x18AF JUMPI PUSH2 0x18AE PUSH2 0x185D JUMP JUMPDEST JUMPDEST DUP3 DUP3 DIV SWAP1 POP SWAP3 SWAP2 POP POP JUMP JUMPDEST PUSH0 DUP3 DUP3 MSTORE PUSH1 0x20 DUP3 ADD SWAP1 POP SWAP3 SWAP2 POP POP JUMP JUMPDEST PUSH32 0x4173736574206E6F7420737570706F7274656400000000000000000000000000 PUSH0 DUP3 ADD MSTORE POP JUMP JUMPDEST PUSH0 PUSH2 0x18FE PUSH1 0x13 DUP4 PUSH2 0x18BA JUMP JUMPDEST SWAP2 POP PUSH2 0x1909 DUP3 PUSH2 0x18CA JUMP JUMPDEST PUSH1 0x20 DUP3 ADD SWAP1 POP SWAP2 SWAP1 POP JUMP JUMPDEST PUSH0 PUSH1 0x20 DUP3 ADD SWAP1 POP DUP2 DUP2 SUB PUSH0 DUP4 ADD MSTORE PUSH2 0x192B DUP2 PUSH2 0x18F2 JUMP JUMPDEST SWAP1 POP SWAP2 SWAP1 POP JUMP JUMPDEST PUSH2 0x193B DUP2 PUSH2 0x14B0 JUMP JUMPDEST DUP3 MSTORE POP POP JUMP JUMPDEST PUSH0 PUSH1 0x60 DUP3 ADD SWAP1 POP PUSH2 0x1954 PUSH0 DUP4 ADD DUP7 PUSH2 0x1932 JUMP JUMPDEST PUSH2 0x1961 PUSH1 0x20 DUP4 ADD DUP6 PUSH2 0x1932 JUMP JUMPDEST PUSH2 0x196E PUSH1 0x40 DUP4 ADD DUP5 PUSH2 0x151F JUMP JUMPDEST SWAP5 SWAP4 POP POP POP POP JUMP JUMPDEST PUSH2 0x197F DUP2 PUSH2 0x145E JUMP JUMPDEST DUP2 EQ PUSH2 0x1989 JUMPI PUSH0 DUP1 REVERT JUMPDEST POP JUMP JUMPDEST PUSH0 DUP2 MLOAD SWAP1 POP PUSH2 0x199A DUP2 PUSH2 0x1976 JUMP JUMPDEST SWAP3 SWAP2 POP POP JUMP JUMPDEST PUSH0 PUSH1 0x20 DUP3 DUP5 SUB SLT ISZERO PUSH2 0x19B5 JUMPI PUSH2 0x19B4 PUSH2 0x13DA JUMP JUMPDEST JUMPDEST PUSH0 PUSH2 0x19C2 DUP5 DUP3 DUP6 ADD PUSH2 0x198C JUMP JUMPDEST SWAP2 POP POP SWAP3 SWAP2 POP POP JUMP JUMPDEST PUSH0 PUSH2 0x19D5 DUP3 PUSH2 0x1516 JUMP JUMPDEST SWAP2 POP PUSH2 0x19E0 DUP4 PUSH2 0x1516 JUMP JUMPDEST SWAP3 POP DUP3 DUP3 ADD SWAP1 POP DUP1 DUP3 GT ISZERO PUSH2 0x19F8 JUMPI PUSH2 0x19F7 PUSH2 0x17EF JUMP JUMPDEST JUMPDEST SWAP3 SWAP2 POP POP JUMP JUMPDEST PUSH32 0x4E487B7100000000000000000000000000000000000000000000000000000000 PUSH0 MSTORE PUSH1 0x32 PUSH1 0x4 MSTORE PUSH1 0x24 PUSH0 REVERT JUMPDEST PUSH0 PUSH2 0x1A35 DUP3 PUSH2 0x1516 JUMP JUMPDEST SWAP2 POP PUSH2 0x1A40 DUP4 PUSH2 0x1516 JUMP JUMPDEST SWAP3 POP DUP3 DUP3 SUB SWAP1 POP DUP2 DUP2 GT ISZERO PUSH2 0x1A58 JUMPI PUSH2 0x1A57 PUSH2 0x17EF JUMP JUMPDEST JUMPDEST SWAP3 SWAP2 POP POP JUMP JUMPDEST PUSH32 0x496E73756666696369656E742062616C616E6365000000000000000000000000 PUSH0 DUP3 ADD MSTORE POP JUMP JUMPDEST PUSH0 PUSH2 0x1A92 PUSH1 0x14 DUP4 PUSH2 0x18BA JUMP JUMPDEST SWAP2 POP PUSH2 0x1A9D DUP3 PUSH2 0x1A5E JUMP JUMPDEST PUSH1 0x20 DUP3 ADD SWAP1 POP SWAP2 SWAP1 POP JUMP JUMPDEST PUSH0 PUSH1 0x20 DUP3 ADD SWAP1 POP DUP2 DUP2 SUB PUSH0 DUP4 ADD MSTORE PUSH2 0x1ABF DUP2 PUSH2 0x1A86 JUMP JUMPDEST SWAP1 POP SWAP2 SWAP1 POP JUMP JUMPDEST PUSH0 PUSH1 0x40 DUP3 ADD SWAP1 POP PUSH2 0x1AD9 PUSH0 DUP4 ADD DUP6 PUSH2 0x1932 JUMP JUMPDEST PUSH2 0x1AE6 PUSH1 0x20 DUP4 ADD DUP5 PUSH2 0x151F JUMP JUMPDEST SWAP4 SWAP3 POP POP POP JUMP JUMPDEST PUSH0 PUSH10 0xFFFFFFFFFFFFFFFFFFFF DUP3 AND SWAP1 POP SWAP2 SWAP1 POP JUMP JUMPDEST PUSH2 0x1B0B DUP2 PUSH2 0x1AED JUMP JUMPDEST DUP2 EQ PUSH2 0x1B15 JUMPI PUSH0 DUP1 REVERT JUMPDEST POP JUMP JUMPDEST PUSH0 DUP2 MLOAD SWAP1 POP PUSH2 0x1B26 DUP2 PUSH2 0x1B02 JUMP JUMPDEST SWAP3 SWAP2 POP POP JUMP JUMPDEST PUSH0 DUP2 SWAP1 POP SWAP2 SWAP1 POP JUMP JUMPDEST PUSH2 0x1B3E DUP2 PUSH2 0x1B2C JUMP JUMPDEST DUP2 EQ PUSH2 0x1B48 JUMPI PUSH0 DUP1 REVERT JUMPDEST POP JUMP JUMPDEST PUSH0 DUP2 MLOAD SWAP1 POP PUSH2 0x1B59 DUP2 PUSH2 0x1B35 JUMP JUMPDEST SWAP3 SWAP2 POP POP JUMP JUMPDEST PUSH0 DUP2 MLOAD SWAP1 POP PUSH2 0x1B6D DUP2 PUSH2 0x160B JUMP JUMPDEST SWAP3 SWAP2 POP POP JUMP JUMPDEST PUSH0 DUP1 PUSH0 DUP1 PUSH0 PUSH1 0xA0 DUP7 DUP9 SUB SLT ISZERO PUSH2 0x1B8C JUMPI PUSH2 0x1B8B PUSH2 0x13DA JUMP JUMPDEST JUMPDEST PUSH0 PUSH2 0x1B99 DUP9 DUP3 DUP10 ADD PUSH2 0x1B18 JUMP JUMPDEST SWAP6 POP POP PUSH1 0x20 PUSH2 0x1BAA DUP9 DUP3 DUP10 ADD PUSH2 0x1B4B JUMP JUMPDEST SWAP5 POP POP PUSH1 0x40 PUSH2 0x1BBB DUP9 DUP3 DUP10 ADD PUSH2 0x1B5F JUMP JUMPDEST SWAP4 POP POP PUSH1 0x60 PUSH2 0x1BCC DUP9 DUP3 DUP10 ADD PUSH2 0x1B5F JUMP JUMPDEST SWAP3 POP POP PUSH1 0x80 PUSH2 0x1BDD DUP9 DUP3 DUP10 ADD PUSH2 0x1B18 JUMP JUMPDEST SWAP2 POP POP SWAP3 SWAP6 POP SWAP3 SWAP6 SWAP1 SWAP4 POP JUMP JUMPDEST PUSH0 PUSH1 0x40 DUP3 ADD SWAP1 POP PUSH2 0x1BFD PUSH0 DUP4 ADD DUP6 PUSH2 0x1932 JUMP JUMPDEST PUSH2 0x1C0A PUSH1 0x20 DUP4 ADD DUP5 PUSH2 0x15A5 JUMP JUMPDEST SWAP4 SWAP3 POP POP POP JUMP INVALID LOG2 PUSH5 0x6970667358 0x22 SLT KECCAK256 PUSH5 0xA6FC8B96EA 0xBA CALL PUSH32 0x56A114CBD289490CAD0B7B5E65DBF30C3508408C66373564736F6C6343000817 STOP CALLER LOG2 PUSH5 0x6970667358 0x22 SLT KECCAK256 0xAA SWAP11 SWAP9 PUSH16 0xF73F3C8F197FBE58C22B60BCA7221504 INVALID 0xBA 0x4C SWAP14 0xBC 0x2A 0xE5 DUP15 PUSH20 0xDFBB6E64736F6C63430008170033000000000000 "
		},
		"gasEstimates": {
			"creation": {
				"codeDepositCost": "2764600",
				"executionCost": "infinite",
				"totalCost": "infinite"
			},
			"external": {
				"ADMIN_ROLE()": "370",
				"DEFAULT_ADMIN_ROLE()": "374",
				"TRADER_ROLE()": "413",
				"addTrader(address)": "infinite",
				"createVault(address[],uint256)": "infinite",
				"executeTrade(uint256,address,uint256,address,uint256)": "infinite",
				"getRoleAdmin(bytes32)": "infinite",
				"grantRole(bytes32,address)": "infinite",
				"hasRole(bytes32,address)": "3144",
				"managedVaults(uint256)": "infinite",
				"removeTrader(address)": "infinite",
				"renounceRole(bytes32,address)": "infinite",
				"revokeRole(bytes32,address)": "infinite",
				"supportsInterface(bytes4)": "741"
			}
		},
		"methodIdentifiers": {
			"ADMIN_ROLE()": "75b238fc",
			"DEFAULT_ADMIN_ROLE()": "a217fddf",
			"TRADER_ROLE()": "f0a56fc8",
			"addTrader(address)": "5d428e08",
			"createVault(address[],uint256)": "82520648",
			"executeTrade(uint256,address,uint256,address,uint256)": "404a3d61",
			"getRoleAdmin(bytes32)": "248a9ca3",
			"grantRole(bytes32,address)": "2f2ff15d",
			"hasRole(bytes32,address)": "91d14854",
			"managedVaults(uint256)": "53fcc3be",
			"removeTrader(address)": "0a1f194f",
			"renounceRole(bytes32,address)": "36568abe",
			"revokeRole(bytes32,address)": "d547741f",
			"supportsInterface(bytes4)": "01ffc9a7"
		}
	},
	"abi": [
		{
			"inputs": [],
			"stateMutability": "nonpayable",
			"type": "constructor"
		},
		{
			"inputs": [],
			"name": "AccessControlBadConfirmation",
			"type": "error"
		},
		{
			"inputs": [
				{
					"internalType": "address",
					"name": "account",
					"type": "address"
				},
				{
					"internalType": "bytes32",
					"name": "neededRole",
					"type": "bytes32"
				}
			],
			"name": "AccessControlUnauthorizedAccount",
			"type": "error"
		},
		{
			"anonymous": false,
			"inputs": [
				{
					"indexed": true,
					"internalType": "bytes32",
					"name": "role",
					"type": "bytes32"
				},
				{
					"indexed": true,
					"internalType": "bytes32",
					"name": "previousAdminRole",
					"type": "bytes32"
				},
				{
					"indexed": true,
					"internalType": "bytes32",
					"name": "newAdminRole",
					"type": "bytes32"
				}
			],
			"name": "RoleAdminChanged",
			"type": "event"
		},
		{
			"anonymous": false,
			"inputs": [
				{
					"indexed": true,
					"internalType": "bytes32",
					"name": "role",
					"type": "bytes32"
				},
				{
					"indexed": true,
					"internalType": "address",
					"name": "account",
					"type": "address"
				},
				{
					"indexed": true,
					"internalType": "address",
					"name": "sender",
					"type": "address"
				}
			],
			"name": "RoleGranted",
			"type": "event"
		},
		{
			"anonymous": false,
			"inputs": [
				{
					"indexed": true,
					"internalType": "bytes32",
					"name": "role",
					"type": "bytes32"
				},
				{
					"indexed": true,
					"internalType": "address",
					"name": "account",
					"type": "address"
				},
				{
					"indexed": true,
					"internalType": "address",
					"name": "sender",
					"type": "address"
				}
			],
			"name": "RoleRevoked",
			"type": "event"
		},
		{
			"inputs": [],
			"name": "ADMIN_ROLE",
			"outputs": [
				{
					"internalType": "bytes32",
					"name": "",
					"type": "bytes32"
				}
			],
			"stateMutability": "view",
			"type": "function"
		},
		{
			"inputs": [],
			"name": "DEFAULT_ADMIN_ROLE",
			"outputs": [
				{
					"internalType": "bytes32",
					"name": "",
					"type": "bytes32"
				}
			],
			"stateMutability": "view",
			"type": "function"
		},
		{
			"inputs": [],
			"name": "TRADER_ROLE",
			"outputs": [
				{
					"internalType": "bytes32",
					"name": "",
					"type": "bytes32"
				}
			],
			"stateMutability": "view",
			"type": "function"
		},
		{
			"inputs": [
				{
					"internalType": "address",
					"name": "_trader",
					"type": "address"
				}
			],
			"name": "addTrader",
			"outputs": [],
			"stateMutability": "nonpayable",
			"type": "function"
		},
		{
			"inputs": [
				{
					"internalType": "address[]",
					"name": "_initialAssets",
					"type": "address[]"
				},
				{
					"internalType": "uint256",
					"name": "_performanceFee",
					"type": "uint256"
				}
			],
			"name": "createVault",
			"outputs": [],
			"stateMutability": "nonpayable",
			"type": "function"
		},
		{
			"inputs": [
				{
					"internalType": "uint256",
					"name": "_vaultIndex",
					"type": "uint256"
				},
				{
					"internalType": "address",
					"name": "_asset1",
					"type": "address"
				},
				{
					"internalType": "uint256",
					"name": "_amount1",
					"type": "uint256"
				},
				{
					"internalType": "address",
					"name": "_asset2",
					"type": "address"
				},
				{
					"internalType": "uint256",
					"name": "_amount2",
					"type": "uint256"
				}
			],
			"name": "executeTrade",
			"outputs": [],
			"stateMutability": "nonpayable",
			"type": "function"
		},
		{
			"inputs": [
				{
					"internalType": "bytes32",
					"name": "role",
					"type": "bytes32"
				}
			],
			"name": "getRoleAdmin",
			"outputs": [
				{
					"internalType": "bytes32",
					"name": "",
					"type": "bytes32"
				}
			],
			"stateMutability": "view",
			"type": "function"
		},
		{
			"inputs": [
				{
					"internalType": "bytes32",
					"name": "role",
					"type": "bytes32"
				},
				{
					"internalType": "address",
					"name": "account",
					"type": "address"
				}
			],
			"name": "grantRole",
			"outputs": [],
			"stateMutability": "nonpayable",
			"type": "function"
		},
		{
			"inputs": [
				{
					"internalType": "bytes32",
					"name": "role",
					"type": "bytes32"
				},
				{
					"internalType": "address",
					"name": "account",
					"type": "address"
				}
			],
			"name": "hasRole",
			"outputs": [
				{
					"internalType": "bool",
					"name": "",
					"type": "bool"
				}
			],
			"stateMutability": "view",
			"type": "function"
		},
		{
			"inputs": [
				{
					"internalType": "uint256",
					"name": "",
					"type": "uint256"
				}
			],
			"name": "managedVaults",
			"outputs": [
				{
					"internalType": "contract AssetVault",
					"name": "",
					"type": "address"
				}
			],
			"stateMutability": "view",
			"type": "function"
		},
		{
			"inputs": [
				{
					"internalType": "address",
					"name": "_trader",
					"type": "address"
				}
			],
			"name": "removeTrader",
			"outputs": [],
			"stateMutability": "nonpayable",
			"type": "function"
		},
		{
			"inputs": [
				{
					"internalType": "bytes32",
					"name": "role",
					"type": "bytes32"
				},
				{
					"internalType": "address",
					"name": "callerConfirmation",
					"type": "address"
				}
			],
			"name": "renounceRole",
			"outputs": [],
			"stateMutability": "nonpayable",
			"type": "function"
		},
		{
			"inputs": [
				{
					"internalType": "bytes32",
					"name": "role",
					"type": "bytes32"
				},
				{
					"internalType": "address",
					"name": "account",
					"type": "address"
				}
			],
			"name": "revokeRole",
			"outputs": [],
			"stateMutability": "nonpayable",
			"type": "function"
		},
		{
			"inputs": [
				{
					"internalType": "bytes4",
					"name": "interfaceId",
					"type": "bytes4"
				}
			],
			"name": "supportsInterface",
			"outputs": [
				{
					"internalType": "bool",
					"name": "",
					"type": "bool"
				}
			],
			"stateMutability": "view",
			"type": "function"
		}
	]
}