{
	"contracts/vault/AssetVault/AssetVault.sol": {
		"AssetVault": {
			"abi": [
				{
					"inputs": [
						{
							"internalType": "address",
							"name": "_vaultManager",
							"type": "address"
						},
						{
							"internalType": "address[]",
							"name": "_initialAssets",
							"type": "address[]"
						},
						{
							"internalType": "uint256",
							"name": "_performanceFee",
							"type": "uint256"
						},
						{
							"internalType": "address",
							"name": "_owner",
							"type": "address"
						}
					],
					"stateMutability": "nonpayable",
					"type": "constructor"
				},
				{
					"inputs": [],
					"name": "AccessControlBadConfirmation",
					"type": "error"
				},
				{
					"inputs": [
						{
							"internalType": "address",
							"name": "account",
							"type": "address"
						},
						{
							"internalType": "bytes32",
							"name": "neededRole",
							"type": "bytes32"
						}
					],
					"name": "AccessControlUnauthorizedAccount",
					"type": "error"
				},
				{
					"anonymous": false,
					"inputs": [
						{
							"indexed": true,
							"internalType": "bytes32",
							"name": "role",
							"type": "bytes32"
						},
						{
							"indexed": true,
							"internalType": "bytes32",
							"name": "previousAdminRole",
							"type": "bytes32"
						},
						{
							"indexed": true,
							"internalType": "bytes32",
							"name": "newAdminRole",
							"type": "bytes32"
						}
					],
					"name": "RoleAdminChanged",
					"type": "event"
				},
				{
					"anonymous": false,
					"inputs": [
						{
							"indexed": true,
							"internalType": "bytes32",
							"name": "role",
							"type": "bytes32"
						},
						{
							"indexed": true,
							"internalType": "address",
							"name": "account",
							"type": "address"
						},
						{
							"indexed": true,
							"internalType": "address",
							"name": "sender",
							"type": "address"
						}
					],
					"name": "RoleGranted",
					"type": "event"
				},
				{
					"anonymous": false,
					"inputs": [
						{
							"indexed": true,
							"internalType": "bytes32",
							"name": "role",
							"type": "bytes32"
						},
						{
							"indexed": true,
							"internalType": "address",
							"name": "account",
							"type": "address"
						},
						{
							"indexed": true,
							"internalType": "address",
							"name": "sender",
							"type": "address"
						}
					],
					"name": "RoleRevoked",
					"type": "event"
				},
				{
					"inputs": [],
					"name": "ADMIN_ROLE",
					"outputs": [
						{
							"internalType": "bytes32",
							"name": "",
							"type": "bytes32"
						}
					],
					"stateMutability": "view",
					"type": "function"
				},
				{
					"inputs": [],
					"name": "DEFAULT_ADMIN_ROLE",
					"outputs": [
						{
							"internalType": "bytes32",
							"name": "",
							"type": "bytes32"
						}
					],
					"stateMutability": "view",
					"type": "function"
				},
				{
					"inputs": [],
					"name": "VAULT_MANAGER_ROLE",
					"outputs": [
						{
							"internalType": "bytes32",
							"name": "",
							"type": "bytes32"
						}
					],
					"stateMutability": "view",
					"type": "function"
				},
				{
					"inputs": [],
					"name": "collectPerformanceFee",
					"outputs": [],
					"stateMutability": "nonpayable",
					"type": "function"
				},
				{
					"inputs": [
						{
							"internalType": "address",
							"name": "_asset",
							"type": "address"
						},
						{
							"internalType": "uint256",
							"name": "_amount",
							"type": "uint256"
						}
					],
					"name": "deposit",
					"outputs": [],
					"stateMutability": "nonpayable",
					"type": "function"
				},
				{
					"inputs": [
						{
							"internalType": "address",
							"name": "_asset",
							"type": "address"
						},
						{
							"internalType": "uint256",
							"name": "_amount",
							"type": "uint256"
						}
					],
					"name": "estimateAssetValueUSD",
					"outputs": [
						{
							"internalType": "uint256",
							"name": "valueUSD",
							"type": "uint256"
						}
					],
					"stateMutability": "view",
					"type": "function"
				},
				{
					"inputs": [],
					"name": "estimateVaultValue",
					"outputs": [
						{
							"internalType": "uint256",
							"name": "",
							"type": "uint256"
						}
					],
					"stateMutability": "view",
					"type": "function"
				},
				{
					"inputs": [
						{
							"internalType": "bytes32",
							"name": "role",
							"type": "bytes32"
						}
					],
					"name": "getRoleAdmin",
					"outputs": [
						{
							"internalType": "bytes32",
							"name": "",
							"type": "bytes32"
						}
					],
					"stateMutability": "view",
					"type": "function"
				},
				{
					"inputs": [
						{
							"internalType": "bytes32",
							"name": "role",
							"type": "bytes32"
						},
						{
							"internalType": "address",
							"name": "account",
							"type": "address"
						}
					],
					"name": "grantRole",
					"outputs": [],
					"stateMutability": "nonpayable",
					"type": "function"
				},
				{
					"inputs": [
						{
							"internalType": "bytes32",
							"name": "role",
							"type": "bytes32"
						},
						{
							"internalType": "address",
							"name": "account",
							"type": "address"
						}
					],
					"name": "hasRole",
					"outputs": [
						{
							"internalType": "bool",
							"name": "",
							"type": "bool"
						}
					],
					"stateMutability": "view",
					"type": "function"
				},
				{
					"inputs": [],
					"name": "lastRecordedProfit",
					"outputs": [
						{
							"internalType": "uint256",
							"name": "",
							"type": "uint256"
						}
					],
					"stateMutability": "view",
					"type": "function"
				},
				{
					"inputs": [],
					"name": "performanceFeePercentage",
					"outputs": [
						{
							"internalType": "uint256",
							"name": "",
							"type": "uint256"
						}
					],
					"stateMutability": "view",
					"type": "function"
				},
				{
					"inputs": [
						{
							"internalType": "bytes32",
							"name": "role",
							"type": "bytes32"
						},
						{
							"internalType": "address",
							"name": "callerConfirmation",
							"type": "address"
						}
					],
					"name": "renounceRole",
					"outputs": [],
					"stateMutability": "nonpayable",
					"type": "function"
				},
				{
					"inputs": [
						{
							"internalType": "bytes32",
							"name": "role",
							"type": "bytes32"
						},
						{
							"internalType": "address",
							"name": "account",
							"type": "address"
						}
					],
					"name": "revokeRole",
					"outputs": [],
					"stateMutability": "nonpayable",
					"type": "function"
				},
				{
					"inputs": [
						{
							"internalType": "address",
							"name": "_asset",
							"type": "address"
						},
						{
							"internalType": "address",
							"name": "_oracle",
							"type": "address"
						}
					],
					"name": "setAssetToOracle",
					"outputs": [],
					"stateMutability": "nonpayable",
					"type": "function"
				},
				{
					"inputs": [
						{
							"internalType": "uint256",
							"name": "",
							"type": "uint256"
						}
					],
					"name": "supportedAssets",
					"outputs": [
						{
							"internalType": "contract IERC20",
							"name": "",
							"type": "address"
						}
					],
					"stateMutability": "view",
					"type": "function"
				},
				{
					"inputs": [
						{
							"internalType": "bytes4",
							"name": "interfaceId",
							"type": "bytes4"
						}
					],
					"name": "supportsInterface",
					"outputs": [
						{
							"internalType": "bool",
							"name": "",
							"type": "bool"
						}
					],
					"stateMutability": "view",
					"type": "function"
				},
				{
					"inputs": [],
					"name": "totalProfits",
					"outputs": [
						{
							"internalType": "uint256",
							"name": "",
							"type": "uint256"
						}
					],
					"stateMutability": "view",
					"type": "function"
				},
				{
					"inputs": [
						{
							"internalType": "address",
							"name": "",
							"type": "address"
						}
					],
					"name": "totalVaultBalance",
					"outputs": [
						{
							"internalType": "uint256",
							"name": "",
							"type": "uint256"
						}
					],
					"stateMutability": "view",
					"type": "function"
				},
				{
					"inputs": [
						{
							"internalType": "contract IERC20",
							"name": "_asset1",
							"type": "address"
						},
						{
							"internalType": "uint256",
							"name": "_amount1",
							"type": "uint256"
						},
						{
							"internalType": "contract IERC20",
							"name": "_asset2",
							"type": "address"
						},
						{
							"internalType": "uint256",
							"name": "_amount2",
							"type": "uint256"
						}
					],
					"name": "trade",
					"outputs": [],
					"stateMutability": "nonpayable",
					"type": "function"
				},
				{
					"inputs": [
						{
							"internalType": "address",
							"name": "",
							"type": "address"
						}
					],
					"name": "userDeposits",
					"outputs": [
						{
							"internalType": "uint256",
							"name": "totalValue",
							"type": "uint256"
						}
					],
					"stateMutability": "view",
					"type": "function"
				},
				{
					"inputs": [
						{
							"internalType": "address",
							"name": "",
							"type": "address"
						}
					],
					"name": "userProfits",
					"outputs": [
						{
							"internalType": "uint256",
							"name": "",
							"type": "uint256"
						}
					],
					"stateMutability": "view",
					"type": "function"
				},
				{
					"inputs": [
						{
							"internalType": "address",
							"name": "_asset",
							"type": "address"
						},
						{
							"internalType": "uint256",
							"name": "_amount",
							"type": "uint256"
						}
					],
					"name": "withdraw",
					"outputs": [],
					"stateMutability": "nonpayable",
					"type": "function"
				}
			],
			"devdoc": {
				"errors": {
					"AccessControlBadConfirmation()": [
						{
							"details": "The caller of a function is not the expected one. NOTE: Don't confuse with {AccessControlUnauthorizedAccount}."
						}
					],
					"AccessControlUnauthorizedAccount(address,bytes32)": [
						{
							"details": "The `account` is missing a role."
						}
					]
				},
				"events": {
					"RoleAdminChanged(bytes32,bytes32,bytes32)": {
						"details": "Emitted when `newAdminRole` is set as ``role``'s admin role, replacing `previousAdminRole` `DEFAULT_ADMIN_ROLE` is the starting admin for all roles, despite {RoleAdminChanged} not being emitted signaling this."
					},
					"RoleGranted(bytes32,address,address)": {
						"details": "Emitted when `account` is granted `role`. `sender` is the account that originated the contract call, an admin role bearer except when using {AccessControl-_setupRole}."
					},
					"RoleRevoked(bytes32,address,address)": {
						"details": "Emitted when `account` is revoked `role`. `sender` is the account that originated the contract call:   - if using `revokeRole`, it is the admin role bearer   - if using `renounceRole`, it is the role bearer (i.e. `account`)"
					}
				},
				"kind": "dev",
				"methods": {
					"getRoleAdmin(bytes32)": {
						"details": "Returns the admin role that controls `role`. See {grantRole} and {revokeRole}. To change a role's admin, use {_setRoleAdmin}."
					},
					"grantRole(bytes32,address)": {
						"details": "Grants `role` to `account`. If `account` had not been already granted `role`, emits a {RoleGranted} event. Requirements: - the caller must have ``role``'s admin role. May emit a {RoleGranted} event."
					},
					"hasRole(bytes32,address)": {
						"details": "Returns `true` if `account` has been granted `role`."
					},
					"renounceRole(bytes32,address)": {
						"details": "Revokes `role` from the calling account. Roles are often managed via {grantRole} and {revokeRole}: this function's purpose is to provide a mechanism for accounts to lose their privileges if they are compromised (such as when a trusted device is misplaced). If the calling account had been revoked `role`, emits a {RoleRevoked} event. Requirements: - the caller must be `callerConfirmation`. May emit a {RoleRevoked} event."
					},
					"revokeRole(bytes32,address)": {
						"details": "Revokes `role` from `account`. If `account` had been granted `role`, emits a {RoleRevoked} event. Requirements: - the caller must have ``role``'s admin role. May emit a {RoleRevoked} event."
					},
					"supportsInterface(bytes4)": {
						"details": "See {IERC165-supportsInterface}."
					}
				},
				"version": 1
			},
			"evm": {
				"assembly": "    /* \"contracts/vault/AssetVault/AssetVault.sol\":323:6427  contract AssetVault is AccessControl {... */\n  mstore(0x40, 0x80)\n    /* \"contracts/vault/AssetVault/AssetVault.sol\":1181:1783  constructor(... */\n  callvalue\n  dup1\n  iszero\n  tag_1\n  jumpi\n  0x00\n  dup1\n  revert\ntag_1:\n  pop\n  mload(0x40)\n  sub(codesize, bytecodeSize)\n  dup1\n  bytecodeSize\n  dup4\n  codecopy\n  dup2\n  dup2\n  add\n  0x40\n  mstore\n  dup2\n  add\n  swap1\n  tag_2\n  swap2\n  swap1\n  tag_3\n  jump\t// in\ntag_2:\n    /* \"contracts/vault/AssetVault/AssetVault.sol\":1338:1382  grantRole(VAULT_MANAGER_ROLE, _vaultManager) */\n  tag_6\n    /* \"contracts/vault/AssetVault/AssetVault.sol\":668:699  keccak256(\"VAULT_MANAGER_ROLE\") */\n  0xd1473398bb66596de5d1ea1fc8e303ff2ac23265adc9144b1b52065dc4f0934b\n    /* \"contracts/vault/AssetVault/AssetVault.sol\":1368:1381  _vaultManager */\n  dup6\n    /* \"contracts/vault/AssetVault/AssetVault.sol\":1338:1347  grantRole */\n  shl(0x20, tag_7)\n    /* \"contracts/vault/AssetVault/AssetVault.sol\":1338:1382  grantRole(VAULT_MANAGER_ROLE, _vaultManager) */\n  0x20\n  shr\n  jump\t// in\ntag_6:\n    /* \"contracts/vault/AssetVault/AssetVault.sol\":1392:1429  grantRole(DEFAULT_ADMIN_ROLE, _owner) */\n  tag_8\n    /* \"@openzeppelin/contracts/access/AccessControl.sol\":2232:2236  0x00 */\n  0x00\n    /* \"contracts/vault/AssetVault/AssetVault.sol\":1402:1420  DEFAULT_ADMIN_ROLE */\n  dup1\n  shl\n    /* \"contracts/vault/AssetVault/AssetVault.sol\":1422:1428  _owner */\n  dup3\n    /* \"contracts/vault/AssetVault/AssetVault.sol\":1392:1401  grantRole */\n  shl(0x20, tag_7)\n    /* \"contracts/vault/AssetVault/AssetVault.sol\":1392:1429  grantRole(DEFAULT_ADMIN_ROLE, _owner) */\n  0x20\n  shr\n  jump\t// in\ntag_8:\n    /* \"contracts/vault/AssetVault/AssetVault.sol\":1439:1484  _setRoleAdmin(VAULT_MANAGER_ROLE, ADMIN_ROLE) */\n  tag_9\n    /* \"contracts/vault/AssetVault/AssetVault.sol\":668:699  keccak256(\"VAULT_MANAGER_ROLE\") */\n  0xd1473398bb66596de5d1ea1fc8e303ff2ac23265adc9144b1b52065dc4f0934b\n    /* \"contracts/vault/AssetVault/AssetVault.sol\":742:765  keccak256(\"ADMIN_ROLE\") */\n  0xa49807205ce4d355092ef5a8a18f56e8913cf4a201fbe287825b095693c21775\n    /* \"contracts/vault/AssetVault/AssetVault.sol\":1439:1452  _setRoleAdmin */\n  shl(0x20, tag_10)\n    /* \"contracts/vault/AssetVault/AssetVault.sol\":1439:1484  _setRoleAdmin(VAULT_MANAGER_ROLE, ADMIN_ROLE) */\n  0x20\n  shr\n  jump\t// in\ntag_9:\n    /* \"contracts/vault/AssetVault/AssetVault.sol\":1539:1548  uint256 i */\n  0x00\n    /* \"contracts/vault/AssetVault/AssetVault.sol\":1534:1658  for (uint256 i = 0; i < _initialAssets.length; i++) {... */\ntag_11:\n    /* \"contracts/vault/AssetVault/AssetVault.sol\":1558:1572  _initialAssets */\n  dup4\n    /* \"contracts/vault/AssetVault/AssetVault.sol\":1558:1579  _initialAssets.length */\n  mload\n    /* \"contracts/vault/AssetVault/AssetVault.sol\":1554:1555  i */\n  dup2\n    /* \"contracts/vault/AssetVault/AssetVault.sol\":1554:1579  i < _initialAssets.length */\n  lt\n    /* \"contracts/vault/AssetVault/AssetVault.sol\":1534:1658  for (uint256 i = 0; i < _initialAssets.length; i++) {... */\n  iszero\n  tag_12\n  jumpi\n    /* \"contracts/vault/AssetVault/AssetVault.sol\":1600:1615  supportedAssets */\n  0x02\n    /* \"contracts/vault/AssetVault/AssetVault.sol\":1628:1642  _initialAssets */\n  dup5\n    /* \"contracts/vault/AssetVault/AssetVault.sol\":1643:1644  i */\n  dup3\n    /* \"contracts/vault/AssetVault/AssetVault.sol\":1628:1645  _initialAssets[i] */\n  dup2\n  mload\n  dup2\n  lt\n  tag_14\n  jumpi\n  tag_15\n  tag_16\n  jump\t// in\ntag_15:\ntag_14:\n  0x20\n  mul\n  0x20\n  add\n  add\n  mload\n    /* \"contracts/vault/AssetVault/AssetVault.sol\":1600:1647  supportedAssets.push(IERC20(_initialAssets[i])) */\n  swap1\n  dup1\n  0x01\n  dup2\n  sload\n  add\n  dup1\n  dup3\n  sstore\n  dup1\n  swap2\n  pop\n  pop\n  0x01\n  swap1\n  sub\n  swap1\n  0x00\n  mstore\n  keccak256(0x00, 0x20)\n  add\n  0x00\n  swap1\n  swap2\n  swap1\n  swap2\n  swap1\n  swap2\n  0x0100\n  exp\n  dup2\n  sload\n  dup2\n  0xffffffffffffffffffffffffffffffffffffffff\n  mul\n  not\n  and\n  swap1\n  dup4\n  0xffffffffffffffffffffffffffffffffffffffff\n  and\n  mul\n  or\n  swap1\n  sstore\n  pop\n    /* \"contracts/vault/AssetVault/AssetVault.sol\":1581:1584  i++ */\n  dup1\n  dup1\n  0x01\n  add\n  swap2\n  pop\n  pop\n    /* \"contracts/vault/AssetVault/AssetVault.sol\":1534:1658  for (uint256 i = 0; i < _initialAssets.length; i++) {... */\n  jump(tag_11)\ntag_12:\n  pop\n    /* \"contracts/vault/AssetVault/AssetVault.sol\":1694:1709  _performanceFee */\n  dup2\n    /* \"contracts/vault/AssetVault/AssetVault.sol\":1667:1691  performanceFeePercentage */\n  0x07\n    /* \"contracts/vault/AssetVault/AssetVault.sol\":1667:1709  performanceFeePercentage = _performanceFee */\n  dup2\n  swap1\n  sstore\n  pop\n    /* \"contracts/vault/AssetVault/AssetVault.sol\":1740:1741  0 */\n  0x00\n    /* \"contracts/vault/AssetVault/AssetVault.sol\":1719:1737  lastRecordedProfit */\n  0x08\n    /* \"contracts/vault/AssetVault/AssetVault.sol\":1719:1741  lastRecordedProfit = 0 */\n  dup2\n  swap1\n  sstore\n  pop\n    /* \"contracts/vault/AssetVault/AssetVault.sol\":1181:1783  constructor(... */\n  pop\n  pop\n  pop\n  pop\n    /* \"contracts/vault/AssetVault/AssetVault.sol\":323:6427  contract AssetVault is AccessControl {... */\n  jump(tag_18)\n    /* \"@openzeppelin/contracts/access/AccessControl.sol\":4226:4362  function grantRole(bytes32 role, address account) public virtual onlyRole(getRoleAdmin(role)) {... */\ntag_7:\n    /* \"@openzeppelin/contracts/access/AccessControl.sol\":4300:4318  getRoleAdmin(role) */\n  tag_19\n    /* \"@openzeppelin/contracts/access/AccessControl.sol\":4313:4317  role */\n  dup3\n    /* \"@openzeppelin/contracts/access/AccessControl.sol\":4300:4312  getRoleAdmin */\n  shl(0x20, tag_20)\n    /* \"@openzeppelin/contracts/access/AccessControl.sol\":4300:4318  getRoleAdmin(role) */\n  0x20\n  shr\n  jump\t// in\ntag_19:\n    /* \"@openzeppelin/contracts/access/AccessControl.sol\":2464:2480  _checkRole(role) */\n  tag_22\n    /* \"@openzeppelin/contracts/access/AccessControl.sol\":2475:2479  role */\n  dup2\n    /* \"@openzeppelin/contracts/access/AccessControl.sol\":2464:2474  _checkRole */\n  shl(0x20, tag_23)\n    /* \"@openzeppelin/contracts/access/AccessControl.sol\":2464:2480  _checkRole(role) */\n  0x20\n  shr\n  jump\t// in\ntag_22:\n    /* \"@openzeppelin/contracts/access/AccessControl.sol\":4330:4355  _grantRole(role, account) */\n  tag_25\n    /* \"@openzeppelin/contracts/access/AccessControl.sol\":4341:4345  role */\n  dup4\n    /* \"@openzeppelin/contracts/access/AccessControl.sol\":4347:4354  account */\n  dup4\n    /* \"@openzeppelin/contracts/access/AccessControl.sol\":4330:4340  _grantRole */\n  shl(0x20, tag_26)\n    /* \"@openzeppelin/contracts/access/AccessControl.sol\":4330:4355  _grantRole(role, account) */\n  0x20\n  shr\n  jump\t// in\ntag_25:\n  pop\n    /* \"@openzeppelin/contracts/access/AccessControl.sol\":4226:4362  function grantRole(bytes32 role, address account) public virtual onlyRole(getRoleAdmin(role)) {... */\n  pop\n  pop\n  pop\n  jump\t// out\n    /* \"@openzeppelin/contracts/access/AccessControl.sol\":5698:5945  function _setRoleAdmin(bytes32 role, bytes32 adminRole) internal virtual {... */\ntag_10:\n    /* \"@openzeppelin/contracts/access/AccessControl.sol\":5781:5806  bytes32 previousAdminRole */\n  0x00\n    /* \"@openzeppelin/contracts/access/AccessControl.sol\":5809:5827  getRoleAdmin(role) */\n  tag_28\n    /* \"@openzeppelin/contracts/access/AccessControl.sol\":5822:5826  role */\n  dup4\n    /* \"@openzeppelin/contracts/access/AccessControl.sol\":5809:5821  getRoleAdmin */\n  shl(0x20, tag_20)\n    /* \"@openzeppelin/contracts/access/AccessControl.sol\":5809:5827  getRoleAdmin(role) */\n  0x20\n  shr\n  jump\t// in\ntag_28:\n    /* \"@openzeppelin/contracts/access/AccessControl.sol\":5781:5827  bytes32 previousAdminRole = getRoleAdmin(role) */\n  swap1\n  pop\n    /* \"@openzeppelin/contracts/access/AccessControl.sol\":5862:5871  adminRole */\n  dup2\n    /* \"@openzeppelin/contracts/access/AccessControl.sol\":5837:5843  _roles */\n  0x00\n    /* \"@openzeppelin/contracts/access/AccessControl.sol\":5837:5849  _roles[role] */\n  dup1\n    /* \"@openzeppelin/contracts/access/AccessControl.sol\":5844:5848  role */\n  dup6\n    /* \"@openzeppelin/contracts/access/AccessControl.sol\":5837:5849  _roles[role] */\n  dup2\n  mstore\n  0x20\n  add\n  swap1\n  dup2\n  mstore\n  0x20\n  add\n  0x00\n  keccak256\n    /* \"@openzeppelin/contracts/access/AccessControl.sol\":5837:5859  _roles[role].adminRole */\n  0x01\n  add\n    /* \"@openzeppelin/contracts/access/AccessControl.sol\":5837:5871  _roles[role].adminRole = adminRole */\n  dup2\n  swap1\n  sstore\n  pop\n    /* \"@openzeppelin/contracts/access/AccessControl.sol\":5928:5937  adminRole */\n  dup2\n    /* \"@openzeppelin/contracts/access/AccessControl.sol\":5909:5926  previousAdminRole */\n  dup2\n    /* \"@openzeppelin/contracts/access/AccessControl.sol\":5903:5907  role */\n  dup5\n    /* \"@openzeppelin/contracts/access/AccessControl.sol\":5886:5938  RoleAdminChanged(role, previousAdminRole, adminRole) */\n  0xbd79b86ffe0ab8e8776151514217cd7cacd52c909f66475c3af44e129f0b00ff\n  mload(0x40)\n  mload(0x40)\n  dup1\n  swap2\n  sub\n  swap1\n  log4\n    /* \"@openzeppelin/contracts/access/AccessControl.sol\":5771:5945  {... */\n  pop\n    /* \"@openzeppelin/contracts/access/AccessControl.sol\":5698:5945  function _setRoleAdmin(bytes32 role, bytes32 adminRole) internal virtual {... */\n  pop\n  pop\n  jump\t// out\n    /* \"@openzeppelin/contracts/access/AccessControl.sol\":3810:3930  function getRoleAdmin(bytes32 role) public view virtual returns (bytes32) {... */\ntag_20:\n    /* \"@openzeppelin/contracts/access/AccessControl.sol\":3875:3882  bytes32 */\n  0x00\n    /* \"@openzeppelin/contracts/access/AccessControl.sol\":3901:3907  _roles */\n  dup1\n    /* \"@openzeppelin/contracts/access/AccessControl.sol\":3901:3913  _roles[role] */\n  0x00\n    /* \"@openzeppelin/contracts/access/AccessControl.sol\":3908:3912  role */\n  dup4\n    /* \"@openzeppelin/contracts/access/AccessControl.sol\":3901:3913  _roles[role] */\n  dup2\n  mstore\n  0x20\n  add\n  swap1\n  dup2\n  mstore\n  0x20\n  add\n  0x00\n  keccak256\n    /* \"@openzeppelin/contracts/access/AccessControl.sol\":3901:3923  _roles[role].adminRole */\n  0x01\n  add\n  sload\n    /* \"@openzeppelin/contracts/access/AccessControl.sol\":3894:3923  return _roles[role].adminRole */\n  swap1\n  pop\n    /* \"@openzeppelin/contracts/access/AccessControl.sol\":3810:3930  function getRoleAdmin(bytes32 role) public view virtual returns (bytes32) {... */\n  swap2\n  swap1\n  pop\n  jump\t// out\n    /* \"@openzeppelin/contracts/access/AccessControl.sol\":3199:3302  function _checkRole(bytes32 role) internal view virtual {... */\ntag_23:\n    /* \"@openzeppelin/contracts/access/AccessControl.sol\":3265:3295  _checkRole(role, _msgSender()) */\n  tag_31\n    /* \"@openzeppelin/contracts/access/AccessControl.sol\":3276:3280  role */\n  dup2\n    /* \"@openzeppelin/contracts/access/AccessControl.sol\":3282:3294  _msgSender() */\n  tag_32\n    /* \"@openzeppelin/contracts/access/AccessControl.sol\":3282:3292  _msgSender */\n  shl(0x20, tag_33)\n    /* \"@openzeppelin/contracts/access/AccessControl.sol\":3282:3294  _msgSender() */\n  0x20\n  shr\n  jump\t// in\ntag_32:\n    /* \"@openzeppelin/contracts/access/AccessControl.sol\":3265:3275  _checkRole */\n  shl(0x20, tag_34)\n    /* \"@openzeppelin/contracts/access/AccessControl.sol\":3265:3295  _checkRole(role, _msgSender()) */\n  0x20\n  shr\n  jump\t// in\ntag_31:\n    /* \"@openzeppelin/contracts/access/AccessControl.sol\":3199:3302  function _checkRole(bytes32 role) internal view virtual {... */\n  pop\n  jump\t// out\n    /* \"@openzeppelin/contracts/access/AccessControl.sol\":6179:6495  function _grantRole(bytes32 role, address account) internal virtual returns (bool) {... */\ntag_26:\n    /* \"@openzeppelin/contracts/access/AccessControl.sol\":6256:6260  bool */\n  0x00\n    /* \"@openzeppelin/contracts/access/AccessControl.sol\":6277:6299  hasRole(role, account) */\n  tag_36\n    /* \"@openzeppelin/contracts/access/AccessControl.sol\":6285:6289  role */\n  dup4\n    /* \"@openzeppelin/contracts/access/AccessControl.sol\":6291:6298  account */\n  dup4\n    /* \"@openzeppelin/contracts/access/AccessControl.sol\":6277:6284  hasRole */\n  shl(0x20, tag_37)\n    /* \"@openzeppelin/contracts/access/AccessControl.sol\":6277:6299  hasRole(role, account) */\n  0x20\n  shr\n  jump\t// in\ntag_36:\n    /* \"@openzeppelin/contracts/access/AccessControl.sol\":6272:6489  if (!hasRole(role, account)) {... */\n  tag_38\n  jumpi\n    /* \"@openzeppelin/contracts/access/AccessControl.sol\":6347:6351  true */\n  0x01\n    /* \"@openzeppelin/contracts/access/AccessControl.sol\":6315:6321  _roles */\n  0x00\n    /* \"@openzeppelin/contracts/access/AccessControl.sol\":6315:6327  _roles[role] */\n  dup1\n    /* \"@openzeppelin/contracts/access/AccessControl.sol\":6322:6326  role */\n  dup6\n    /* \"@openzeppelin/contracts/access/AccessControl.sol\":6315:6327  _roles[role] */\n  dup2\n  mstore\n  0x20\n  add\n  swap1\n  dup2\n  mstore\n  0x20\n  add\n  0x00\n  keccak256\n    /* \"@openzeppelin/contracts/access/AccessControl.sol\":6315:6335  _roles[role].hasRole */\n  0x00\n  add\n    /* \"@openzeppelin/contracts/access/AccessControl.sol\":6315:6344  _roles[role].hasRole[account] */\n  0x00\n    /* \"@openzeppelin/contracts/access/AccessControl.sol\":6336:6343  account */\n  dup5\n    /* \"@openzeppelin/contracts/access/AccessControl.sol\":6315:6344  _roles[role].hasRole[account] */\n  0xffffffffffffffffffffffffffffffffffffffff\n  and\n  0xffffffffffffffffffffffffffffffffffffffff\n  and\n  dup2\n  mstore\n  0x20\n  add\n  swap1\n  dup2\n  mstore\n  0x20\n  add\n  0x00\n  keccak256\n  0x00\n    /* \"@openzeppelin/contracts/access/AccessControl.sol\":6315:6351  _roles[role].hasRole[account] = true */\n  0x0100\n  exp\n  dup2\n  sload\n  dup2\n  0xff\n  mul\n  not\n  and\n  swap1\n  dup4\n  iszero\n  iszero\n  mul\n  or\n  swap1\n  sstore\n  pop\n    /* \"@openzeppelin/contracts/access/AccessControl.sol\":6397:6409  _msgSender() */\n  tag_39\n    /* \"@openzeppelin/contracts/access/AccessControl.sol\":6397:6407  _msgSender */\n  shl(0x20, tag_33)\n    /* \"@openzeppelin/contracts/access/AccessControl.sol\":6397:6409  _msgSender() */\n  0x20\n  shr\n  jump\t// in\ntag_39:\n    /* \"@openzeppelin/contracts/access/AccessControl.sol\":6370:6410  RoleGranted(role, account, _msgSender()) */\n  0xffffffffffffffffffffffffffffffffffffffff\n  and\n    /* \"@openzeppelin/contracts/access/AccessControl.sol\":6388:6395  account */\n  dup3\n    /* \"@openzeppelin/contracts/access/AccessControl.sol\":6370:6410  RoleGranted(role, account, _msgSender()) */\n  0xffffffffffffffffffffffffffffffffffffffff\n  and\n    /* \"@openzeppelin/contracts/access/AccessControl.sol\":6382:6386  role */\n  dup5\n    /* \"@openzeppelin/contracts/access/AccessControl.sol\":6370:6410  RoleGranted(role, account, _msgSender()) */\n  0x2f8788117e7eff1d82e926ec794901d17c78024a50270940304540a733656f0d\n  mload(0x40)\n  mload(0x40)\n  dup1\n  swap2\n  sub\n  swap1\n  log4\n    /* \"@openzeppelin/contracts/access/AccessControl.sol\":6431:6435  true */\n  0x01\n    /* \"@openzeppelin/contracts/access/AccessControl.sol\":6424:6435  return true */\n  swap1\n  pop\n  jump(tag_35)\n    /* \"@openzeppelin/contracts/access/AccessControl.sol\":6272:6489  if (!hasRole(role, account)) {... */\ntag_38:\n    /* \"@openzeppelin/contracts/access/AccessControl.sol\":6473:6478  false */\n  0x00\n    /* \"@openzeppelin/contracts/access/AccessControl.sol\":6466:6478  return false */\n  swap1\n  pop\n    /* \"@openzeppelin/contracts/access/AccessControl.sol\":6179:6495  function _grantRole(bytes32 role, address account) internal virtual returns (bool) {... */\ntag_35:\n  swap3\n  swap2\n  pop\n  pop\n  jump\t// out\n    /* \"@openzeppelin/contracts/utils/Context.sol\":656:752  function _msgSender() internal view virtual returns (address) {... */\ntag_33:\n    /* \"@openzeppelin/contracts/utils/Context.sol\":709:716  address */\n  0x00\n    /* \"@openzeppelin/contracts/utils/Context.sol\":735:745  msg.sender */\n  caller\n    /* \"@openzeppelin/contracts/utils/Context.sol\":728:745  return msg.sender */\n  swap1\n  pop\n    /* \"@openzeppelin/contracts/utils/Context.sol\":656:752  function _msgSender() internal view virtual returns (address) {... */\n  swap1\n  jump\t// out\n    /* \"@openzeppelin/contracts/access/AccessControl.sol\":3432:3629  function _checkRole(bytes32 role, address account) internal view virtual {... */\ntag_34:\n    /* \"@openzeppelin/contracts/access/AccessControl.sol\":3520:3542  hasRole(role, account) */\n  tag_43\n    /* \"@openzeppelin/contracts/access/AccessControl.sol\":3528:3532  role */\n  dup3\n    /* \"@openzeppelin/contracts/access/AccessControl.sol\":3534:3541  account */\n  dup3\n    /* \"@openzeppelin/contracts/access/AccessControl.sol\":3520:3527  hasRole */\n  shl(0x20, tag_37)\n    /* \"@openzeppelin/contracts/access/AccessControl.sol\":3520:3542  hasRole(role, account) */\n  0x20\n  shr\n  jump\t// in\ntag_43:\n    /* \"@openzeppelin/contracts/access/AccessControl.sol\":3515:3623  if (!hasRole(role, account)) {... */\n  tag_44\n  jumpi\n    /* \"@openzeppelin/contracts/access/AccessControl.sol\":3598:3605  account */\n  dup1\n    /* \"@openzeppelin/contracts/access/AccessControl.sol\":3607:3611  role */\n  dup3\n    /* \"@openzeppelin/contracts/access/AccessControl.sol\":3565:3612  AccessControlUnauthorizedAccount(account, role) */\n  mload(0x40)\n  0xe2517d3f00000000000000000000000000000000000000000000000000000000\n  dup2\n  mstore\n  0x04\n  add\n  tag_45\n  swap3\n  swap2\n  swap1\n  tag_46\n  jump\t// in\ntag_45:\n  mload(0x40)\n  dup1\n  swap2\n  sub\n  swap1\n  revert\n    /* \"@openzeppelin/contracts/access/AccessControl.sol\":3515:3623  if (!hasRole(role, account)) {... */\ntag_44:\n    /* \"@openzeppelin/contracts/access/AccessControl.sol\":3432:3629  function _checkRole(bytes32 role, address account) internal view virtual {... */\n  pop\n  pop\n  jump\t// out\n    /* \"@openzeppelin/contracts/access/AccessControl.sol\":2854:2990  function hasRole(bytes32 role, address account) public view virtual returns (bool) {... */\ntag_37:\n    /* \"@openzeppelin/contracts/access/AccessControl.sol\":2931:2935  bool */\n  0x00\n    /* \"@openzeppelin/contracts/access/AccessControl.sol\":2954:2960  _roles */\n  dup1\n    /* \"@openzeppelin/contracts/access/AccessControl.sol\":2954:2966  _roles[role] */\n  0x00\n    /* \"@openzeppelin/contracts/access/AccessControl.sol\":2961:2965  role */\n  dup5\n    /* \"@openzeppelin/contracts/access/AccessControl.sol\":2954:2966  _roles[role] */\n  dup2\n  mstore\n  0x20\n  add\n  swap1\n  dup2\n  mstore\n  0x20\n  add\n  0x00\n  keccak256\n    /* \"@openzeppelin/contracts/access/AccessControl.sol\":2954:2974  _roles[role].hasRole */\n  0x00\n  add\n    /* \"@openzeppelin/contracts/access/AccessControl.sol\":2954:2983  _roles[role].hasRole[account] */\n  0x00\n    /* \"@openzeppelin/contracts/access/AccessControl.sol\":2975:2982  account */\n  dup4\n    /* \"@openzeppelin/contracts/access/AccessControl.sol\":2954:2983  _roles[role].hasRole[account] */\n  0xffffffffffffffffffffffffffffffffffffffff\n  and\n  0xffffffffffffffffffffffffffffffffffffffff\n  and\n  dup2\n  mstore\n  0x20\n  add\n  swap1\n  dup2\n  mstore\n  0x20\n  add\n  0x00\n  keccak256\n  0x00\n  swap1\n  sload\n  swap1\n  0x0100\n  exp\n  swap1\n  div\n  0xff\n  and\n    /* \"@openzeppelin/contracts/access/AccessControl.sol\":2947:2983  return _roles[role].hasRole[account] */\n  swap1\n  pop\n    /* \"@openzeppelin/contracts/access/AccessControl.sol\":2854:2990  function hasRole(bytes32 role, address account) public view virtual returns (bool) {... */\n  swap3\n  swap2\n  pop\n  pop\n  jump\t// out\n    /* \"#utility.yul\":7:82   */\ntag_48:\n    /* \"#utility.yul\":40:46   */\n  0x00\n    /* \"#utility.yul\":73:75   */\n  0x40\n    /* \"#utility.yul\":67:76   */\n  mload\n    /* \"#utility.yul\":57:76   */\n  swap1\n  pop\n    /* \"#utility.yul\":7:82   */\n  swap1\n  jump\t// out\n    /* \"#utility.yul\":88:205   */\ntag_49:\n    /* \"#utility.yul\":197:198   */\n  0x00\n    /* \"#utility.yul\":194:195   */\n  dup1\n    /* \"#utility.yul\":187:199   */\n  revert\n    /* \"#utility.yul\":211:328   */\ntag_50:\n    /* \"#utility.yul\":320:321   */\n  0x00\n    /* \"#utility.yul\":317:318   */\n  dup1\n    /* \"#utility.yul\":310:322   */\n  revert\n    /* \"#utility.yul\":334:460   */\ntag_51:\n    /* \"#utility.yul\":371:378   */\n  0x00\n    /* \"#utility.yul\":411:453   */\n  0xffffffffffffffffffffffffffffffffffffffff\n    /* \"#utility.yul\":404:409   */\n  dup3\n    /* \"#utility.yul\":400:454   */\n  and\n    /* \"#utility.yul\":389:454   */\n  swap1\n  pop\n    /* \"#utility.yul\":334:460   */\n  swap2\n  swap1\n  pop\n  jump\t// out\n    /* \"#utility.yul\":466:562   */\ntag_52:\n    /* \"#utility.yul\":503:510   */\n  0x00\n    /* \"#utility.yul\":532:556   */\n  tag_76\n    /* \"#utility.yul\":550:555   */\n  dup3\n    /* \"#utility.yul\":532:556   */\n  tag_51\n  jump\t// in\ntag_76:\n    /* \"#utility.yul\":521:556   */\n  swap1\n  pop\n    /* \"#utility.yul\":466:562   */\n  swap2\n  swap1\n  pop\n  jump\t// out\n    /* \"#utility.yul\":568:690   */\ntag_53:\n    /* \"#utility.yul\":641:665   */\n  tag_78\n    /* \"#utility.yul\":659:664   */\n  dup2\n    /* \"#utility.yul\":641:665   */\n  tag_52\n  jump\t// in\ntag_78:\n    /* \"#utility.yul\":634:639   */\n  dup2\n    /* \"#utility.yul\":631:666   */\n  eq\n    /* \"#utility.yul\":621:684   */\n  tag_79\n  jumpi\n    /* \"#utility.yul\":680:681   */\n  0x00\n    /* \"#utility.yul\":677:678   */\n  dup1\n    /* \"#utility.yul\":670:682   */\n  revert\n    /* \"#utility.yul\":621:684   */\ntag_79:\n    /* \"#utility.yul\":568:690   */\n  pop\n  jump\t// out\n    /* \"#utility.yul\":696:839   */\ntag_54:\n    /* \"#utility.yul\":753:758   */\n  0x00\n    /* \"#utility.yul\":784:790   */\n  dup2\n    /* \"#utility.yul\":778:791   */\n  mload\n    /* \"#utility.yul\":769:791   */\n  swap1\n  pop\n    /* \"#utility.yul\":800:833   */\n  tag_81\n    /* \"#utility.yul\":827:832   */\n  dup2\n    /* \"#utility.yul\":800:833   */\n  tag_53\n  jump\t// in\ntag_81:\n    /* \"#utility.yul\":696:839   */\n  swap3\n  swap2\n  pop\n  pop\n  jump\t// out\n    /* \"#utility.yul\":845:962   */\ntag_55:\n    /* \"#utility.yul\":954:955   */\n  0x00\n    /* \"#utility.yul\":951:952   */\n  dup1\n    /* \"#utility.yul\":944:956   */\n  revert\n    /* \"#utility.yul\":968:1070   */\ntag_56:\n    /* \"#utility.yul\":1009:1015   */\n  0x00\n    /* \"#utility.yul\":1060:1062   */\n  0x1f\n    /* \"#utility.yul\":1056:1063   */\n  not\n    /* \"#utility.yul\":1051:1053   */\n  0x1f\n    /* \"#utility.yul\":1044:1049   */\n  dup4\n    /* \"#utility.yul\":1040:1054   */\n  add\n    /* \"#utility.yul\":1036:1064   */\n  and\n    /* \"#utility.yul\":1026:1064   */\n  swap1\n  pop\n    /* \"#utility.yul\":968:1070   */\n  swap2\n  swap1\n  pop\n  jump\t// out\n    /* \"#utility.yul\":1076:1256   */\ntag_57:\n    /* \"#utility.yul\":1124:1201   */\n  0x4e487b7100000000000000000000000000000000000000000000000000000000\n    /* \"#utility.yul\":1121:1122   */\n  0x00\n    /* \"#utility.yul\":1114:1202   */\n  mstore\n    /* \"#utility.yul\":1221:1225   */\n  0x41\n    /* \"#utility.yul\":1218:1219   */\n  0x04\n    /* \"#utility.yul\":1211:1226   */\n  mstore\n    /* \"#utility.yul\":1245:1249   */\n  0x24\n    /* \"#utility.yul\":1242:1243   */\n  0x00\n    /* \"#utility.yul\":1235:1250   */\n  revert\n    /* \"#utility.yul\":1262:1543   */\ntag_58:\n    /* \"#utility.yul\":1345:1372   */\n  tag_86\n    /* \"#utility.yul\":1367:1371   */\n  dup3\n    /* \"#utility.yul\":1345:1372   */\n  tag_56\n  jump\t// in\ntag_86:\n    /* \"#utility.yul\":1337:1343   */\n  dup2\n    /* \"#utility.yul\":1333:1373   */\n  add\n    /* \"#utility.yul\":1475:1481   */\n  dup2\n    /* \"#utility.yul\":1463:1473   */\n  dup2\n    /* \"#utility.yul\":1460:1482   */\n  lt\n    /* \"#utility.yul\":1439:1457   */\n  0xffffffffffffffff\n    /* \"#utility.yul\":1427:1437   */\n  dup3\n    /* \"#utility.yul\":1424:1458   */\n  gt\n    /* \"#utility.yul\":1421:1483   */\n  or\n    /* \"#utility.yul\":1418:1506   */\n  iszero\n  tag_87\n  jumpi\n    /* \"#utility.yul\":1486:1504   */\n  tag_88\n  tag_57\n  jump\t// in\ntag_88:\n    /* \"#utility.yul\":1418:1506   */\ntag_87:\n    /* \"#utility.yul\":1526:1536   */\n  dup1\n    /* \"#utility.yul\":1522:1524   */\n  0x40\n    /* \"#utility.yul\":1515:1537   */\n  mstore\n    /* \"#utility.yul\":1305:1543   */\n  pop\n    /* \"#utility.yul\":1262:1543   */\n  pop\n  pop\n  jump\t// out\n    /* \"#utility.yul\":1549:1678   */\ntag_59:\n    /* \"#utility.yul\":1583:1589   */\n  0x00\n    /* \"#utility.yul\":1610:1630   */\n  tag_90\n  tag_48\n  jump\t// in\ntag_90:\n    /* \"#utility.yul\":1600:1630   */\n  swap1\n  pop\n    /* \"#utility.yul\":1639:1672   */\n  tag_91\n    /* \"#utility.yul\":1667:1671   */\n  dup3\n    /* \"#utility.yul\":1659:1665   */\n  dup3\n    /* \"#utility.yul\":1639:1672   */\n  tag_58\n  jump\t// in\ntag_91:\n    /* \"#utility.yul\":1549:1678   */\n  swap2\n  swap1\n  pop\n  jump\t// out\n    /* \"#utility.yul\":1684:1995   */\ntag_60:\n    /* \"#utility.yul\":1761:1765   */\n  0x00\n    /* \"#utility.yul\":1851:1869   */\n  0xffffffffffffffff\n    /* \"#utility.yul\":1843:1849   */\n  dup3\n    /* \"#utility.yul\":1840:1870   */\n  gt\n    /* \"#utility.yul\":1837:1893   */\n  iszero\n  tag_93\n  jumpi\n    /* \"#utility.yul\":1873:1891   */\n  tag_94\n  tag_57\n  jump\t// in\ntag_94:\n    /* \"#utility.yul\":1837:1893   */\ntag_93:\n    /* \"#utility.yul\":1923:1927   */\n  0x20\n    /* \"#utility.yul\":1915:1921   */\n  dup3\n    /* \"#utility.yul\":1911:1928   */\n  mul\n    /* \"#utility.yul\":1903:1928   */\n  swap1\n  pop\n    /* \"#utility.yul\":1983:1987   */\n  0x20\n    /* \"#utility.yul\":1977:1981   */\n  dup2\n    /* \"#utility.yul\":1973:1988   */\n  add\n    /* \"#utility.yul\":1965:1988   */\n  swap1\n  pop\n    /* \"#utility.yul\":1684:1995   */\n  swap2\n  swap1\n  pop\n  jump\t// out\n    /* \"#utility.yul\":2001:2118   */\ntag_61:\n    /* \"#utility.yul\":2110:2111   */\n  0x00\n    /* \"#utility.yul\":2107:2108   */\n  dup1\n    /* \"#utility.yul\":2100:2112   */\n  revert\n    /* \"#utility.yul\":2141:2873   */\ntag_62:\n    /* \"#utility.yul\":2248:2253   */\n  0x00\n    /* \"#utility.yul\":2273:2354   */\n  tag_97\n    /* \"#utility.yul\":2289:2353   */\n  tag_98\n    /* \"#utility.yul\":2346:2352   */\n  dup5\n    /* \"#utility.yul\":2289:2353   */\n  tag_60\n  jump\t// in\ntag_98:\n    /* \"#utility.yul\":2273:2354   */\n  tag_59\n  jump\t// in\ntag_97:\n    /* \"#utility.yul\":2264:2354   */\n  swap1\n  pop\n    /* \"#utility.yul\":2374:2379   */\n  dup1\n    /* \"#utility.yul\":2403:2409   */\n  dup4\n    /* \"#utility.yul\":2396:2401   */\n  dup3\n    /* \"#utility.yul\":2389:2410   */\n  mstore\n    /* \"#utility.yul\":2437:2441   */\n  0x20\n    /* \"#utility.yul\":2430:2435   */\n  dup3\n    /* \"#utility.yul\":2426:2442   */\n  add\n    /* \"#utility.yul\":2419:2442   */\n  swap1\n  pop\n    /* \"#utility.yul\":2490:2494   */\n  0x20\n    /* \"#utility.yul\":2482:2488   */\n  dup5\n    /* \"#utility.yul\":2478:2495   */\n  mul\n    /* \"#utility.yul\":2470:2476   */\n  dup4\n    /* \"#utility.yul\":2466:2496   */\n  add\n    /* \"#utility.yul\":2519:2522   */\n  dup6\n    /* \"#utility.yul\":2511:2517   */\n  dup2\n    /* \"#utility.yul\":2508:2523   */\n  gt\n    /* \"#utility.yul\":2505:2627   */\n  iszero\n  tag_99\n  jumpi\n    /* \"#utility.yul\":2538:2617   */\n  tag_100\n  tag_61\n  jump\t// in\ntag_100:\n    /* \"#utility.yul\":2505:2627   */\ntag_99:\n    /* \"#utility.yul\":2653:2659   */\n  dup4\n    /* \"#utility.yul\":2636:2867   */\ntag_101:\n    /* \"#utility.yul\":2670:2676   */\n  dup2\n    /* \"#utility.yul\":2665:2668   */\n  dup2\n    /* \"#utility.yul\":2662:2677   */\n  lt\n    /* \"#utility.yul\":2636:2867   */\n  iszero\n  tag_103\n  jumpi\n    /* \"#utility.yul\":2745:2748   */\n  dup1\n    /* \"#utility.yul\":2774:2822   */\n  tag_104\n    /* \"#utility.yul\":2818:2821   */\n  dup9\n    /* \"#utility.yul\":2806:2816   */\n  dup3\n    /* \"#utility.yul\":2774:2822   */\n  tag_54\n  jump\t// in\ntag_104:\n    /* \"#utility.yul\":2769:2772   */\n  dup5\n    /* \"#utility.yul\":2762:2823   */\n  mstore\n    /* \"#utility.yul\":2852:2856   */\n  0x20\n    /* \"#utility.yul\":2847:2850   */\n  dup5\n    /* \"#utility.yul\":2843:2857   */\n  add\n    /* \"#utility.yul\":2836:2857   */\n  swap4\n  pop\n    /* \"#utility.yul\":2712:2867   */\n  pop\n    /* \"#utility.yul\":2696:2700   */\n  0x20\n    /* \"#utility.yul\":2691:2694   */\n  dup2\n    /* \"#utility.yul\":2687:2701   */\n  add\n    /* \"#utility.yul\":2680:2701   */\n  swap1\n  pop\n    /* \"#utility.yul\":2636:2867   */\n  jump(tag_101)\ntag_103:\n    /* \"#utility.yul\":2640:2661   */\n  pop\n    /* \"#utility.yul\":2254:2873   */\n  pop\n  pop\n    /* \"#utility.yul\":2141:2873   */\n  swap4\n  swap3\n  pop\n  pop\n  pop\n  jump\t// out\n    /* \"#utility.yul\":2896:3281   */\ntag_63:\n    /* \"#utility.yul\":2978:2983   */\n  0x00\n    /* \"#utility.yul\":3027:3030   */\n  dup3\n    /* \"#utility.yul\":3020:3024   */\n  0x1f\n    /* \"#utility.yul\":3012:3018   */\n  dup4\n    /* \"#utility.yul\":3008:3025   */\n  add\n    /* \"#utility.yul\":3004:3031   */\n  slt\n    /* \"#utility.yul\":2994:3116   */\n  tag_106\n  jumpi\n    /* \"#utility.yul\":3035:3114   */\n  tag_107\n  tag_55\n  jump\t// in\ntag_107:\n    /* \"#utility.yul\":2994:3116   */\ntag_106:\n    /* \"#utility.yul\":3145:3151   */\n  dup2\n    /* \"#utility.yul\":3139:3152   */\n  mload\n    /* \"#utility.yul\":3170:3275   */\n  tag_108\n    /* \"#utility.yul\":3271:3274   */\n  dup5\n    /* \"#utility.yul\":3263:3269   */\n  dup3\n    /* \"#utility.yul\":3256:3260   */\n  0x20\n    /* \"#utility.yul\":3248:3254   */\n  dup7\n    /* \"#utility.yul\":3244:3261   */\n  add\n    /* \"#utility.yul\":3170:3275   */\n  tag_62\n  jump\t// in\ntag_108:\n    /* \"#utility.yul\":3161:3275   */\n  swap2\n  pop\n    /* \"#utility.yul\":2984:3281   */\n  pop\n    /* \"#utility.yul\":2896:3281   */\n  swap3\n  swap2\n  pop\n  pop\n  jump\t// out\n    /* \"#utility.yul\":3287:3364   */\ntag_64:\n    /* \"#utility.yul\":3324:3331   */\n  0x00\n    /* \"#utility.yul\":3353:3358   */\n  dup2\n    /* \"#utility.yul\":3342:3358   */\n  swap1\n  pop\n    /* \"#utility.yul\":3287:3364   */\n  swap2\n  swap1\n  pop\n  jump\t// out\n    /* \"#utility.yul\":3370:3492   */\ntag_65:\n    /* \"#utility.yul\":3443:3467   */\n  tag_111\n    /* \"#utility.yul\":3461:3466   */\n  dup2\n    /* \"#utility.yul\":3443:3467   */\n  tag_64\n  jump\t// in\ntag_111:\n    /* \"#utility.yul\":3436:3441   */\n  dup2\n    /* \"#utility.yul\":3433:3468   */\n  eq\n    /* \"#utility.yul\":3423:3486   */\n  tag_112\n  jumpi\n    /* \"#utility.yul\":3482:3483   */\n  0x00\n    /* \"#utility.yul\":3479:3480   */\n  dup1\n    /* \"#utility.yul\":3472:3484   */\n  revert\n    /* \"#utility.yul\":3423:3486   */\ntag_112:\n    /* \"#utility.yul\":3370:3492   */\n  pop\n  jump\t// out\n    /* \"#utility.yul\":3498:3641   */\ntag_66:\n    /* \"#utility.yul\":3555:3560   */\n  0x00\n    /* \"#utility.yul\":3586:3592   */\n  dup2\n    /* \"#utility.yul\":3580:3593   */\n  mload\n    /* \"#utility.yul\":3571:3593   */\n  swap1\n  pop\n    /* \"#utility.yul\":3602:3635   */\n  tag_114\n    /* \"#utility.yul\":3629:3634   */\n  dup2\n    /* \"#utility.yul\":3602:3635   */\n  tag_65\n  jump\t// in\ntag_114:\n    /* \"#utility.yul\":3498:3641   */\n  swap3\n  swap2\n  pop\n  pop\n  jump\t// out\n    /* \"#utility.yul\":3647:4670   */\ntag_3:\n    /* \"#utility.yul\":3769:3775   */\n  0x00\n    /* \"#utility.yul\":3777:3783   */\n  dup1\n    /* \"#utility.yul\":3785:3791   */\n  0x00\n    /* \"#utility.yul\":3793:3799   */\n  dup1\n    /* \"#utility.yul\":3842:3845   */\n  0x80\n    /* \"#utility.yul\":3830:3839   */\n  dup6\n    /* \"#utility.yul\":3821:3828   */\n  dup8\n    /* \"#utility.yul\":3817:3840   */\n  sub\n    /* \"#utility.yul\":3813:3846   */\n  slt\n    /* \"#utility.yul\":3810:3930   */\n  iszero\n  tag_116\n  jumpi\n    /* \"#utility.yul\":3849:3928   */\n  tag_117\n  tag_49\n  jump\t// in\ntag_117:\n    /* \"#utility.yul\":3810:3930   */\ntag_116:\n    /* \"#utility.yul\":3969:3970   */\n  0x00\n    /* \"#utility.yul\":3994:4058   */\n  tag_118\n    /* \"#utility.yul\":4050:4057   */\n  dup8\n    /* \"#utility.yul\":4041:4047   */\n  dup3\n    /* \"#utility.yul\":4030:4039   */\n  dup9\n    /* \"#utility.yul\":4026:4048   */\n  add\n    /* \"#utility.yul\":3994:4058   */\n  tag_54\n  jump\t// in\ntag_118:\n    /* \"#utility.yul\":3984:4058   */\n  swap5\n  pop\n    /* \"#utility.yul\":3940:4068   */\n  pop\n    /* \"#utility.yul\":4128:4130   */\n  0x20\n    /* \"#utility.yul\":4117:4126   */\n  dup6\n    /* \"#utility.yul\":4113:4131   */\n  add\n    /* \"#utility.yul\":4107:4132   */\n  mload\n    /* \"#utility.yul\":4159:4177   */\n  0xffffffffffffffff\n    /* \"#utility.yul\":4151:4157   */\n  dup2\n    /* \"#utility.yul\":4148:4178   */\n  gt\n    /* \"#utility.yul\":4145:4262   */\n  iszero\n  tag_119\n  jumpi\n    /* \"#utility.yul\":4181:4260   */\n  tag_120\n  tag_50\n  jump\t// in\ntag_120:\n    /* \"#utility.yul\":4145:4262   */\ntag_119:\n    /* \"#utility.yul\":4286:4375   */\n  tag_121\n    /* \"#utility.yul\":4367:4374   */\n  dup8\n    /* \"#utility.yul\":4358:4364   */\n  dup3\n    /* \"#utility.yul\":4347:4356   */\n  dup9\n    /* \"#utility.yul\":4343:4365   */\n  add\n    /* \"#utility.yul\":4286:4375   */\n  tag_63\n  jump\t// in\ntag_121:\n    /* \"#utility.yul\":4276:4375   */\n  swap4\n  pop\n    /* \"#utility.yul\":4078:4385   */\n  pop\n    /* \"#utility.yul\":4424:4426   */\n  0x40\n    /* \"#utility.yul\":4450:4514   */\n  tag_122\n    /* \"#utility.yul\":4506:4513   */\n  dup8\n    /* \"#utility.yul\":4497:4503   */\n  dup3\n    /* \"#utility.yul\":4486:4495   */\n  dup9\n    /* \"#utility.yul\":4482:4504   */\n  add\n    /* \"#utility.yul\":4450:4514   */\n  tag_66\n  jump\t// in\ntag_122:\n    /* \"#utility.yul\":4440:4514   */\n  swap3\n  pop\n    /* \"#utility.yul\":4395:4524   */\n  pop\n    /* \"#utility.yul\":4563:4565   */\n  0x60\n    /* \"#utility.yul\":4589:4653   */\n  tag_123\n    /* \"#utility.yul\":4645:4652   */\n  dup8\n    /* \"#utility.yul\":4636:4642   */\n  dup3\n    /* \"#utility.yul\":4625:4634   */\n  dup9\n    /* \"#utility.yul\":4621:4643   */\n  add\n    /* \"#utility.yul\":4589:4653   */\n  tag_54\n  jump\t// in\ntag_123:\n    /* \"#utility.yul\":4579:4653   */\n  swap2\n  pop\n    /* \"#utility.yul\":4534:4663   */\n  pop\n    /* \"#utility.yul\":3647:4670   */\n  swap3\n  swap6\n  swap2\n  swap5\n  pop\n  swap3\n  pop\n  jump\t// out\n    /* \"#utility.yul\":4676:4856   */\ntag_16:\n    /* \"#utility.yul\":4724:4801   */\n  0x4e487b7100000000000000000000000000000000000000000000000000000000\n    /* \"#utility.yul\":4721:4722   */\n  0x00\n    /* \"#utility.yul\":4714:4802   */\n  mstore\n    /* \"#utility.yul\":4821:4825   */\n  0x32\n    /* \"#utility.yul\":4818:4819   */\n  0x04\n    /* \"#utility.yul\":4811:4826   */\n  mstore\n    /* \"#utility.yul\":4845:4849   */\n  0x24\n    /* \"#utility.yul\":4842:4843   */\n  0x00\n    /* \"#utility.yul\":4835:4850   */\n  revert\n    /* \"#utility.yul\":4862:4980   */\ntag_67:\n    /* \"#utility.yul\":4949:4973   */\n  tag_126\n    /* \"#utility.yul\":4967:4972   */\n  dup2\n    /* \"#utility.yul\":4949:4973   */\n  tag_52\n  jump\t// in\ntag_126:\n    /* \"#utility.yul\":4944:4947   */\n  dup3\n    /* \"#utility.yul\":4937:4974   */\n  mstore\n    /* \"#utility.yul\":4862:4980   */\n  pop\n  pop\n  jump\t// out\n    /* \"#utility.yul\":4986:5063   */\ntag_68:\n    /* \"#utility.yul\":5023:5030   */\n  0x00\n    /* \"#utility.yul\":5052:5057   */\n  dup2\n    /* \"#utility.yul\":5041:5057   */\n  swap1\n  pop\n    /* \"#utility.yul\":4986:5063   */\n  swap2\n  swap1\n  pop\n  jump\t// out\n    /* \"#utility.yul\":5069:5187   */\ntag_69:\n    /* \"#utility.yul\":5156:5180   */\n  tag_129\n    /* \"#utility.yul\":5174:5179   */\n  dup2\n    /* \"#utility.yul\":5156:5180   */\n  tag_68\n  jump\t// in\ntag_129:\n    /* \"#utility.yul\":5151:5154   */\n  dup3\n    /* \"#utility.yul\":5144:5181   */\n  mstore\n    /* \"#utility.yul\":5069:5187   */\n  pop\n  pop\n  jump\t// out\n    /* \"#utility.yul\":5193:5525   */\ntag_46:\n    /* \"#utility.yul\":5314:5318   */\n  0x00\n    /* \"#utility.yul\":5352:5354   */\n  0x40\n    /* \"#utility.yul\":5341:5350   */\n  dup3\n    /* \"#utility.yul\":5337:5355   */\n  add\n    /* \"#utility.yul\":5329:5355   */\n  swap1\n  pop\n    /* \"#utility.yul\":5365:5436   */\n  tag_131\n    /* \"#utility.yul\":5433:5434   */\n  0x00\n    /* \"#utility.yul\":5422:5431   */\n  dup4\n    /* \"#utility.yul\":5418:5435   */\n  add\n    /* \"#utility.yul\":5409:5415   */\n  dup6\n    /* \"#utility.yul\":5365:5436   */\n  tag_67\n  jump\t// in\ntag_131:\n    /* \"#utility.yul\":5446:5518   */\n  tag_132\n    /* \"#utility.yul\":5514:5516   */\n  0x20\n    /* \"#utility.yul\":5503:5512   */\n  dup4\n    /* \"#utility.yul\":5499:5517   */\n  add\n    /* \"#utility.yul\":5490:5496   */\n  dup5\n    /* \"#utility.yul\":5446:5518   */\n  tag_69\n  jump\t// in\ntag_132:\n    /* \"#utility.yul\":5193:5525   */\n  swap4\n  swap3\n  pop\n  pop\n  pop\n  jump\t// out\n    /* \"contracts/vault/AssetVault/AssetVault.sol\":323:6427  contract AssetVault is AccessControl {... */\ntag_18:\n  dataSize(sub_0)\n  dup1\n  dataOffset(sub_0)\n  0x00\n  codecopy\n  0x00\n  return\nstop\n\nsub_0: assembly {\n        /* \"contracts/vault/AssetVault/AssetVault.sol\":323:6427  contract AssetVault is AccessControl {... */\n      mstore(0x40, 0x80)\n      callvalue\n      dup1\n      iszero\n      tag_1\n      jumpi\n      0x00\n      dup1\n      revert\n    tag_1:\n      pop\n      jumpi(tag_2, lt(calldatasize, 0x04))\n      shr(0xe0, calldataload(0x00))\n      dup1\n      0x90805c34\n      gt\n      tag_26\n      jumpi\n      dup1\n      0xbd998cb3\n      gt\n      tag_27\n      jumpi\n      dup1\n      0xbd998cb3\n      eq\n      tag_20\n      jumpi\n      dup1\n      0xbe354836\n      eq\n      tag_21\n      jumpi\n      dup1\n      0xc68dbb37\n      eq\n      tag_22\n      jumpi\n      dup1\n      0xd547741f\n      eq\n      tag_23\n      jumpi\n      dup1\n      0xf3fef3a3\n      eq\n      tag_24\n      jumpi\n      dup1\n      0xf4457fab\n      eq\n      tag_25\n      jumpi\n      jump(tag_2)\n    tag_27:\n      dup1\n      0x90805c34\n      eq\n      tag_14\n      jumpi\n      dup1\n      0x91d14854\n      eq\n      tag_15\n      jumpi\n      dup1\n      0x9e4a9369\n      eq\n      tag_16\n      jumpi\n      dup1\n      0xa217fddf\n      eq\n      tag_17\n      jumpi\n      dup1\n      0xa356efc4\n      eq\n      tag_18\n      jumpi\n      dup1\n      0xbb39a960\n      eq\n      tag_19\n      jumpi\n      jump(tag_2)\n    tag_26:\n      dup1\n      0x30e5065e\n      gt\n      tag_28\n      jumpi\n      dup1\n      0x30e5065e\n      eq\n      tag_8\n      jumpi\n      dup1\n      0x36568abe\n      eq\n      tag_9\n      jumpi\n      dup1\n      0x47e7ef24\n      eq\n      tag_10\n      jumpi\n      dup1\n      0x523820a1\n      eq\n      tag_11\n      jumpi\n      dup1\n      0x5e5a24a4\n      eq\n      tag_12\n      jumpi\n      dup1\n      0x75b238fc\n      eq\n      tag_13\n      jumpi\n      jump(tag_2)\n    tag_28:\n      dup1\n      0x01ffc9a7\n      eq\n      tag_3\n      jumpi\n      dup1\n      0x06f34c2f\n      eq\n      tag_4\n      jumpi\n      dup1\n      0x0ba36dcd\n      eq\n      tag_5\n      jumpi\n      dup1\n      0x248a9ca3\n      eq\n      tag_6\n      jumpi\n      dup1\n      0x2f2ff15d\n      eq\n      tag_7\n      jumpi\n    tag_2:\n      0x00\n      dup1\n      revert\n        /* \"@openzeppelin/contracts/access/AccessControl.sol\":2565:2767  function supportsInterface(bytes4 interfaceId) public view virtual override returns (bool) {... */\n    tag_3:\n      tag_29\n      0x04\n      dup1\n      calldatasize\n      sub\n      dup2\n      add\n      swap1\n      tag_30\n      swap2\n      swap1\n      tag_31\n      jump\t// in\n    tag_30:\n      tag_32\n      jump\t// in\n    tag_29:\n      mload(0x40)\n      tag_33\n      swap2\n      swap1\n      tag_34\n      jump\t// in\n    tag_33:\n      mload(0x40)\n      dup1\n      swap2\n      sub\n      swap1\n      return\n        /* \"contracts/vault/AssetVault/AssetVault.sol\":5990:6425  function collectPerformanceFee() external onlyRole(VAULT_MANAGER_ROLE) {... */\n    tag_4:\n      tag_35\n      tag_36\n      jump\t// in\n    tag_35:\n      stop\n        /* \"contracts/vault/AssetVault/AssetVault.sol\":953:1004  mapping(address => UserDeposit) public userDeposits */\n    tag_5:\n      tag_37\n      0x04\n      dup1\n      calldatasize\n      sub\n      dup2\n      add\n      swap1\n      tag_38\n      swap2\n      swap1\n      tag_39\n      jump\t// in\n    tag_38:\n      tag_40\n      jump\t// in\n    tag_37:\n      mload(0x40)\n      tag_41\n      swap2\n      swap1\n      tag_42\n      jump\t// in\n    tag_41:\n      mload(0x40)\n      dup1\n      swap2\n      sub\n      swap1\n      return\n        /* \"@openzeppelin/contracts/access/AccessControl.sol\":3810:3930  function getRoleAdmin(bytes32 role) public view virtual returns (bytes32) {... */\n    tag_6:\n      tag_43\n      0x04\n      dup1\n      calldatasize\n      sub\n      dup2\n      add\n      swap1\n      tag_44\n      swap2\n      swap1\n      tag_45\n      jump\t// in\n    tag_44:\n      tag_46\n      jump\t// in\n    tag_43:\n      mload(0x40)\n      tag_47\n      swap2\n      swap1\n      tag_48\n      jump\t// in\n    tag_47:\n      mload(0x40)\n      dup1\n      swap2\n      sub\n      swap1\n      return\n        /* \"@openzeppelin/contracts/access/AccessControl.sol\":4226:4362  function grantRole(bytes32 role, address account) public virtual onlyRole(getRoleAdmin(role)) {... */\n    tag_7:\n      tag_49\n      0x04\n      dup1\n      calldatasize\n      sub\n      dup2\n      add\n      swap1\n      tag_50\n      swap2\n      swap1\n      tag_51\n      jump\t// in\n    tag_50:\n      tag_52\n      jump\t// in\n    tag_49:\n      stop\n        /* \"contracts/vault/AssetVault/AssetVault.sol\":808:860  mapping(address => uint256) public totalVaultBalance */\n    tag_8:\n      tag_53\n      0x04\n      dup1\n      calldatasize\n      sub\n      dup2\n      add\n      swap1\n      tag_54\n      swap2\n      swap1\n      tag_39\n      jump\t// in\n    tag_54:\n      tag_55\n      jump\t// in\n    tag_53:\n      mload(0x40)\n      tag_56\n      swap2\n      swap1\n      tag_42\n      jump\t// in\n    tag_56:\n      mload(0x40)\n      dup1\n      swap2\n      sub\n      swap1\n      return\n        /* \"@openzeppelin/contracts/access/AccessControl.sol\":5328:5573  function renounceRole(bytes32 role, address callerConfirmation) public virtual {... */\n    tag_9:\n      tag_57\n      0x04\n      dup1\n      calldatasize\n      sub\n      dup2\n      add\n      swap1\n      tag_58\n      swap2\n      swap1\n      tag_51\n      jump\t// in\n    tag_58:\n      tag_59\n      jump\t// in\n    tag_57:\n      stop\n        /* \"contracts/vault/AssetVault/AssetVault.sol\":2349:2799  function deposit(address _asset, uint256 _amount) external {... */\n    tag_10:\n      tag_60\n      0x04\n      dup1\n      calldatasize\n      sub\n      dup2\n      add\n      swap1\n      tag_61\n      swap2\n      swap1\n      tag_62\n      jump\t// in\n    tag_61:\n      tag_63\n      jump\t// in\n    tag_60:\n      stop\n        /* \"contracts/vault/AssetVault/AssetVault.sol\":1108:1141  uint256 public lastRecordedProfit */\n    tag_11:\n      tag_64\n      tag_65\n      jump\t// in\n    tag_64:\n      mload(0x40)\n      tag_66\n      swap2\n      swap1\n      tag_42\n      jump\t// in\n    tag_66:\n      mload(0x40)\n      dup1\n      swap2\n      sub\n      swap1\n      return\n        /* \"contracts/vault/AssetVault/AssetVault.sol\":615:699  bytes32 public constant VAULT_MANAGER_ROLE =... */\n    tag_12:\n      tag_67\n      tag_68\n      jump\t// in\n    tag_67:\n      mload(0x40)\n      tag_69\n      swap2\n      swap1\n      tag_48\n      jump\t// in\n    tag_69:\n      mload(0x40)\n      dup1\n      swap2\n      sub\n      swap1\n      return\n        /* \"contracts/vault/AssetVault/AssetVault.sol\":705:765  bytes32 public constant ADMIN_ROLE = keccak256(\"ADMIN_ROLE\") */\n    tag_13:\n      tag_70\n      tag_71\n      jump\t// in\n    tag_70:\n      mload(0x40)\n      tag_72\n      swap2\n      swap1\n      tag_48\n      jump\t// in\n    tag_72:\n      mload(0x40)\n      dup1\n      swap2\n      sub\n      swap1\n      return\n        /* \"contracts/vault/AssetVault/AssetVault.sol\":1789:1969  function setAssetToOracle(address _asset, address _oracle)... */\n    tag_14:\n      tag_73\n      0x04\n      dup1\n      calldatasize\n      sub\n      dup2\n      add\n      swap1\n      tag_74\n      swap2\n      swap1\n      tag_75\n      jump\t// in\n    tag_74:\n      tag_76\n      jump\t// in\n    tag_73:\n      stop\n        /* \"@openzeppelin/contracts/access/AccessControl.sol\":2854:2990  function hasRole(bytes32 role, address account) public view virtual returns (bool) {... */\n    tag_15:\n      tag_77\n      0x04\n      dup1\n      calldatasize\n      sub\n      dup2\n      add\n      swap1\n      tag_78\n      swap2\n      swap1\n      tag_51\n      jump\t// in\n    tag_78:\n      tag_79\n      jump\t// in\n    tag_77:\n      mload(0x40)\n      tag_80\n      swap2\n      swap1\n      tag_34\n      jump\t// in\n    tag_80:\n      mload(0x40)\n      dup1\n      swap2\n      sub\n      swap1\n      return\n        /* \"contracts/vault/AssetVault/AssetVault.sol\":1975:2343  function estimateVaultValue() public view returns (uint256) {... */\n    tag_16:\n      tag_81\n      tag_82\n      jump\t// in\n    tag_81:\n      mload(0x40)\n      tag_83\n      swap2\n      swap1\n      tag_42\n      jump\t// in\n    tag_83:\n      mload(0x40)\n      dup1\n      swap2\n      sub\n      swap1\n      return\n        /* \"@openzeppelin/contracts/access/AccessControl.sol\":2187:2236  bytes32 public constant DEFAULT_ADMIN_ROLE = 0x00 */\n    tag_17:\n      tag_84\n      tag_85\n      jump\t// in\n    tag_84:\n      mload(0x40)\n      tag_86\n      swap2\n      swap1\n      tag_48\n      jump\t// in\n    tag_86:\n      mload(0x40)\n      dup1\n      swap2\n      sub\n      swap1\n      return\n        /* \"contracts/vault/AssetVault/AssetVault.sol\":5132:5696  function estimateAssetValueUSD(address _asset, uint256 _amount)... */\n    tag_18:\n      tag_87\n      0x04\n      dup1\n      calldatasize\n      sub\n      dup2\n      add\n      swap1\n      tag_88\n      swap2\n      swap1\n      tag_62\n      jump\t// in\n    tag_88:\n      tag_89\n      jump\t// in\n    tag_87:\n      mload(0x40)\n      tag_90\n      swap2\n      swap1\n      tag_42\n      jump\t// in\n    tag_90:\n      mload(0x40)\n      dup1\n      swap2\n      sub\n      swap1\n      return\n        /* \"contracts/vault/AssetVault/AssetVault.sol\":3971:4524  function trade(... */\n    tag_19:\n      tag_91\n      0x04\n      dup1\n      calldatasize\n      sub\n      dup2\n      add\n      swap1\n      tag_92\n      swap2\n      swap1\n      tag_93\n      jump\t// in\n    tag_92:\n      tag_94\n      jump\t// in\n    tag_91:\n      stop\n        /* \"contracts/vault/AssetVault/AssetVault.sol\":1147:1174  uint256 public totalProfits */\n    tag_20:\n      tag_95\n      tag_96\n      jump\t// in\n    tag_95:\n      mload(0x40)\n      tag_97\n      swap2\n      swap1\n      tag_42\n      jump\t// in\n    tag_97:\n      mload(0x40)\n      dup1\n      swap2\n      sub\n      swap1\n      return\n        /* \"contracts/vault/AssetVault/AssetVault.sol\":1010:1056  mapping(address => uint256) public userProfits */\n    tag_21:\n      tag_98\n      0x04\n      dup1\n      calldatasize\n      sub\n      dup2\n      add\n      swap1\n      tag_99\n      swap2\n      swap1\n      tag_39\n      jump\t// in\n    tag_99:\n      tag_100\n      jump\t// in\n    tag_98:\n      mload(0x40)\n      tag_101\n      swap2\n      swap1\n      tag_42\n      jump\t// in\n    tag_101:\n      mload(0x40)\n      dup1\n      swap2\n      sub\n      swap1\n      return\n        /* \"contracts/vault/AssetVault/AssetVault.sol\":771:802  IERC20[] public supportedAssets */\n    tag_22:\n      tag_102\n      0x04\n      dup1\n      calldatasize\n      sub\n      dup2\n      add\n      swap1\n      tag_103\n      swap2\n      swap1\n      tag_104\n      jump\t// in\n    tag_103:\n      tag_105\n      jump\t// in\n    tag_102:\n      mload(0x40)\n      tag_106\n      swap2\n      swap1\n      tag_107\n      jump\t// in\n    tag_106:\n      mload(0x40)\n      dup1\n      swap2\n      sub\n      swap1\n      return\n        /* \"@openzeppelin/contracts/access/AccessControl.sol\":4642:4780  function revokeRole(bytes32 role, address account) public virtual onlyRole(getRoleAdmin(role)) {... */\n    tag_23:\n      tag_108\n      0x04\n      dup1\n      calldatasize\n      sub\n      dup2\n      add\n      swap1\n      tag_109\n      swap2\n      swap1\n      tag_51\n      jump\t// in\n    tag_109:\n      tag_110\n      jump\t// in\n    tag_108:\n      stop\n        /* \"contracts/vault/AssetVault/AssetVault.sol\":2805:3605  function withdraw(address _asset, uint256 _amount) external {... */\n    tag_24:\n      tag_111\n      0x04\n      dup1\n      calldatasize\n      sub\n      dup2\n      add\n      swap1\n      tag_112\n      swap2\n      swap1\n      tag_62\n      jump\t// in\n    tag_112:\n      tag_113\n      jump\t// in\n    tag_111:\n      stop\n        /* \"contracts/vault/AssetVault/AssetVault.sol\":1063:1102  uint256 public performanceFeePercentage */\n    tag_25:\n      tag_114\n      tag_115\n      jump\t// in\n    tag_114:\n      mload(0x40)\n      tag_116\n      swap2\n      swap1\n      tag_42\n      jump\t// in\n    tag_116:\n      mload(0x40)\n      dup1\n      swap2\n      sub\n      swap1\n      return\n        /* \"@openzeppelin/contracts/access/AccessControl.sol\":2565:2767  function supportsInterface(bytes4 interfaceId) public view virtual override returns (bool) {... */\n    tag_32:\n        /* \"@openzeppelin/contracts/access/AccessControl.sol\":2650:2654  bool */\n      0x00\n        /* \"@openzeppelin/contracts/access/AccessControl.sol\":2688:2720  type(IAccessControl).interfaceId */\n      0x7965db0b00000000000000000000000000000000000000000000000000000000\n        /* \"@openzeppelin/contracts/access/AccessControl.sol\":2673:2720  interfaceId == type(IAccessControl).interfaceId */\n      not(0xffffffffffffffffffffffffffffffffffffffffffffffffffffffff)\n      and\n        /* \"@openzeppelin/contracts/access/AccessControl.sol\":2673:2684  interfaceId */\n      dup3\n        /* \"@openzeppelin/contracts/access/AccessControl.sol\":2673:2720  interfaceId == type(IAccessControl).interfaceId */\n      not(0xffffffffffffffffffffffffffffffffffffffffffffffffffffffff)\n      and\n      eq\n        /* \"@openzeppelin/contracts/access/AccessControl.sol\":2673:2760  interfaceId == type(IAccessControl).interfaceId || super.supportsInterface(interfaceId) */\n      dup1\n      tag_118\n      jumpi\n      pop\n        /* \"@openzeppelin/contracts/access/AccessControl.sol\":2724:2760  super.supportsInterface(interfaceId) */\n      tag_119\n        /* \"@openzeppelin/contracts/access/AccessControl.sol\":2748:2759  interfaceId */\n      dup3\n        /* \"@openzeppelin/contracts/access/AccessControl.sol\":2724:2747  super.supportsInterface */\n      tag_120\n        /* \"@openzeppelin/contracts/access/AccessControl.sol\":2724:2760  super.supportsInterface(interfaceId) */\n      jump\t// in\n    tag_119:\n        /* \"@openzeppelin/contracts/access/AccessControl.sol\":2673:2760  interfaceId == type(IAccessControl).interfaceId || super.supportsInterface(interfaceId) */\n    tag_118:\n        /* \"@openzeppelin/contracts/access/AccessControl.sol\":2666:2760  return interfaceId == type(IAccessControl).interfaceId || super.supportsInterface(interfaceId) */\n      swap1\n      pop\n        /* \"@openzeppelin/contracts/access/AccessControl.sol\":2565:2767  function supportsInterface(bytes4 interfaceId) public view virtual override returns (bool) {... */\n      swap2\n      swap1\n      pop\n      jump\t// out\n        /* \"contracts/vault/AssetVault/AssetVault.sol\":5990:6425  function collectPerformanceFee() external onlyRole(VAULT_MANAGER_ROLE) {... */\n    tag_36:\n        /* \"contracts/vault/AssetVault/AssetVault.sol\":668:699  keccak256(\"VAULT_MANAGER_ROLE\") */\n      0xd1473398bb66596de5d1ea1fc8e303ff2ac23265adc9144b1b52065dc4f0934b\n        /* \"@openzeppelin/contracts/access/AccessControl.sol\":2464:2480  _checkRole(role) */\n      tag_122\n        /* \"@openzeppelin/contracts/access/AccessControl.sol\":2475:2479  role */\n      dup2\n        /* \"@openzeppelin/contracts/access/AccessControl.sol\":2464:2474  _checkRole */\n      tag_123\n        /* \"@openzeppelin/contracts/access/AccessControl.sol\":2464:2480  _checkRole(role) */\n      jump\t// in\n    tag_122:\n        /* \"contracts/vault/AssetVault/AssetVault.sol\":6071:6086  uint256 profits */\n      0x00\n        /* \"contracts/vault/AssetVault/AssetVault.sol\":6089:6107  calculateProfits() */\n      tag_125\n        /* \"contracts/vault/AssetVault/AssetVault.sol\":6089:6105  calculateProfits */\n      tag_126\n        /* \"contracts/vault/AssetVault/AssetVault.sol\":6089:6107  calculateProfits() */\n      jump\t// in\n    tag_125:\n        /* \"contracts/vault/AssetVault/AssetVault.sol\":6071:6107  uint256 profits = calculateProfits() */\n      swap1\n      pop\n        /* \"contracts/vault/AssetVault/AssetVault.sol\":6131:6132  0 */\n      0x00\n        /* \"contracts/vault/AssetVault/AssetVault.sol\":6121:6128  profits */\n      dup2\n        /* \"contracts/vault/AssetVault/AssetVault.sol\":6121:6132  profits > 0 */\n      gt\n        /* \"contracts/vault/AssetVault/AssetVault.sol\":6117:6419  if (profits > 0) {... */\n      iszero\n      tag_127\n      jumpi\n        /* \"contracts/vault/AssetVault/AssetVault.sol\":6148:6170  uint256 performanceFee */\n      0x00\n        /* \"contracts/vault/AssetVault/AssetVault.sol\":6212:6215  100 */\n      0x64\n        /* \"contracts/vault/AssetVault/AssetVault.sol\":6184:6208  performanceFeePercentage */\n      sload(0x07)\n        /* \"contracts/vault/AssetVault/AssetVault.sol\":6174:6181  profits */\n      dup4\n        /* \"contracts/vault/AssetVault/AssetVault.sol\":6174:6208  profits * performanceFeePercentage */\n      tag_128\n      swap2\n      swap1\n      tag_129\n      jump\t// in\n    tag_128:\n        /* \"contracts/vault/AssetVault/AssetVault.sol\":6173:6215  (profits * performanceFeePercentage) / 100 */\n      tag_130\n      swap2\n      swap1\n      tag_131\n      jump\t// in\n    tag_130:\n        /* \"contracts/vault/AssetVault/AssetVault.sol\":6148:6215  uint256 performanceFee = (profits * performanceFeePercentage) / 100 */\n      swap1\n      pop\n        /* \"contracts/vault/AssetVault/AssetVault.sol\":6339:6353  performanceFee */\n      dup1\n        /* \"contracts/vault/AssetVault/AssetVault.sol\":6318:6336  lastRecordedProfit */\n      0x08\n        /* \"contracts/vault/AssetVault/AssetVault.sol\":6318:6353  lastRecordedProfit = performanceFee */\n      dup2\n      swap1\n      sstore\n      pop\n        /* \"contracts/vault/AssetVault/AssetVault.sol\":6134:6419  {... */\n      pop\n        /* \"contracts/vault/AssetVault/AssetVault.sol\":6117:6419  if (profits > 0) {... */\n    tag_127:\n        /* \"contracts/vault/AssetVault/AssetVault.sol\":6061:6425  {... */\n      pop\n        /* \"contracts/vault/AssetVault/AssetVault.sol\":5990:6425  function collectPerformanceFee() external onlyRole(VAULT_MANAGER_ROLE) {... */\n      pop\n      jump\t// out\n        /* \"contracts/vault/AssetVault/AssetVault.sol\":953:1004  mapping(address => UserDeposit) public userDeposits */\n    tag_40:\n      mstore(0x20, 0x05)\n      dup1\n      0x00\n      mstore\n      keccak256(0x00, 0x40)\n      0x00\n      swap2\n      pop\n      swap1\n      pop\n      dup1\n      0x00\n      add\n      sload\n      swap1\n      pop\n      dup2\n      jump\t// out\n        /* \"@openzeppelin/contracts/access/AccessControl.sol\":3810:3930  function getRoleAdmin(bytes32 role) public view virtual returns (bytes32) {... */\n    tag_46:\n        /* \"@openzeppelin/contracts/access/AccessControl.sol\":3875:3882  bytes32 */\n      0x00\n        /* \"@openzeppelin/contracts/access/AccessControl.sol\":3901:3907  _roles */\n      dup1\n        /* \"@openzeppelin/contracts/access/AccessControl.sol\":3901:3913  _roles[role] */\n      0x00\n        /* \"@openzeppelin/contracts/access/AccessControl.sol\":3908:3912  role */\n      dup4\n        /* \"@openzeppelin/contracts/access/AccessControl.sol\":3901:3913  _roles[role] */\n      dup2\n      mstore\n      0x20\n      add\n      swap1\n      dup2\n      mstore\n      0x20\n      add\n      0x00\n      keccak256\n        /* \"@openzeppelin/contracts/access/AccessControl.sol\":3901:3923  _roles[role].adminRole */\n      0x01\n      add\n      sload\n        /* \"@openzeppelin/contracts/access/AccessControl.sol\":3894:3923  return _roles[role].adminRole */\n      swap1\n      pop\n        /* \"@openzeppelin/contracts/access/AccessControl.sol\":3810:3930  function getRoleAdmin(bytes32 role) public view virtual returns (bytes32) {... */\n      swap2\n      swap1\n      pop\n      jump\t// out\n        /* \"@openzeppelin/contracts/access/AccessControl.sol\":4226:4362  function grantRole(bytes32 role, address account) public virtual onlyRole(getRoleAdmin(role)) {... */\n    tag_52:\n        /* \"@openzeppelin/contracts/access/AccessControl.sol\":4300:4318  getRoleAdmin(role) */\n      tag_133\n        /* \"@openzeppelin/contracts/access/AccessControl.sol\":4313:4317  role */\n      dup3\n        /* \"@openzeppelin/contracts/access/AccessControl.sol\":4300:4312  getRoleAdmin */\n      tag_46\n        /* \"@openzeppelin/contracts/access/AccessControl.sol\":4300:4318  getRoleAdmin(role) */\n      jump\t// in\n    tag_133:\n        /* \"@openzeppelin/contracts/access/AccessControl.sol\":2464:2480  _checkRole(role) */\n      tag_135\n        /* \"@openzeppelin/contracts/access/AccessControl.sol\":2475:2479  role */\n      dup2\n        /* \"@openzeppelin/contracts/access/AccessControl.sol\":2464:2474  _checkRole */\n      tag_123\n        /* \"@openzeppelin/contracts/access/AccessControl.sol\":2464:2480  _checkRole(role) */\n      jump\t// in\n    tag_135:\n        /* \"@openzeppelin/contracts/access/AccessControl.sol\":4330:4355  _grantRole(role, account) */\n      tag_137\n        /* \"@openzeppelin/contracts/access/AccessControl.sol\":4341:4345  role */\n      dup4\n        /* \"@openzeppelin/contracts/access/AccessControl.sol\":4347:4354  account */\n      dup4\n        /* \"@openzeppelin/contracts/access/AccessControl.sol\":4330:4340  _grantRole */\n      tag_138\n        /* \"@openzeppelin/contracts/access/AccessControl.sol\":4330:4355  _grantRole(role, account) */\n      jump\t// in\n    tag_137:\n      pop\n        /* \"@openzeppelin/contracts/access/AccessControl.sol\":4226:4362  function grantRole(bytes32 role, address account) public virtual onlyRole(getRoleAdmin(role)) {... */\n      pop\n      pop\n      pop\n      jump\t// out\n        /* \"contracts/vault/AssetVault/AssetVault.sol\":808:860  mapping(address => uint256) public totalVaultBalance */\n    tag_55:\n      mstore(0x20, 0x03)\n      dup1\n      0x00\n      mstore\n      keccak256(0x00, 0x40)\n      0x00\n      swap2\n      pop\n      swap1\n      pop\n      sload\n      dup2\n      jump\t// out\n        /* \"@openzeppelin/contracts/access/AccessControl.sol\":5328:5573  function renounceRole(bytes32 role, address callerConfirmation) public virtual {... */\n    tag_59:\n        /* \"@openzeppelin/contracts/access/AccessControl.sol\":5443:5455  _msgSender() */\n      tag_140\n        /* \"@openzeppelin/contracts/access/AccessControl.sol\":5443:5453  _msgSender */\n      tag_141\n        /* \"@openzeppelin/contracts/access/AccessControl.sol\":5443:5455  _msgSender() */\n      jump\t// in\n    tag_140:\n        /* \"@openzeppelin/contracts/access/AccessControl.sol\":5421:5455  callerConfirmation != _msgSender() */\n      0xffffffffffffffffffffffffffffffffffffffff\n      and\n        /* \"@openzeppelin/contracts/access/AccessControl.sol\":5421:5439  callerConfirmation */\n      dup2\n        /* \"@openzeppelin/contracts/access/AccessControl.sol\":5421:5455  callerConfirmation != _msgSender() */\n      0xffffffffffffffffffffffffffffffffffffffff\n      and\n      eq\n        /* \"@openzeppelin/contracts/access/AccessControl.sol\":5417:5519  if (callerConfirmation != _msgSender()) {... */\n      tag_142\n      jumpi\n        /* \"@openzeppelin/contracts/access/AccessControl.sol\":5478:5508  AccessControlBadConfirmation() */\n      mload(0x40)\n      0x6697b23200000000000000000000000000000000000000000000000000000000\n      dup2\n      mstore\n      0x04\n      add\n      mload(0x40)\n      dup1\n      swap2\n      sub\n      swap1\n      revert\n        /* \"@openzeppelin/contracts/access/AccessControl.sol\":5417:5519  if (callerConfirmation != _msgSender()) {... */\n    tag_142:\n        /* \"@openzeppelin/contracts/access/AccessControl.sol\":5529:5566  _revokeRole(role, callerConfirmation) */\n      tag_143\n        /* \"@openzeppelin/contracts/access/AccessControl.sol\":5541:5545  role */\n      dup3\n        /* \"@openzeppelin/contracts/access/AccessControl.sol\":5547:5565  callerConfirmation */\n      dup3\n        /* \"@openzeppelin/contracts/access/AccessControl.sol\":5529:5540  _revokeRole */\n      tag_144\n        /* \"@openzeppelin/contracts/access/AccessControl.sol\":5529:5566  _revokeRole(role, callerConfirmation) */\n      jump\t// in\n    tag_143:\n      pop\n        /* \"@openzeppelin/contracts/access/AccessControl.sol\":5328:5573  function renounceRole(bytes32 role, address callerConfirmation) public virtual {... */\n      pop\n      pop\n      jump\t// out\n        /* \"contracts/vault/AssetVault/AssetVault.sol\":2349:2799  function deposit(address _asset, uint256 _amount) external {... */\n    tag_63:\n        /* \"contracts/vault/AssetVault/AssetVault.sol\":2426:2458  isAssetSupported(IERC20(_asset)) */\n      tag_146\n        /* \"contracts/vault/AssetVault/AssetVault.sol\":2450:2456  _asset */\n      dup3\n        /* \"contracts/vault/AssetVault/AssetVault.sol\":2426:2442  isAssetSupported */\n      tag_147\n        /* \"contracts/vault/AssetVault/AssetVault.sol\":2426:2458  isAssetSupported(IERC20(_asset)) */\n      jump\t// in\n    tag_146:\n        /* \"contracts/vault/AssetVault/AssetVault.sol\":2418:2482  require(isAssetSupported(IERC20(_asset)), \"Asset not supported\") */\n      tag_148\n      jumpi\n      mload(0x40)\n      0x08c379a000000000000000000000000000000000000000000000000000000000\n      dup2\n      mstore\n      0x04\n      add\n      tag_149\n      swap1\n      tag_150\n      jump\t// in\n    tag_149:\n      mload(0x40)\n      dup1\n      swap2\n      sub\n      swap1\n      revert\n    tag_148:\n        /* \"contracts/vault/AssetVault/AssetVault.sol\":2499:2505  _asset */\n      dup2\n        /* \"contracts/vault/AssetVault/AssetVault.sol\":2492:2519  IERC20(_asset).transferFrom */\n      0xffffffffffffffffffffffffffffffffffffffff\n      and\n      0x23b872dd\n        /* \"contracts/vault/AssetVault/AssetVault.sol\":2520:2532  _msgSender() */\n      tag_151\n        /* \"contracts/vault/AssetVault/AssetVault.sol\":2520:2530  _msgSender */\n      tag_141\n        /* \"contracts/vault/AssetVault/AssetVault.sol\":2520:2532  _msgSender() */\n      jump\t// in\n    tag_151:\n        /* \"contracts/vault/AssetVault/AssetVault.sol\":2542:2546  this */\n      address\n        /* \"contracts/vault/AssetVault/AssetVault.sol\":2549:2556  _amount */\n      dup5\n        /* \"contracts/vault/AssetVault/AssetVault.sol\":2492:2557  IERC20(_asset).transferFrom(_msgSender(), address(this), _amount) */\n      mload(0x40)\n      dup5\n      0xffffffff\n      and\n      0xe0\n      shl\n      dup2\n      mstore\n      0x04\n      add\n      tag_152\n      swap4\n      swap3\n      swap2\n      swap1\n      tag_153\n      jump\t// in\n    tag_152:\n      0x20\n      mload(0x40)\n      dup1\n      dup4\n      sub\n      dup2\n      0x00\n      dup8\n      gas\n      call\n      iszero\n      dup1\n      iszero\n      tag_155\n      jumpi\n      returndatasize\n      0x00\n      dup1\n      returndatacopy\n      revert(0x00, returndatasize)\n    tag_155:\n      pop\n      pop\n      pop\n      pop\n      mload(0x40)\n      returndatasize\n      not(0x1f)\n      0x1f\n      dup3\n      add\n      and\n      dup3\n      add\n      dup1\n      0x40\n      mstore\n      pop\n      dup2\n      add\n      swap1\n      tag_156\n      swap2\n      swap1\n      tag_157\n      jump\t// in\n    tag_156:\n      pop\n        /* \"contracts/vault/AssetVault/AssetVault.sol\":2596:2603  _amount */\n      dup1\n        /* \"contracts/vault/AssetVault/AssetVault.sol\":2567:2584  totalVaultBalance */\n      0x03\n        /* \"contracts/vault/AssetVault/AssetVault.sol\":2567:2592  totalVaultBalance[_asset] */\n      0x00\n        /* \"contracts/vault/AssetVault/AssetVault.sol\":2585:2591  _asset */\n      dup5\n        /* \"contracts/vault/AssetVault/AssetVault.sol\":2567:2592  totalVaultBalance[_asset] */\n      0xffffffffffffffffffffffffffffffffffffffff\n      and\n      0xffffffffffffffffffffffffffffffffffffffff\n      and\n      dup2\n      mstore\n      0x20\n      add\n      swap1\n      dup2\n      mstore\n      0x20\n      add\n      0x00\n      keccak256\n      0x00\n        /* \"contracts/vault/AssetVault/AssetVault.sol\":2567:2603  totalVaultBalance[_asset] += _amount */\n      dup3\n      dup3\n      sload\n      tag_158\n      swap2\n      swap1\n      tag_159\n      jump\t// in\n    tag_158:\n      swap3\n      pop\n      pop\n      dup2\n      swap1\n      sstore\n      pop\n        /* \"contracts/vault/AssetVault/AssetVault.sol\":2654:2723  estimateAssetValue(... */\n      tag_160\n        /* \"contracts/vault/AssetVault/AssetVault.sol\":2686:2692  _asset */\n      dup3\n        /* \"contracts/vault/AssetVault/AssetVault.sol\":2706:2713  _amount */\n      dup3\n        /* \"contracts/vault/AssetVault/AssetVault.sol\":2654:2672  estimateAssetValue */\n      tag_161\n        /* \"contracts/vault/AssetVault/AssetVault.sol\":2654:2723  estimateAssetValue(... */\n      jump\t// in\n    tag_160:\n        /* \"contracts/vault/AssetVault/AssetVault.sol\":2613:2625  userDeposits */\n      0x05\n        /* \"contracts/vault/AssetVault/AssetVault.sol\":2613:2639  userDeposits[_msgSender()] */\n      0x00\n        /* \"contracts/vault/AssetVault/AssetVault.sol\":2626:2638  _msgSender() */\n      tag_162\n        /* \"contracts/vault/AssetVault/AssetVault.sol\":2626:2636  _msgSender */\n      tag_141\n        /* \"contracts/vault/AssetVault/AssetVault.sol\":2626:2638  _msgSender() */\n      jump\t// in\n    tag_162:\n        /* \"contracts/vault/AssetVault/AssetVault.sol\":2613:2639  userDeposits[_msgSender()] */\n      0xffffffffffffffffffffffffffffffffffffffff\n      and\n      0xffffffffffffffffffffffffffffffffffffffff\n      and\n      dup2\n      mstore\n      0x20\n      add\n      swap1\n      dup2\n      mstore\n      0x20\n      add\n      0x00\n      keccak256\n        /* \"contracts/vault/AssetVault/AssetVault.sol\":2613:2650  userDeposits[_msgSender()].totalValue */\n      0x00\n      add\n      0x00\n        /* \"contracts/vault/AssetVault/AssetVault.sol\":2613:2723  userDeposits[_msgSender()].totalValue += estimateAssetValue(... */\n      dup3\n      dup3\n      sload\n      tag_163\n      swap2\n      swap1\n      tag_159\n      jump\t// in\n    tag_163:\n      swap3\n      pop\n      pop\n      dup2\n      swap1\n      sstore\n      pop\n        /* \"contracts/vault/AssetVault/AssetVault.sol\":2785:2792  _amount */\n      dup1\n        /* \"contracts/vault/AssetVault/AssetVault.sol\":2733:2745  userDeposits */\n      0x05\n        /* \"contracts/vault/AssetVault/AssetVault.sol\":2733:2759  userDeposits[_msgSender()] */\n      0x00\n        /* \"contracts/vault/AssetVault/AssetVault.sol\":2746:2758  _msgSender() */\n      tag_164\n        /* \"contracts/vault/AssetVault/AssetVault.sol\":2746:2756  _msgSender */\n      tag_141\n        /* \"contracts/vault/AssetVault/AssetVault.sol\":2746:2758  _msgSender() */\n      jump\t// in\n    tag_164:\n        /* \"contracts/vault/AssetVault/AssetVault.sol\":2733:2759  userDeposits[_msgSender()] */\n      0xffffffffffffffffffffffffffffffffffffffff\n      and\n      0xffffffffffffffffffffffffffffffffffffffff\n      and\n      dup2\n      mstore\n      0x20\n      add\n      swap1\n      dup2\n      mstore\n      0x20\n      add\n      0x00\n      keccak256\n        /* \"contracts/vault/AssetVault/AssetVault.sol\":2733:2773  userDeposits[_msgSender()].assetBalances */\n      0x01\n      add\n        /* \"contracts/vault/AssetVault/AssetVault.sol\":2733:2781  userDeposits[_msgSender()].assetBalances[_asset] */\n      0x00\n        /* \"contracts/vault/AssetVault/AssetVault.sol\":2774:2780  _asset */\n      dup5\n        /* \"contracts/vault/AssetVault/AssetVault.sol\":2733:2781  userDeposits[_msgSender()].assetBalances[_asset] */\n      0xffffffffffffffffffffffffffffffffffffffff\n      and\n      0xffffffffffffffffffffffffffffffffffffffff\n      and\n      dup2\n      mstore\n      0x20\n      add\n      swap1\n      dup2\n      mstore\n      0x20\n      add\n      0x00\n      keccak256\n      0x00\n        /* \"contracts/vault/AssetVault/AssetVault.sol\":2733:2792  userDeposits[_msgSender()].assetBalances[_asset] += _amount */\n      dup3\n      dup3\n      sload\n      tag_165\n      swap2\n      swap1\n      tag_159\n      jump\t// in\n    tag_165:\n      swap3\n      pop\n      pop\n      dup2\n      swap1\n      sstore\n      pop\n        /* \"contracts/vault/AssetVault/AssetVault.sol\":2349:2799  function deposit(address _asset, uint256 _amount) external {... */\n      pop\n      pop\n      jump\t// out\n        /* \"contracts/vault/AssetVault/AssetVault.sol\":1108:1141  uint256 public lastRecordedProfit */\n    tag_65:\n      sload(0x08)\n      dup2\n      jump\t// out\n        /* \"contracts/vault/AssetVault/AssetVault.sol\":615:699  bytes32 public constant VAULT_MANAGER_ROLE =... */\n    tag_68:\n        /* \"contracts/vault/AssetVault/AssetVault.sol\":668:699  keccak256(\"VAULT_MANAGER_ROLE\") */\n      0xd1473398bb66596de5d1ea1fc8e303ff2ac23265adc9144b1b52065dc4f0934b\n        /* \"contracts/vault/AssetVault/AssetVault.sol\":615:699  bytes32 public constant VAULT_MANAGER_ROLE =... */\n      dup2\n      jump\t// out\n        /* \"contracts/vault/AssetVault/AssetVault.sol\":705:765  bytes32 public constant ADMIN_ROLE = keccak256(\"ADMIN_ROLE\") */\n    tag_71:\n        /* \"contracts/vault/AssetVault/AssetVault.sol\":742:765  keccak256(\"ADMIN_ROLE\") */\n      0xa49807205ce4d355092ef5a8a18f56e8913cf4a201fbe287825b095693c21775\n        /* \"contracts/vault/AssetVault/AssetVault.sol\":705:765  bytes32 public constant ADMIN_ROLE = keccak256(\"ADMIN_ROLE\") */\n      dup2\n      jump\t// out\n        /* \"contracts/vault/AssetVault/AssetVault.sol\":1789:1969  function setAssetToOracle(address _asset, address _oracle)... */\n    tag_76:\n        /* \"contracts/vault/AssetVault/AssetVault.sol\":742:765  keccak256(\"ADMIN_ROLE\") */\n      0xa49807205ce4d355092ef5a8a18f56e8913cf4a201fbe287825b095693c21775\n        /* \"@openzeppelin/contracts/access/AccessControl.sol\":2464:2480  _checkRole(role) */\n      tag_167\n        /* \"@openzeppelin/contracts/access/AccessControl.sol\":2475:2479  role */\n      dup2\n        /* \"@openzeppelin/contracts/access/AccessControl.sol\":2464:2474  _checkRole */\n      tag_123\n        /* \"@openzeppelin/contracts/access/AccessControl.sol\":2464:2480  _checkRole(role) */\n      jump\t// in\n    tag_167:\n        /* \"contracts/vault/AssetVault/AssetVault.sol\":1954:1961  _oracle */\n      dup2\n        /* \"contracts/vault/AssetVault/AssetVault.sol\":1908:1921  assetToOracle */\n      0x04\n        /* \"contracts/vault/AssetVault/AssetVault.sol\":1908:1929  assetToOracle[_asset] */\n      0x00\n        /* \"contracts/vault/AssetVault/AssetVault.sol\":1922:1928  _asset */\n      dup6\n        /* \"contracts/vault/AssetVault/AssetVault.sol\":1908:1929  assetToOracle[_asset] */\n      0xffffffffffffffffffffffffffffffffffffffff\n      and\n      0xffffffffffffffffffffffffffffffffffffffff\n      and\n      dup2\n      mstore\n      0x20\n      add\n      swap1\n      dup2\n      mstore\n      0x20\n      add\n      0x00\n      keccak256\n      0x00\n        /* \"contracts/vault/AssetVault/AssetVault.sol\":1908:1962  assetToOracle[_asset] = AggregatorV3Interface(_oracle) */\n      0x0100\n      exp\n      dup2\n      sload\n      dup2\n      0xffffffffffffffffffffffffffffffffffffffff\n      mul\n      not\n      and\n      swap1\n      dup4\n      0xffffffffffffffffffffffffffffffffffffffff\n      and\n      mul\n      or\n      swap1\n      sstore\n      pop\n        /* \"contracts/vault/AssetVault/AssetVault.sol\":1789:1969  function setAssetToOracle(address _asset, address _oracle)... */\n      pop\n      pop\n      pop\n      jump\t// out\n        /* \"@openzeppelin/contracts/access/AccessControl.sol\":2854:2990  function hasRole(bytes32 role, address account) public view virtual returns (bool) {... */\n    tag_79:\n        /* \"@openzeppelin/contracts/access/AccessControl.sol\":2931:2935  bool */\n      0x00\n        /* \"@openzeppelin/contracts/access/AccessControl.sol\":2954:2960  _roles */\n      dup1\n        /* \"@openzeppelin/contracts/access/AccessControl.sol\":2954:2966  _roles[role] */\n      0x00\n        /* \"@openzeppelin/contracts/access/AccessControl.sol\":2961:2965  role */\n      dup5\n        /* \"@openzeppelin/contracts/access/AccessControl.sol\":2954:2966  _roles[role] */\n      dup2\n      mstore\n      0x20\n      add\n      swap1\n      dup2\n      mstore\n      0x20\n      add\n      0x00\n      keccak256\n        /* \"@openzeppelin/contracts/access/AccessControl.sol\":2954:2974  _roles[role].hasRole */\n      0x00\n      add\n        /* \"@openzeppelin/contracts/access/AccessControl.sol\":2954:2983  _roles[role].hasRole[account] */\n      0x00\n        /* \"@openzeppelin/contracts/access/AccessControl.sol\":2975:2982  account */\n      dup4\n        /* \"@openzeppelin/contracts/access/AccessControl.sol\":2954:2983  _roles[role].hasRole[account] */\n      0xffffffffffffffffffffffffffffffffffffffff\n      and\n      0xffffffffffffffffffffffffffffffffffffffff\n      and\n      dup2\n      mstore\n      0x20\n      add\n      swap1\n      dup2\n      mstore\n      0x20\n      add\n      0x00\n      keccak256\n      0x00\n      swap1\n      sload\n      swap1\n      0x0100\n      exp\n      swap1\n      div\n      0xff\n      and\n        /* \"@openzeppelin/contracts/access/AccessControl.sol\":2947:2983  return _roles[role].hasRole[account] */\n      swap1\n      pop\n        /* \"@openzeppelin/contracts/access/AccessControl.sol\":2854:2990  function hasRole(bytes32 role, address account) public view virtual returns (bool) {... */\n      swap3\n      swap2\n      pop\n      pop\n      jump\t// out\n        /* \"contracts/vault/AssetVault/AssetVault.sol\":1975:2343  function estimateVaultValue() public view returns (uint256) {... */\n    tag_82:\n        /* \"contracts/vault/AssetVault/AssetVault.sol\":2026:2033  uint256 */\n      0x00\n        /* \"contracts/vault/AssetVault/AssetVault.sol\":2045:2063  uint256 totalValue */\n      dup1\n        /* \"contracts/vault/AssetVault/AssetVault.sol\":2066:2067  0 */\n      0x00\n        /* \"contracts/vault/AssetVault/AssetVault.sol\":2045:2067  uint256 totalValue = 0 */\n      swap1\n      pop\n        /* \"contracts/vault/AssetVault/AssetVault.sol\":2082:2091  uint256 i */\n      0x00\n        /* \"contracts/vault/AssetVault/AssetVault.sol\":2077:2310  for (uint256 i = 0; i < supportedAssets.length; i++) {... */\n    tag_171:\n        /* \"contracts/vault/AssetVault/AssetVault.sol\":2101:2116  supportedAssets */\n      0x02\n        /* \"contracts/vault/AssetVault/AssetVault.sol\":2101:2123  supportedAssets.length */\n      dup1\n      sload\n      swap1\n      pop\n        /* \"contracts/vault/AssetVault/AssetVault.sol\":2097:2098  i */\n      dup2\n        /* \"contracts/vault/AssetVault/AssetVault.sol\":2097:2123  i < supportedAssets.length */\n      lt\n        /* \"contracts/vault/AssetVault/AssetVault.sol\":2077:2310  for (uint256 i = 0; i < supportedAssets.length; i++) {... */\n      iszero\n      tag_172\n      jumpi\n        /* \"contracts/vault/AssetVault/AssetVault.sol\":2158:2299  estimateAssetValue(... */\n      tag_174\n        /* \"contracts/vault/AssetVault/AssetVault.sol\":2202:2217  supportedAssets */\n      0x02\n        /* \"contracts/vault/AssetVault/AssetVault.sol\":2218:2219  i */\n      dup3\n        /* \"contracts/vault/AssetVault/AssetVault.sol\":2202:2220  supportedAssets[i] */\n      dup2\n      sload\n      dup2\n      lt\n      tag_175\n      jumpi\n      tag_176\n      tag_177\n      jump\t// in\n    tag_176:\n    tag_175:\n      swap1\n      0x00\n      mstore\n      keccak256(0x00, 0x20)\n      add\n      0x00\n      swap1\n      sload\n      swap1\n      0x0100\n      exp\n      swap1\n      div\n      0xffffffffffffffffffffffffffffffffffffffff\n      and\n        /* \"contracts/vault/AssetVault/AssetVault.sol\":2239:2256  totalVaultBalance */\n      0x03\n        /* \"contracts/vault/AssetVault/AssetVault.sol\":2239:2285  totalVaultBalance[address(supportedAssets[i])] */\n      0x00\n        /* \"contracts/vault/AssetVault/AssetVault.sol\":2265:2280  supportedAssets */\n      0x02\n        /* \"contracts/vault/AssetVault/AssetVault.sol\":2281:2282  i */\n      dup6\n        /* \"contracts/vault/AssetVault/AssetVault.sol\":2265:2283  supportedAssets[i] */\n      dup2\n      sload\n      dup2\n      lt\n      tag_179\n      jumpi\n      tag_180\n      tag_177\n      jump\t// in\n    tag_180:\n    tag_179:\n      swap1\n      0x00\n      mstore\n      keccak256(0x00, 0x20)\n      add\n      0x00\n      swap1\n      sload\n      swap1\n      0x0100\n      exp\n      swap1\n      div\n      0xffffffffffffffffffffffffffffffffffffffff\n      and\n        /* \"contracts/vault/AssetVault/AssetVault.sol\":2239:2285  totalVaultBalance[address(supportedAssets[i])] */\n      0xffffffffffffffffffffffffffffffffffffffff\n      and\n      0xffffffffffffffffffffffffffffffffffffffff\n      and\n      dup2\n      mstore\n      0x20\n      add\n      swap1\n      dup2\n      mstore\n      0x20\n      add\n      0x00\n      keccak256\n      sload\n        /* \"contracts/vault/AssetVault/AssetVault.sol\":2158:2176  estimateAssetValue */\n      tag_161\n        /* \"contracts/vault/AssetVault/AssetVault.sol\":2158:2299  estimateAssetValue(... */\n      jump\t// in\n    tag_174:\n        /* \"contracts/vault/AssetVault/AssetVault.sol\":2144:2299  totalValue += estimateAssetValue(... */\n      dup3\n      tag_182\n      swap2\n      swap1\n      tag_159\n      jump\t// in\n    tag_182:\n      swap2\n      pop\n        /* \"contracts/vault/AssetVault/AssetVault.sol\":2125:2128  i++ */\n      dup1\n      dup1\n      0x01\n      add\n      swap2\n      pop\n      pop\n        /* \"contracts/vault/AssetVault/AssetVault.sol\":2077:2310  for (uint256 i = 0; i < supportedAssets.length; i++) {... */\n      jump(tag_171)\n    tag_172:\n      pop\n        /* \"contracts/vault/AssetVault/AssetVault.sol\":2326:2336  totalValue */\n      dup1\n        /* \"contracts/vault/AssetVault/AssetVault.sol\":2319:2336  return totalValue */\n      swap2\n      pop\n      pop\n        /* \"contracts/vault/AssetVault/AssetVault.sol\":1975:2343  function estimateVaultValue() public view returns (uint256) {... */\n      swap1\n      jump\t// out\n        /* \"@openzeppelin/contracts/access/AccessControl.sol\":2187:2236  bytes32 public constant DEFAULT_ADMIN_ROLE = 0x00 */\n    tag_85:\n        /* \"@openzeppelin/contracts/access/AccessControl.sol\":2232:2236  0x00 */\n      0x00\n        /* \"@openzeppelin/contracts/access/AccessControl.sol\":2187:2236  bytes32 public constant DEFAULT_ADMIN_ROLE = 0x00 */\n      dup1\n      shl\n      dup2\n      jump\t// out\n        /* \"contracts/vault/AssetVault/AssetVault.sol\":5132:5696  function estimateAssetValueUSD(address _asset, uint256 _amount)... */\n    tag_89:\n        /* \"contracts/vault/AssetVault/AssetVault.sol\":5241:5257  uint256 valueUSD */\n      0x00\n        /* \"contracts/vault/AssetVault/AssetVault.sol\":5273:5304  AggregatorV3Interface priceFeed */\n      dup1\n        /* \"contracts/vault/AssetVault/AssetVault.sol\":5307:5320  assetToOracle */\n      0x04\n        /* \"contracts/vault/AssetVault/AssetVault.sol\":5307:5328  assetToOracle[_asset] */\n      0x00\n        /* \"contracts/vault/AssetVault/AssetVault.sol\":5321:5327  _asset */\n      dup6\n        /* \"contracts/vault/AssetVault/AssetVault.sol\":5307:5328  assetToOracle[_asset] */\n      0xffffffffffffffffffffffffffffffffffffffff\n      and\n      0xffffffffffffffffffffffffffffffffffffffff\n      and\n      dup2\n      mstore\n      0x20\n      add\n      swap1\n      dup2\n      mstore\n      0x20\n      add\n      0x00\n      keccak256\n      0x00\n      swap1\n      sload\n      swap1\n      0x0100\n      exp\n      swap1\n      div\n      0xffffffffffffffffffffffffffffffffffffffff\n      and\n        /* \"contracts/vault/AssetVault/AssetVault.sol\":5273:5328  AggregatorV3Interface priceFeed = assetToOracle[_asset] */\n      swap1\n      pop\n        /* \"contracts/vault/AssetVault/AssetVault.sol\":5402:5403  0 */\n      0x00\n        /* \"contracts/vault/AssetVault/AssetVault.sol\":5359:5405  priceFeed != AggregatorV3Interface(address(0)) */\n      0xffffffffffffffffffffffffffffffffffffffff\n      and\n        /* \"contracts/vault/AssetVault/AssetVault.sol\":5359:5368  priceFeed */\n      dup2\n        /* \"contracts/vault/AssetVault/AssetVault.sol\":5359:5405  priceFeed != AggregatorV3Interface(address(0)) */\n      0xffffffffffffffffffffffffffffffffffffffff\n      and\n      sub\n        /* \"contracts/vault/AssetVault/AssetVault.sol\":5338:5455  require(... */\n      tag_184\n      jumpi\n      mload(0x40)\n      0x08c379a000000000000000000000000000000000000000000000000000000000\n      dup2\n      mstore\n      0x04\n      add\n      tag_185\n      swap1\n      tag_186\n      jump\t// in\n    tag_185:\n      mload(0x40)\n      dup1\n      swap2\n      sub\n      swap1\n      revert\n    tag_184:\n        /* \"contracts/vault/AssetVault/AssetVault.sol\":5468:5480  int256 price */\n      0x00\n        /* \"contracts/vault/AssetVault/AssetVault.sol\":5490:5499  priceFeed */\n      dup2\n        /* \"contracts/vault/AssetVault/AssetVault.sol\":5490:5515  priceFeed.latestRoundData */\n      0xffffffffffffffffffffffffffffffffffffffff\n      and\n      0xfeaf968c\n        /* \"contracts/vault/AssetVault/AssetVault.sol\":5490:5517  priceFeed.latestRoundData() */\n      mload(0x40)\n      dup2\n      0xffffffff\n      and\n      0xe0\n      shl\n      dup2\n      mstore\n      0x04\n      add\n      0xa0\n      mload(0x40)\n      dup1\n      dup4\n      sub\n      dup2\n      dup7\n      gas\n      staticcall\n      iszero\n      dup1\n      iszero\n      tag_188\n      jumpi\n      returndatasize\n      0x00\n      dup1\n      returndatacopy\n      revert(0x00, returndatasize)\n    tag_188:\n      pop\n      pop\n      pop\n      pop\n      mload(0x40)\n      returndatasize\n      not(0x1f)\n      0x1f\n      dup3\n      add\n      and\n      dup3\n      add\n      dup1\n      0x40\n      mstore\n      pop\n      dup2\n      add\n      swap1\n      tag_189\n      swap2\n      swap1\n      tag_190\n      jump\t// in\n    tag_189:\n        /* \"contracts/vault/AssetVault/AssetVault.sol\":5465:5517  (, int256 price, , , ) = priceFeed.latestRoundData() */\n      pop\n      pop\n      pop\n      swap2\n      pop\n      pop\n        /* \"contracts/vault/AssetVault/AssetVault.sol\":5543:5544  0 */\n      0x00\n        /* \"contracts/vault/AssetVault/AssetVault.sol\":5535:5540  price */\n      dup2\n        /* \"contracts/vault/AssetVault/AssetVault.sol\":5535:5544  price > 0 */\n      sgt\n        /* \"contracts/vault/AssetVault/AssetVault.sol\":5527:5567  require(price > 0, \"Invalid price data\") */\n      tag_191\n      jumpi\n      mload(0x40)\n      0x08c379a000000000000000000000000000000000000000000000000000000000\n      dup2\n      mstore\n      0x04\n      add\n      tag_192\n      swap1\n      tag_193\n      jump\t// in\n    tag_192:\n      mload(0x40)\n      dup1\n      swap2\n      sub\n      swap1\n      revert\n    tag_191:\n        /* \"contracts/vault/AssetVault/AssetVault.sol\":5577:5593  uint256 decimals */\n      0x00\n        /* \"contracts/vault/AssetVault/AssetVault.sol\":5604:5613  priceFeed */\n      dup3\n        /* \"contracts/vault/AssetVault/AssetVault.sol\":5604:5622  priceFeed.decimals */\n      0xffffffffffffffffffffffffffffffffffffffff\n      and\n      0x313ce567\n        /* \"contracts/vault/AssetVault/AssetVault.sol\":5604:5624  priceFeed.decimals() */\n      mload(0x40)\n      dup2\n      0xffffffff\n      and\n      0xe0\n      shl\n      dup2\n      mstore\n      0x04\n      add\n      0x20\n      mload(0x40)\n      dup1\n      dup4\n      sub\n      dup2\n      dup7\n      gas\n      staticcall\n      iszero\n      dup1\n      iszero\n      tag_195\n      jumpi\n      returndatasize\n      0x00\n      dup1\n      returndatacopy\n      revert(0x00, returndatasize)\n    tag_195:\n      pop\n      pop\n      pop\n      pop\n      mload(0x40)\n      returndatasize\n      not(0x1f)\n      0x1f\n      dup3\n      add\n      and\n      dup3\n      add\n      dup1\n      0x40\n      mstore\n      pop\n      dup2\n      add\n      swap1\n      tag_196\n      swap2\n      swap1\n      tag_197\n      jump\t// in\n    tag_196:\n        /* \"contracts/vault/AssetVault/AssetVault.sol\":5596:5625  uint256(priceFeed.decimals()) */\n      0xff\n      and\n        /* \"contracts/vault/AssetVault/AssetVault.sol\":5577:5625  uint256 decimals = uint256(priceFeed.decimals()) */\n      swap1\n      pop\n        /* \"contracts/vault/AssetVault/AssetVault.sol\":5680:5688  decimals */\n      dup1\n        /* \"contracts/vault/AssetVault/AssetVault.sol\":5676:5678  10 */\n      0x0a\n        /* \"contracts/vault/AssetVault/AssetVault.sol\":5676:5688  10**decimals */\n      tag_198\n      swap2\n      swap1\n      tag_199\n      jump\t// in\n    tag_198:\n        /* \"contracts/vault/AssetVault/AssetVault.sol\":5665:5670  price */\n      dup3\n        /* \"contracts/vault/AssetVault/AssetVault.sol\":5647:5654  _amount */\n      dup7\n        /* \"contracts/vault/AssetVault/AssetVault.sol\":5647:5671  _amount * uint256(price) */\n      tag_200\n      swap2\n      swap1\n      tag_129\n      jump\t// in\n    tag_200:\n        /* \"contracts/vault/AssetVault/AssetVault.sol\":5646:5689  (_amount * uint256(price)) / (10**decimals) */\n      tag_201\n      swap2\n      swap1\n      tag_131\n      jump\t// in\n    tag_201:\n        /* \"contracts/vault/AssetVault/AssetVault.sol\":5635:5689  valueUSD = (_amount * uint256(price)) / (10**decimals) */\n      swap4\n      pop\n        /* \"contracts/vault/AssetVault/AssetVault.sol\":5263:5696  {... */\n      pop\n      pop\n      pop\n        /* \"contracts/vault/AssetVault/AssetVault.sol\":5132:5696  function estimateAssetValueUSD(address _asset, uint256 _amount)... */\n      swap3\n      swap2\n      pop\n      pop\n      jump\t// out\n        /* \"contracts/vault/AssetVault/AssetVault.sol\":3971:4524  function trade(... */\n    tag_94:\n        /* \"contracts/vault/AssetVault/AssetVault.sol\":668:699  keccak256(\"VAULT_MANAGER_ROLE\") */\n      0xd1473398bb66596de5d1ea1fc8e303ff2ac23265adc9144b1b52065dc4f0934b\n        /* \"@openzeppelin/contracts/access/AccessControl.sol\":2464:2480  _checkRole(role) */\n      tag_203\n        /* \"@openzeppelin/contracts/access/AccessControl.sol\":2475:2479  role */\n      dup2\n        /* \"@openzeppelin/contracts/access/AccessControl.sol\":2464:2474  _checkRole */\n      tag_123\n        /* \"@openzeppelin/contracts/access/AccessControl.sol\":2464:2480  _checkRole(role) */\n      jump\t// in\n    tag_203:\n        /* \"contracts/vault/AssetVault/AssetVault.sol\":4230:4250  uint256 currentValue */\n      0x00\n        /* \"contracts/vault/AssetVault/AssetVault.sol\":4253:4299  estimateAssetValue(address(_asset2), _amount2) */\n      tag_205\n        /* \"contracts/vault/AssetVault/AssetVault.sol\":4280:4287  _asset2 */\n      dup5\n        /* \"contracts/vault/AssetVault/AssetVault.sol\":4290:4298  _amount2 */\n      dup5\n        /* \"contracts/vault/AssetVault/AssetVault.sol\":4253:4271  estimateAssetValue */\n      tag_161\n        /* \"contracts/vault/AssetVault/AssetVault.sol\":4253:4299  estimateAssetValue(address(_asset2), _amount2) */\n      jump\t// in\n    tag_205:\n        /* \"contracts/vault/AssetVault/AssetVault.sol\":4230:4299  uint256 currentValue = estimateAssetValue(address(_asset2), _amount2) */\n      swap1\n      pop\n        /* \"contracts/vault/AssetVault/AssetVault.sol\":4360:4381  uint256 previousValue */\n      0x00\n        /* \"contracts/vault/AssetVault/AssetVault.sol\":4384:4430  estimateAssetValue(address(_asset1), _amount1) */\n      tag_206\n        /* \"contracts/vault/AssetVault/AssetVault.sol\":4411:4418  _asset1 */\n      dup8\n        /* \"contracts/vault/AssetVault/AssetVault.sol\":4421:4429  _amount1 */\n      dup8\n        /* \"contracts/vault/AssetVault/AssetVault.sol\":4384:4402  estimateAssetValue */\n      tag_161\n        /* \"contracts/vault/AssetVault/AssetVault.sol\":4384:4430  estimateAssetValue(address(_asset1), _amount1) */\n      jump\t// in\n    tag_206:\n        /* \"contracts/vault/AssetVault/AssetVault.sol\":4360:4430  uint256 previousValue = estimateAssetValue(address(_asset1), _amount1) */\n      swap1\n      pop\n        /* \"contracts/vault/AssetVault/AssetVault.sol\":4440:4454  uint256 profit */\n      0x00\n        /* \"contracts/vault/AssetVault/AssetVault.sol\":4472:4485  previousValue */\n      dup2\n        /* \"contracts/vault/AssetVault/AssetVault.sol\":4457:4469  currentValue */\n      dup4\n        /* \"contracts/vault/AssetVault/AssetVault.sol\":4457:4485  currentValue - previousValue */\n      tag_207\n      swap2\n      swap1\n      tag_208\n      jump\t// in\n    tag_207:\n        /* \"contracts/vault/AssetVault/AssetVault.sol\":4440:4485  uint256 profit = currentValue - previousValue */\n      swap1\n      pop\n        /* \"contracts/vault/AssetVault/AssetVault.sol\":4511:4517  profit */\n      dup1\n        /* \"contracts/vault/AssetVault/AssetVault.sol\":4495:4507  totalProfits */\n      0x09\n      0x00\n        /* \"contracts/vault/AssetVault/AssetVault.sol\":4495:4517  totalProfits += profit */\n      dup3\n      dup3\n      sload\n      tag_209\n      swap2\n      swap1\n      tag_159\n      jump\t// in\n    tag_209:\n      swap3\n      pop\n      pop\n      dup2\n      swap1\n      sstore\n      pop\n        /* \"contracts/vault/AssetVault/AssetVault.sol\":4130:4524  {... */\n      pop\n      pop\n      pop\n        /* \"contracts/vault/AssetVault/AssetVault.sol\":3971:4524  function trade(... */\n      pop\n      pop\n      pop\n      pop\n      pop\n      jump\t// out\n        /* \"contracts/vault/AssetVault/AssetVault.sol\":1147:1174  uint256 public totalProfits */\n    tag_96:\n      sload(0x09)\n      dup2\n      jump\t// out\n        /* \"contracts/vault/AssetVault/AssetVault.sol\":1010:1056  mapping(address => uint256) public userProfits */\n    tag_100:\n      mstore(0x20, 0x06)\n      dup1\n      0x00\n      mstore\n      keccak256(0x00, 0x40)\n      0x00\n      swap2\n      pop\n      swap1\n      pop\n      sload\n      dup2\n      jump\t// out\n        /* \"contracts/vault/AssetVault/AssetVault.sol\":771:802  IERC20[] public supportedAssets */\n    tag_105:\n      0x02\n      dup2\n      dup2\n      sload\n      dup2\n      lt\n      tag_210\n      jumpi\n      0x00\n      dup1\n      revert\n    tag_210:\n      swap1\n      0x00\n      mstore\n      keccak256(0x00, 0x20)\n      add\n      0x00\n      swap2\n      pop\n      sload\n      swap1\n      0x0100\n      exp\n      swap1\n      div\n      0xffffffffffffffffffffffffffffffffffffffff\n      and\n      dup2\n      jump\t// out\n        /* \"@openzeppelin/contracts/access/AccessControl.sol\":4642:4780  function revokeRole(bytes32 role, address account) public virtual onlyRole(getRoleAdmin(role)) {... */\n    tag_110:\n        /* \"@openzeppelin/contracts/access/AccessControl.sol\":4717:4735  getRoleAdmin(role) */\n      tag_212\n        /* \"@openzeppelin/contracts/access/AccessControl.sol\":4730:4734  role */\n      dup3\n        /* \"@openzeppelin/contracts/access/AccessControl.sol\":4717:4729  getRoleAdmin */\n      tag_46\n        /* \"@openzeppelin/contracts/access/AccessControl.sol\":4717:4735  getRoleAdmin(role) */\n      jump\t// in\n    tag_212:\n        /* \"@openzeppelin/contracts/access/AccessControl.sol\":2464:2480  _checkRole(role) */\n      tag_214\n        /* \"@openzeppelin/contracts/access/AccessControl.sol\":2475:2479  role */\n      dup2\n        /* \"@openzeppelin/contracts/access/AccessControl.sol\":2464:2474  _checkRole */\n      tag_123\n        /* \"@openzeppelin/contracts/access/AccessControl.sol\":2464:2480  _checkRole(role) */\n      jump\t// in\n    tag_214:\n        /* \"@openzeppelin/contracts/access/AccessControl.sol\":4747:4773  _revokeRole(role, account) */\n      tag_216\n        /* \"@openzeppelin/contracts/access/AccessControl.sol\":4759:4763  role */\n      dup4\n        /* \"@openzeppelin/contracts/access/AccessControl.sol\":4765:4772  account */\n      dup4\n        /* \"@openzeppelin/contracts/access/AccessControl.sol\":4747:4758  _revokeRole */\n      tag_144\n        /* \"@openzeppelin/contracts/access/AccessControl.sol\":4747:4773  _revokeRole(role, account) */\n      jump\t// in\n    tag_216:\n      pop\n        /* \"@openzeppelin/contracts/access/AccessControl.sol\":4642:4780  function revokeRole(bytes32 role, address account) public virtual onlyRole(getRoleAdmin(role)) {... */\n      pop\n      pop\n      pop\n      jump\t// out\n        /* \"contracts/vault/AssetVault/AssetVault.sol\":2805:3605  function withdraw(address _asset, uint256 _amount) external {... */\n    tag_113:\n        /* \"contracts/vault/AssetVault/AssetVault.sol\":2948:2955  _amount */\n      dup1\n        /* \"contracts/vault/AssetVault/AssetVault.sol\":2896:2908  userDeposits */\n      0x05\n        /* \"contracts/vault/AssetVault/AssetVault.sol\":2896:2922  userDeposits[_msgSender()] */\n      0x00\n        /* \"contracts/vault/AssetVault/AssetVault.sol\":2909:2921  _msgSender() */\n      tag_218\n        /* \"contracts/vault/AssetVault/AssetVault.sol\":2909:2919  _msgSender */\n      tag_141\n        /* \"contracts/vault/AssetVault/AssetVault.sol\":2909:2921  _msgSender() */\n      jump\t// in\n    tag_218:\n        /* \"contracts/vault/AssetVault/AssetVault.sol\":2896:2922  userDeposits[_msgSender()] */\n      0xffffffffffffffffffffffffffffffffffffffff\n      and\n      0xffffffffffffffffffffffffffffffffffffffff\n      and\n      dup2\n      mstore\n      0x20\n      add\n      swap1\n      dup2\n      mstore\n      0x20\n      add\n      0x00\n      keccak256\n        /* \"contracts/vault/AssetVault/AssetVault.sol\":2896:2936  userDeposits[_msgSender()].assetBalances */\n      0x01\n      add\n        /* \"contracts/vault/AssetVault/AssetVault.sol\":2896:2944  userDeposits[_msgSender()].assetBalances[_asset] */\n      0x00\n        /* \"contracts/vault/AssetVault/AssetVault.sol\":2937:2943  _asset */\n      dup5\n        /* \"contracts/vault/AssetVault/AssetVault.sol\":2896:2944  userDeposits[_msgSender()].assetBalances[_asset] */\n      0xffffffffffffffffffffffffffffffffffffffff\n      and\n      0xffffffffffffffffffffffffffffffffffffffff\n      and\n      dup2\n      mstore\n      0x20\n      add\n      swap1\n      dup2\n      mstore\n      0x20\n      add\n      0x00\n      keccak256\n      sload\n        /* \"contracts/vault/AssetVault/AssetVault.sol\":2896:2955  userDeposits[_msgSender()].assetBalances[_asset] >= _amount */\n      lt\n      iszero\n        /* \"contracts/vault/AssetVault/AssetVault.sol\":2875:3001  require(... */\n      tag_219\n      jumpi\n      mload(0x40)\n      0x08c379a000000000000000000000000000000000000000000000000000000000\n      dup2\n      mstore\n      0x04\n      add\n      tag_220\n      swap1\n      tag_221\n      jump\t// in\n    tag_220:\n      mload(0x40)\n      dup1\n      swap2\n      sub\n      swap1\n      revert\n    tag_219:\n        /* \"contracts/vault/AssetVault/AssetVault.sol\":3063:3070  _amount */\n      dup1\n        /* \"contracts/vault/AssetVault/AssetVault.sol\":3011:3023  userDeposits */\n      0x05\n        /* \"contracts/vault/AssetVault/AssetVault.sol\":3011:3037  userDeposits[_msgSender()] */\n      0x00\n        /* \"contracts/vault/AssetVault/AssetVault.sol\":3024:3036  _msgSender() */\n      tag_222\n        /* \"contracts/vault/AssetVault/AssetVault.sol\":3024:3034  _msgSender */\n      tag_141\n        /* \"contracts/vault/AssetVault/AssetVault.sol\":3024:3036  _msgSender() */\n      jump\t// in\n    tag_222:\n        /* \"contracts/vault/AssetVault/AssetVault.sol\":3011:3037  userDeposits[_msgSender()] */\n      0xffffffffffffffffffffffffffffffffffffffff\n      and\n      0xffffffffffffffffffffffffffffffffffffffff\n      and\n      dup2\n      mstore\n      0x20\n      add\n      swap1\n      dup2\n      mstore\n      0x20\n      add\n      0x00\n      keccak256\n        /* \"contracts/vault/AssetVault/AssetVault.sol\":3011:3051  userDeposits[_msgSender()].assetBalances */\n      0x01\n      add\n        /* \"contracts/vault/AssetVault/AssetVault.sol\":3011:3059  userDeposits[_msgSender()].assetBalances[_asset] */\n      0x00\n        /* \"contracts/vault/AssetVault/AssetVault.sol\":3052:3058  _asset */\n      dup5\n        /* \"contracts/vault/AssetVault/AssetVault.sol\":3011:3059  userDeposits[_msgSender()].assetBalances[_asset] */\n      0xffffffffffffffffffffffffffffffffffffffff\n      and\n      0xffffffffffffffffffffffffffffffffffffffff\n      and\n      dup2\n      mstore\n      0x20\n      add\n      swap1\n      dup2\n      mstore\n      0x20\n      add\n      0x00\n      keccak256\n      0x00\n        /* \"contracts/vault/AssetVault/AssetVault.sol\":3011:3070  userDeposits[_msgSender()].assetBalances[_asset] -= _amount */\n      dup3\n      dup3\n      sload\n      tag_223\n      swap2\n      swap1\n      tag_208\n      jump\t// in\n    tag_223:\n      swap3\n      pop\n      pop\n      dup2\n      swap1\n      sstore\n      pop\n        /* \"contracts/vault/AssetVault/AssetVault.sol\":3109:3116  _amount */\n      dup1\n        /* \"contracts/vault/AssetVault/AssetVault.sol\":3080:3097  totalVaultBalance */\n      0x03\n        /* \"contracts/vault/AssetVault/AssetVault.sol\":3080:3105  totalVaultBalance[_asset] */\n      0x00\n        /* \"contracts/vault/AssetVault/AssetVault.sol\":3098:3104  _asset */\n      dup5\n        /* \"contracts/vault/AssetVault/AssetVault.sol\":3080:3105  totalVaultBalance[_asset] */\n      0xffffffffffffffffffffffffffffffffffffffff\n      and\n      0xffffffffffffffffffffffffffffffffffffffff\n      and\n      dup2\n      mstore\n      0x20\n      add\n      swap1\n      dup2\n      mstore\n      0x20\n      add\n      0x00\n      keccak256\n      0x00\n        /* \"contracts/vault/AssetVault/AssetVault.sol\":3080:3116  totalVaultBalance[_asset] -= _amount */\n      dup3\n      dup3\n      sload\n      tag_224\n      swap2\n      swap1\n      tag_208\n      jump\t// in\n    tag_224:\n      swap3\n      pop\n      pop\n      dup2\n      swap1\n      sstore\n      pop\n        /* \"contracts/vault/AssetVault/AssetVault.sol\":3133:3139  _asset */\n      dup2\n        /* \"contracts/vault/AssetVault/AssetVault.sol\":3126:3149  IERC20(_asset).transfer */\n      0xffffffffffffffffffffffffffffffffffffffff\n      and\n      0xa9059cbb\n        /* \"contracts/vault/AssetVault/AssetVault.sol\":3150:3162  _msgSender() */\n      tag_225\n        /* \"contracts/vault/AssetVault/AssetVault.sol\":3150:3160  _msgSender */\n      tag_141\n        /* \"contracts/vault/AssetVault/AssetVault.sol\":3150:3162  _msgSender() */\n      jump\t// in\n    tag_225:\n        /* \"contracts/vault/AssetVault/AssetVault.sol\":3164:3171  _amount */\n      dup4\n        /* \"contracts/vault/AssetVault/AssetVault.sol\":3126:3172  IERC20(_asset).transfer(_msgSender(), _amount) */\n      mload(0x40)\n      dup4\n      0xffffffff\n      and\n      0xe0\n      shl\n      dup2\n      mstore\n      0x04\n      add\n      tag_226\n      swap3\n      swap2\n      swap1\n      tag_227\n      jump\t// in\n    tag_226:\n      0x20\n      mload(0x40)\n      dup1\n      dup4\n      sub\n      dup2\n      0x00\n      dup8\n      gas\n      call\n      iszero\n      dup1\n      iszero\n      tag_229\n      jumpi\n      returndatasize\n      0x00\n      dup1\n      returndatacopy\n      revert(0x00, returndatasize)\n    tag_229:\n      pop\n      pop\n      pop\n      pop\n      mload(0x40)\n      returndatasize\n      not(0x1f)\n      0x1f\n      dup3\n      add\n      and\n      dup3\n      add\n      dup1\n      0x40\n      mstore\n      pop\n      dup2\n      add\n      swap1\n      tag_230\n      swap2\n      swap1\n      tag_157\n      jump\t// in\n    tag_230:\n      pop\n        /* \"contracts/vault/AssetVault/AssetVault.sol\":3247:3266  uint256 profitShare */\n      0x00\n        /* \"contracts/vault/AssetVault/AssetVault.sol\":3269:3307  calculateUserProfitShare(_msgSender()) */\n      tag_231\n        /* \"contracts/vault/AssetVault/AssetVault.sol\":3294:3306  _msgSender() */\n      tag_232\n        /* \"contracts/vault/AssetVault/AssetVault.sol\":3294:3304  _msgSender */\n      tag_141\n        /* \"contracts/vault/AssetVault/AssetVault.sol\":3294:3306  _msgSender() */\n      jump\t// in\n    tag_232:\n        /* \"contracts/vault/AssetVault/AssetVault.sol\":3269:3293  calculateUserProfitShare */\n      tag_233\n        /* \"contracts/vault/AssetVault/AssetVault.sol\":3269:3307  calculateUserProfitShare(_msgSender()) */\n      jump\t// in\n    tag_231:\n        /* \"contracts/vault/AssetVault/AssetVault.sol\":3247:3307  uint256 profitShare = calculateUserProfitShare(_msgSender()) */\n      swap1\n      pop\n        /* \"contracts/vault/AssetVault/AssetVault.sol\":3346:3357  profitShare */\n      dup1\n        /* \"contracts/vault/AssetVault/AssetVault.sol\":3317:3328  userProfits */\n      0x06\n        /* \"contracts/vault/AssetVault/AssetVault.sol\":3317:3342  userProfits[_msgSender()] */\n      0x00\n        /* \"contracts/vault/AssetVault/AssetVault.sol\":3329:3341  _msgSender() */\n      tag_234\n        /* \"contracts/vault/AssetVault/AssetVault.sol\":3329:3339  _msgSender */\n      tag_141\n        /* \"contracts/vault/AssetVault/AssetVault.sol\":3329:3341  _msgSender() */\n      jump\t// in\n    tag_234:\n        /* \"contracts/vault/AssetVault/AssetVault.sol\":3317:3342  userProfits[_msgSender()] */\n      0xffffffffffffffffffffffffffffffffffffffff\n      and\n      0xffffffffffffffffffffffffffffffffffffffff\n      and\n      dup2\n      mstore\n      0x20\n      add\n      swap1\n      dup2\n      mstore\n      0x20\n      add\n      0x00\n      keccak256\n      0x00\n        /* \"contracts/vault/AssetVault/AssetVault.sol\":3317:3357  userProfits[_msgSender()] += profitShare */\n      dup3\n      dup3\n      sload\n      tag_235\n      swap2\n      swap1\n      tag_159\n      jump\t// in\n    tag_235:\n      swap3\n      pop\n      pop\n      dup2\n      swap1\n      sstore\n      pop\n        /* \"contracts/vault/AssetVault/AssetVault.sol\":3460:3529  estimateAssetValue(... */\n      tag_236\n        /* \"contracts/vault/AssetVault/AssetVault.sol\":3492:3498  _asset */\n      dup4\n        /* \"contracts/vault/AssetVault/AssetVault.sol\":3512:3519  _amount */\n      dup4\n        /* \"contracts/vault/AssetVault/AssetVault.sol\":3460:3478  estimateAssetValue */\n      tag_161\n        /* \"contracts/vault/AssetVault/AssetVault.sol\":3460:3529  estimateAssetValue(... */\n      jump\t// in\n    tag_236:\n        /* \"contracts/vault/AssetVault/AssetVault.sol\":3419:3431  userDeposits */\n      0x05\n        /* \"contracts/vault/AssetVault/AssetVault.sol\":3419:3445  userDeposits[_msgSender()] */\n      0x00\n        /* \"contracts/vault/AssetVault/AssetVault.sol\":3432:3444  _msgSender() */\n      tag_237\n        /* \"contracts/vault/AssetVault/AssetVault.sol\":3432:3442  _msgSender */\n      tag_141\n        /* \"contracts/vault/AssetVault/AssetVault.sol\":3432:3444  _msgSender() */\n      jump\t// in\n    tag_237:\n        /* \"contracts/vault/AssetVault/AssetVault.sol\":3419:3445  userDeposits[_msgSender()] */\n      0xffffffffffffffffffffffffffffffffffffffff\n      and\n      0xffffffffffffffffffffffffffffffffffffffff\n      and\n      dup2\n      mstore\n      0x20\n      add\n      swap1\n      dup2\n      mstore\n      0x20\n      add\n      0x00\n      keccak256\n        /* \"contracts/vault/AssetVault/AssetVault.sol\":3419:3456  userDeposits[_msgSender()].totalValue */\n      0x00\n      add\n      0x00\n        /* \"contracts/vault/AssetVault/AssetVault.sol\":3419:3529  userDeposits[_msgSender()].totalValue -= estimateAssetValue(... */\n      dup3\n      dup3\n      sload\n      tag_238\n      swap2\n      swap1\n      tag_208\n      jump\t// in\n    tag_238:\n      swap3\n      pop\n      pop\n      dup2\n      swap1\n      sstore\n      pop\n        /* \"contracts/vault/AssetVault/AssetVault.sol\":3591:3598  _amount */\n      dup2\n        /* \"contracts/vault/AssetVault/AssetVault.sol\":3539:3551  userDeposits */\n      0x05\n        /* \"contracts/vault/AssetVault/AssetVault.sol\":3539:3565  userDeposits[_msgSender()] */\n      0x00\n        /* \"contracts/vault/AssetVault/AssetVault.sol\":3552:3564  _msgSender() */\n      tag_239\n        /* \"contracts/vault/AssetVault/AssetVault.sol\":3552:3562  _msgSender */\n      tag_141\n        /* \"contracts/vault/AssetVault/AssetVault.sol\":3552:3564  _msgSender() */\n      jump\t// in\n    tag_239:\n        /* \"contracts/vault/AssetVault/AssetVault.sol\":3539:3565  userDeposits[_msgSender()] */\n      0xffffffffffffffffffffffffffffffffffffffff\n      and\n      0xffffffffffffffffffffffffffffffffffffffff\n      and\n      dup2\n      mstore\n      0x20\n      add\n      swap1\n      dup2\n      mstore\n      0x20\n      add\n      0x00\n      keccak256\n        /* \"contracts/vault/AssetVault/AssetVault.sol\":3539:3579  userDeposits[_msgSender()].assetBalances */\n      0x01\n      add\n        /* \"contracts/vault/AssetVault/AssetVault.sol\":3539:3587  userDeposits[_msgSender()].assetBalances[_asset] */\n      0x00\n        /* \"contracts/vault/AssetVault/AssetVault.sol\":3580:3586  _asset */\n      dup6\n        /* \"contracts/vault/AssetVault/AssetVault.sol\":3539:3587  userDeposits[_msgSender()].assetBalances[_asset] */\n      0xffffffffffffffffffffffffffffffffffffffff\n      and\n      0xffffffffffffffffffffffffffffffffffffffff\n      and\n      dup2\n      mstore\n      0x20\n      add\n      swap1\n      dup2\n      mstore\n      0x20\n      add\n      0x00\n      keccak256\n      0x00\n        /* \"contracts/vault/AssetVault/AssetVault.sol\":3539:3598  userDeposits[_msgSender()].assetBalances[_asset] -= _amount */\n      dup3\n      dup3\n      sload\n      tag_240\n      swap2\n      swap1\n      tag_208\n      jump\t// in\n    tag_240:\n      swap3\n      pop\n      pop\n      dup2\n      swap1\n      sstore\n      pop\n        /* \"contracts/vault/AssetVault/AssetVault.sol\":2865:3605  {... */\n      pop\n        /* \"contracts/vault/AssetVault/AssetVault.sol\":2805:3605  function withdraw(address _asset, uint256 _amount) external {... */\n      pop\n      pop\n      jump\t// out\n        /* \"contracts/vault/AssetVault/AssetVault.sol\":1063:1102  uint256 public performanceFeePercentage */\n    tag_115:\n      sload(0x07)\n      dup2\n      jump\t// out\n        /* \"@openzeppelin/contracts/utils/introspection/ERC165.sol\":762:908  function supportsInterface(bytes4 interfaceId) public view virtual returns (bool) {... */\n    tag_120:\n        /* \"@openzeppelin/contracts/utils/introspection/ERC165.sol\":838:842  bool */\n      0x00\n        /* \"@openzeppelin/contracts/utils/introspection/ERC165.sol\":876:901  type(IERC165).interfaceId */\n      0x01ffc9a700000000000000000000000000000000000000000000000000000000\n        /* \"@openzeppelin/contracts/utils/introspection/ERC165.sol\":861:901  interfaceId == type(IERC165).interfaceId */\n      not(0xffffffffffffffffffffffffffffffffffffffffffffffffffffffff)\n      and\n        /* \"@openzeppelin/contracts/utils/introspection/ERC165.sol\":861:872  interfaceId */\n      dup3\n        /* \"@openzeppelin/contracts/utils/introspection/ERC165.sol\":861:901  interfaceId == type(IERC165).interfaceId */\n      not(0xffffffffffffffffffffffffffffffffffffffffffffffffffffffff)\n      and\n      eq\n        /* \"@openzeppelin/contracts/utils/introspection/ERC165.sol\":854:901  return interfaceId == type(IERC165).interfaceId */\n      swap1\n      pop\n        /* \"@openzeppelin/contracts/utils/introspection/ERC165.sol\":762:908  function supportsInterface(bytes4 interfaceId) public view virtual returns (bool) {... */\n      swap2\n      swap1\n      pop\n      jump\t// out\n        /* \"@openzeppelin/contracts/access/AccessControl.sol\":3199:3302  function _checkRole(bytes32 role) internal view virtual {... */\n    tag_123:\n        /* \"@openzeppelin/contracts/access/AccessControl.sol\":3265:3295  _checkRole(role, _msgSender()) */\n      tag_243\n        /* \"@openzeppelin/contracts/access/AccessControl.sol\":3276:3280  role */\n      dup2\n        /* \"@openzeppelin/contracts/access/AccessControl.sol\":3282:3294  _msgSender() */\n      tag_244\n        /* \"@openzeppelin/contracts/access/AccessControl.sol\":3282:3292  _msgSender */\n      tag_141\n        /* \"@openzeppelin/contracts/access/AccessControl.sol\":3282:3294  _msgSender() */\n      jump\t// in\n    tag_244:\n        /* \"@openzeppelin/contracts/access/AccessControl.sol\":3265:3275  _checkRole */\n      tag_245\n        /* \"@openzeppelin/contracts/access/AccessControl.sol\":3265:3295  _checkRole(role, _msgSender()) */\n      jump\t// in\n    tag_243:\n        /* \"@openzeppelin/contracts/access/AccessControl.sol\":3199:3302  function _checkRole(bytes32 role) internal view virtual {... */\n      pop\n      jump\t// out\n        /* \"contracts/vault/AssetVault/AssetVault.sol\":5702:5984  function calculateProfits() internal view returns (uint256) {... */\n    tag_126:\n        /* \"contracts/vault/AssetVault/AssetVault.sol\":5753:5760  uint256 */\n      0x00\n        /* \"contracts/vault/AssetVault/AssetVault.sol\":5702:5984  function calculateProfits() internal view returns (uint256) {... */\n      swap1\n      jump\t// out\n        /* \"@openzeppelin/contracts/access/AccessControl.sol\":6179:6495  function _grantRole(bytes32 role, address account) internal virtual returns (bool) {... */\n    tag_138:\n        /* \"@openzeppelin/contracts/access/AccessControl.sol\":6256:6260  bool */\n      0x00\n        /* \"@openzeppelin/contracts/access/AccessControl.sol\":6277:6299  hasRole(role, account) */\n      tag_248\n        /* \"@openzeppelin/contracts/access/AccessControl.sol\":6285:6289  role */\n      dup4\n        /* \"@openzeppelin/contracts/access/AccessControl.sol\":6291:6298  account */\n      dup4\n        /* \"@openzeppelin/contracts/access/AccessControl.sol\":6277:6284  hasRole */\n      tag_79\n        /* \"@openzeppelin/contracts/access/AccessControl.sol\":6277:6299  hasRole(role, account) */\n      jump\t// in\n    tag_248:\n        /* \"@openzeppelin/contracts/access/AccessControl.sol\":6272:6489  if (!hasRole(role, account)) {... */\n      tag_249\n      jumpi\n        /* \"@openzeppelin/contracts/access/AccessControl.sol\":6347:6351  true */\n      0x01\n        /* \"@openzeppelin/contracts/access/AccessControl.sol\":6315:6321  _roles */\n      0x00\n        /* \"@openzeppelin/contracts/access/AccessControl.sol\":6315:6327  _roles[role] */\n      dup1\n        /* \"@openzeppelin/contracts/access/AccessControl.sol\":6322:6326  role */\n      dup6\n        /* \"@openzeppelin/contracts/access/AccessControl.sol\":6315:6327  _roles[role] */\n      dup2\n      mstore\n      0x20\n      add\n      swap1\n      dup2\n      mstore\n      0x20\n      add\n      0x00\n      keccak256\n        /* \"@openzeppelin/contracts/access/AccessControl.sol\":6315:6335  _roles[role].hasRole */\n      0x00\n      add\n        /* \"@openzeppelin/contracts/access/AccessControl.sol\":6315:6344  _roles[role].hasRole[account] */\n      0x00\n        /* \"@openzeppelin/contracts/access/AccessControl.sol\":6336:6343  account */\n      dup5\n        /* \"@openzeppelin/contracts/access/AccessControl.sol\":6315:6344  _roles[role].hasRole[account] */\n      0xffffffffffffffffffffffffffffffffffffffff\n      and\n      0xffffffffffffffffffffffffffffffffffffffff\n      and\n      dup2\n      mstore\n      0x20\n      add\n      swap1\n      dup2\n      mstore\n      0x20\n      add\n      0x00\n      keccak256\n      0x00\n        /* \"@openzeppelin/contracts/access/AccessControl.sol\":6315:6351  _roles[role].hasRole[account] = true */\n      0x0100\n      exp\n      dup2\n      sload\n      dup2\n      0xff\n      mul\n      not\n      and\n      swap1\n      dup4\n      iszero\n      iszero\n      mul\n      or\n      swap1\n      sstore\n      pop\n        /* \"@openzeppelin/contracts/access/AccessControl.sol\":6397:6409  _msgSender() */\n      tag_250\n        /* \"@openzeppelin/contracts/access/AccessControl.sol\":6397:6407  _msgSender */\n      tag_141\n        /* \"@openzeppelin/contracts/access/AccessControl.sol\":6397:6409  _msgSender() */\n      jump\t// in\n    tag_250:\n        /* \"@openzeppelin/contracts/access/AccessControl.sol\":6370:6410  RoleGranted(role, account, _msgSender()) */\n      0xffffffffffffffffffffffffffffffffffffffff\n      and\n        /* \"@openzeppelin/contracts/access/AccessControl.sol\":6388:6395  account */\n      dup3\n        /* \"@openzeppelin/contracts/access/AccessControl.sol\":6370:6410  RoleGranted(role, account, _msgSender()) */\n      0xffffffffffffffffffffffffffffffffffffffff\n      and\n        /* \"@openzeppelin/contracts/access/AccessControl.sol\":6382:6386  role */\n      dup5\n        /* \"@openzeppelin/contracts/access/AccessControl.sol\":6370:6410  RoleGranted(role, account, _msgSender()) */\n      0x2f8788117e7eff1d82e926ec794901d17c78024a50270940304540a733656f0d\n      mload(0x40)\n      mload(0x40)\n      dup1\n      swap2\n      sub\n      swap1\n      log4\n        /* \"@openzeppelin/contracts/access/AccessControl.sol\":6431:6435  true */\n      0x01\n        /* \"@openzeppelin/contracts/access/AccessControl.sol\":6424:6435  return true */\n      swap1\n      pop\n      jump(tag_247)\n        /* \"@openzeppelin/contracts/access/AccessControl.sol\":6272:6489  if (!hasRole(role, account)) {... */\n    tag_249:\n        /* \"@openzeppelin/contracts/access/AccessControl.sol\":6473:6478  false */\n      0x00\n        /* \"@openzeppelin/contracts/access/AccessControl.sol\":6466:6478  return false */\n      swap1\n      pop\n        /* \"@openzeppelin/contracts/access/AccessControl.sol\":6179:6495  function _grantRole(bytes32 role, address account) internal virtual returns (bool) {... */\n    tag_247:\n      swap3\n      swap2\n      pop\n      pop\n      jump\t// out\n        /* \"@openzeppelin/contracts/utils/Context.sol\":656:752  function _msgSender() internal view virtual returns (address) {... */\n    tag_141:\n        /* \"@openzeppelin/contracts/utils/Context.sol\":709:716  address */\n      0x00\n        /* \"@openzeppelin/contracts/utils/Context.sol\":735:745  msg.sender */\n      caller\n        /* \"@openzeppelin/contracts/utils/Context.sol\":728:745  return msg.sender */\n      swap1\n      pop\n        /* \"@openzeppelin/contracts/utils/Context.sol\":656:752  function _msgSender() internal view virtual returns (address) {... */\n      swap1\n      jump\t// out\n        /* \"@openzeppelin/contracts/access/AccessControl.sol\":6730:7047  function _revokeRole(bytes32 role, address account) internal virtual returns (bool) {... */\n    tag_144:\n        /* \"@openzeppelin/contracts/access/AccessControl.sol\":6808:6812  bool */\n      0x00\n        /* \"@openzeppelin/contracts/access/AccessControl.sol\":6828:6850  hasRole(role, account) */\n      tag_254\n        /* \"@openzeppelin/contracts/access/AccessControl.sol\":6836:6840  role */\n      dup4\n        /* \"@openzeppelin/contracts/access/AccessControl.sol\":6842:6849  account */\n      dup4\n        /* \"@openzeppelin/contracts/access/AccessControl.sol\":6828:6835  hasRole */\n      tag_79\n        /* \"@openzeppelin/contracts/access/AccessControl.sol\":6828:6850  hasRole(role, account) */\n      jump\t// in\n    tag_254:\n        /* \"@openzeppelin/contracts/access/AccessControl.sol\":6824:7041  if (hasRole(role, account)) {... */\n      iszero\n      tag_255\n      jumpi\n        /* \"@openzeppelin/contracts/access/AccessControl.sol\":6898:6903  false */\n      0x00\n        /* \"@openzeppelin/contracts/access/AccessControl.sol\":6866:6872  _roles */\n      dup1\n        /* \"@openzeppelin/contracts/access/AccessControl.sol\":6866:6878  _roles[role] */\n      0x00\n        /* \"@openzeppelin/contracts/access/AccessControl.sol\":6873:6877  role */\n      dup6\n        /* \"@openzeppelin/contracts/access/AccessControl.sol\":6866:6878  _roles[role] */\n      dup2\n      mstore\n      0x20\n      add\n      swap1\n      dup2\n      mstore\n      0x20\n      add\n      0x00\n      keccak256\n        /* \"@openzeppelin/contracts/access/AccessControl.sol\":6866:6886  _roles[role].hasRole */\n      0x00\n      add\n        /* \"@openzeppelin/contracts/access/AccessControl.sol\":6866:6895  _roles[role].hasRole[account] */\n      0x00\n        /* \"@openzeppelin/contracts/access/AccessControl.sol\":6887:6894  account */\n      dup5\n        /* \"@openzeppelin/contracts/access/AccessControl.sol\":6866:6895  _roles[role].hasRole[account] */\n      0xffffffffffffffffffffffffffffffffffffffff\n      and\n      0xffffffffffffffffffffffffffffffffffffffff\n      and\n      dup2\n      mstore\n      0x20\n      add\n      swap1\n      dup2\n      mstore\n      0x20\n      add\n      0x00\n      keccak256\n      0x00\n        /* \"@openzeppelin/contracts/access/AccessControl.sol\":6866:6903  _roles[role].hasRole[account] = false */\n      0x0100\n      exp\n      dup2\n      sload\n      dup2\n      0xff\n      mul\n      not\n      and\n      swap1\n      dup4\n      iszero\n      iszero\n      mul\n      or\n      swap1\n      sstore\n      pop\n        /* \"@openzeppelin/contracts/access/AccessControl.sol\":6949:6961  _msgSender() */\n      tag_256\n        /* \"@openzeppelin/contracts/access/AccessControl.sol\":6949:6959  _msgSender */\n      tag_141\n        /* \"@openzeppelin/contracts/access/AccessControl.sol\":6949:6961  _msgSender() */\n      jump\t// in\n    tag_256:\n        /* \"@openzeppelin/contracts/access/AccessControl.sol\":6922:6962  RoleRevoked(role, account, _msgSender()) */\n      0xffffffffffffffffffffffffffffffffffffffff\n      and\n        /* \"@openzeppelin/contracts/access/AccessControl.sol\":6940:6947  account */\n      dup3\n        /* \"@openzeppelin/contracts/access/AccessControl.sol\":6922:6962  RoleRevoked(role, account, _msgSender()) */\n      0xffffffffffffffffffffffffffffffffffffffff\n      and\n        /* \"@openzeppelin/contracts/access/AccessControl.sol\":6934:6938  role */\n      dup5\n        /* \"@openzeppelin/contracts/access/AccessControl.sol\":6922:6962  RoleRevoked(role, account, _msgSender()) */\n      0xf6391f5c32d9c69d2a47ea670b442974b53935d1edc7fd64eb21e047a839171b\n      mload(0x40)\n      mload(0x40)\n      dup1\n      swap2\n      sub\n      swap1\n      log4\n        /* \"@openzeppelin/contracts/access/AccessControl.sol\":6983:6987  true */\n      0x01\n        /* \"@openzeppelin/contracts/access/AccessControl.sol\":6976:6987  return true */\n      swap1\n      pop\n      jump(tag_253)\n        /* \"@openzeppelin/contracts/access/AccessControl.sol\":6824:7041  if (hasRole(role, account)) {... */\n    tag_255:\n        /* \"@openzeppelin/contracts/access/AccessControl.sol\":7025:7030  false */\n      0x00\n        /* \"@openzeppelin/contracts/access/AccessControl.sol\":7018:7030  return false */\n      swap1\n      pop\n        /* \"@openzeppelin/contracts/access/AccessControl.sol\":6730:7047  function _revokeRole(bytes32 role, address account) internal virtual returns (bool) {... */\n    tag_253:\n      swap3\n      swap2\n      pop\n      pop\n      jump\t// out\n        /* \"contracts/vault/AssetVault/AssetVault.sol\":4530:4793  function isAssetSupported(IERC20 _asset) internal view returns (bool) {... */\n    tag_147:\n        /* \"contracts/vault/AssetVault/AssetVault.sol\":4594:4598  bool */\n      0x00\n        /* \"contracts/vault/AssetVault/AssetVault.sol\":4615:4624  uint256 i */\n      dup1\n        /* \"contracts/vault/AssetVault/AssetVault.sol\":4627:4628  0 */\n      0x00\n        /* \"contracts/vault/AssetVault/AssetVault.sol\":4615:4628  uint256 i = 0 */\n      swap1\n      pop\n        /* \"contracts/vault/AssetVault/AssetVault.sol\":4610:4765  for (uint256 i = 0; i < supportedAssets.length; i++) {... */\n    tag_259:\n        /* \"contracts/vault/AssetVault/AssetVault.sol\":4634:4649  supportedAssets */\n      0x02\n        /* \"contracts/vault/AssetVault/AssetVault.sol\":4634:4656  supportedAssets.length */\n      dup1\n      sload\n      swap1\n      pop\n        /* \"contracts/vault/AssetVault/AssetVault.sol\":4630:4631  i */\n      dup2\n        /* \"contracts/vault/AssetVault/AssetVault.sol\":4630:4656  i < supportedAssets.length */\n      lt\n        /* \"contracts/vault/AssetVault/AssetVault.sol\":4610:4765  for (uint256 i = 0; i < supportedAssets.length; i++) {... */\n      iszero\n      tag_260\n      jumpi\n        /* \"contracts/vault/AssetVault/AssetVault.sol\":4703:4709  _asset */\n      dup3\n        /* \"contracts/vault/AssetVault/AssetVault.sol\":4681:4709  supportedAssets[i] == _asset */\n      0xffffffffffffffffffffffffffffffffffffffff\n      and\n        /* \"contracts/vault/AssetVault/AssetVault.sol\":4681:4696  supportedAssets */\n      0x02\n        /* \"contracts/vault/AssetVault/AssetVault.sol\":4697:4698  i */\n      dup3\n        /* \"contracts/vault/AssetVault/AssetVault.sol\":4681:4699  supportedAssets[i] */\n      dup2\n      sload\n      dup2\n      lt\n      tag_262\n      jumpi\n      tag_263\n      tag_177\n      jump\t// in\n    tag_263:\n    tag_262:\n      swap1\n      0x00\n      mstore\n      keccak256(0x00, 0x20)\n      add\n      0x00\n      swap1\n      sload\n      swap1\n      0x0100\n      exp\n      swap1\n      div\n      0xffffffffffffffffffffffffffffffffffffffff\n      and\n        /* \"contracts/vault/AssetVault/AssetVault.sol\":4681:4709  supportedAssets[i] == _asset */\n      0xffffffffffffffffffffffffffffffffffffffff\n      and\n      sub\n        /* \"contracts/vault/AssetVault/AssetVault.sol\":4677:4755  if (supportedAssets[i] == _asset) {... */\n      tag_265\n      jumpi\n        /* \"contracts/vault/AssetVault/AssetVault.sol\":4736:4740  true */\n      0x01\n        /* \"contracts/vault/AssetVault/AssetVault.sol\":4729:4740  return true */\n      swap2\n      pop\n      pop\n      jump(tag_258)\n        /* \"contracts/vault/AssetVault/AssetVault.sol\":4677:4755  if (supportedAssets[i] == _asset) {... */\n    tag_265:\n        /* \"contracts/vault/AssetVault/AssetVault.sol\":4658:4661  i++ */\n      dup1\n      dup1\n      0x01\n      add\n      swap2\n      pop\n      pop\n        /* \"contracts/vault/AssetVault/AssetVault.sol\":4610:4765  for (uint256 i = 0; i < supportedAssets.length; i++) {... */\n      jump(tag_259)\n    tag_260:\n      pop\n        /* \"contracts/vault/AssetVault/AssetVault.sol\":4781:4786  false */\n      0x00\n        /* \"contracts/vault/AssetVault/AssetVault.sol\":4774:4786  return false */\n      swap1\n      pop\n        /* \"contracts/vault/AssetVault/AssetVault.sol\":4530:4793  function isAssetSupported(IERC20 _asset) internal view returns (bool) {... */\n    tag_258:\n      swap2\n      swap1\n      pop\n      jump\t// out\n        /* \"contracts/vault/AssetVault/AssetVault.sol\":4799:5126  function estimateAssetValue(address _asset, uint256 _amount)... */\n    tag_161:\n        /* \"contracts/vault/AssetVault/AssetVault.sol\":4907:4914  uint256 */\n      0x00\n        /* \"contracts/vault/AssetVault/AssetVault.sol\":4930:4961  AggregatorV3Interface priceFeed */\n      dup1\n        /* \"contracts/vault/AssetVault/AssetVault.sol\":4964:4977  assetToOracle */\n      0x04\n        /* \"contracts/vault/AssetVault/AssetVault.sol\":4964:4985  assetToOracle[_asset] */\n      0x00\n        /* \"contracts/vault/AssetVault/AssetVault.sol\":4978:4984  _asset */\n      dup6\n        /* \"contracts/vault/AssetVault/AssetVault.sol\":4964:4985  assetToOracle[_asset] */\n      0xffffffffffffffffffffffffffffffffffffffff\n      and\n      0xffffffffffffffffffffffffffffffffffffffff\n      and\n      dup2\n      mstore\n      0x20\n      add\n      swap1\n      dup2\n      mstore\n      0x20\n      add\n      0x00\n      keccak256\n      0x00\n      swap1\n      sload\n      swap1\n      0x0100\n      exp\n      swap1\n      div\n      0xffffffffffffffffffffffffffffffffffffffff\n      and\n        /* \"contracts/vault/AssetVault/AssetVault.sol\":4930:4985  AggregatorV3Interface priceFeed = assetToOracle[_asset] */\n      swap1\n      pop\n        /* \"contracts/vault/AssetVault/AssetVault.sol\":4998:5010  int256 price */\n      0x00\n        /* \"contracts/vault/AssetVault/AssetVault.sol\":5020:5029  priceFeed */\n      dup2\n        /* \"contracts/vault/AssetVault/AssetVault.sol\":5020:5045  priceFeed.latestRoundData */\n      0xffffffffffffffffffffffffffffffffffffffff\n      and\n      0xfeaf968c\n        /* \"contracts/vault/AssetVault/AssetVault.sol\":5020:5047  priceFeed.latestRoundData() */\n      mload(0x40)\n      dup2\n      0xffffffff\n      and\n      0xe0\n      shl\n      dup2\n      mstore\n      0x04\n      add\n      0xa0\n      mload(0x40)\n      dup1\n      dup4\n      sub\n      dup2\n      dup7\n      gas\n      staticcall\n      iszero\n      dup1\n      iszero\n      tag_268\n      jumpi\n      returndatasize\n      0x00\n      dup1\n      returndatacopy\n      revert(0x00, returndatasize)\n    tag_268:\n      pop\n      pop\n      pop\n      pop\n      mload(0x40)\n      returndatasize\n      not(0x1f)\n      0x1f\n      dup3\n      add\n      and\n      dup3\n      add\n      dup1\n      0x40\n      mstore\n      pop\n      dup2\n      add\n      swap1\n      tag_269\n      swap2\n      swap1\n      tag_190\n      jump\t// in\n    tag_269:\n        /* \"contracts/vault/AssetVault/AssetVault.sol\":4995:5047  (, int256 price, , , ) = priceFeed.latestRoundData() */\n      pop\n      pop\n      pop\n      swap2\n      pop\n      pop\n        /* \"contracts/vault/AssetVault/AssetVault.sol\":5057:5070  uint256 value */\n      0x00\n        /* \"contracts/vault/AssetVault/AssetVault.sol\":5090:5097  _amount */\n      dup5\n        /* \"contracts/vault/AssetVault/AssetVault.sol\":5081:5086  price */\n      dup3\n        /* \"contracts/vault/AssetVault/AssetVault.sol\":5073:5097  uint256(price) * _amount */\n      tag_270\n      swap2\n      swap1\n      tag_129\n      jump\t// in\n    tag_270:\n        /* \"contracts/vault/AssetVault/AssetVault.sol\":5057:5097  uint256 value = uint256(price) * _amount */\n      swap1\n      pop\n        /* \"contracts/vault/AssetVault/AssetVault.sol\":5114:5119  value */\n      dup1\n        /* \"contracts/vault/AssetVault/AssetVault.sol\":5107:5119  return value */\n      swap4\n      pop\n      pop\n      pop\n      pop\n        /* \"contracts/vault/AssetVault/AssetVault.sol\":4799:5126  function estimateAssetValue(address _asset, uint256 _amount)... */\n      swap3\n      swap2\n      pop\n      pop\n      jump\t// out\n        /* \"contracts/vault/AssetVault/AssetVault.sol\":3611:3965  function calculateUserProfitShare(address _user)... */\n    tag_233:\n        /* \"contracts/vault/AssetVault/AssetVault.sol\":3707:3714  uint256 */\n      0x00\n        /* \"contracts/vault/AssetVault/AssetVault.sol\":3730:3747  uint256 userShare */\n      dup1\n        /* \"contracts/vault/AssetVault/AssetVault.sol\":3804:3824  estimateVaultValue() */\n      tag_272\n        /* \"contracts/vault/AssetVault/AssetVault.sol\":3804:3822  estimateVaultValue */\n      tag_82\n        /* \"contracts/vault/AssetVault/AssetVault.sol\":3804:3824  estimateVaultValue() */\n      jump\t// in\n    tag_272:\n        /* \"contracts/vault/AssetVault/AssetVault.sol\":3784:3788  1e18 */\n      0x0de0b6b3a7640000\n        /* \"contracts/vault/AssetVault/AssetVault.sol\":3751:3763  userDeposits */\n      0x05\n        /* \"contracts/vault/AssetVault/AssetVault.sol\":3751:3770  userDeposits[_user] */\n      0x00\n        /* \"contracts/vault/AssetVault/AssetVault.sol\":3764:3769  _user */\n      dup7\n        /* \"contracts/vault/AssetVault/AssetVault.sol\":3751:3770  userDeposits[_user] */\n      0xffffffffffffffffffffffffffffffffffffffff\n      and\n      0xffffffffffffffffffffffffffffffffffffffff\n      and\n      dup2\n      mstore\n      0x20\n      add\n      swap1\n      dup2\n      mstore\n      0x20\n      add\n      0x00\n      keccak256\n        /* \"contracts/vault/AssetVault/AssetVault.sol\":3751:3781  userDeposits[_user].totalValue */\n      0x00\n      add\n      sload\n        /* \"contracts/vault/AssetVault/AssetVault.sol\":3751:3788  userDeposits[_user].totalValue * 1e18 */\n      tag_273\n      swap2\n      swap1\n      tag_129\n      jump\t// in\n    tag_273:\n        /* \"contracts/vault/AssetVault/AssetVault.sol\":3750:3824  (userDeposits[_user].totalValue * 1e18) /... */\n      tag_274\n      swap2\n      swap1\n      tag_131\n      jump\t// in\n    tag_274:\n        /* \"contracts/vault/AssetVault/AssetVault.sol\":3730:3824  uint256 userShare = (userDeposits[_user].totalValue * 1e18) /... */\n      swap1\n      pop\n        /* \"contracts/vault/AssetVault/AssetVault.sol\":3875:3894  uint256 profitShare */\n      0x00\n        /* \"contracts/vault/AssetVault/AssetVault.sol\":3926:3930  1e18 */\n      0x0de0b6b3a7640000\n        /* \"contracts/vault/AssetVault/AssetVault.sol\":3913:3922  userShare */\n      dup3\n        /* \"contracts/vault/AssetVault/AssetVault.sol\":3898:3910  totalProfits */\n      sload(0x09)\n        /* \"contracts/vault/AssetVault/AssetVault.sol\":3898:3922  totalProfits * userShare */\n      tag_275\n      swap2\n      swap1\n      tag_129\n      jump\t// in\n    tag_275:\n        /* \"contracts/vault/AssetVault/AssetVault.sol\":3897:3930  (totalProfits * userShare) / 1e18 */\n      tag_276\n      swap2\n      swap1\n      tag_131\n      jump\t// in\n    tag_276:\n        /* \"contracts/vault/AssetVault/AssetVault.sol\":3875:3930  uint256 profitShare = (totalProfits * userShare) / 1e18 */\n      swap1\n      pop\n        /* \"contracts/vault/AssetVault/AssetVault.sol\":3947:3958  profitShare */\n      dup1\n        /* \"contracts/vault/AssetVault/AssetVault.sol\":3940:3958  return profitShare */\n      swap3\n      pop\n      pop\n      pop\n        /* \"contracts/vault/AssetVault/AssetVault.sol\":3611:3965  function calculateUserProfitShare(address _user)... */\n      swap2\n      swap1\n      pop\n      jump\t// out\n        /* \"@openzeppelin/contracts/access/AccessControl.sol\":3432:3629  function _checkRole(bytes32 role, address account) internal view virtual {... */\n    tag_245:\n        /* \"@openzeppelin/contracts/access/AccessControl.sol\":3520:3542  hasRole(role, account) */\n      tag_278\n        /* \"@openzeppelin/contracts/access/AccessControl.sol\":3528:3532  role */\n      dup3\n        /* \"@openzeppelin/contracts/access/AccessControl.sol\":3534:3541  account */\n      dup3\n        /* \"@openzeppelin/contracts/access/AccessControl.sol\":3520:3527  hasRole */\n      tag_79\n        /* \"@openzeppelin/contracts/access/AccessControl.sol\":3520:3542  hasRole(role, account) */\n      jump\t// in\n    tag_278:\n        /* \"@openzeppelin/contracts/access/AccessControl.sol\":3515:3623  if (!hasRole(role, account)) {... */\n      tag_279\n      jumpi\n        /* \"@openzeppelin/contracts/access/AccessControl.sol\":3598:3605  account */\n      dup1\n        /* \"@openzeppelin/contracts/access/AccessControl.sol\":3607:3611  role */\n      dup3\n        /* \"@openzeppelin/contracts/access/AccessControl.sol\":3565:3612  AccessControlUnauthorizedAccount(account, role) */\n      mload(0x40)\n      0xe2517d3f00000000000000000000000000000000000000000000000000000000\n      dup2\n      mstore\n      0x04\n      add\n      tag_280\n      swap3\n      swap2\n      swap1\n      tag_281\n      jump\t// in\n    tag_280:\n      mload(0x40)\n      dup1\n      swap2\n      sub\n      swap1\n      revert\n        /* \"@openzeppelin/contracts/access/AccessControl.sol\":3515:3623  if (!hasRole(role, account)) {... */\n    tag_279:\n        /* \"@openzeppelin/contracts/access/AccessControl.sol\":3432:3629  function _checkRole(bytes32 role, address account) internal view virtual {... */\n      pop\n      pop\n      jump\t// out\n        /* \"#utility.yul\":88:205   */\n    tag_283:\n        /* \"#utility.yul\":197:198   */\n      0x00\n        /* \"#utility.yul\":194:195   */\n      dup1\n        /* \"#utility.yul\":187:199   */\n      revert\n        /* \"#utility.yul\":334:483   */\n    tag_285:\n        /* \"#utility.yul\":370:377   */\n      0x00\n        /* \"#utility.yul\":410:476   */\n      0xffffffff00000000000000000000000000000000000000000000000000000000\n        /* \"#utility.yul\":403:408   */\n      dup3\n        /* \"#utility.yul\":399:477   */\n      and\n        /* \"#utility.yul\":388:477   */\n      swap1\n      pop\n        /* \"#utility.yul\":334:483   */\n      swap2\n      swap1\n      pop\n      jump\t// out\n        /* \"#utility.yul\":489:609   */\n    tag_286:\n        /* \"#utility.yul\":561:584   */\n      tag_343\n        /* \"#utility.yul\":578:583   */\n      dup2\n        /* \"#utility.yul\":561:584   */\n      tag_285\n      jump\t// in\n    tag_343:\n        /* \"#utility.yul\":554:559   */\n      dup2\n        /* \"#utility.yul\":551:585   */\n      eq\n        /* \"#utility.yul\":541:603   */\n      tag_344\n      jumpi\n        /* \"#utility.yul\":599:600   */\n      0x00\n        /* \"#utility.yul\":596:597   */\n      dup1\n        /* \"#utility.yul\":589:601   */\n      revert\n        /* \"#utility.yul\":541:603   */\n    tag_344:\n        /* \"#utility.yul\":489:609   */\n      pop\n      jump\t// out\n        /* \"#utility.yul\":615:752   */\n    tag_287:\n        /* \"#utility.yul\":660:665   */\n      0x00\n        /* \"#utility.yul\":698:704   */\n      dup2\n        /* \"#utility.yul\":685:705   */\n      calldataload\n        /* \"#utility.yul\":676:705   */\n      swap1\n      pop\n        /* \"#utility.yul\":714:746   */\n      tag_346\n        /* \"#utility.yul\":740:745   */\n      dup2\n        /* \"#utility.yul\":714:746   */\n      tag_286\n      jump\t// in\n    tag_346:\n        /* \"#utility.yul\":615:752   */\n      swap3\n      swap2\n      pop\n      pop\n      jump\t// out\n        /* \"#utility.yul\":758:1085   */\n    tag_31:\n        /* \"#utility.yul\":816:822   */\n      0x00\n        /* \"#utility.yul\":865:867   */\n      0x20\n        /* \"#utility.yul\":853:862   */\n      dup3\n        /* \"#utility.yul\":844:851   */\n      dup5\n        /* \"#utility.yul\":840:863   */\n      sub\n        /* \"#utility.yul\":836:868   */\n      slt\n        /* \"#utility.yul\":833:952   */\n      iszero\n      tag_348\n      jumpi\n        /* \"#utility.yul\":871:950   */\n      tag_349\n      tag_283\n      jump\t// in\n    tag_349:\n        /* \"#utility.yul\":833:952   */\n    tag_348:\n        /* \"#utility.yul\":991:992   */\n      0x00\n        /* \"#utility.yul\":1016:1068   */\n      tag_350\n        /* \"#utility.yul\":1060:1067   */\n      dup5\n        /* \"#utility.yul\":1051:1057   */\n      dup3\n        /* \"#utility.yul\":1040:1049   */\n      dup6\n        /* \"#utility.yul\":1036:1058   */\n      add\n        /* \"#utility.yul\":1016:1068   */\n      tag_287\n      jump\t// in\n    tag_350:\n        /* \"#utility.yul\":1006:1068   */\n      swap2\n      pop\n        /* \"#utility.yul\":962:1078   */\n      pop\n        /* \"#utility.yul\":758:1085   */\n      swap3\n      swap2\n      pop\n      pop\n      jump\t// out\n        /* \"#utility.yul\":1091:1181   */\n    tag_288:\n        /* \"#utility.yul\":1125:1132   */\n      0x00\n        /* \"#utility.yul\":1168:1173   */\n      dup2\n        /* \"#utility.yul\":1161:1174   */\n      iszero\n        /* \"#utility.yul\":1154:1175   */\n      iszero\n        /* \"#utility.yul\":1143:1175   */\n      swap1\n      pop\n        /* \"#utility.yul\":1091:1181   */\n      swap2\n      swap1\n      pop\n      jump\t// out\n        /* \"#utility.yul\":1187:1296   */\n    tag_289:\n        /* \"#utility.yul\":1268:1289   */\n      tag_353\n        /* \"#utility.yul\":1283:1288   */\n      dup2\n        /* \"#utility.yul\":1268:1289   */\n      tag_288\n      jump\t// in\n    tag_353:\n        /* \"#utility.yul\":1263:1266   */\n      dup3\n        /* \"#utility.yul\":1256:1290   */\n      mstore\n        /* \"#utility.yul\":1187:1296   */\n      pop\n      pop\n      jump\t// out\n        /* \"#utility.yul\":1302:1512   */\n    tag_34:\n        /* \"#utility.yul\":1389:1393   */\n      0x00\n        /* \"#utility.yul\":1427:1429   */\n      0x20\n        /* \"#utility.yul\":1416:1425   */\n      dup3\n        /* \"#utility.yul\":1412:1430   */\n      add\n        /* \"#utility.yul\":1404:1430   */\n      swap1\n      pop\n        /* \"#utility.yul\":1440:1505   */\n      tag_355\n        /* \"#utility.yul\":1502:1503   */\n      0x00\n        /* \"#utility.yul\":1491:1500   */\n      dup4\n        /* \"#utility.yul\":1487:1504   */\n      add\n        /* \"#utility.yul\":1478:1484   */\n      dup5\n        /* \"#utility.yul\":1440:1505   */\n      tag_289\n      jump\t// in\n    tag_355:\n        /* \"#utility.yul\":1302:1512   */\n      swap3\n      swap2\n      pop\n      pop\n      jump\t// out\n        /* \"#utility.yul\":1518:1644   */\n    tag_290:\n        /* \"#utility.yul\":1555:1562   */\n      0x00\n        /* \"#utility.yul\":1595:1637   */\n      0xffffffffffffffffffffffffffffffffffffffff\n        /* \"#utility.yul\":1588:1593   */\n      dup3\n        /* \"#utility.yul\":1584:1638   */\n      and\n        /* \"#utility.yul\":1573:1638   */\n      swap1\n      pop\n        /* \"#utility.yul\":1518:1644   */\n      swap2\n      swap1\n      pop\n      jump\t// out\n        /* \"#utility.yul\":1650:1746   */\n    tag_291:\n        /* \"#utility.yul\":1687:1694   */\n      0x00\n        /* \"#utility.yul\":1716:1740   */\n      tag_358\n        /* \"#utility.yul\":1734:1739   */\n      dup3\n        /* \"#utility.yul\":1716:1740   */\n      tag_290\n      jump\t// in\n    tag_358:\n        /* \"#utility.yul\":1705:1740   */\n      swap1\n      pop\n        /* \"#utility.yul\":1650:1746   */\n      swap2\n      swap1\n      pop\n      jump\t// out\n        /* \"#utility.yul\":1752:1874   */\n    tag_292:\n        /* \"#utility.yul\":1825:1849   */\n      tag_360\n        /* \"#utility.yul\":1843:1848   */\n      dup2\n        /* \"#utility.yul\":1825:1849   */\n      tag_291\n      jump\t// in\n    tag_360:\n        /* \"#utility.yul\":1818:1823   */\n      dup2\n        /* \"#utility.yul\":1815:1850   */\n      eq\n        /* \"#utility.yul\":1805:1868   */\n      tag_361\n      jumpi\n        /* \"#utility.yul\":1864:1865   */\n      0x00\n        /* \"#utility.yul\":1861:1862   */\n      dup1\n        /* \"#utility.yul\":1854:1866   */\n      revert\n        /* \"#utility.yul\":1805:1868   */\n    tag_361:\n        /* \"#utility.yul\":1752:1874   */\n      pop\n      jump\t// out\n        /* \"#utility.yul\":1880:2019   */\n    tag_293:\n        /* \"#utility.yul\":1926:1931   */\n      0x00\n        /* \"#utility.yul\":1964:1970   */\n      dup2\n        /* \"#utility.yul\":1951:1971   */\n      calldataload\n        /* \"#utility.yul\":1942:1971   */\n      swap1\n      pop\n        /* \"#utility.yul\":1980:2013   */\n      tag_363\n        /* \"#utility.yul\":2007:2012   */\n      dup2\n        /* \"#utility.yul\":1980:2013   */\n      tag_292\n      jump\t// in\n    tag_363:\n        /* \"#utility.yul\":1880:2019   */\n      swap3\n      swap2\n      pop\n      pop\n      jump\t// out\n        /* \"#utility.yul\":2025:2354   */\n    tag_39:\n        /* \"#utility.yul\":2084:2090   */\n      0x00\n        /* \"#utility.yul\":2133:2135   */\n      0x20\n        /* \"#utility.yul\":2121:2130   */\n      dup3\n        /* \"#utility.yul\":2112:2119   */\n      dup5\n        /* \"#utility.yul\":2108:2131   */\n      sub\n        /* \"#utility.yul\":2104:2136   */\n      slt\n        /* \"#utility.yul\":2101:2220   */\n      iszero\n      tag_365\n      jumpi\n        /* \"#utility.yul\":2139:2218   */\n      tag_366\n      tag_283\n      jump\t// in\n    tag_366:\n        /* \"#utility.yul\":2101:2220   */\n    tag_365:\n        /* \"#utility.yul\":2259:2260   */\n      0x00\n        /* \"#utility.yul\":2284:2337   */\n      tag_367\n        /* \"#utility.yul\":2329:2336   */\n      dup5\n        /* \"#utility.yul\":2320:2326   */\n      dup3\n        /* \"#utility.yul\":2309:2318   */\n      dup6\n        /* \"#utility.yul\":2305:2327   */\n      add\n        /* \"#utility.yul\":2284:2337   */\n      tag_293\n      jump\t// in\n    tag_367:\n        /* \"#utility.yul\":2274:2337   */\n      swap2\n      pop\n        /* \"#utility.yul\":2230:2347   */\n      pop\n        /* \"#utility.yul\":2025:2354   */\n      swap3\n      swap2\n      pop\n      pop\n      jump\t// out\n        /* \"#utility.yul\":2360:2437   */\n    tag_294:\n        /* \"#utility.yul\":2397:2404   */\n      0x00\n        /* \"#utility.yul\":2426:2431   */\n      dup2\n        /* \"#utility.yul\":2415:2431   */\n      swap1\n      pop\n        /* \"#utility.yul\":2360:2437   */\n      swap2\n      swap1\n      pop\n      jump\t// out\n        /* \"#utility.yul\":2443:2561   */\n    tag_295:\n        /* \"#utility.yul\":2530:2554   */\n      tag_370\n        /* \"#utility.yul\":2548:2553   */\n      dup2\n        /* \"#utility.yul\":2530:2554   */\n      tag_294\n      jump\t// in\n    tag_370:\n        /* \"#utility.yul\":2525:2528   */\n      dup3\n        /* \"#utility.yul\":2518:2555   */\n      mstore\n        /* \"#utility.yul\":2443:2561   */\n      pop\n      pop\n      jump\t// out\n        /* \"#utility.yul\":2567:2789   */\n    tag_42:\n        /* \"#utility.yul\":2660:2664   */\n      0x00\n        /* \"#utility.yul\":2698:2700   */\n      0x20\n        /* \"#utility.yul\":2687:2696   */\n      dup3\n        /* \"#utility.yul\":2683:2701   */\n      add\n        /* \"#utility.yul\":2675:2701   */\n      swap1\n      pop\n        /* \"#utility.yul\":2711:2782   */\n      tag_372\n        /* \"#utility.yul\":2779:2780   */\n      0x00\n        /* \"#utility.yul\":2768:2777   */\n      dup4\n        /* \"#utility.yul\":2764:2781   */\n      add\n        /* \"#utility.yul\":2755:2761   */\n      dup5\n        /* \"#utility.yul\":2711:2782   */\n      tag_295\n      jump\t// in\n    tag_372:\n        /* \"#utility.yul\":2567:2789   */\n      swap3\n      swap2\n      pop\n      pop\n      jump\t// out\n        /* \"#utility.yul\":2795:2872   */\n    tag_296:\n        /* \"#utility.yul\":2832:2839   */\n      0x00\n        /* \"#utility.yul\":2861:2866   */\n      dup2\n        /* \"#utility.yul\":2850:2866   */\n      swap1\n      pop\n        /* \"#utility.yul\":2795:2872   */\n      swap2\n      swap1\n      pop\n      jump\t// out\n        /* \"#utility.yul\":2878:3000   */\n    tag_297:\n        /* \"#utility.yul\":2951:2975   */\n      tag_375\n        /* \"#utility.yul\":2969:2974   */\n      dup2\n        /* \"#utility.yul\":2951:2975   */\n      tag_296\n      jump\t// in\n    tag_375:\n        /* \"#utility.yul\":2944:2949   */\n      dup2\n        /* \"#utility.yul\":2941:2976   */\n      eq\n        /* \"#utility.yul\":2931:2994   */\n      tag_376\n      jumpi\n        /* \"#utility.yul\":2990:2991   */\n      0x00\n        /* \"#utility.yul\":2987:2988   */\n      dup1\n        /* \"#utility.yul\":2980:2992   */\n      revert\n        /* \"#utility.yul\":2931:2994   */\n    tag_376:\n        /* \"#utility.yul\":2878:3000   */\n      pop\n      jump\t// out\n        /* \"#utility.yul\":3006:3145   */\n    tag_298:\n        /* \"#utility.yul\":3052:3057   */\n      0x00\n        /* \"#utility.yul\":3090:3096   */\n      dup2\n        /* \"#utility.yul\":3077:3097   */\n      calldataload\n        /* \"#utility.yul\":3068:3097   */\n      swap1\n      pop\n        /* \"#utility.yul\":3106:3139   */\n      tag_378\n        /* \"#utility.yul\":3133:3138   */\n      dup2\n        /* \"#utility.yul\":3106:3139   */\n      tag_297\n      jump\t// in\n    tag_378:\n        /* \"#utility.yul\":3006:3145   */\n      swap3\n      swap2\n      pop\n      pop\n      jump\t// out\n        /* \"#utility.yul\":3151:3480   */\n    tag_45:\n        /* \"#utility.yul\":3210:3216   */\n      0x00\n        /* \"#utility.yul\":3259:3261   */\n      0x20\n        /* \"#utility.yul\":3247:3256   */\n      dup3\n        /* \"#utility.yul\":3238:3245   */\n      dup5\n        /* \"#utility.yul\":3234:3257   */\n      sub\n        /* \"#utility.yul\":3230:3262   */\n      slt\n        /* \"#utility.yul\":3227:3346   */\n      iszero\n      tag_380\n      jumpi\n        /* \"#utility.yul\":3265:3344   */\n      tag_381\n      tag_283\n      jump\t// in\n    tag_381:\n        /* \"#utility.yul\":3227:3346   */\n    tag_380:\n        /* \"#utility.yul\":3385:3386   */\n      0x00\n        /* \"#utility.yul\":3410:3463   */\n      tag_382\n        /* \"#utility.yul\":3455:3462   */\n      dup5\n        /* \"#utility.yul\":3446:3452   */\n      dup3\n        /* \"#utility.yul\":3435:3444   */\n      dup6\n        /* \"#utility.yul\":3431:3453   */\n      add\n        /* \"#utility.yul\":3410:3463   */\n      tag_298\n      jump\t// in\n    tag_382:\n        /* \"#utility.yul\":3400:3463   */\n      swap2\n      pop\n        /* \"#utility.yul\":3356:3473   */\n      pop\n        /* \"#utility.yul\":3151:3480   */\n      swap3\n      swap2\n      pop\n      pop\n      jump\t// out\n        /* \"#utility.yul\":3486:3604   */\n    tag_299:\n        /* \"#utility.yul\":3573:3597   */\n      tag_384\n        /* \"#utility.yul\":3591:3596   */\n      dup2\n        /* \"#utility.yul\":3573:3597   */\n      tag_296\n      jump\t// in\n    tag_384:\n        /* \"#utility.yul\":3568:3571   */\n      dup3\n        /* \"#utility.yul\":3561:3598   */\n      mstore\n        /* \"#utility.yul\":3486:3604   */\n      pop\n      pop\n      jump\t// out\n        /* \"#utility.yul\":3610:3832   */\n    tag_48:\n        /* \"#utility.yul\":3703:3707   */\n      0x00\n        /* \"#utility.yul\":3741:3743   */\n      0x20\n        /* \"#utility.yul\":3730:3739   */\n      dup3\n        /* \"#utility.yul\":3726:3744   */\n      add\n        /* \"#utility.yul\":3718:3744   */\n      swap1\n      pop\n        /* \"#utility.yul\":3754:3825   */\n      tag_386\n        /* \"#utility.yul\":3822:3823   */\n      0x00\n        /* \"#utility.yul\":3811:3820   */\n      dup4\n        /* \"#utility.yul\":3807:3824   */\n      add\n        /* \"#utility.yul\":3798:3804   */\n      dup5\n        /* \"#utility.yul\":3754:3825   */\n      tag_299\n      jump\t// in\n    tag_386:\n        /* \"#utility.yul\":3610:3832   */\n      swap3\n      swap2\n      pop\n      pop\n      jump\t// out\n        /* \"#utility.yul\":3838:4312   */\n    tag_51:\n        /* \"#utility.yul\":3906:3912   */\n      0x00\n        /* \"#utility.yul\":3914:3920   */\n      dup1\n        /* \"#utility.yul\":3963:3965   */\n      0x40\n        /* \"#utility.yul\":3951:3960   */\n      dup4\n        /* \"#utility.yul\":3942:3949   */\n      dup6\n        /* \"#utility.yul\":3938:3961   */\n      sub\n        /* \"#utility.yul\":3934:3966   */\n      slt\n        /* \"#utility.yul\":3931:4050   */\n      iszero\n      tag_388\n      jumpi\n        /* \"#utility.yul\":3969:4048   */\n      tag_389\n      tag_283\n      jump\t// in\n    tag_389:\n        /* \"#utility.yul\":3931:4050   */\n    tag_388:\n        /* \"#utility.yul\":4089:4090   */\n      0x00\n        /* \"#utility.yul\":4114:4167   */\n      tag_390\n        /* \"#utility.yul\":4159:4166   */\n      dup6\n        /* \"#utility.yul\":4150:4156   */\n      dup3\n        /* \"#utility.yul\":4139:4148   */\n      dup7\n        /* \"#utility.yul\":4135:4157   */\n      add\n        /* \"#utility.yul\":4114:4167   */\n      tag_298\n      jump\t// in\n    tag_390:\n        /* \"#utility.yul\":4104:4167   */\n      swap3\n      pop\n        /* \"#utility.yul\":4060:4177   */\n      pop\n        /* \"#utility.yul\":4216:4218   */\n      0x20\n        /* \"#utility.yul\":4242:4295   */\n      tag_391\n        /* \"#utility.yul\":4287:4294   */\n      dup6\n        /* \"#utility.yul\":4278:4284   */\n      dup3\n        /* \"#utility.yul\":4267:4276   */\n      dup7\n        /* \"#utility.yul\":4263:4285   */\n      add\n        /* \"#utility.yul\":4242:4295   */\n      tag_293\n      jump\t// in\n    tag_391:\n        /* \"#utility.yul\":4232:4295   */\n      swap2\n      pop\n        /* \"#utility.yul\":4187:4305   */\n      pop\n        /* \"#utility.yul\":3838:4312   */\n      swap3\n      pop\n      swap3\n      swap1\n      pop\n      jump\t// out\n        /* \"#utility.yul\":4318:4440   */\n    tag_300:\n        /* \"#utility.yul\":4391:4415   */\n      tag_393\n        /* \"#utility.yul\":4409:4414   */\n      dup2\n        /* \"#utility.yul\":4391:4415   */\n      tag_294\n      jump\t// in\n    tag_393:\n        /* \"#utility.yul\":4384:4389   */\n      dup2\n        /* \"#utility.yul\":4381:4416   */\n      eq\n        /* \"#utility.yul\":4371:4434   */\n      tag_394\n      jumpi\n        /* \"#utility.yul\":4430:4431   */\n      0x00\n        /* \"#utility.yul\":4427:4428   */\n      dup1\n        /* \"#utility.yul\":4420:4432   */\n      revert\n        /* \"#utility.yul\":4371:4434   */\n    tag_394:\n        /* \"#utility.yul\":4318:4440   */\n      pop\n      jump\t// out\n        /* \"#utility.yul\":4446:4585   */\n    tag_301:\n        /* \"#utility.yul\":4492:4497   */\n      0x00\n        /* \"#utility.yul\":4530:4536   */\n      dup2\n        /* \"#utility.yul\":4517:4537   */\n      calldataload\n        /* \"#utility.yul\":4508:4537   */\n      swap1\n      pop\n        /* \"#utility.yul\":4546:4579   */\n      tag_396\n        /* \"#utility.yul\":4573:4578   */\n      dup2\n        /* \"#utility.yul\":4546:4579   */\n      tag_300\n      jump\t// in\n    tag_396:\n        /* \"#utility.yul\":4446:4585   */\n      swap3\n      swap2\n      pop\n      pop\n      jump\t// out\n        /* \"#utility.yul\":4591:5065   */\n    tag_62:\n        /* \"#utility.yul\":4659:4665   */\n      0x00\n        /* \"#utility.yul\":4667:4673   */\n      dup1\n        /* \"#utility.yul\":4716:4718   */\n      0x40\n        /* \"#utility.yul\":4704:4713   */\n      dup4\n        /* \"#utility.yul\":4695:4702   */\n      dup6\n        /* \"#utility.yul\":4691:4714   */\n      sub\n        /* \"#utility.yul\":4687:4719   */\n      slt\n        /* \"#utility.yul\":4684:4803   */\n      iszero\n      tag_398\n      jumpi\n        /* \"#utility.yul\":4722:4801   */\n      tag_399\n      tag_283\n      jump\t// in\n    tag_399:\n        /* \"#utility.yul\":4684:4803   */\n    tag_398:\n        /* \"#utility.yul\":4842:4843   */\n      0x00\n        /* \"#utility.yul\":4867:4920   */\n      tag_400\n        /* \"#utility.yul\":4912:4919   */\n      dup6\n        /* \"#utility.yul\":4903:4909   */\n      dup3\n        /* \"#utility.yul\":4892:4901   */\n      dup7\n        /* \"#utility.yul\":4888:4910   */\n      add\n        /* \"#utility.yul\":4867:4920   */\n      tag_293\n      jump\t// in\n    tag_400:\n        /* \"#utility.yul\":4857:4920   */\n      swap3\n      pop\n        /* \"#utility.yul\":4813:4930   */\n      pop\n        /* \"#utility.yul\":4969:4971   */\n      0x20\n        /* \"#utility.yul\":4995:5048   */\n      tag_401\n        /* \"#utility.yul\":5040:5047   */\n      dup6\n        /* \"#utility.yul\":5031:5037   */\n      dup3\n        /* \"#utility.yul\":5020:5029   */\n      dup7\n        /* \"#utility.yul\":5016:5038   */\n      add\n        /* \"#utility.yul\":4995:5048   */\n      tag_301\n      jump\t// in\n    tag_401:\n        /* \"#utility.yul\":4985:5048   */\n      swap2\n      pop\n        /* \"#utility.yul\":4940:5058   */\n      pop\n        /* \"#utility.yul\":4591:5065   */\n      swap3\n      pop\n      swap3\n      swap1\n      pop\n      jump\t// out\n        /* \"#utility.yul\":5071:5545   */\n    tag_75:\n        /* \"#utility.yul\":5139:5145   */\n      0x00\n        /* \"#utility.yul\":5147:5153   */\n      dup1\n        /* \"#utility.yul\":5196:5198   */\n      0x40\n        /* \"#utility.yul\":5184:5193   */\n      dup4\n        /* \"#utility.yul\":5175:5182   */\n      dup6\n        /* \"#utility.yul\":5171:5194   */\n      sub\n        /* \"#utility.yul\":5167:5199   */\n      slt\n        /* \"#utility.yul\":5164:5283   */\n      iszero\n      tag_403\n      jumpi\n        /* \"#utility.yul\":5202:5281   */\n      tag_404\n      tag_283\n      jump\t// in\n    tag_404:\n        /* \"#utility.yul\":5164:5283   */\n    tag_403:\n        /* \"#utility.yul\":5322:5323   */\n      0x00\n        /* \"#utility.yul\":5347:5400   */\n      tag_405\n        /* \"#utility.yul\":5392:5399   */\n      dup6\n        /* \"#utility.yul\":5383:5389   */\n      dup3\n        /* \"#utility.yul\":5372:5381   */\n      dup7\n        /* \"#utility.yul\":5368:5390   */\n      add\n        /* \"#utility.yul\":5347:5400   */\n      tag_293\n      jump\t// in\n    tag_405:\n        /* \"#utility.yul\":5337:5400   */\n      swap3\n      pop\n        /* \"#utility.yul\":5293:5410   */\n      pop\n        /* \"#utility.yul\":5449:5451   */\n      0x20\n        /* \"#utility.yul\":5475:5528   */\n      tag_406\n        /* \"#utility.yul\":5520:5527   */\n      dup6\n        /* \"#utility.yul\":5511:5517   */\n      dup3\n        /* \"#utility.yul\":5500:5509   */\n      dup7\n        /* \"#utility.yul\":5496:5518   */\n      add\n        /* \"#utility.yul\":5475:5528   */\n      tag_293\n      jump\t// in\n    tag_406:\n        /* \"#utility.yul\":5465:5528   */\n      swap2\n      pop\n        /* \"#utility.yul\":5420:5538   */\n      pop\n        /* \"#utility.yul\":5071:5545   */\n      swap3\n      pop\n      swap3\n      swap1\n      pop\n      jump\t// out\n        /* \"#utility.yul\":5551:5661   */\n    tag_302:\n        /* \"#utility.yul\":5602:5609   */\n      0x00\n        /* \"#utility.yul\":5631:5655   */\n      tag_408\n        /* \"#utility.yul\":5649:5654   */\n      dup3\n        /* \"#utility.yul\":5631:5655   */\n      tag_291\n      jump\t// in\n    tag_408:\n        /* \"#utility.yul\":5620:5655   */\n      swap1\n      pop\n        /* \"#utility.yul\":5551:5661   */\n      swap2\n      swap1\n      pop\n      jump\t// out\n        /* \"#utility.yul\":5667:5817   */\n    tag_303:\n        /* \"#utility.yul\":5754:5792   */\n      tag_410\n        /* \"#utility.yul\":5786:5791   */\n      dup2\n        /* \"#utility.yul\":5754:5792   */\n      tag_302\n      jump\t// in\n    tag_410:\n        /* \"#utility.yul\":5747:5752   */\n      dup2\n        /* \"#utility.yul\":5744:5793   */\n      eq\n        /* \"#utility.yul\":5734:5811   */\n      tag_411\n      jumpi\n        /* \"#utility.yul\":5807:5808   */\n      0x00\n        /* \"#utility.yul\":5804:5805   */\n      dup1\n        /* \"#utility.yul\":5797:5809   */\n      revert\n        /* \"#utility.yul\":5734:5811   */\n    tag_411:\n        /* \"#utility.yul\":5667:5817   */\n      pop\n      jump\t// out\n        /* \"#utility.yul\":5823:5990   */\n    tag_304:\n        /* \"#utility.yul\":5883:5888   */\n      0x00\n        /* \"#utility.yul\":5921:5927   */\n      dup2\n        /* \"#utility.yul\":5908:5928   */\n      calldataload\n        /* \"#utility.yul\":5899:5928   */\n      swap1\n      pop\n        /* \"#utility.yul\":5937:5984   */\n      tag_413\n        /* \"#utility.yul\":5978:5983   */\n      dup2\n        /* \"#utility.yul\":5937:5984   */\n      tag_303\n      jump\t// in\n    tag_413:\n        /* \"#utility.yul\":5823:5990   */\n      swap3\n      swap2\n      pop\n      pop\n      jump\t// out\n        /* \"#utility.yul\":5996:6817   */\n    tag_93:\n        /* \"#utility.yul\":6110:6116   */\n      0x00\n        /* \"#utility.yul\":6118:6124   */\n      dup1\n        /* \"#utility.yul\":6126:6132   */\n      0x00\n        /* \"#utility.yul\":6134:6140   */\n      dup1\n        /* \"#utility.yul\":6183:6186   */\n      0x80\n        /* \"#utility.yul\":6171:6180   */\n      dup6\n        /* \"#utility.yul\":6162:6169   */\n      dup8\n        /* \"#utility.yul\":6158:6181   */\n      sub\n        /* \"#utility.yul\":6154:6187   */\n      slt\n        /* \"#utility.yul\":6151:6271   */\n      iszero\n      tag_415\n      jumpi\n        /* \"#utility.yul\":6190:6269   */\n      tag_416\n      tag_283\n      jump\t// in\n    tag_416:\n        /* \"#utility.yul\":6151:6271   */\n    tag_415:\n        /* \"#utility.yul\":6310:6311   */\n      0x00\n        /* \"#utility.yul\":6335:6402   */\n      tag_417\n        /* \"#utility.yul\":6394:6401   */\n      dup8\n        /* \"#utility.yul\":6385:6391   */\n      dup3\n        /* \"#utility.yul\":6374:6383   */\n      dup9\n        /* \"#utility.yul\":6370:6392   */\n      add\n        /* \"#utility.yul\":6335:6402   */\n      tag_304\n      jump\t// in\n    tag_417:\n        /* \"#utility.yul\":6325:6402   */\n      swap5\n      pop\n        /* \"#utility.yul\":6281:6412   */\n      pop\n        /* \"#utility.yul\":6451:6453   */\n      0x20\n        /* \"#utility.yul\":6477:6530   */\n      tag_418\n        /* \"#utility.yul\":6522:6529   */\n      dup8\n        /* \"#utility.yul\":6513:6519   */\n      dup3\n        /* \"#utility.yul\":6502:6511   */\n      dup9\n        /* \"#utility.yul\":6498:6520   */\n      add\n        /* \"#utility.yul\":6477:6530   */\n      tag_301\n      jump\t// in\n    tag_418:\n        /* \"#utility.yul\":6467:6530   */\n      swap4\n      pop\n        /* \"#utility.yul\":6422:6540   */\n      pop\n        /* \"#utility.yul\":6579:6581   */\n      0x40\n        /* \"#utility.yul\":6605:6672   */\n      tag_419\n        /* \"#utility.yul\":6664:6671   */\n      dup8\n        /* \"#utility.yul\":6655:6661   */\n      dup3\n        /* \"#utility.yul\":6644:6653   */\n      dup9\n        /* \"#utility.yul\":6640:6662   */\n      add\n        /* \"#utility.yul\":6605:6672   */\n      tag_304\n      jump\t// in\n    tag_419:\n        /* \"#utility.yul\":6595:6672   */\n      swap3\n      pop\n        /* \"#utility.yul\":6550:6682   */\n      pop\n        /* \"#utility.yul\":6721:6723   */\n      0x60\n        /* \"#utility.yul\":6747:6800   */\n      tag_420\n        /* \"#utility.yul\":6792:6799   */\n      dup8\n        /* \"#utility.yul\":6783:6789   */\n      dup3\n        /* \"#utility.yul\":6772:6781   */\n      dup9\n        /* \"#utility.yul\":6768:6790   */\n      add\n        /* \"#utility.yul\":6747:6800   */\n      tag_301\n      jump\t// in\n    tag_420:\n        /* \"#utility.yul\":6737:6800   */\n      swap2\n      pop\n        /* \"#utility.yul\":6692:6810   */\n      pop\n        /* \"#utility.yul\":5996:6817   */\n      swap3\n      swap6\n      swap2\n      swap5\n      pop\n      swap3\n      pop\n      jump\t// out\n        /* \"#utility.yul\":6823:7152   */\n    tag_104:\n        /* \"#utility.yul\":6882:6888   */\n      0x00\n        /* \"#utility.yul\":6931:6933   */\n      0x20\n        /* \"#utility.yul\":6919:6928   */\n      dup3\n        /* \"#utility.yul\":6910:6917   */\n      dup5\n        /* \"#utility.yul\":6906:6929   */\n      sub\n        /* \"#utility.yul\":6902:6934   */\n      slt\n        /* \"#utility.yul\":6899:7018   */\n      iszero\n      tag_422\n      jumpi\n        /* \"#utility.yul\":6937:7016   */\n      tag_423\n      tag_283\n      jump\t// in\n    tag_423:\n        /* \"#utility.yul\":6899:7018   */\n    tag_422:\n        /* \"#utility.yul\":7057:7058   */\n      0x00\n        /* \"#utility.yul\":7082:7135   */\n      tag_424\n        /* \"#utility.yul\":7127:7134   */\n      dup5\n        /* \"#utility.yul\":7118:7124   */\n      dup3\n        /* \"#utility.yul\":7107:7116   */\n      dup6\n        /* \"#utility.yul\":7103:7125   */\n      add\n        /* \"#utility.yul\":7082:7135   */\n      tag_301\n      jump\t// in\n    tag_424:\n        /* \"#utility.yul\":7072:7135   */\n      swap2\n      pop\n        /* \"#utility.yul\":7028:7145   */\n      pop\n        /* \"#utility.yul\":6823:7152   */\n      swap3\n      swap2\n      pop\n      pop\n      jump\t// out\n        /* \"#utility.yul\":7158:7218   */\n    tag_305:\n        /* \"#utility.yul\":7186:7189   */\n      0x00\n        /* \"#utility.yul\":7207:7212   */\n      dup2\n        /* \"#utility.yul\":7200:7212   */\n      swap1\n      pop\n        /* \"#utility.yul\":7158:7218   */\n      swap2\n      swap1\n      pop\n      jump\t// out\n        /* \"#utility.yul\":7224:7366   */\n    tag_306:\n        /* \"#utility.yul\":7274:7283   */\n      0x00\n        /* \"#utility.yul\":7307:7360   */\n      tag_427\n        /* \"#utility.yul\":7325:7359   */\n      tag_428\n        /* \"#utility.yul\":7334:7358   */\n      tag_429\n        /* \"#utility.yul\":7352:7357   */\n      dup5\n        /* \"#utility.yul\":7334:7358   */\n      tag_290\n      jump\t// in\n    tag_429:\n        /* \"#utility.yul\":7325:7359   */\n      tag_305\n      jump\t// in\n    tag_428:\n        /* \"#utility.yul\":7307:7360   */\n      tag_290\n      jump\t// in\n    tag_427:\n        /* \"#utility.yul\":7294:7360   */\n      swap1\n      pop\n        /* \"#utility.yul\":7224:7366   */\n      swap2\n      swap1\n      pop\n      jump\t// out\n        /* \"#utility.yul\":7372:7498   */\n    tag_307:\n        /* \"#utility.yul\":7422:7431   */\n      0x00\n        /* \"#utility.yul\":7455:7492   */\n      tag_431\n        /* \"#utility.yul\":7486:7491   */\n      dup3\n        /* \"#utility.yul\":7455:7492   */\n      tag_306\n      jump\t// in\n    tag_431:\n        /* \"#utility.yul\":7442:7492   */\n      swap1\n      pop\n        /* \"#utility.yul\":7372:7498   */\n      swap2\n      swap1\n      pop\n      jump\t// out\n        /* \"#utility.yul\":7504:7644   */\n    tag_308:\n        /* \"#utility.yul\":7568:7577   */\n      0x00\n        /* \"#utility.yul\":7601:7638   */\n      tag_433\n        /* \"#utility.yul\":7632:7637   */\n      dup3\n        /* \"#utility.yul\":7601:7638   */\n      tag_307\n      jump\t// in\n    tag_433:\n        /* \"#utility.yul\":7588:7638   */\n      swap1\n      pop\n        /* \"#utility.yul\":7504:7644   */\n      swap2\n      swap1\n      pop\n      jump\t// out\n        /* \"#utility.yul\":7650:7809   */\n    tag_309:\n        /* \"#utility.yul\":7751:7802   */\n      tag_435\n        /* \"#utility.yul\":7796:7801   */\n      dup2\n        /* \"#utility.yul\":7751:7802   */\n      tag_308\n      jump\t// in\n    tag_435:\n        /* \"#utility.yul\":7746:7749   */\n      dup3\n        /* \"#utility.yul\":7739:7803   */\n      mstore\n        /* \"#utility.yul\":7650:7809   */\n      pop\n      pop\n      jump\t// out\n        /* \"#utility.yul\":7815:8065   */\n    tag_107:\n        /* \"#utility.yul\":7922:7926   */\n      0x00\n        /* \"#utility.yul\":7960:7962   */\n      0x20\n        /* \"#utility.yul\":7949:7958   */\n      dup3\n        /* \"#utility.yul\":7945:7963   */\n      add\n        /* \"#utility.yul\":7937:7963   */\n      swap1\n      pop\n        /* \"#utility.yul\":7973:8058   */\n      tag_437\n        /* \"#utility.yul\":8055:8056   */\n      0x00\n        /* \"#utility.yul\":8044:8053   */\n      dup4\n        /* \"#utility.yul\":8040:8057   */\n      add\n        /* \"#utility.yul\":8031:8037   */\n      dup5\n        /* \"#utility.yul\":7973:8058   */\n      tag_309\n      jump\t// in\n    tag_437:\n        /* \"#utility.yul\":7815:8065   */\n      swap3\n      swap2\n      pop\n      pop\n      jump\t// out\n        /* \"#utility.yul\":8071:8251   */\n    tag_310:\n        /* \"#utility.yul\":8119:8196   */\n      0x4e487b7100000000000000000000000000000000000000000000000000000000\n        /* \"#utility.yul\":8116:8117   */\n      0x00\n        /* \"#utility.yul\":8109:8197   */\n      mstore\n        /* \"#utility.yul\":8216:8220   */\n      0x11\n        /* \"#utility.yul\":8213:8214   */\n      0x04\n        /* \"#utility.yul\":8206:8221   */\n      mstore\n        /* \"#utility.yul\":8240:8244   */\n      0x24\n        /* \"#utility.yul\":8237:8238   */\n      0x00\n        /* \"#utility.yul\":8230:8245   */\n      revert\n        /* \"#utility.yul\":8257:8667   */\n    tag_129:\n        /* \"#utility.yul\":8297:8304   */\n      0x00\n        /* \"#utility.yul\":8320:8340   */\n      tag_440\n        /* \"#utility.yul\":8338:8339   */\n      dup3\n        /* \"#utility.yul\":8320:8340   */\n      tag_294\n      jump\t// in\n    tag_440:\n        /* \"#utility.yul\":8315:8340   */\n      swap2\n      pop\n        /* \"#utility.yul\":8354:8374   */\n      tag_441\n        /* \"#utility.yul\":8372:8373   */\n      dup4\n        /* \"#utility.yul\":8354:8374   */\n      tag_294\n      jump\t// in\n    tag_441:\n        /* \"#utility.yul\":8349:8374   */\n      swap3\n      pop\n        /* \"#utility.yul\":8409:8410   */\n      dup3\n        /* \"#utility.yul\":8406:8407   */\n      dup3\n        /* \"#utility.yul\":8402:8411   */\n      mul\n        /* \"#utility.yul\":8431:8461   */\n      tag_442\n        /* \"#utility.yul\":8449:8460   */\n      dup2\n        /* \"#utility.yul\":8431:8461   */\n      tag_294\n      jump\t// in\n    tag_442:\n        /* \"#utility.yul\":8420:8461   */\n      swap2\n      pop\n        /* \"#utility.yul\":8610:8611   */\n      dup3\n        /* \"#utility.yul\":8601:8608   */\n      dup3\n        /* \"#utility.yul\":8597:8612   */\n      div\n        /* \"#utility.yul\":8594:8595   */\n      dup5\n        /* \"#utility.yul\":8591:8613   */\n      eq\n        /* \"#utility.yul\":8571:8572   */\n      dup4\n        /* \"#utility.yul\":8564:8573   */\n      iszero\n        /* \"#utility.yul\":8544:8627   */\n      or\n        /* \"#utility.yul\":8521:8660   */\n      tag_443\n      jumpi\n        /* \"#utility.yul\":8640:8658   */\n      tag_444\n      tag_310\n      jump\t// in\n    tag_444:\n        /* \"#utility.yul\":8521:8660   */\n    tag_443:\n        /* \"#utility.yul\":8305:8667   */\n      pop\n        /* \"#utility.yul\":8257:8667   */\n      swap3\n      swap2\n      pop\n      pop\n      jump\t// out\n        /* \"#utility.yul\":8673:8853   */\n    tag_311:\n        /* \"#utility.yul\":8721:8798   */\n      0x4e487b7100000000000000000000000000000000000000000000000000000000\n        /* \"#utility.yul\":8718:8719   */\n      0x00\n        /* \"#utility.yul\":8711:8799   */\n      mstore\n        /* \"#utility.yul\":8818:8822   */\n      0x12\n        /* \"#utility.yul\":8815:8816   */\n      0x04\n        /* \"#utility.yul\":8808:8823   */\n      mstore\n        /* \"#utility.yul\":8842:8846   */\n      0x24\n        /* \"#utility.yul\":8839:8840   */\n      0x00\n        /* \"#utility.yul\":8832:8847   */\n      revert\n        /* \"#utility.yul\":8859:9044   */\n    tag_131:\n        /* \"#utility.yul\":8899:8900   */\n      0x00\n        /* \"#utility.yul\":8916:8936   */\n      tag_447\n        /* \"#utility.yul\":8934:8935   */\n      dup3\n        /* \"#utility.yul\":8916:8936   */\n      tag_294\n      jump\t// in\n    tag_447:\n        /* \"#utility.yul\":8911:8936   */\n      swap2\n      pop\n        /* \"#utility.yul\":8950:8970   */\n      tag_448\n        /* \"#utility.yul\":8968:8969   */\n      dup4\n        /* \"#utility.yul\":8950:8970   */\n      tag_294\n      jump\t// in\n    tag_448:\n        /* \"#utility.yul\":8945:8970   */\n      swap3\n      pop\n        /* \"#utility.yul\":8989:8990   */\n      dup3\n        /* \"#utility.yul\":8979:9014   */\n      tag_449\n      jumpi\n        /* \"#utility.yul\":8994:9012   */\n      tag_450\n      tag_311\n      jump\t// in\n    tag_450:\n        /* \"#utility.yul\":8979:9014   */\n    tag_449:\n        /* \"#utility.yul\":9036:9037   */\n      dup3\n        /* \"#utility.yul\":9033:9034   */\n      dup3\n        /* \"#utility.yul\":9029:9038   */\n      div\n        /* \"#utility.yul\":9024:9038   */\n      swap1\n      pop\n        /* \"#utility.yul\":8859:9044   */\n      swap3\n      swap2\n      pop\n      pop\n      jump\t// out\n        /* \"#utility.yul\":9050:9219   */\n    tag_312:\n        /* \"#utility.yul\":9134:9145   */\n      0x00\n        /* \"#utility.yul\":9168:9174   */\n      dup3\n        /* \"#utility.yul\":9163:9166   */\n      dup3\n        /* \"#utility.yul\":9156:9175   */\n      mstore\n        /* \"#utility.yul\":9208:9212   */\n      0x20\n        /* \"#utility.yul\":9203:9206   */\n      dup3\n        /* \"#utility.yul\":9199:9213   */\n      add\n        /* \"#utility.yul\":9184:9213   */\n      swap1\n      pop\n        /* \"#utility.yul\":9050:9219   */\n      swap3\n      swap2\n      pop\n      pop\n      jump\t// out\n        /* \"#utility.yul\":9225:9394   */\n    tag_313:\n        /* \"#utility.yul\":9365:9386   */\n      0x4173736574206e6f7420737570706f7274656400000000000000000000000000\n        /* \"#utility.yul\":9361:9362   */\n      0x00\n        /* \"#utility.yul\":9353:9359   */\n      dup3\n        /* \"#utility.yul\":9349:9363   */\n      add\n        /* \"#utility.yul\":9342:9387   */\n      mstore\n        /* \"#utility.yul\":9225:9394   */\n      pop\n      jump\t// out\n        /* \"#utility.yul\":9400:9766   */\n    tag_314:\n        /* \"#utility.yul\":9542:9545   */\n      0x00\n        /* \"#utility.yul\":9563:9630   */\n      tag_454\n        /* \"#utility.yul\":9627:9629   */\n      0x13\n        /* \"#utility.yul\":9622:9625   */\n      dup4\n        /* \"#utility.yul\":9563:9630   */\n      tag_312\n      jump\t// in\n    tag_454:\n        /* \"#utility.yul\":9556:9630   */\n      swap2\n      pop\n        /* \"#utility.yul\":9639:9732   */\n      tag_455\n        /* \"#utility.yul\":9728:9731   */\n      dup3\n        /* \"#utility.yul\":9639:9732   */\n      tag_313\n      jump\t// in\n    tag_455:\n        /* \"#utility.yul\":9757:9759   */\n      0x20\n        /* \"#utility.yul\":9752:9755   */\n      dup3\n        /* \"#utility.yul\":9748:9760   */\n      add\n        /* \"#utility.yul\":9741:9760   */\n      swap1\n      pop\n        /* \"#utility.yul\":9400:9766   */\n      swap2\n      swap1\n      pop\n      jump\t// out\n        /* \"#utility.yul\":9772:10191   */\n    tag_150:\n        /* \"#utility.yul\":9938:9942   */\n      0x00\n        /* \"#utility.yul\":9976:9978   */\n      0x20\n        /* \"#utility.yul\":9965:9974   */\n      dup3\n        /* \"#utility.yul\":9961:9979   */\n      add\n        /* \"#utility.yul\":9953:9979   */\n      swap1\n      pop\n        /* \"#utility.yul\":10025:10034   */\n      dup2\n        /* \"#utility.yul\":10019:10023   */\n      dup2\n        /* \"#utility.yul\":10015:10035   */\n      sub\n        /* \"#utility.yul\":10011:10012   */\n      0x00\n        /* \"#utility.yul\":10000:10009   */\n      dup4\n        /* \"#utility.yul\":9996:10013   */\n      add\n        /* \"#utility.yul\":9989:10036   */\n      mstore\n        /* \"#utility.yul\":10053:10184   */\n      tag_457\n        /* \"#utility.yul\":10179:10183   */\n      dup2\n        /* \"#utility.yul\":10053:10184   */\n      tag_314\n      jump\t// in\n    tag_457:\n        /* \"#utility.yul\":10045:10184   */\n      swap1\n      pop\n        /* \"#utility.yul\":9772:10191   */\n      swap2\n      swap1\n      pop\n      jump\t// out\n        /* \"#utility.yul\":10197:10315   */\n    tag_315:\n        /* \"#utility.yul\":10284:10308   */\n      tag_459\n        /* \"#utility.yul\":10302:10307   */\n      dup2\n        /* \"#utility.yul\":10284:10308   */\n      tag_291\n      jump\t// in\n    tag_459:\n        /* \"#utility.yul\":10279:10282   */\n      dup3\n        /* \"#utility.yul\":10272:10309   */\n      mstore\n        /* \"#utility.yul\":10197:10315   */\n      pop\n      pop\n      jump\t// out\n        /* \"#utility.yul\":10321:10763   */\n    tag_153:\n        /* \"#utility.yul\":10470:10474   */\n      0x00\n        /* \"#utility.yul\":10508:10510   */\n      0x60\n        /* \"#utility.yul\":10497:10506   */\n      dup3\n        /* \"#utility.yul\":10493:10511   */\n      add\n        /* \"#utility.yul\":10485:10511   */\n      swap1\n      pop\n        /* \"#utility.yul\":10521:10592   */\n      tag_461\n        /* \"#utility.yul\":10589:10590   */\n      0x00\n        /* \"#utility.yul\":10578:10587   */\n      dup4\n        /* \"#utility.yul\":10574:10591   */\n      add\n        /* \"#utility.yul\":10565:10571   */\n      dup7\n        /* \"#utility.yul\":10521:10592   */\n      tag_315\n      jump\t// in\n    tag_461:\n        /* \"#utility.yul\":10602:10674   */\n      tag_462\n        /* \"#utility.yul\":10670:10672   */\n      0x20\n        /* \"#utility.yul\":10659:10668   */\n      dup4\n        /* \"#utility.yul\":10655:10673   */\n      add\n        /* \"#utility.yul\":10646:10652   */\n      dup6\n        /* \"#utility.yul\":10602:10674   */\n      tag_315\n      jump\t// in\n    tag_462:\n        /* \"#utility.yul\":10684:10756   */\n      tag_463\n        /* \"#utility.yul\":10752:10754   */\n      0x40\n        /* \"#utility.yul\":10741:10750   */\n      dup4\n        /* \"#utility.yul\":10737:10755   */\n      add\n        /* \"#utility.yul\":10728:10734   */\n      dup5\n        /* \"#utility.yul\":10684:10756   */\n      tag_295\n      jump\t// in\n    tag_463:\n        /* \"#utility.yul\":10321:10763   */\n      swap5\n      swap4\n      pop\n      pop\n      pop\n      pop\n      jump\t// out\n        /* \"#utility.yul\":10769:10885   */\n    tag_316:\n        /* \"#utility.yul\":10839:10860   */\n      tag_465\n        /* \"#utility.yul\":10854:10859   */\n      dup2\n        /* \"#utility.yul\":10839:10860   */\n      tag_288\n      jump\t// in\n    tag_465:\n        /* \"#utility.yul\":10832:10837   */\n      dup2\n        /* \"#utility.yul\":10829:10861   */\n      eq\n        /* \"#utility.yul\":10819:10879   */\n      tag_466\n      jumpi\n        /* \"#utility.yul\":10875:10876   */\n      0x00\n        /* \"#utility.yul\":10872:10873   */\n      dup1\n        /* \"#utility.yul\":10865:10877   */\n      revert\n        /* \"#utility.yul\":10819:10879   */\n    tag_466:\n        /* \"#utility.yul\":10769:10885   */\n      pop\n      jump\t// out\n        /* \"#utility.yul\":10891:11028   */\n    tag_317:\n        /* \"#utility.yul\":10945:10950   */\n      0x00\n        /* \"#utility.yul\":10976:10982   */\n      dup2\n        /* \"#utility.yul\":10970:10983   */\n      mload\n        /* \"#utility.yul\":10961:10983   */\n      swap1\n      pop\n        /* \"#utility.yul\":10992:11022   */\n      tag_468\n        /* \"#utility.yul\":11016:11021   */\n      dup2\n        /* \"#utility.yul\":10992:11022   */\n      tag_316\n      jump\t// in\n    tag_468:\n        /* \"#utility.yul\":10891:11028   */\n      swap3\n      swap2\n      pop\n      pop\n      jump\t// out\n        /* \"#utility.yul\":11034:11379   */\n    tag_157:\n        /* \"#utility.yul\":11101:11107   */\n      0x00\n        /* \"#utility.yul\":11150:11152   */\n      0x20\n        /* \"#utility.yul\":11138:11147   */\n      dup3\n        /* \"#utility.yul\":11129:11136   */\n      dup5\n        /* \"#utility.yul\":11125:11148   */\n      sub\n        /* \"#utility.yul\":11121:11153   */\n      slt\n        /* \"#utility.yul\":11118:11237   */\n      iszero\n      tag_470\n      jumpi\n        /* \"#utility.yul\":11156:11235   */\n      tag_471\n      tag_283\n      jump\t// in\n    tag_471:\n        /* \"#utility.yul\":11118:11237   */\n    tag_470:\n        /* \"#utility.yul\":11276:11277   */\n      0x00\n        /* \"#utility.yul\":11301:11362   */\n      tag_472\n        /* \"#utility.yul\":11354:11361   */\n      dup5\n        /* \"#utility.yul\":11345:11351   */\n      dup3\n        /* \"#utility.yul\":11334:11343   */\n      dup6\n        /* \"#utility.yul\":11330:11352   */\n      add\n        /* \"#utility.yul\":11301:11362   */\n      tag_317\n      jump\t// in\n    tag_472:\n        /* \"#utility.yul\":11291:11362   */\n      swap2\n      pop\n        /* \"#utility.yul\":11247:11372   */\n      pop\n        /* \"#utility.yul\":11034:11379   */\n      swap3\n      swap2\n      pop\n      pop\n      jump\t// out\n        /* \"#utility.yul\":11385:11576   */\n    tag_159:\n        /* \"#utility.yul\":11425:11428   */\n      0x00\n        /* \"#utility.yul\":11444:11464   */\n      tag_474\n        /* \"#utility.yul\":11462:11463   */\n      dup3\n        /* \"#utility.yul\":11444:11464   */\n      tag_294\n      jump\t// in\n    tag_474:\n        /* \"#utility.yul\":11439:11464   */\n      swap2\n      pop\n        /* \"#utility.yul\":11478:11498   */\n      tag_475\n        /* \"#utility.yul\":11496:11497   */\n      dup4\n        /* \"#utility.yul\":11478:11498   */\n      tag_294\n      jump\t// in\n    tag_475:\n        /* \"#utility.yul\":11473:11498   */\n      swap3\n      pop\n        /* \"#utility.yul\":11521:11522   */\n      dup3\n        /* \"#utility.yul\":11518:11519   */\n      dup3\n        /* \"#utility.yul\":11514:11523   */\n      add\n        /* \"#utility.yul\":11507:11523   */\n      swap1\n      pop\n        /* \"#utility.yul\":11542:11545   */\n      dup1\n        /* \"#utility.yul\":11539:11540   */\n      dup3\n        /* \"#utility.yul\":11536:11546   */\n      gt\n        /* \"#utility.yul\":11533:11569   */\n      iszero\n      tag_476\n      jumpi\n        /* \"#utility.yul\":11549:11567   */\n      tag_477\n      tag_310\n      jump\t// in\n    tag_477:\n        /* \"#utility.yul\":11533:11569   */\n    tag_476:\n        /* \"#utility.yul\":11385:11576   */\n      swap3\n      swap2\n      pop\n      pop\n      jump\t// out\n        /* \"#utility.yul\":11582:11762   */\n    tag_177:\n        /* \"#utility.yul\":11630:11707   */\n      0x4e487b7100000000000000000000000000000000000000000000000000000000\n        /* \"#utility.yul\":11627:11628   */\n      0x00\n        /* \"#utility.yul\":11620:11708   */\n      mstore\n        /* \"#utility.yul\":11727:11731   */\n      0x32\n        /* \"#utility.yul\":11724:11725   */\n      0x04\n        /* \"#utility.yul\":11717:11732   */\n      mstore\n        /* \"#utility.yul\":11751:11755   */\n      0x24\n        /* \"#utility.yul\":11748:11749   */\n      0x00\n        /* \"#utility.yul\":11741:11756   */\n      revert\n        /* \"#utility.yul\":11768:11942   */\n    tag_318:\n        /* \"#utility.yul\":11908:11934   */\n      0x4f7261636c65206e6f742073657420666f722061737365740000000000000000\n        /* \"#utility.yul\":11904:11905   */\n      0x00\n        /* \"#utility.yul\":11896:11902   */\n      dup3\n        /* \"#utility.yul\":11892:11906   */\n      add\n        /* \"#utility.yul\":11885:11935   */\n      mstore\n        /* \"#utility.yul\":11768:11942   */\n      pop\n      jump\t// out\n        /* \"#utility.yul\":11948:12314   */\n    tag_319:\n        /* \"#utility.yul\":12090:12093   */\n      0x00\n        /* \"#utility.yul\":12111:12178   */\n      tag_481\n        /* \"#utility.yul\":12175:12177   */\n      0x18\n        /* \"#utility.yul\":12170:12173   */\n      dup4\n        /* \"#utility.yul\":12111:12178   */\n      tag_312\n      jump\t// in\n    tag_481:\n        /* \"#utility.yul\":12104:12178   */\n      swap2\n      pop\n        /* \"#utility.yul\":12187:12280   */\n      tag_482\n        /* \"#utility.yul\":12276:12279   */\n      dup3\n        /* \"#utility.yul\":12187:12280   */\n      tag_318\n      jump\t// in\n    tag_482:\n        /* \"#utility.yul\":12305:12307   */\n      0x20\n        /* \"#utility.yul\":12300:12303   */\n      dup3\n        /* \"#utility.yul\":12296:12308   */\n      add\n        /* \"#utility.yul\":12289:12308   */\n      swap1\n      pop\n        /* \"#utility.yul\":11948:12314   */\n      swap2\n      swap1\n      pop\n      jump\t// out\n        /* \"#utility.yul\":12320:12739   */\n    tag_186:\n        /* \"#utility.yul\":12486:12490   */\n      0x00\n        /* \"#utility.yul\":12524:12526   */\n      0x20\n        /* \"#utility.yul\":12513:12522   */\n      dup3\n        /* \"#utility.yul\":12509:12527   */\n      add\n        /* \"#utility.yul\":12501:12527   */\n      swap1\n      pop\n        /* \"#utility.yul\":12573:12582   */\n      dup2\n        /* \"#utility.yul\":12567:12571   */\n      dup2\n        /* \"#utility.yul\":12563:12583   */\n      sub\n        /* \"#utility.yul\":12559:12560   */\n      0x00\n        /* \"#utility.yul\":12548:12557   */\n      dup4\n        /* \"#utility.yul\":12544:12561   */\n      add\n        /* \"#utility.yul\":12537:12584   */\n      mstore\n        /* \"#utility.yul\":12601:12732   */\n      tag_484\n        /* \"#utility.yul\":12727:12731   */\n      dup2\n        /* \"#utility.yul\":12601:12732   */\n      tag_319\n      jump\t// in\n    tag_484:\n        /* \"#utility.yul\":12593:12732   */\n      swap1\n      pop\n        /* \"#utility.yul\":12320:12739   */\n      swap2\n      swap1\n      pop\n      jump\t// out\n        /* \"#utility.yul\":12745:12850   */\n    tag_320:\n        /* \"#utility.yul\":12781:12788   */\n      0x00\n        /* \"#utility.yul\":12821:12843   */\n      0xffffffffffffffffffff\n        /* \"#utility.yul\":12814:12819   */\n      dup3\n        /* \"#utility.yul\":12810:12844   */\n      and\n        /* \"#utility.yul\":12799:12844   */\n      swap1\n      pop\n        /* \"#utility.yul\":12745:12850   */\n      swap2\n      swap1\n      pop\n      jump\t// out\n        /* \"#utility.yul\":12856:12976   */\n    tag_321:\n        /* \"#utility.yul\":12928:12951   */\n      tag_487\n        /* \"#utility.yul\":12945:12950   */\n      dup2\n        /* \"#utility.yul\":12928:12951   */\n      tag_320\n      jump\t// in\n    tag_487:\n        /* \"#utility.yul\":12921:12926   */\n      dup2\n        /* \"#utility.yul\":12918:12952   */\n      eq\n        /* \"#utility.yul\":12908:12970   */\n      tag_488\n      jumpi\n        /* \"#utility.yul\":12966:12967   */\n      0x00\n        /* \"#utility.yul\":12963:12964   */\n      dup1\n        /* \"#utility.yul\":12956:12968   */\n      revert\n        /* \"#utility.yul\":12908:12970   */\n    tag_488:\n        /* \"#utility.yul\":12856:12976   */\n      pop\n      jump\t// out\n        /* \"#utility.yul\":12982:13123   */\n    tag_322:\n        /* \"#utility.yul\":13038:13043   */\n      0x00\n        /* \"#utility.yul\":13069:13075   */\n      dup2\n        /* \"#utility.yul\":13063:13076   */\n      mload\n        /* \"#utility.yul\":13054:13076   */\n      swap1\n      pop\n        /* \"#utility.yul\":13085:13117   */\n      tag_490\n        /* \"#utility.yul\":13111:13116   */\n      dup2\n        /* \"#utility.yul\":13085:13117   */\n      tag_321\n      jump\t// in\n    tag_490:\n        /* \"#utility.yul\":12982:13123   */\n      swap3\n      swap2\n      pop\n      pop\n      jump\t// out\n        /* \"#utility.yul\":13129:13205   */\n    tag_323:\n        /* \"#utility.yul\":13165:13172   */\n      0x00\n        /* \"#utility.yul\":13194:13199   */\n      dup2\n        /* \"#utility.yul\":13183:13199   */\n      swap1\n      pop\n        /* \"#utility.yul\":13129:13205   */\n      swap2\n      swap1\n      pop\n      jump\t// out\n        /* \"#utility.yul\":13211:13331   */\n    tag_324:\n        /* \"#utility.yul\":13283:13306   */\n      tag_493\n        /* \"#utility.yul\":13300:13305   */\n      dup2\n        /* \"#utility.yul\":13283:13306   */\n      tag_323\n      jump\t// in\n    tag_493:\n        /* \"#utility.yul\":13276:13281   */\n      dup2\n        /* \"#utility.yul\":13273:13307   */\n      eq\n        /* \"#utility.yul\":13263:13325   */\n      tag_494\n      jumpi\n        /* \"#utility.yul\":13321:13322   */\n      0x00\n        /* \"#utility.yul\":13318:13319   */\n      dup1\n        /* \"#utility.yul\":13311:13323   */\n      revert\n        /* \"#utility.yul\":13263:13325   */\n    tag_494:\n        /* \"#utility.yul\":13211:13331   */\n      pop\n      jump\t// out\n        /* \"#utility.yul\":13337:13478   */\n    tag_325:\n        /* \"#utility.yul\":13393:13398   */\n      0x00\n        /* \"#utility.yul\":13424:13430   */\n      dup2\n        /* \"#utility.yul\":13418:13431   */\n      mload\n        /* \"#utility.yul\":13409:13431   */\n      swap1\n      pop\n        /* \"#utility.yul\":13440:13472   */\n      tag_496\n        /* \"#utility.yul\":13466:13471   */\n      dup2\n        /* \"#utility.yul\":13440:13472   */\n      tag_324\n      jump\t// in\n    tag_496:\n        /* \"#utility.yul\":13337:13478   */\n      swap3\n      swap2\n      pop\n      pop\n      jump\t// out\n        /* \"#utility.yul\":13484:13627   */\n    tag_326:\n        /* \"#utility.yul\":13541:13546   */\n      0x00\n        /* \"#utility.yul\":13572:13578   */\n      dup2\n        /* \"#utility.yul\":13566:13579   */\n      mload\n        /* \"#utility.yul\":13557:13579   */\n      swap1\n      pop\n        /* \"#utility.yul\":13588:13621   */\n      tag_498\n        /* \"#utility.yul\":13615:13620   */\n      dup2\n        /* \"#utility.yul\":13588:13621   */\n      tag_300\n      jump\t// in\n    tag_498:\n        /* \"#utility.yul\":13484:13627   */\n      swap3\n      swap2\n      pop\n      pop\n      jump\t// out\n        /* \"#utility.yul\":13633:14604   */\n    tag_190:\n        /* \"#utility.yul\":13736:13742   */\n      0x00\n        /* \"#utility.yul\":13744:13750   */\n      dup1\n        /* \"#utility.yul\":13752:13758   */\n      0x00\n        /* \"#utility.yul\":13760:13766   */\n      dup1\n        /* \"#utility.yul\":13768:13774   */\n      0x00\n        /* \"#utility.yul\":13817:13820   */\n      0xa0\n        /* \"#utility.yul\":13805:13814   */\n      dup7\n        /* \"#utility.yul\":13796:13803   */\n      dup9\n        /* \"#utility.yul\":13792:13815   */\n      sub\n        /* \"#utility.yul\":13788:13821   */\n      slt\n        /* \"#utility.yul\":13785:13905   */\n      iszero\n      tag_500\n      jumpi\n        /* \"#utility.yul\":13824:13903   */\n      tag_501\n      tag_283\n      jump\t// in\n    tag_501:\n        /* \"#utility.yul\":13785:13905   */\n    tag_500:\n        /* \"#utility.yul\":13944:13945   */\n      0x00\n        /* \"#utility.yul\":13969:14032   */\n      tag_502\n        /* \"#utility.yul\":14024:14031   */\n      dup9\n        /* \"#utility.yul\":14015:14021   */\n      dup3\n        /* \"#utility.yul\":14004:14013   */\n      dup10\n        /* \"#utility.yul\":14000:14022   */\n      add\n        /* \"#utility.yul\":13969:14032   */\n      tag_322\n      jump\t// in\n    tag_502:\n        /* \"#utility.yul\":13959:14032   */\n      swap6\n      pop\n        /* \"#utility.yul\":13915:14042   */\n      pop\n        /* \"#utility.yul\":14081:14083   */\n      0x20\n        /* \"#utility.yul\":14107:14170   */\n      tag_503\n        /* \"#utility.yul\":14162:14169   */\n      dup9\n        /* \"#utility.yul\":14153:14159   */\n      dup3\n        /* \"#utility.yul\":14142:14151   */\n      dup10\n        /* \"#utility.yul\":14138:14160   */\n      add\n        /* \"#utility.yul\":14107:14170   */\n      tag_325\n      jump\t// in\n    tag_503:\n        /* \"#utility.yul\":14097:14170   */\n      swap5\n      pop\n        /* \"#utility.yul\":14052:14180   */\n      pop\n        /* \"#utility.yul\":14219:14221   */\n      0x40\n        /* \"#utility.yul\":14245:14309   */\n      tag_504\n        /* \"#utility.yul\":14301:14308   */\n      dup9\n        /* \"#utility.yul\":14292:14298   */\n      dup3\n        /* \"#utility.yul\":14281:14290   */\n      dup10\n        /* \"#utility.yul\":14277:14299   */\n      add\n        /* \"#utility.yul\":14245:14309   */\n      tag_326\n      jump\t// in\n    tag_504:\n        /* \"#utility.yul\":14235:14309   */\n      swap4\n      pop\n        /* \"#utility.yul\":14190:14319   */\n      pop\n        /* \"#utility.yul\":14358:14360   */\n      0x60\n        /* \"#utility.yul\":14384:14448   */\n      tag_505\n        /* \"#utility.yul\":14440:14447   */\n      dup9\n        /* \"#utility.yul\":14431:14437   */\n      dup3\n        /* \"#utility.yul\":14420:14429   */\n      dup10\n        /* \"#utility.yul\":14416:14438   */\n      add\n        /* \"#utility.yul\":14384:14448   */\n      tag_326\n      jump\t// in\n    tag_505:\n        /* \"#utility.yul\":14374:14448   */\n      swap3\n      pop\n        /* \"#utility.yul\":14329:14458   */\n      pop\n        /* \"#utility.yul\":14497:14500   */\n      0x80\n        /* \"#utility.yul\":14524:14587   */\n      tag_506\n        /* \"#utility.yul\":14579:14586   */\n      dup9\n        /* \"#utility.yul\":14570:14576   */\n      dup3\n        /* \"#utility.yul\":14559:14568   */\n      dup10\n        /* \"#utility.yul\":14555:14577   */\n      add\n        /* \"#utility.yul\":14524:14587   */\n      tag_322\n      jump\t// in\n    tag_506:\n        /* \"#utility.yul\":14514:14587   */\n      swap2\n      pop\n        /* \"#utility.yul\":14468:14597   */\n      pop\n        /* \"#utility.yul\":13633:14604   */\n      swap3\n      swap6\n      pop\n      swap3\n      swap6\n      swap1\n      swap4\n      pop\n      jump\t// out\n        /* \"#utility.yul\":14610:14778   */\n    tag_327:\n        /* \"#utility.yul\":14750:14770   */\n      0x496e76616c696420707269636520646174610000000000000000000000000000\n        /* \"#utility.yul\":14746:14747   */\n      0x00\n        /* \"#utility.yul\":14738:14744   */\n      dup3\n        /* \"#utility.yul\":14734:14748   */\n      add\n        /* \"#utility.yul\":14727:14771   */\n      mstore\n        /* \"#utility.yul\":14610:14778   */\n      pop\n      jump\t// out\n        /* \"#utility.yul\":14784:15150   */\n    tag_328:\n        /* \"#utility.yul\":14926:14929   */\n      0x00\n        /* \"#utility.yul\":14947:15014   */\n      tag_509\n        /* \"#utility.yul\":15011:15013   */\n      0x12\n        /* \"#utility.yul\":15006:15009   */\n      dup4\n        /* \"#utility.yul\":14947:15014   */\n      tag_312\n      jump\t// in\n    tag_509:\n        /* \"#utility.yul\":14940:15014   */\n      swap2\n      pop\n        /* \"#utility.yul\":15023:15116   */\n      tag_510\n        /* \"#utility.yul\":15112:15115   */\n      dup3\n        /* \"#utility.yul\":15023:15116   */\n      tag_327\n      jump\t// in\n    tag_510:\n        /* \"#utility.yul\":15141:15143   */\n      0x20\n        /* \"#utility.yul\":15136:15139   */\n      dup3\n        /* \"#utility.yul\":15132:15144   */\n      add\n        /* \"#utility.yul\":15125:15144   */\n      swap1\n      pop\n        /* \"#utility.yul\":14784:15150   */\n      swap2\n      swap1\n      pop\n      jump\t// out\n        /* \"#utility.yul\":15156:15575   */\n    tag_193:\n        /* \"#utility.yul\":15322:15326   */\n      0x00\n        /* \"#utility.yul\":15360:15362   */\n      0x20\n        /* \"#utility.yul\":15349:15358   */\n      dup3\n        /* \"#utility.yul\":15345:15363   */\n      add\n        /* \"#utility.yul\":15337:15363   */\n      swap1\n      pop\n        /* \"#utility.yul\":15409:15418   */\n      dup2\n        /* \"#utility.yul\":15403:15407   */\n      dup2\n        /* \"#utility.yul\":15399:15419   */\n      sub\n        /* \"#utility.yul\":15395:15396   */\n      0x00\n        /* \"#utility.yul\":15384:15393   */\n      dup4\n        /* \"#utility.yul\":15380:15397   */\n      add\n        /* \"#utility.yul\":15373:15420   */\n      mstore\n        /* \"#utility.yul\":15437:15568   */\n      tag_512\n        /* \"#utility.yul\":15563:15567   */\n      dup2\n        /* \"#utility.yul\":15437:15568   */\n      tag_328\n      jump\t// in\n    tag_512:\n        /* \"#utility.yul\":15429:15568   */\n      swap1\n      pop\n        /* \"#utility.yul\":15156:15575   */\n      swap2\n      swap1\n      pop\n      jump\t// out\n        /* \"#utility.yul\":15581:15667   */\n    tag_329:\n        /* \"#utility.yul\":15616:15623   */\n      0x00\n        /* \"#utility.yul\":15656:15660   */\n      0xff\n        /* \"#utility.yul\":15649:15654   */\n      dup3\n        /* \"#utility.yul\":15645:15661   */\n      and\n        /* \"#utility.yul\":15634:15661   */\n      swap1\n      pop\n        /* \"#utility.yul\":15581:15667   */\n      swap2\n      swap1\n      pop\n      jump\t// out\n        /* \"#utility.yul\":15673:15791   */\n    tag_330:\n        /* \"#utility.yul\":15744:15766   */\n      tag_515\n        /* \"#utility.yul\":15760:15765   */\n      dup2\n        /* \"#utility.yul\":15744:15766   */\n      tag_329\n      jump\t// in\n    tag_515:\n        /* \"#utility.yul\":15737:15742   */\n      dup2\n        /* \"#utility.yul\":15734:15767   */\n      eq\n        /* \"#utility.yul\":15724:15785   */\n      tag_516\n      jumpi\n        /* \"#utility.yul\":15781:15782   */\n      0x00\n        /* \"#utility.yul\":15778:15779   */\n      dup1\n        /* \"#utility.yul\":15771:15783   */\n      revert\n        /* \"#utility.yul\":15724:15785   */\n    tag_516:\n        /* \"#utility.yul\":15673:15791   */\n      pop\n      jump\t// out\n        /* \"#utility.yul\":15797:15936   */\n    tag_331:\n        /* \"#utility.yul\":15852:15857   */\n      0x00\n        /* \"#utility.yul\":15883:15889   */\n      dup2\n        /* \"#utility.yul\":15877:15890   */\n      mload\n        /* \"#utility.yul\":15868:15890   */\n      swap1\n      pop\n        /* \"#utility.yul\":15899:15930   */\n      tag_518\n        /* \"#utility.yul\":15924:15929   */\n      dup2\n        /* \"#utility.yul\":15899:15930   */\n      tag_330\n      jump\t// in\n    tag_518:\n        /* \"#utility.yul\":15797:15936   */\n      swap3\n      swap2\n      pop\n      pop\n      jump\t// out\n        /* \"#utility.yul\":15942:16289   */\n    tag_197:\n        /* \"#utility.yul\":16010:16016   */\n      0x00\n        /* \"#utility.yul\":16059:16061   */\n      0x20\n        /* \"#utility.yul\":16047:16056   */\n      dup3\n        /* \"#utility.yul\":16038:16045   */\n      dup5\n        /* \"#utility.yul\":16034:16057   */\n      sub\n        /* \"#utility.yul\":16030:16062   */\n      slt\n        /* \"#utility.yul\":16027:16146   */\n      iszero\n      tag_520\n      jumpi\n        /* \"#utility.yul\":16065:16144   */\n      tag_521\n      tag_283\n      jump\t// in\n    tag_521:\n        /* \"#utility.yul\":16027:16146   */\n    tag_520:\n        /* \"#utility.yul\":16185:16186   */\n      0x00\n        /* \"#utility.yul\":16210:16272   */\n      tag_522\n        /* \"#utility.yul\":16264:16271   */\n      dup5\n        /* \"#utility.yul\":16255:16261   */\n      dup3\n        /* \"#utility.yul\":16244:16253   */\n      dup6\n        /* \"#utility.yul\":16240:16262   */\n      add\n        /* \"#utility.yul\":16210:16272   */\n      tag_331\n      jump\t// in\n    tag_522:\n        /* \"#utility.yul\":16200:16272   */\n      swap2\n      pop\n        /* \"#utility.yul\":16156:16282   */\n      pop\n        /* \"#utility.yul\":15942:16289   */\n      swap3\n      swap2\n      pop\n      pop\n      jump\t// out\n        /* \"#utility.yul\":16295:16397   */\n    tag_332:\n        /* \"#utility.yul\":16337:16345   */\n      0x00\n        /* \"#utility.yul\":16384:16389   */\n      dup2\n        /* \"#utility.yul\":16381:16382   */\n      0x01\n        /* \"#utility.yul\":16377:16390   */\n      shr\n        /* \"#utility.yul\":16356:16390   */\n      swap1\n      pop\n        /* \"#utility.yul\":16295:16397   */\n      swap2\n      swap1\n      pop\n      jump\t// out\n        /* \"#utility.yul\":16403:17251   */\n    tag_333:\n        /* \"#utility.yul\":16464:16469   */\n      0x00\n        /* \"#utility.yul\":16471:16475   */\n      dup1\n        /* \"#utility.yul\":16495:16501   */\n      dup3\n        /* \"#utility.yul\":16486:16501   */\n      swap2\n      pop\n        /* \"#utility.yul\":16519:16524   */\n      dup4\n        /* \"#utility.yul\":16510:16524   */\n      swap1\n      pop\n        /* \"#utility.yul\":16533:17245   */\n    tag_525:\n        /* \"#utility.yul\":16554:16555   */\n      0x01\n        /* \"#utility.yul\":16544:16552   */\n      dup6\n        /* \"#utility.yul\":16541:16556   */\n      gt\n        /* \"#utility.yul\":16533:17245   */\n      iszero\n      tag_527\n      jumpi\n        /* \"#utility.yul\":16649:16653   */\n      dup1\n        /* \"#utility.yul\":16644:16647   */\n      dup7\n        /* \"#utility.yul\":16640:16654   */\n      div\n        /* \"#utility.yul\":16634:16638   */\n      dup2\n        /* \"#utility.yul\":16631:16655   */\n      gt\n        /* \"#utility.yul\":16628:16678   */\n      iszero\n      tag_528\n      jumpi\n        /* \"#utility.yul\":16658:16676   */\n      tag_529\n      tag_310\n      jump\t// in\n    tag_529:\n        /* \"#utility.yul\":16628:16678   */\n    tag_528:\n        /* \"#utility.yul\":16708:16709   */\n      0x01\n        /* \"#utility.yul\":16698:16706   */\n      dup6\n        /* \"#utility.yul\":16694:16710   */\n      and\n        /* \"#utility.yul\":16691:17142   */\n      iszero\n      tag_530\n      jumpi\n        /* \"#utility.yul\":17123:17127   */\n      dup1\n        /* \"#utility.yul\":17116:17121   */\n      dup3\n        /* \"#utility.yul\":17112:17128   */\n      mul\n        /* \"#utility.yul\":17103:17128   */\n      swap2\n      pop\n        /* \"#utility.yul\":16691:17142   */\n    tag_530:\n        /* \"#utility.yul\":17173:17177   */\n      dup1\n        /* \"#utility.yul\":17167:17171   */\n      dup2\n        /* \"#utility.yul\":17163:17178   */\n      mul\n        /* \"#utility.yul\":17155:17178   */\n      swap1\n      pop\n        /* \"#utility.yul\":17203:17235   */\n      tag_531\n        /* \"#utility.yul\":17226:17234   */\n      dup6\n        /* \"#utility.yul\":17203:17235   */\n      tag_332\n      jump\t// in\n    tag_531:\n        /* \"#utility.yul\":17191:17235   */\n      swap5\n      pop\n        /* \"#utility.yul\":16533:17245   */\n      jump(tag_525)\n    tag_527:\n        /* \"#utility.yul\":16403:17251   */\n      swap5\n      pop\n      swap5\n      swap3\n      pop\n      pop\n      pop\n      jump\t// out\n        /* \"#utility.yul\":17257:18330   */\n    tag_334:\n        /* \"#utility.yul\":17311:17316   */\n      0x00\n        /* \"#utility.yul\":17502:17510   */\n      dup3\n        /* \"#utility.yul\":17492:17532   */\n      tag_533\n      jumpi\n        /* \"#utility.yul\":17523:17524   */\n      0x01\n        /* \"#utility.yul\":17514:17524   */\n      swap1\n      pop\n        /* \"#utility.yul\":17525:17530   */\n      jump(tag_532)\n        /* \"#utility.yul\":17492:17532   */\n    tag_533:\n        /* \"#utility.yul\":17551:17555   */\n      dup2\n        /* \"#utility.yul\":17541:17577   */\n      tag_534\n      jumpi\n        /* \"#utility.yul\":17568:17569   */\n      0x00\n        /* \"#utility.yul\":17559:17569   */\n      swap1\n      pop\n        /* \"#utility.yul\":17570:17575   */\n      jump(tag_532)\n        /* \"#utility.yul\":17541:17577   */\n    tag_534:\n        /* \"#utility.yul\":17637:17641   */\n      dup2\n        /* \"#utility.yul\":17685:17686   */\n      0x01\n        /* \"#utility.yul\":17680:17707   */\n      dup2\n      eq\n      tag_536\n      jumpi\n        /* \"#utility.yul\":17721:17722   */\n      0x02\n        /* \"#utility.yul\":17716:17907   */\n      dup2\n      eq\n      tag_537\n      jumpi\n        /* \"#utility.yul\":17630:17907   */\n      jump(tag_535)\n        /* \"#utility.yul\":17680:17707   */\n    tag_536:\n        /* \"#utility.yul\":17698:17699   */\n      0x01\n        /* \"#utility.yul\":17689:17699   */\n      swap2\n      pop\n        /* \"#utility.yul\":17700:17705   */\n      pop\n      jump(tag_532)\n        /* \"#utility.yul\":17716:17907   */\n    tag_537:\n        /* \"#utility.yul\":17761:17764   */\n      0xff\n        /* \"#utility.yul\":17751:17759   */\n      dup5\n        /* \"#utility.yul\":17748:17765   */\n      gt\n        /* \"#utility.yul\":17745:17788   */\n      iszero\n      tag_538\n      jumpi\n        /* \"#utility.yul\":17768:17786   */\n      tag_539\n      tag_310\n      jump\t// in\n    tag_539:\n        /* \"#utility.yul\":17745:17788   */\n    tag_538:\n        /* \"#utility.yul\":17817:17825   */\n      dup4\n        /* \"#utility.yul\":17814:17815   */\n      0x02\n        /* \"#utility.yul\":17810:17826   */\n      exp\n        /* \"#utility.yul\":17801:17826   */\n      swap2\n      pop\n        /* \"#utility.yul\":17852:17855   */\n      dup5\n        /* \"#utility.yul\":17845:17850   */\n      dup3\n        /* \"#utility.yul\":17842:17856   */\n      gt\n        /* \"#utility.yul\":17839:17879   */\n      iszero\n      tag_540\n      jumpi\n        /* \"#utility.yul\":17859:17877   */\n      tag_541\n      tag_310\n      jump\t// in\n    tag_541:\n        /* \"#utility.yul\":17839:17879   */\n    tag_540:\n        /* \"#utility.yul\":17892:17897   */\n      pop\n      jump(tag_532)\n        /* \"#utility.yul\":17630:17907   */\n    tag_535:\n      pop\n        /* \"#utility.yul\":18016:18018   */\n      0x20\n        /* \"#utility.yul\":18006:18014   */\n      dup4\n        /* \"#utility.yul\":18003:18019   */\n      lt\n        /* \"#utility.yul\":17997:18000   */\n      0x0133\n        /* \"#utility.yul\":17991:17995   */\n      dup4\n        /* \"#utility.yul\":17988:18001   */\n      lt\n        /* \"#utility.yul\":17984:18020   */\n      and\n        /* \"#utility.yul\":17966:17968   */\n      0x4e\n        /* \"#utility.yul\":17956:17964   */\n      dup5\n        /* \"#utility.yul\":17953:17969   */\n      lt\n        /* \"#utility.yul\":17948:17950   */\n      0x0b\n        /* \"#utility.yul\":17942:17946   */\n      dup5\n        /* \"#utility.yul\":17939:17951   */\n      lt\n        /* \"#utility.yul\":17935:17970   */\n      and\n        /* \"#utility.yul\":17919:18030   */\n      or\n        /* \"#utility.yul\":17916:18162   */\n      iszero\n      tag_542\n      jumpi\n        /* \"#utility.yul\":18072:18080   */\n      dup3\n        /* \"#utility.yul\":18066:18070   */\n      dup3\n        /* \"#utility.yul\":18062:18081   */\n      exp\n        /* \"#utility.yul\":18053:18081   */\n      swap1\n      pop\n        /* \"#utility.yul\":18107:18110   */\n      dup4\n        /* \"#utility.yul\":18100:18105   */\n      dup2\n        /* \"#utility.yul\":18097:18111   */\n      gt\n        /* \"#utility.yul\":18094:18134   */\n      iszero\n      tag_543\n      jumpi\n        /* \"#utility.yul\":18114:18132   */\n      tag_544\n      tag_310\n      jump\t// in\n    tag_544:\n        /* \"#utility.yul\":18094:18134   */\n    tag_543:\n        /* \"#utility.yul\":18147:18152   */\n      jump(tag_532)\n        /* \"#utility.yul\":17916:18162   */\n    tag_542:\n        /* \"#utility.yul\":18187:18229   */\n      tag_545\n        /* \"#utility.yul\":18225:18228   */\n      dup5\n        /* \"#utility.yul\":18215:18223   */\n      dup5\n        /* \"#utility.yul\":18209:18213   */\n      dup5\n        /* \"#utility.yul\":18206:18207   */\n      0x01\n        /* \"#utility.yul\":18187:18229   */\n      tag_333\n      jump\t// in\n    tag_545:\n        /* \"#utility.yul\":18172:18229   */\n      swap3\n      pop\n      swap1\n      pop\n        /* \"#utility.yul\":18261:18265   */\n      dup2\n        /* \"#utility.yul\":18256:18259   */\n      dup5\n        /* \"#utility.yul\":18252:18266   */\n      div\n        /* \"#utility.yul\":18245:18250   */\n      dup2\n        /* \"#utility.yul\":18242:18267   */\n      gt\n        /* \"#utility.yul\":18239:18290   */\n      iszero\n      tag_546\n      jumpi\n        /* \"#utility.yul\":18270:18288   */\n      tag_547\n      tag_310\n      jump\t// in\n    tag_547:\n        /* \"#utility.yul\":18239:18290   */\n    tag_546:\n        /* \"#utility.yul\":18319:18323   */\n      dup2\n        /* \"#utility.yul\":18312:18317   */\n      dup2\n        /* \"#utility.yul\":18308:18324   */\n      mul\n        /* \"#utility.yul\":18299:18324   */\n      swap1\n      pop\n        /* \"#utility.yul\":17257:18330   */\n    tag_532:\n      swap4\n      swap3\n      pop\n      pop\n      pop\n      jump\t// out\n        /* \"#utility.yul\":18336:18621   */\n    tag_199:\n        /* \"#utility.yul\":18396:18401   */\n      0x00\n        /* \"#utility.yul\":18420:18443   */\n      tag_549\n        /* \"#utility.yul\":18438:18442   */\n      dup3\n        /* \"#utility.yul\":18420:18443   */\n      tag_294\n      jump\t// in\n    tag_549:\n        /* \"#utility.yul\":18412:18443   */\n      swap2\n      pop\n        /* \"#utility.yul\":18464:18491   */\n      tag_550\n        /* \"#utility.yul\":18482:18490   */\n      dup4\n        /* \"#utility.yul\":18464:18491   */\n      tag_294\n      jump\t// in\n    tag_550:\n        /* \"#utility.yul\":18452:18491   */\n      swap3\n      pop\n        /* \"#utility.yul\":18510:18614   */\n      tag_551\n        /* \"#utility.yul\":18547:18613   */\n      0xffffffffffffffffffffffffffffffffffffffffffffffffffffffffffffffff\n        /* \"#utility.yul\":18537:18545   */\n      dup5\n        /* \"#utility.yul\":18531:18535   */\n      dup5\n        /* \"#utility.yul\":18510:18614   */\n      tag_334\n      jump\t// in\n    tag_551:\n        /* \"#utility.yul\":18501:18614   */\n      swap1\n      pop\n        /* \"#utility.yul\":18336:18621   */\n      swap3\n      swap2\n      pop\n      pop\n      jump\t// out\n        /* \"#utility.yul\":18627:18821   */\n    tag_208:\n        /* \"#utility.yul\":18667:18671   */\n      0x00\n        /* \"#utility.yul\":18687:18707   */\n      tag_553\n        /* \"#utility.yul\":18705:18706   */\n      dup3\n        /* \"#utility.yul\":18687:18707   */\n      tag_294\n      jump\t// in\n    tag_553:\n        /* \"#utility.yul\":18682:18707   */\n      swap2\n      pop\n        /* \"#utility.yul\":18721:18741   */\n      tag_554\n        /* \"#utility.yul\":18739:18740   */\n      dup4\n        /* \"#utility.yul\":18721:18741   */\n      tag_294\n      jump\t// in\n    tag_554:\n        /* \"#utility.yul\":18716:18741   */\n      swap3\n      pop\n        /* \"#utility.yul\":18765:18766   */\n      dup3\n        /* \"#utility.yul\":18762:18763   */\n      dup3\n        /* \"#utility.yul\":18758:18767   */\n      sub\n        /* \"#utility.yul\":18750:18767   */\n      swap1\n      pop\n        /* \"#utility.yul\":18789:18790   */\n      dup2\n        /* \"#utility.yul\":18783:18787   */\n      dup2\n        /* \"#utility.yul\":18780:18791   */\n      gt\n        /* \"#utility.yul\":18777:18814   */\n      iszero\n      tag_555\n      jumpi\n        /* \"#utility.yul\":18794:18812   */\n      tag_556\n      tag_310\n      jump\t// in\n    tag_556:\n        /* \"#utility.yul\":18777:18814   */\n    tag_555:\n        /* \"#utility.yul\":18627:18821   */\n      swap3\n      swap2\n      pop\n      pop\n      jump\t// out\n        /* \"#utility.yul\":18827:18997   */\n    tag_335:\n        /* \"#utility.yul\":18967:18989   */\n      0x496e73756666696369656e742062616c616e6365000000000000000000000000\n        /* \"#utility.yul\":18963:18964   */\n      0x00\n        /* \"#utility.yul\":18955:18961   */\n      dup3\n        /* \"#utility.yul\":18951:18965   */\n      add\n        /* \"#utility.yul\":18944:18990   */\n      mstore\n        /* \"#utility.yul\":18827:18997   */\n      pop\n      jump\t// out\n        /* \"#utility.yul\":19003:19369   */\n    tag_336:\n        /* \"#utility.yul\":19145:19148   */\n      0x00\n        /* \"#utility.yul\":19166:19233   */\n      tag_559\n        /* \"#utility.yul\":19230:19232   */\n      0x14\n        /* \"#utility.yul\":19225:19228   */\n      dup4\n        /* \"#utility.yul\":19166:19233   */\n      tag_312\n      jump\t// in\n    tag_559:\n        /* \"#utility.yul\":19159:19233   */\n      swap2\n      pop\n        /* \"#utility.yul\":19242:19335   */\n      tag_560\n        /* \"#utility.yul\":19331:19334   */\n      dup3\n        /* \"#utility.yul\":19242:19335   */\n      tag_335\n      jump\t// in\n    tag_560:\n        /* \"#utility.yul\":19360:19362   */\n      0x20\n        /* \"#utility.yul\":19355:19358   */\n      dup3\n        /* \"#utility.yul\":19351:19363   */\n      add\n        /* \"#utility.yul\":19344:19363   */\n      swap1\n      pop\n        /* \"#utility.yul\":19003:19369   */\n      swap2\n      swap1\n      pop\n      jump\t// out\n        /* \"#utility.yul\":19375:19794   */\n    tag_221:\n        /* \"#utility.yul\":19541:19545   */\n      0x00\n        /* \"#utility.yul\":19579:19581   */\n      0x20\n        /* \"#utility.yul\":19568:19577   */\n      dup3\n        /* \"#utility.yul\":19564:19582   */\n      add\n        /* \"#utility.yul\":19556:19582   */\n      swap1\n      pop\n        /* \"#utility.yul\":19628:19637   */\n      dup2\n        /* \"#utility.yul\":19622:19626   */\n      dup2\n        /* \"#utility.yul\":19618:19638   */\n      sub\n        /* \"#utility.yul\":19614:19615   */\n      0x00\n        /* \"#utility.yul\":19603:19612   */\n      dup4\n        /* \"#utility.yul\":19599:19616   */\n      add\n        /* \"#utility.yul\":19592:19639   */\n      mstore\n        /* \"#utility.yul\":19656:19787   */\n      tag_562\n        /* \"#utility.yul\":19782:19786   */\n      dup2\n        /* \"#utility.yul\":19656:19787   */\n      tag_336\n      jump\t// in\n    tag_562:\n        /* \"#utility.yul\":19648:19787   */\n      swap1\n      pop\n        /* \"#utility.yul\":19375:19794   */\n      swap2\n      swap1\n      pop\n      jump\t// out\n        /* \"#utility.yul\":19800:20132   */\n    tag_227:\n        /* \"#utility.yul\":19921:19925   */\n      0x00\n        /* \"#utility.yul\":19959:19961   */\n      0x40\n        /* \"#utility.yul\":19948:19957   */\n      dup3\n        /* \"#utility.yul\":19944:19962   */\n      add\n        /* \"#utility.yul\":19936:19962   */\n      swap1\n      pop\n        /* \"#utility.yul\":19972:20043   */\n      tag_564\n        /* \"#utility.yul\":20040:20041   */\n      0x00\n        /* \"#utility.yul\":20029:20038   */\n      dup4\n        /* \"#utility.yul\":20025:20042   */\n      add\n        /* \"#utility.yul\":20016:20022   */\n      dup6\n        /* \"#utility.yul\":19972:20043   */\n      tag_315\n      jump\t// in\n    tag_564:\n        /* \"#utility.yul\":20053:20125   */\n      tag_565\n        /* \"#utility.yul\":20121:20123   */\n      0x20\n        /* \"#utility.yul\":20110:20119   */\n      dup4\n        /* \"#utility.yul\":20106:20124   */\n      add\n        /* \"#utility.yul\":20097:20103   */\n      dup5\n        /* \"#utility.yul\":20053:20125   */\n      tag_295\n      jump\t// in\n    tag_565:\n        /* \"#utility.yul\":19800:20132   */\n      swap4\n      swap3\n      pop\n      pop\n      pop\n      jump\t// out\n        /* \"#utility.yul\":20138:20470   */\n    tag_281:\n        /* \"#utility.yul\":20259:20263   */\n      0x00\n        /* \"#utility.yul\":20297:20299   */\n      0x40\n        /* \"#utility.yul\":20286:20295   */\n      dup3\n        /* \"#utility.yul\":20282:20300   */\n      add\n        /* \"#utility.yul\":20274:20300   */\n      swap1\n      pop\n        /* \"#utility.yul\":20310:20381   */\n      tag_567\n        /* \"#utility.yul\":20378:20379   */\n      0x00\n        /* \"#utility.yul\":20367:20376   */\n      dup4\n        /* \"#utility.yul\":20363:20380   */\n      add\n        /* \"#utility.yul\":20354:20360   */\n      dup6\n        /* \"#utility.yul\":20310:20381   */\n      tag_315\n      jump\t// in\n    tag_567:\n        /* \"#utility.yul\":20391:20463   */\n      tag_568\n        /* \"#utility.yul\":20459:20461   */\n      0x20\n        /* \"#utility.yul\":20448:20457   */\n      dup4\n        /* \"#utility.yul\":20444:20462   */\n      add\n        /* \"#utility.yul\":20435:20441   */\n      dup5\n        /* \"#utility.yul\":20391:20463   */\n      tag_299\n      jump\t// in\n    tag_568:\n        /* \"#utility.yul\":20138:20470   */\n      swap4\n      swap3\n      pop\n      pop\n      pop\n      jump\t// out\n\n    auxdata: 0xa26469706673582212203122113be70ffbcfa896301971a9ee8c4aea628265c5674c75ed26967e7e4c9864736f6c63430008170033\n}\n",
				"bytecode": {
					"linkReferences": {},
					"object": "608060405234801562000010575f80fd5b50604051620028a0380380620028a083398181016040528101906200003691906200062f565b620000687fd1473398bb66596de5d1ea1fc8e303ff2ac23265adc9144b1b52065dc4f0934b856200017e60201b60201c565b6200007c5f801b826200017e60201b60201c565b620000ce7fd1473398bb66596de5d1ea1fc8e303ff2ac23265adc9144b1b52065dc4f0934b7fa49807205ce4d355092ef5a8a18f56e8913cf4a201fbe287825b095693c21775620001b860201b60201c565b5f5b835181101562000165576002848281518110620000f257620000f1620006bd565b5b6020026020010151908060018154018082558091505060019003905f5260205f20015f9091909190916101000a81548173ffffffffffffffffffffffffffffffffffffffff021916908373ffffffffffffffffffffffffffffffffffffffff1602179055508080600101915050620000d0565b50816007819055505f6008819055505050505062000740565b6200018f826200021860201b60201c565b620001a0816200023460201b60201c565b620001b283836200025860201b60201c565b50505050565b5f620001ca836200021860201b60201c565b9050815f808581526020019081526020015f20600101819055508181847fbd79b86ffe0ab8e8776151514217cd7cacd52c909f66475c3af44e129f0b00ff60405160405180910390a4505050565b5f805f8381526020019081526020015f20600101549050919050565b6200025581620002496200035360201b60201c565b6200035a60201b60201c565b50565b5f6200026b8383620003b660201b60201c565b620003495760015f808581526020019081526020015f205f015f8473ffffffffffffffffffffffffffffffffffffffff1673ffffffffffffffffffffffffffffffffffffffff1681526020019081526020015f205f6101000a81548160ff021916908315150217905550620002e56200035360201b60201c565b73ffffffffffffffffffffffffffffffffffffffff168273ffffffffffffffffffffffffffffffffffffffff16847f2f8788117e7eff1d82e926ec794901d17c78024a50270940304540a733656f0d60405160405180910390a4600190506200034d565b5f90505b92915050565b5f33905090565b6200036c8282620003b660201b60201c565b620003b25780826040517fe2517d3f000000000000000000000000000000000000000000000000000000008152600401620003a992919062000715565b60405180910390fd5b5050565b5f805f8481526020019081526020015f205f015f8373ffffffffffffffffffffffffffffffffffffffff1673ffffffffffffffffffffffffffffffffffffffff1681526020019081526020015f205f9054906101000a900460ff16905092915050565b5f604051905090565b5f80fd5b5f80fd5b5f73ffffffffffffffffffffffffffffffffffffffff82169050919050565b5f62000455826200042a565b9050919050565b620004678162000449565b811462000472575f80fd5b50565b5f8151905062000485816200045c565b92915050565b5f80fd5b5f601f19601f8301169050919050565b7f4e487b71000000000000000000000000000000000000000000000000000000005f52604160045260245ffd5b620004d7826200048f565b810181811067ffffffffffffffff82111715620004f957620004f86200049f565b5b80604052505050565b5f6200050d62000419565b90506200051b8282620004cc565b919050565b5f67ffffffffffffffff8211156200053d576200053c6200049f565b5b602082029050602081019050919050565b5f80fd5b5f62000568620005628462000520565b62000502565b905080838252602082019050602084028301858111156200058e576200058d6200054e565b5b835b81811015620005bb5780620005a6888262000475565b84526020840193505060208101905062000590565b5050509392505050565b5f82601f830112620005dc57620005db6200048b565b5b8151620005ee84826020860162000552565b91505092915050565b5f819050919050565b6200060b81620005f7565b811462000616575f80fd5b50565b5f81519050620006298162000600565b92915050565b5f805f80608085870312156200064a576200064962000422565b5b5f620006598782880162000475565b945050602085015167ffffffffffffffff8111156200067d576200067c62000426565b5b6200068b87828801620005c5565b93505060406200069e8782880162000619565b9250506060620006b18782880162000475565b91505092959194509250565b7f4e487b71000000000000000000000000000000000000000000000000000000005f52603260045260245ffd5b620006f58162000449565b82525050565b5f819050919050565b6200070f81620006fb565b82525050565b5f6040820190506200072a5f830185620006ea565b62000739602083018462000704565b9392505050565b612152806200074e5f395ff3fe608060405234801561000f575f80fd5b506004361061014b575f3560e01c806390805c34116100c1578063bd998cb31161007a578063bd998cb31461039b578063be354836146103b9578063c68dbb37146103e9578063d547741f14610419578063f3fef3a314610435578063f4457fab146104515761014b565b806390805c34146102c757806391d14854146102e35780639e4a936914610313578063a217fddf14610331578063a356efc41461034f578063bb39a9601461037f5761014b565b806330e5065e1161011357806330e5065e1461020557806336568abe1461023557806347e7ef2414610251578063523820a11461026d5780635e5a24a41461028b57806375b238fc146102a95761014b565b806301ffc9a71461014f57806306f34c2f1461017f5780630ba36dcd14610189578063248a9ca3146101b95780632f2ff15d146101e9575b5f80fd5b61016960048036038101906101649190611694565b61046f565b60405161017691906116d9565b60405180910390f35b6101876104e8565b005b6101a3600480360381019061019e919061174c565b61054f565b6040516101b0919061178f565b60405180910390f35b6101d360048036038101906101ce91906117db565b610569565b6040516101e09190611815565b60405180910390f35b61020360048036038101906101fe919061182e565b610585565b005b61021f600480360381019061021a919061174c565b6105a7565b60405161022c919061178f565b60405180910390f35b61024f600480360381019061024a919061182e565b6105bc565b005b61026b60048036038101906102669190611896565b610637565b005b610275610858565b604051610282919061178f565b60405180910390f35b61029361085e565b6040516102a09190611815565b60405180910390f35b6102b1610882565b6040516102be9190611815565b60405180910390f35b6102e160048036038101906102dc91906118d4565b6108a6565b005b6102fd60048036038101906102f8919061182e565b610950565b60405161030a91906116d9565b60405180910390f35b61031b6109b3565b604051610328919061178f565b60405180910390f35b610339610aa6565b6040516103469190611815565b60405180910390f35b61036960048036038101906103649190611896565b610aac565b604051610376919061178f565b60405180910390f35b6103996004803603810190610394919061194d565b610cd2565b005b6103a3610d47565b6040516103b0919061178f565b60405180910390f35b6103d360048036038101906103ce919061174c565b610d4d565b6040516103e0919061178f565b60405180910390f35b61040360048036038101906103fe91906119b1565b610d62565b6040516104109190611a37565b60405180910390f35b610433600480360381019061042e919061182e565b610d9d565b005b61044f600480360381019061044a9190611896565b610dbf565b005b610459611161565b604051610466919061178f565b60405180910390f35b5f7f7965db0b000000000000000000000000000000000000000000000000000000007bffffffffffffffffffffffffffffffffffffffffffffffffffffffff1916827bffffffffffffffffffffffffffffffffffffffffffffffffffffffff191614806104e157506104e082611167565b5b9050919050565b7fd1473398bb66596de5d1ea1fc8e303ff2ac23265adc9144b1b52065dc4f0934b610512816111d0565b5f61051b6111e4565b90505f81111561054b575f6064600754836105369190611a7d565b6105409190611aeb565b905080600881905550505b5050565b6005602052805f5260405f205f91509050805f0154905081565b5f805f8381526020019081526020015f20600101549050919050565b61058e82610569565b610597816111d0565b6105a183836111e8565b50505050565b6003602052805f5260405f205f915090505481565b6105c46112d1565b73ffffffffffffffffffffffffffffffffffffffff168173ffffffffffffffffffffffffffffffffffffffff1614610628576040517f6697b23200000000000000000000000000000000000000000000000000000000815260040160405180910390fd5b61063282826112d8565b505050565b610640826113c1565b61067f576040517f08c379a000000000000000000000000000000000000000000000000000000000815260040161067690611b75565b60405180910390fd5b8173ffffffffffffffffffffffffffffffffffffffff166323b872dd6106a36112d1565b30846040518463ffffffff1660e01b81526004016106c393929190611ba2565b6020604051808303815f875af11580156106df573d5f803e3d5ffd5b505050506040513d601f19601f820116820180604052508101906107039190611c01565b508060035f8473ffffffffffffffffffffffffffffffffffffffff1673ffffffffffffffffffffffffffffffffffffffff1681526020019081526020015f205f8282546107509190611c2c565b925050819055506107618282611463565b60055f61076c6112d1565b73ffffffffffffffffffffffffffffffffffffffff1673ffffffffffffffffffffffffffffffffffffffff1681526020019081526020015f205f015f8282546107b59190611c2c565b925050819055508060055f6107c86112d1565b73ffffffffffffffffffffffffffffffffffffffff1673ffffffffffffffffffffffffffffffffffffffff1681526020019081526020015f206001015f8473ffffffffffffffffffffffffffffffffffffffff1673ffffffffffffffffffffffffffffffffffffffff1681526020019081526020015f205f82825461084d9190611c2c565b925050819055505050565b60085481565b7fd1473398bb66596de5d1ea1fc8e303ff2ac23265adc9144b1b52065dc4f0934b81565b7fa49807205ce4d355092ef5a8a18f56e8913cf4a201fbe287825b095693c2177581565b7fa49807205ce4d355092ef5a8a18f56e8913cf4a201fbe287825b095693c217756108d0816111d0565b8160045f8573ffffffffffffffffffffffffffffffffffffffff1673ffffffffffffffffffffffffffffffffffffffff1681526020019081526020015f205f6101000a81548173ffffffffffffffffffffffffffffffffffffffff021916908373ffffffffffffffffffffffffffffffffffffffff160217905550505050565b5f805f8481526020019081526020015f205f015f8373ffffffffffffffffffffffffffffffffffffffff1673ffffffffffffffffffffffffffffffffffffffff1681526020019081526020015f205f9054906101000a900460ff16905092915050565b5f805f90505f5b600280549050811015610a9e57610a84600282815481106109de576109dd611c5f565b5b905f5260205f20015f9054906101000a900473ffffffffffffffffffffffffffffffffffffffff1660035f60028581548110610a1d57610a1c611c5f565b5b905f5260205f20015f9054906101000a900473ffffffffffffffffffffffffffffffffffffffff1673ffffffffffffffffffffffffffffffffffffffff1673ffffffffffffffffffffffffffffffffffffffff1681526020019081526020015f2054611463565b82610a8f9190611c2c565b915080806001019150506109ba565b508091505090565b5f801b81565b5f8060045f8573ffffffffffffffffffffffffffffffffffffffff1673ffffffffffffffffffffffffffffffffffffffff1681526020019081526020015f205f9054906101000a900473ffffffffffffffffffffffffffffffffffffffff1690505f73ffffffffffffffffffffffffffffffffffffffff168173ffffffffffffffffffffffffffffffffffffffff1603610b7b576040517f08c379a0000000000000000000000000000000000000000000000000000000008152600401610b7290611cd6565b60405180910390fd5b5f8173ffffffffffffffffffffffffffffffffffffffff1663feaf968c6040518163ffffffff1660e01b815260040160a060405180830381865afa158015610bc5573d5f803e3d5ffd5b505050506040513d601f19601f82011682018060405250810190610be99190611d7a565b5050509150505f8113610c31576040517f08c379a0000000000000000000000000000000000000000000000000000000008152600401610c2890611e3b565b60405180910390fd5b5f8273ffffffffffffffffffffffffffffffffffffffff1663313ce5676040518163ffffffff1660e01b8152600401602060405180830381865afa158015610c7b573d5f803e3d5ffd5b505050506040513d601f19601f82011682018060405250810190610c9f9190611e8f565b60ff16905080600a610cb19190611fe9565b8286610cbd9190611a7d565b610cc79190611aeb565b935050505092915050565b7fd1473398bb66596de5d1ea1fc8e303ff2ac23265adc9144b1b52065dc4f0934b610cfc816111d0565b5f610d078484611463565b90505f610d148787611463565b90505f8183610d239190612033565b90508060095f828254610d369190611c2c565b925050819055505050505050505050565b60095481565b6006602052805f5260405f205f915090505481565b60028181548110610d71575f80fd5b905f5260205f20015f915054906101000a900473ffffffffffffffffffffffffffffffffffffffff1681565b610da682610569565b610daf816111d0565b610db983836112d8565b50505050565b8060055f610dcb6112d1565b73ffffffffffffffffffffffffffffffffffffffff1673ffffffffffffffffffffffffffffffffffffffff1681526020019081526020015f206001015f8473ffffffffffffffffffffffffffffffffffffffff1673ffffffffffffffffffffffffffffffffffffffff1681526020019081526020015f20541015610e84576040517f08c379a0000000000000000000000000000000000000000000000000000000008152600401610e7b906120b0565b60405180910390fd5b8060055f610e906112d1565b73ffffffffffffffffffffffffffffffffffffffff1673ffffffffffffffffffffffffffffffffffffffff1681526020019081526020015f206001015f8473ffffffffffffffffffffffffffffffffffffffff1673ffffffffffffffffffffffffffffffffffffffff1681526020019081526020015f205f828254610f159190612033565b925050819055508060035f8473ffffffffffffffffffffffffffffffffffffffff1673ffffffffffffffffffffffffffffffffffffffff1681526020019081526020015f205f828254610f689190612033565b925050819055508173ffffffffffffffffffffffffffffffffffffffff1663a9059cbb610f936112d1565b836040518363ffffffff1660e01b8152600401610fb19291906120ce565b6020604051808303815f875af1158015610fcd573d5f803e3d5ffd5b505050506040513d601f19601f82011682018060405250810190610ff19190611c01565b505f611003610ffe6112d1565b611553565b90508060065f6110116112d1565b73ffffffffffffffffffffffffffffffffffffffff1673ffffffffffffffffffffffffffffffffffffffff1681526020019081526020015f205f8282546110589190611c2c565b925050819055506110698383611463565b60055f6110746112d1565b73ffffffffffffffffffffffffffffffffffffffff1673ffffffffffffffffffffffffffffffffffffffff1681526020019081526020015f205f015f8282546110bd9190612033565b925050819055508160055f6110d06112d1565b73ffffffffffffffffffffffffffffffffffffffff1673ffffffffffffffffffffffffffffffffffffffff1681526020019081526020015f206001015f8573ffffffffffffffffffffffffffffffffffffffff1673ffffffffffffffffffffffffffffffffffffffff1681526020019081526020015f205f8282546111559190612033565b92505081905550505050565b60075481565b5f7f01ffc9a7000000000000000000000000000000000000000000000000000000007bffffffffffffffffffffffffffffffffffffffffffffffffffffffff1916827bffffffffffffffffffffffffffffffffffffffffffffffffffffffff1916149050919050565b6111e1816111dc6112d1565b6115ea565b50565b5f90565b5f6111f38383610950565b6112c75760015f808581526020019081526020015f205f015f8473ffffffffffffffffffffffffffffffffffffffff1673ffffffffffffffffffffffffffffffffffffffff1681526020019081526020015f205f6101000a81548160ff0219169083151502179055506112646112d1565b73ffffffffffffffffffffffffffffffffffffffff168273ffffffffffffffffffffffffffffffffffffffff16847f2f8788117e7eff1d82e926ec794901d17c78024a50270940304540a733656f0d60405160405180910390a4600190506112cb565b5f90505b92915050565b5f33905090565b5f6112e38383610950565b156113b7575f805f8581526020019081526020015f205f015f8473ffffffffffffffffffffffffffffffffffffffff1673ffffffffffffffffffffffffffffffffffffffff1681526020019081526020015f205f6101000a81548160ff0219169083151502179055506113546112d1565b73ffffffffffffffffffffffffffffffffffffffff168273ffffffffffffffffffffffffffffffffffffffff16847ff6391f5c32d9c69d2a47ea670b442974b53935d1edc7fd64eb21e047a839171b60405160405180910390a4600190506113bb565b5f90505b92915050565b5f805f90505b600280549050811015611459578273ffffffffffffffffffffffffffffffffffffffff16600282815481106113ff576113fe611c5f565b5b905f5260205f20015f9054906101000a900473ffffffffffffffffffffffffffffffffffffffff1673ffffffffffffffffffffffffffffffffffffffff160361144c57600191505061145e565b80806001019150506113c7565b505f90505b919050565b5f8060045f8573ffffffffffffffffffffffffffffffffffffffff1673ffffffffffffffffffffffffffffffffffffffff1681526020019081526020015f205f9054906101000a900473ffffffffffffffffffffffffffffffffffffffff1690505f8173ffffffffffffffffffffffffffffffffffffffff1663feaf968c6040518163ffffffff1660e01b815260040160a060405180830381865afa15801561150e573d5f803e3d5ffd5b505050506040513d601f19601f820116820180604052508101906115329190611d7a565b5050509150505f84826115459190611a7d565b905080935050505092915050565b5f8061155d6109b3565b670de0b6b3a764000060055f8673ffffffffffffffffffffffffffffffffffffffff1673ffffffffffffffffffffffffffffffffffffffff1681526020019081526020015f205f01546115b09190611a7d565b6115ba9190611aeb565b90505f670de0b6b3a7640000826009546115d49190611a7d565b6115de9190611aeb565b90508092505050919050565b6115f48282610950565b6116375780826040517fe2517d3f00000000000000000000000000000000000000000000000000000000815260040161162e9291906120f5565b60405180910390fd5b5050565b5f80fd5b5f7fffffffff0000000000000000000000000000000000000000000000000000000082169050919050565b6116738161163f565b811461167d575f80fd5b50565b5f8135905061168e8161166a565b92915050565b5f602082840312156116a9576116a861163b565b5b5f6116b684828501611680565b91505092915050565b5f8115159050919050565b6116d3816116bf565b82525050565b5f6020820190506116ec5f8301846116ca565b92915050565b5f73ffffffffffffffffffffffffffffffffffffffff82169050919050565b5f61171b826116f2565b9050919050565b61172b81611711565b8114611735575f80fd5b50565b5f8135905061174681611722565b92915050565b5f602082840312156117615761176061163b565b5b5f61176e84828501611738565b91505092915050565b5f819050919050565b61178981611777565b82525050565b5f6020820190506117a25f830184611780565b92915050565b5f819050919050565b6117ba816117a8565b81146117c4575f80fd5b50565b5f813590506117d5816117b1565b92915050565b5f602082840312156117f0576117ef61163b565b5b5f6117fd848285016117c7565b91505092915050565b61180f816117a8565b82525050565b5f6020820190506118285f830184611806565b92915050565b5f80604083850312156118445761184361163b565b5b5f611851858286016117c7565b925050602061186285828601611738565b9150509250929050565b61187581611777565b811461187f575f80fd5b50565b5f813590506118908161186c565b92915050565b5f80604083850312156118ac576118ab61163b565b5b5f6118b985828601611738565b92505060206118ca85828601611882565b9150509250929050565b5f80604083850312156118ea576118e961163b565b5b5f6118f785828601611738565b925050602061190885828601611738565b9150509250929050565b5f61191c82611711565b9050919050565b61192c81611912565b8114611936575f80fd5b50565b5f8135905061194781611923565b92915050565b5f805f80608085870312156119655761196461163b565b5b5f61197287828801611939565b945050602061198387828801611882565b935050604061199487828801611939565b92505060606119a587828801611882565b91505092959194509250565b5f602082840312156119c6576119c561163b565b5b5f6119d384828501611882565b91505092915050565b5f819050919050565b5f6119ff6119fa6119f5846116f2565b6119dc565b6116f2565b9050919050565b5f611a10826119e5565b9050919050565b5f611a2182611a06565b9050919050565b611a3181611a17565b82525050565b5f602082019050611a4a5f830184611a28565b92915050565b7f4e487b71000000000000000000000000000000000000000000000000000000005f52601160045260245ffd5b5f611a8782611777565b9150611a9283611777565b9250828202611aa081611777565b91508282048414831517611ab757611ab6611a50565b5b5092915050565b7f4e487b71000000000000000000000000000000000000000000000000000000005f52601260045260245ffd5b5f611af582611777565b9150611b0083611777565b925082611b1057611b0f611abe565b5b828204905092915050565b5f82825260208201905092915050565b7f4173736574206e6f7420737570706f72746564000000000000000000000000005f82015250565b5f611b5f601383611b1b565b9150611b6a82611b2b565b602082019050919050565b5f6020820190508181035f830152611b8c81611b53565b9050919050565b611b9c81611711565b82525050565b5f606082019050611bb55f830186611b93565b611bc26020830185611b93565b611bcf6040830184611780565b949350505050565b611be0816116bf565b8114611bea575f80fd5b50565b5f81519050611bfb81611bd7565b92915050565b5f60208284031215611c1657611c1561163b565b5b5f611c2384828501611bed565b91505092915050565b5f611c3682611777565b9150611c4183611777565b9250828201905080821115611c5957611c58611a50565b5b92915050565b7f4e487b71000000000000000000000000000000000000000000000000000000005f52603260045260245ffd5b7f4f7261636c65206e6f742073657420666f7220617373657400000000000000005f82015250565b5f611cc0601883611b1b565b9150611ccb82611c8c565b602082019050919050565b5f6020820190508181035f830152611ced81611cb4565b9050919050565b5f69ffffffffffffffffffff82169050919050565b611d1281611cf4565b8114611d1c575f80fd5b50565b5f81519050611d2d81611d09565b92915050565b5f819050919050565b611d4581611d33565b8114611d4f575f80fd5b50565b5f81519050611d6081611d3c565b92915050565b5f81519050611d748161186c565b92915050565b5f805f805f60a08688031215611d9357611d9261163b565b5b5f611da088828901611d1f565b9550506020611db188828901611d52565b9450506040611dc288828901611d66565b9350506060611dd388828901611d66565b9250506080611de488828901611d1f565b9150509295509295909350565b7f496e76616c6964207072696365206461746100000000000000000000000000005f82015250565b5f611e25601283611b1b565b9150611e3082611df1565b602082019050919050565b5f6020820190508181035f830152611e5281611e19565b9050919050565b5f60ff82169050919050565b611e6e81611e59565b8114611e78575f80fd5b50565b5f81519050611e8981611e65565b92915050565b5f60208284031215611ea457611ea361163b565b5b5f611eb184828501611e7b565b91505092915050565b5f8160011c9050919050565b5f808291508390505b6001851115611f0f57808604811115611eeb57611eea611a50565b5b6001851615611efa5780820291505b8081029050611f0885611eba565b9450611ecf565b94509492505050565b5f82611f275760019050611fe2565b81611f34575f9050611fe2565b8160018114611f4a5760028114611f5457611f83565b6001915050611fe2565b60ff841115611f6657611f65611a50565b5b8360020a915084821115611f7d57611f7c611a50565b5b50611fe2565b5060208310610133831016604e8410600b8410161715611fb85782820a905083811115611fb357611fb2611a50565b5b611fe2565b611fc58484846001611ec6565b92509050818404811115611fdc57611fdb611a50565b5b81810290505b9392505050565b5f611ff382611777565b9150611ffe83611777565b925061202b7fffffffffffffffffffffffffffffffffffffffffffffffffffffffffffffffff8484611f18565b905092915050565b5f61203d82611777565b915061204883611777565b92508282039050818111156120605761205f611a50565b5b92915050565b7f496e73756666696369656e742062616c616e63650000000000000000000000005f82015250565b5f61209a601483611b1b565b91506120a582612066565b602082019050919050565b5f6020820190508181035f8301526120c78161208e565b9050919050565b5f6040820190506120e15f830185611b93565b6120ee6020830184611780565b9392505050565b5f6040820190506121085f830185611b93565b6121156020830184611806565b939250505056fea26469706673582212203122113be70ffbcfa896301971a9ee8c4aea628265c5674c75ed26967e7e4c9864736f6c63430008170033",
					"opcodes": "PUSH1 0x80 PUSH1 0x40 MSTORE CALLVALUE DUP1 ISZERO PUSH3 0x10 JUMPI PUSH0 DUP1 REVERT JUMPDEST POP PUSH1 0x40 MLOAD PUSH3 0x28A0 CODESIZE SUB DUP1 PUSH3 0x28A0 DUP4 CODECOPY DUP2 DUP2 ADD PUSH1 0x40 MSTORE DUP2 ADD SWAP1 PUSH3 0x36 SWAP2 SWAP1 PUSH3 0x62F JUMP JUMPDEST PUSH3 0x68 PUSH32 0xD1473398BB66596DE5D1EA1FC8E303FF2AC23265ADC9144B1B52065DC4F0934B DUP6 PUSH3 0x17E PUSH1 0x20 SHL PUSH1 0x20 SHR JUMP JUMPDEST PUSH3 0x7C PUSH0 DUP1 SHL DUP3 PUSH3 0x17E PUSH1 0x20 SHL PUSH1 0x20 SHR JUMP JUMPDEST PUSH3 0xCE PUSH32 0xD1473398BB66596DE5D1EA1FC8E303FF2AC23265ADC9144B1B52065DC4F0934B PUSH32 0xA49807205CE4D355092EF5A8A18F56E8913CF4A201FBE287825B095693C21775 PUSH3 0x1B8 PUSH1 0x20 SHL PUSH1 0x20 SHR JUMP JUMPDEST PUSH0 JUMPDEST DUP4 MLOAD DUP2 LT ISZERO PUSH3 0x165 JUMPI PUSH1 0x2 DUP5 DUP3 DUP2 MLOAD DUP2 LT PUSH3 0xF2 JUMPI PUSH3 0xF1 PUSH3 0x6BD JUMP JUMPDEST JUMPDEST PUSH1 0x20 MUL PUSH1 0x20 ADD ADD MLOAD SWAP1 DUP1 PUSH1 0x1 DUP2 SLOAD ADD DUP1 DUP3 SSTORE DUP1 SWAP2 POP POP PUSH1 0x1 SWAP1 SUB SWAP1 PUSH0 MSTORE PUSH1 0x20 PUSH0 KECCAK256 ADD PUSH0 SWAP1 SWAP2 SWAP1 SWAP2 SWAP1 SWAP2 PUSH2 0x100 EXP DUP2 SLOAD DUP2 PUSH20 0xFFFFFFFFFFFFFFFFFFFFFFFFFFFFFFFFFFFFFFFF MUL NOT AND SWAP1 DUP4 PUSH20 0xFFFFFFFFFFFFFFFFFFFFFFFFFFFFFFFFFFFFFFFF AND MUL OR SWAP1 SSTORE POP DUP1 DUP1 PUSH1 0x1 ADD SWAP2 POP POP PUSH3 0xD0 JUMP JUMPDEST POP DUP2 PUSH1 0x7 DUP2 SWAP1 SSTORE POP PUSH0 PUSH1 0x8 DUP2 SWAP1 SSTORE POP POP POP POP POP PUSH3 0x740 JUMP JUMPDEST PUSH3 0x18F DUP3 PUSH3 0x218 PUSH1 0x20 SHL PUSH1 0x20 SHR JUMP JUMPDEST PUSH3 0x1A0 DUP2 PUSH3 0x234 PUSH1 0x20 SHL PUSH1 0x20 SHR JUMP JUMPDEST PUSH3 0x1B2 DUP4 DUP4 PUSH3 0x258 PUSH1 0x20 SHL PUSH1 0x20 SHR JUMP JUMPDEST POP POP POP POP JUMP JUMPDEST PUSH0 PUSH3 0x1CA DUP4 PUSH3 0x218 PUSH1 0x20 SHL PUSH1 0x20 SHR JUMP JUMPDEST SWAP1 POP DUP2 PUSH0 DUP1 DUP6 DUP2 MSTORE PUSH1 0x20 ADD SWAP1 DUP2 MSTORE PUSH1 0x20 ADD PUSH0 KECCAK256 PUSH1 0x1 ADD DUP2 SWAP1 SSTORE POP DUP2 DUP2 DUP5 PUSH32 0xBD79B86FFE0AB8E8776151514217CD7CACD52C909F66475C3AF44E129F0B00FF PUSH1 0x40 MLOAD PUSH1 0x40 MLOAD DUP1 SWAP2 SUB SWAP1 LOG4 POP POP POP JUMP JUMPDEST PUSH0 DUP1 PUSH0 DUP4 DUP2 MSTORE PUSH1 0x20 ADD SWAP1 DUP2 MSTORE PUSH1 0x20 ADD PUSH0 KECCAK256 PUSH1 0x1 ADD SLOAD SWAP1 POP SWAP2 SWAP1 POP JUMP JUMPDEST PUSH3 0x255 DUP2 PUSH3 0x249 PUSH3 0x353 PUSH1 0x20 SHL PUSH1 0x20 SHR JUMP JUMPDEST PUSH3 0x35A PUSH1 0x20 SHL PUSH1 0x20 SHR JUMP JUMPDEST POP JUMP JUMPDEST PUSH0 PUSH3 0x26B DUP4 DUP4 PUSH3 0x3B6 PUSH1 0x20 SHL PUSH1 0x20 SHR JUMP JUMPDEST PUSH3 0x349 JUMPI PUSH1 0x1 PUSH0 DUP1 DUP6 DUP2 MSTORE PUSH1 0x20 ADD SWAP1 DUP2 MSTORE PUSH1 0x20 ADD PUSH0 KECCAK256 PUSH0 ADD PUSH0 DUP5 PUSH20 0xFFFFFFFFFFFFFFFFFFFFFFFFFFFFFFFFFFFFFFFF AND PUSH20 0xFFFFFFFFFFFFFFFFFFFFFFFFFFFFFFFFFFFFFFFF AND DUP2 MSTORE PUSH1 0x20 ADD SWAP1 DUP2 MSTORE PUSH1 0x20 ADD PUSH0 KECCAK256 PUSH0 PUSH2 0x100 EXP DUP2 SLOAD DUP2 PUSH1 0xFF MUL NOT AND SWAP1 DUP4 ISZERO ISZERO MUL OR SWAP1 SSTORE POP PUSH3 0x2E5 PUSH3 0x353 PUSH1 0x20 SHL PUSH1 0x20 SHR JUMP JUMPDEST PUSH20 0xFFFFFFFFFFFFFFFFFFFFFFFFFFFFFFFFFFFFFFFF AND DUP3 PUSH20 0xFFFFFFFFFFFFFFFFFFFFFFFFFFFFFFFFFFFFFFFF AND DUP5 PUSH32 0x2F8788117E7EFF1D82E926EC794901D17C78024A50270940304540A733656F0D PUSH1 0x40 MLOAD PUSH1 0x40 MLOAD DUP1 SWAP2 SUB SWAP1 LOG4 PUSH1 0x1 SWAP1 POP PUSH3 0x34D JUMP JUMPDEST PUSH0 SWAP1 POP JUMPDEST SWAP3 SWAP2 POP POP JUMP JUMPDEST PUSH0 CALLER SWAP1 POP SWAP1 JUMP JUMPDEST PUSH3 0x36C DUP3 DUP3 PUSH3 0x3B6 PUSH1 0x20 SHL PUSH1 0x20 SHR JUMP JUMPDEST PUSH3 0x3B2 JUMPI DUP1 DUP3 PUSH1 0x40 MLOAD PUSH32 0xE2517D3F00000000000000000000000000000000000000000000000000000000 DUP2 MSTORE PUSH1 0x4 ADD PUSH3 0x3A9 SWAP3 SWAP2 SWAP1 PUSH3 0x715 JUMP JUMPDEST PUSH1 0x40 MLOAD DUP1 SWAP2 SUB SWAP1 REVERT JUMPDEST POP POP JUMP JUMPDEST PUSH0 DUP1 PUSH0 DUP5 DUP2 MSTORE PUSH1 0x20 ADD SWAP1 DUP2 MSTORE PUSH1 0x20 ADD PUSH0 KECCAK256 PUSH0 ADD PUSH0 DUP4 PUSH20 0xFFFFFFFFFFFFFFFFFFFFFFFFFFFFFFFFFFFFFFFF AND PUSH20 0xFFFFFFFFFFFFFFFFFFFFFFFFFFFFFFFFFFFFFFFF AND DUP2 MSTORE PUSH1 0x20 ADD SWAP1 DUP2 MSTORE PUSH1 0x20 ADD PUSH0 KECCAK256 PUSH0 SWAP1 SLOAD SWAP1 PUSH2 0x100 EXP SWAP1 DIV PUSH1 0xFF AND SWAP1 POP SWAP3 SWAP2 POP POP JUMP JUMPDEST PUSH0 PUSH1 0x40 MLOAD SWAP1 POP SWAP1 JUMP JUMPDEST PUSH0 DUP1 REVERT JUMPDEST PUSH0 DUP1 REVERT JUMPDEST PUSH0 PUSH20 0xFFFFFFFFFFFFFFFFFFFFFFFFFFFFFFFFFFFFFFFF DUP3 AND SWAP1 POP SWAP2 SWAP1 POP JUMP JUMPDEST PUSH0 PUSH3 0x455 DUP3 PUSH3 0x42A JUMP JUMPDEST SWAP1 POP SWAP2 SWAP1 POP JUMP JUMPDEST PUSH3 0x467 DUP2 PUSH3 0x449 JUMP JUMPDEST DUP2 EQ PUSH3 0x472 JUMPI PUSH0 DUP1 REVERT JUMPDEST POP JUMP JUMPDEST PUSH0 DUP2 MLOAD SWAP1 POP PUSH3 0x485 DUP2 PUSH3 0x45C JUMP JUMPDEST SWAP3 SWAP2 POP POP JUMP JUMPDEST PUSH0 DUP1 REVERT JUMPDEST PUSH0 PUSH1 0x1F NOT PUSH1 0x1F DUP4 ADD AND SWAP1 POP SWAP2 SWAP1 POP JUMP JUMPDEST PUSH32 0x4E487B7100000000000000000000000000000000000000000000000000000000 PUSH0 MSTORE PUSH1 0x41 PUSH1 0x4 MSTORE PUSH1 0x24 PUSH0 REVERT JUMPDEST PUSH3 0x4D7 DUP3 PUSH3 0x48F JUMP JUMPDEST DUP2 ADD DUP2 DUP2 LT PUSH8 0xFFFFFFFFFFFFFFFF DUP3 GT OR ISZERO PUSH3 0x4F9 JUMPI PUSH3 0x4F8 PUSH3 0x49F JUMP JUMPDEST JUMPDEST DUP1 PUSH1 0x40 MSTORE POP POP POP JUMP JUMPDEST PUSH0 PUSH3 0x50D PUSH3 0x419 JUMP JUMPDEST SWAP1 POP PUSH3 0x51B DUP3 DUP3 PUSH3 0x4CC JUMP JUMPDEST SWAP2 SWAP1 POP JUMP JUMPDEST PUSH0 PUSH8 0xFFFFFFFFFFFFFFFF DUP3 GT ISZERO PUSH3 0x53D JUMPI PUSH3 0x53C PUSH3 0x49F JUMP JUMPDEST JUMPDEST PUSH1 0x20 DUP3 MUL SWAP1 POP PUSH1 0x20 DUP2 ADD SWAP1 POP SWAP2 SWAP1 POP JUMP JUMPDEST PUSH0 DUP1 REVERT JUMPDEST PUSH0 PUSH3 0x568 PUSH3 0x562 DUP5 PUSH3 0x520 JUMP JUMPDEST PUSH3 0x502 JUMP JUMPDEST SWAP1 POP DUP1 DUP4 DUP3 MSTORE PUSH1 0x20 DUP3 ADD SWAP1 POP PUSH1 0x20 DUP5 MUL DUP4 ADD DUP6 DUP2 GT ISZERO PUSH3 0x58E JUMPI PUSH3 0x58D PUSH3 0x54E JUMP JUMPDEST JUMPDEST DUP4 JUMPDEST DUP2 DUP2 LT ISZERO PUSH3 0x5BB JUMPI DUP1 PUSH3 0x5A6 DUP9 DUP3 PUSH3 0x475 JUMP JUMPDEST DUP5 MSTORE PUSH1 0x20 DUP5 ADD SWAP4 POP POP PUSH1 0x20 DUP2 ADD SWAP1 POP PUSH3 0x590 JUMP JUMPDEST POP POP POP SWAP4 SWAP3 POP POP POP JUMP JUMPDEST PUSH0 DUP3 PUSH1 0x1F DUP4 ADD SLT PUSH3 0x5DC JUMPI PUSH3 0x5DB PUSH3 0x48B JUMP JUMPDEST JUMPDEST DUP2 MLOAD PUSH3 0x5EE DUP5 DUP3 PUSH1 0x20 DUP7 ADD PUSH3 0x552 JUMP JUMPDEST SWAP2 POP POP SWAP3 SWAP2 POP POP JUMP JUMPDEST PUSH0 DUP2 SWAP1 POP SWAP2 SWAP1 POP JUMP JUMPDEST PUSH3 0x60B DUP2 PUSH3 0x5F7 JUMP JUMPDEST DUP2 EQ PUSH3 0x616 JUMPI PUSH0 DUP1 REVERT JUMPDEST POP JUMP JUMPDEST PUSH0 DUP2 MLOAD SWAP1 POP PUSH3 0x629 DUP2 PUSH3 0x600 JUMP JUMPDEST SWAP3 SWAP2 POP POP JUMP JUMPDEST PUSH0 DUP1 PUSH0 DUP1 PUSH1 0x80 DUP6 DUP8 SUB SLT ISZERO PUSH3 0x64A JUMPI PUSH3 0x649 PUSH3 0x422 JUMP JUMPDEST JUMPDEST PUSH0 PUSH3 0x659 DUP8 DUP3 DUP9 ADD PUSH3 0x475 JUMP JUMPDEST SWAP5 POP POP PUSH1 0x20 DUP6 ADD MLOAD PUSH8 0xFFFFFFFFFFFFFFFF DUP2 GT ISZERO PUSH3 0x67D JUMPI PUSH3 0x67C PUSH3 0x426 JUMP JUMPDEST JUMPDEST PUSH3 0x68B DUP8 DUP3 DUP9 ADD PUSH3 0x5C5 JUMP JUMPDEST SWAP4 POP POP PUSH1 0x40 PUSH3 0x69E DUP8 DUP3 DUP9 ADD PUSH3 0x619 JUMP JUMPDEST SWAP3 POP POP PUSH1 0x60 PUSH3 0x6B1 DUP8 DUP3 DUP9 ADD PUSH3 0x475 JUMP JUMPDEST SWAP2 POP POP SWAP3 SWAP6 SWAP2 SWAP5 POP SWAP3 POP JUMP JUMPDEST PUSH32 0x4E487B7100000000000000000000000000000000000000000000000000000000 PUSH0 MSTORE PUSH1 0x32 PUSH1 0x4 MSTORE PUSH1 0x24 PUSH0 REVERT JUMPDEST PUSH3 0x6F5 DUP2 PUSH3 0x449 JUMP JUMPDEST DUP3 MSTORE POP POP JUMP JUMPDEST PUSH0 DUP2 SWAP1 POP SWAP2 SWAP1 POP JUMP JUMPDEST PUSH3 0x70F DUP2 PUSH3 0x6FB JUMP JUMPDEST DUP3 MSTORE POP POP JUMP JUMPDEST PUSH0 PUSH1 0x40 DUP3 ADD SWAP1 POP PUSH3 0x72A PUSH0 DUP4 ADD DUP6 PUSH3 0x6EA JUMP JUMPDEST PUSH3 0x739 PUSH1 0x20 DUP4 ADD DUP5 PUSH3 0x704 JUMP JUMPDEST SWAP4 SWAP3 POP POP POP JUMP JUMPDEST PUSH2 0x2152 DUP1 PUSH3 0x74E PUSH0 CODECOPY PUSH0 RETURN INVALID PUSH1 0x80 PUSH1 0x40 MSTORE CALLVALUE DUP1 ISZERO PUSH2 0xF JUMPI PUSH0 DUP1 REVERT JUMPDEST POP PUSH1 0x4 CALLDATASIZE LT PUSH2 0x14B JUMPI PUSH0 CALLDATALOAD PUSH1 0xE0 SHR DUP1 PUSH4 0x90805C34 GT PUSH2 0xC1 JUMPI DUP1 PUSH4 0xBD998CB3 GT PUSH2 0x7A JUMPI DUP1 PUSH4 0xBD998CB3 EQ PUSH2 0x39B JUMPI DUP1 PUSH4 0xBE354836 EQ PUSH2 0x3B9 JUMPI DUP1 PUSH4 0xC68DBB37 EQ PUSH2 0x3E9 JUMPI DUP1 PUSH4 0xD547741F EQ PUSH2 0x419 JUMPI DUP1 PUSH4 0xF3FEF3A3 EQ PUSH2 0x435 JUMPI DUP1 PUSH4 0xF4457FAB EQ PUSH2 0x451 JUMPI PUSH2 0x14B JUMP JUMPDEST DUP1 PUSH4 0x90805C34 EQ PUSH2 0x2C7 JUMPI DUP1 PUSH4 0x91D14854 EQ PUSH2 0x2E3 JUMPI DUP1 PUSH4 0x9E4A9369 EQ PUSH2 0x313 JUMPI DUP1 PUSH4 0xA217FDDF EQ PUSH2 0x331 JUMPI DUP1 PUSH4 0xA356EFC4 EQ PUSH2 0x34F JUMPI DUP1 PUSH4 0xBB39A960 EQ PUSH2 0x37F JUMPI PUSH2 0x14B JUMP JUMPDEST DUP1 PUSH4 0x30E5065E GT PUSH2 0x113 JUMPI DUP1 PUSH4 0x30E5065E EQ PUSH2 0x205 JUMPI DUP1 PUSH4 0x36568ABE EQ PUSH2 0x235 JUMPI DUP1 PUSH4 0x47E7EF24 EQ PUSH2 0x251 JUMPI DUP1 PUSH4 0x523820A1 EQ PUSH2 0x26D JUMPI DUP1 PUSH4 0x5E5A24A4 EQ PUSH2 0x28B JUMPI DUP1 PUSH4 0x75B238FC EQ PUSH2 0x2A9 JUMPI PUSH2 0x14B JUMP JUMPDEST DUP1 PUSH4 0x1FFC9A7 EQ PUSH2 0x14F JUMPI DUP1 PUSH4 0x6F34C2F EQ PUSH2 0x17F JUMPI DUP1 PUSH4 0xBA36DCD EQ PUSH2 0x189 JUMPI DUP1 PUSH4 0x248A9CA3 EQ PUSH2 0x1B9 JUMPI DUP1 PUSH4 0x2F2FF15D EQ PUSH2 0x1E9 JUMPI JUMPDEST PUSH0 DUP1 REVERT JUMPDEST PUSH2 0x169 PUSH1 0x4 DUP1 CALLDATASIZE SUB DUP2 ADD SWAP1 PUSH2 0x164 SWAP2 SWAP1 PUSH2 0x1694 JUMP JUMPDEST PUSH2 0x46F JUMP JUMPDEST PUSH1 0x40 MLOAD PUSH2 0x176 SWAP2 SWAP1 PUSH2 0x16D9 JUMP JUMPDEST PUSH1 0x40 MLOAD DUP1 SWAP2 SUB SWAP1 RETURN JUMPDEST PUSH2 0x187 PUSH2 0x4E8 JUMP JUMPDEST STOP JUMPDEST PUSH2 0x1A3 PUSH1 0x4 DUP1 CALLDATASIZE SUB DUP2 ADD SWAP1 PUSH2 0x19E SWAP2 SWAP1 PUSH2 0x174C JUMP JUMPDEST PUSH2 0x54F JUMP JUMPDEST PUSH1 0x40 MLOAD PUSH2 0x1B0 SWAP2 SWAP1 PUSH2 0x178F JUMP JUMPDEST PUSH1 0x40 MLOAD DUP1 SWAP2 SUB SWAP1 RETURN JUMPDEST PUSH2 0x1D3 PUSH1 0x4 DUP1 CALLDATASIZE SUB DUP2 ADD SWAP1 PUSH2 0x1CE SWAP2 SWAP1 PUSH2 0x17DB JUMP JUMPDEST PUSH2 0x569 JUMP JUMPDEST PUSH1 0x40 MLOAD PUSH2 0x1E0 SWAP2 SWAP1 PUSH2 0x1815 JUMP JUMPDEST PUSH1 0x40 MLOAD DUP1 SWAP2 SUB SWAP1 RETURN JUMPDEST PUSH2 0x203 PUSH1 0x4 DUP1 CALLDATASIZE SUB DUP2 ADD SWAP1 PUSH2 0x1FE SWAP2 SWAP1 PUSH2 0x182E JUMP JUMPDEST PUSH2 0x585 JUMP JUMPDEST STOP JUMPDEST PUSH2 0x21F PUSH1 0x4 DUP1 CALLDATASIZE SUB DUP2 ADD SWAP1 PUSH2 0x21A SWAP2 SWAP1 PUSH2 0x174C JUMP JUMPDEST PUSH2 0x5A7 JUMP JUMPDEST PUSH1 0x40 MLOAD PUSH2 0x22C SWAP2 SWAP1 PUSH2 0x178F JUMP JUMPDEST PUSH1 0x40 MLOAD DUP1 SWAP2 SUB SWAP1 RETURN JUMPDEST PUSH2 0x24F PUSH1 0x4 DUP1 CALLDATASIZE SUB DUP2 ADD SWAP1 PUSH2 0x24A SWAP2 SWAP1 PUSH2 0x182E JUMP JUMPDEST PUSH2 0x5BC JUMP JUMPDEST STOP JUMPDEST PUSH2 0x26B PUSH1 0x4 DUP1 CALLDATASIZE SUB DUP2 ADD SWAP1 PUSH2 0x266 SWAP2 SWAP1 PUSH2 0x1896 JUMP JUMPDEST PUSH2 0x637 JUMP JUMPDEST STOP JUMPDEST PUSH2 0x275 PUSH2 0x858 JUMP JUMPDEST PUSH1 0x40 MLOAD PUSH2 0x282 SWAP2 SWAP1 PUSH2 0x178F JUMP JUMPDEST PUSH1 0x40 MLOAD DUP1 SWAP2 SUB SWAP1 RETURN JUMPDEST PUSH2 0x293 PUSH2 0x85E JUMP JUMPDEST PUSH1 0x40 MLOAD PUSH2 0x2A0 SWAP2 SWAP1 PUSH2 0x1815 JUMP JUMPDEST PUSH1 0x40 MLOAD DUP1 SWAP2 SUB SWAP1 RETURN JUMPDEST PUSH2 0x2B1 PUSH2 0x882 JUMP JUMPDEST PUSH1 0x40 MLOAD PUSH2 0x2BE SWAP2 SWAP1 PUSH2 0x1815 JUMP JUMPDEST PUSH1 0x40 MLOAD DUP1 SWAP2 SUB SWAP1 RETURN JUMPDEST PUSH2 0x2E1 PUSH1 0x4 DUP1 CALLDATASIZE SUB DUP2 ADD SWAP1 PUSH2 0x2DC SWAP2 SWAP1 PUSH2 0x18D4 JUMP JUMPDEST PUSH2 0x8A6 JUMP JUMPDEST STOP JUMPDEST PUSH2 0x2FD PUSH1 0x4 DUP1 CALLDATASIZE SUB DUP2 ADD SWAP1 PUSH2 0x2F8 SWAP2 SWAP1 PUSH2 0x182E JUMP JUMPDEST PUSH2 0x950 JUMP JUMPDEST PUSH1 0x40 MLOAD PUSH2 0x30A SWAP2 SWAP1 PUSH2 0x16D9 JUMP JUMPDEST PUSH1 0x40 MLOAD DUP1 SWAP2 SUB SWAP1 RETURN JUMPDEST PUSH2 0x31B PUSH2 0x9B3 JUMP JUMPDEST PUSH1 0x40 MLOAD PUSH2 0x328 SWAP2 SWAP1 PUSH2 0x178F JUMP JUMPDEST PUSH1 0x40 MLOAD DUP1 SWAP2 SUB SWAP1 RETURN JUMPDEST PUSH2 0x339 PUSH2 0xAA6 JUMP JUMPDEST PUSH1 0x40 MLOAD PUSH2 0x346 SWAP2 SWAP1 PUSH2 0x1815 JUMP JUMPDEST PUSH1 0x40 MLOAD DUP1 SWAP2 SUB SWAP1 RETURN JUMPDEST PUSH2 0x369 PUSH1 0x4 DUP1 CALLDATASIZE SUB DUP2 ADD SWAP1 PUSH2 0x364 SWAP2 SWAP1 PUSH2 0x1896 JUMP JUMPDEST PUSH2 0xAAC JUMP JUMPDEST PUSH1 0x40 MLOAD PUSH2 0x376 SWAP2 SWAP1 PUSH2 0x178F JUMP JUMPDEST PUSH1 0x40 MLOAD DUP1 SWAP2 SUB SWAP1 RETURN JUMPDEST PUSH2 0x399 PUSH1 0x4 DUP1 CALLDATASIZE SUB DUP2 ADD SWAP1 PUSH2 0x394 SWAP2 SWAP1 PUSH2 0x194D JUMP JUMPDEST PUSH2 0xCD2 JUMP JUMPDEST STOP JUMPDEST PUSH2 0x3A3 PUSH2 0xD47 JUMP JUMPDEST PUSH1 0x40 MLOAD PUSH2 0x3B0 SWAP2 SWAP1 PUSH2 0x178F JUMP JUMPDEST PUSH1 0x40 MLOAD DUP1 SWAP2 SUB SWAP1 RETURN JUMPDEST PUSH2 0x3D3 PUSH1 0x4 DUP1 CALLDATASIZE SUB DUP2 ADD SWAP1 PUSH2 0x3CE SWAP2 SWAP1 PUSH2 0x174C JUMP JUMPDEST PUSH2 0xD4D JUMP JUMPDEST PUSH1 0x40 MLOAD PUSH2 0x3E0 SWAP2 SWAP1 PUSH2 0x178F JUMP JUMPDEST PUSH1 0x40 MLOAD DUP1 SWAP2 SUB SWAP1 RETURN JUMPDEST PUSH2 0x403 PUSH1 0x4 DUP1 CALLDATASIZE SUB DUP2 ADD SWAP1 PUSH2 0x3FE SWAP2 SWAP1 PUSH2 0x19B1 JUMP JUMPDEST PUSH2 0xD62 JUMP JUMPDEST PUSH1 0x40 MLOAD PUSH2 0x410 SWAP2 SWAP1 PUSH2 0x1A37 JUMP JUMPDEST PUSH1 0x40 MLOAD DUP1 SWAP2 SUB SWAP1 RETURN JUMPDEST PUSH2 0x433 PUSH1 0x4 DUP1 CALLDATASIZE SUB DUP2 ADD SWAP1 PUSH2 0x42E SWAP2 SWAP1 PUSH2 0x182E JUMP JUMPDEST PUSH2 0xD9D JUMP JUMPDEST STOP JUMPDEST PUSH2 0x44F PUSH1 0x4 DUP1 CALLDATASIZE SUB DUP2 ADD SWAP1 PUSH2 0x44A SWAP2 SWAP1 PUSH2 0x1896 JUMP JUMPDEST PUSH2 0xDBF JUMP JUMPDEST STOP JUMPDEST PUSH2 0x459 PUSH2 0x1161 JUMP JUMPDEST PUSH1 0x40 MLOAD PUSH2 0x466 SWAP2 SWAP1 PUSH2 0x178F JUMP JUMPDEST PUSH1 0x40 MLOAD DUP1 SWAP2 SUB SWAP1 RETURN JUMPDEST PUSH0 PUSH32 0x7965DB0B00000000000000000000000000000000000000000000000000000000 PUSH28 0xFFFFFFFFFFFFFFFFFFFFFFFFFFFFFFFFFFFFFFFFFFFFFFFFFFFFFFFF NOT AND DUP3 PUSH28 0xFFFFFFFFFFFFFFFFFFFFFFFFFFFFFFFFFFFFFFFFFFFFFFFFFFFFFFFF NOT AND EQ DUP1 PUSH2 0x4E1 JUMPI POP PUSH2 0x4E0 DUP3 PUSH2 0x1167 JUMP JUMPDEST JUMPDEST SWAP1 POP SWAP2 SWAP1 POP JUMP JUMPDEST PUSH32 0xD1473398BB66596DE5D1EA1FC8E303FF2AC23265ADC9144B1B52065DC4F0934B PUSH2 0x512 DUP2 PUSH2 0x11D0 JUMP JUMPDEST PUSH0 PUSH2 0x51B PUSH2 0x11E4 JUMP JUMPDEST SWAP1 POP PUSH0 DUP2 GT ISZERO PUSH2 0x54B JUMPI PUSH0 PUSH1 0x64 PUSH1 0x7 SLOAD DUP4 PUSH2 0x536 SWAP2 SWAP1 PUSH2 0x1A7D JUMP JUMPDEST PUSH2 0x540 SWAP2 SWAP1 PUSH2 0x1AEB JUMP JUMPDEST SWAP1 POP DUP1 PUSH1 0x8 DUP2 SWAP1 SSTORE POP POP JUMPDEST POP POP JUMP JUMPDEST PUSH1 0x5 PUSH1 0x20 MSTORE DUP1 PUSH0 MSTORE PUSH1 0x40 PUSH0 KECCAK256 PUSH0 SWAP2 POP SWAP1 POP DUP1 PUSH0 ADD SLOAD SWAP1 POP DUP2 JUMP JUMPDEST PUSH0 DUP1 PUSH0 DUP4 DUP2 MSTORE PUSH1 0x20 ADD SWAP1 DUP2 MSTORE PUSH1 0x20 ADD PUSH0 KECCAK256 PUSH1 0x1 ADD SLOAD SWAP1 POP SWAP2 SWAP1 POP JUMP JUMPDEST PUSH2 0x58E DUP3 PUSH2 0x569 JUMP JUMPDEST PUSH2 0x597 DUP2 PUSH2 0x11D0 JUMP JUMPDEST PUSH2 0x5A1 DUP4 DUP4 PUSH2 0x11E8 JUMP JUMPDEST POP POP POP POP JUMP JUMPDEST PUSH1 0x3 PUSH1 0x20 MSTORE DUP1 PUSH0 MSTORE PUSH1 0x40 PUSH0 KECCAK256 PUSH0 SWAP2 POP SWAP1 POP SLOAD DUP2 JUMP JUMPDEST PUSH2 0x5C4 PUSH2 0x12D1 JUMP JUMPDEST PUSH20 0xFFFFFFFFFFFFFFFFFFFFFFFFFFFFFFFFFFFFFFFF AND DUP2 PUSH20 0xFFFFFFFFFFFFFFFFFFFFFFFFFFFFFFFFFFFFFFFF AND EQ PUSH2 0x628 JUMPI PUSH1 0x40 MLOAD PUSH32 0x6697B23200000000000000000000000000000000000000000000000000000000 DUP2 MSTORE PUSH1 0x4 ADD PUSH1 0x40 MLOAD DUP1 SWAP2 SUB SWAP1 REVERT JUMPDEST PUSH2 0x632 DUP3 DUP3 PUSH2 0x12D8 JUMP JUMPDEST POP POP POP JUMP JUMPDEST PUSH2 0x640 DUP3 PUSH2 0x13C1 JUMP JUMPDEST PUSH2 0x67F JUMPI PUSH1 0x40 MLOAD PUSH32 0x8C379A000000000000000000000000000000000000000000000000000000000 DUP2 MSTORE PUSH1 0x4 ADD PUSH2 0x676 SWAP1 PUSH2 0x1B75 JUMP JUMPDEST PUSH1 0x40 MLOAD DUP1 SWAP2 SUB SWAP1 REVERT JUMPDEST DUP2 PUSH20 0xFFFFFFFFFFFFFFFFFFFFFFFFFFFFFFFFFFFFFFFF AND PUSH4 0x23B872DD PUSH2 0x6A3 PUSH2 0x12D1 JUMP JUMPDEST ADDRESS DUP5 PUSH1 0x40 MLOAD DUP5 PUSH4 0xFFFFFFFF AND PUSH1 0xE0 SHL DUP2 MSTORE PUSH1 0x4 ADD PUSH2 0x6C3 SWAP4 SWAP3 SWAP2 SWAP1 PUSH2 0x1BA2 JUMP JUMPDEST PUSH1 0x20 PUSH1 0x40 MLOAD DUP1 DUP4 SUB DUP2 PUSH0 DUP8 GAS CALL ISZERO DUP1 ISZERO PUSH2 0x6DF JUMPI RETURNDATASIZE PUSH0 DUP1 RETURNDATACOPY RETURNDATASIZE PUSH0 REVERT JUMPDEST POP POP POP POP PUSH1 0x40 MLOAD RETURNDATASIZE PUSH1 0x1F NOT PUSH1 0x1F DUP3 ADD AND DUP3 ADD DUP1 PUSH1 0x40 MSTORE POP DUP2 ADD SWAP1 PUSH2 0x703 SWAP2 SWAP1 PUSH2 0x1C01 JUMP JUMPDEST POP DUP1 PUSH1 0x3 PUSH0 DUP5 PUSH20 0xFFFFFFFFFFFFFFFFFFFFFFFFFFFFFFFFFFFFFFFF AND PUSH20 0xFFFFFFFFFFFFFFFFFFFFFFFFFFFFFFFFFFFFFFFF AND DUP2 MSTORE PUSH1 0x20 ADD SWAP1 DUP2 MSTORE PUSH1 0x20 ADD PUSH0 KECCAK256 PUSH0 DUP3 DUP3 SLOAD PUSH2 0x750 SWAP2 SWAP1 PUSH2 0x1C2C JUMP JUMPDEST SWAP3 POP POP DUP2 SWAP1 SSTORE POP PUSH2 0x761 DUP3 DUP3 PUSH2 0x1463 JUMP JUMPDEST PUSH1 0x5 PUSH0 PUSH2 0x76C PUSH2 0x12D1 JUMP JUMPDEST PUSH20 0xFFFFFFFFFFFFFFFFFFFFFFFFFFFFFFFFFFFFFFFF AND PUSH20 0xFFFFFFFFFFFFFFFFFFFFFFFFFFFFFFFFFFFFFFFF AND DUP2 MSTORE PUSH1 0x20 ADD SWAP1 DUP2 MSTORE PUSH1 0x20 ADD PUSH0 KECCAK256 PUSH0 ADD PUSH0 DUP3 DUP3 SLOAD PUSH2 0x7B5 SWAP2 SWAP1 PUSH2 0x1C2C JUMP JUMPDEST SWAP3 POP POP DUP2 SWAP1 SSTORE POP DUP1 PUSH1 0x5 PUSH0 PUSH2 0x7C8 PUSH2 0x12D1 JUMP JUMPDEST PUSH20 0xFFFFFFFFFFFFFFFFFFFFFFFFFFFFFFFFFFFFFFFF AND PUSH20 0xFFFFFFFFFFFFFFFFFFFFFFFFFFFFFFFFFFFFFFFF AND DUP2 MSTORE PUSH1 0x20 ADD SWAP1 DUP2 MSTORE PUSH1 0x20 ADD PUSH0 KECCAK256 PUSH1 0x1 ADD PUSH0 DUP5 PUSH20 0xFFFFFFFFFFFFFFFFFFFFFFFFFFFFFFFFFFFFFFFF AND PUSH20 0xFFFFFFFFFFFFFFFFFFFFFFFFFFFFFFFFFFFFFFFF AND DUP2 MSTORE PUSH1 0x20 ADD SWAP1 DUP2 MSTORE PUSH1 0x20 ADD PUSH0 KECCAK256 PUSH0 DUP3 DUP3 SLOAD PUSH2 0x84D SWAP2 SWAP1 PUSH2 0x1C2C JUMP JUMPDEST SWAP3 POP POP DUP2 SWAP1 SSTORE POP POP POP JUMP JUMPDEST PUSH1 0x8 SLOAD DUP2 JUMP JUMPDEST PUSH32 0xD1473398BB66596DE5D1EA1FC8E303FF2AC23265ADC9144B1B52065DC4F0934B DUP2 JUMP JUMPDEST PUSH32 0xA49807205CE4D355092EF5A8A18F56E8913CF4A201FBE287825B095693C21775 DUP2 JUMP JUMPDEST PUSH32 0xA49807205CE4D355092EF5A8A18F56E8913CF4A201FBE287825B095693C21775 PUSH2 0x8D0 DUP2 PUSH2 0x11D0 JUMP JUMPDEST DUP2 PUSH1 0x4 PUSH0 DUP6 PUSH20 0xFFFFFFFFFFFFFFFFFFFFFFFFFFFFFFFFFFFFFFFF AND PUSH20 0xFFFFFFFFFFFFFFFFFFFFFFFFFFFFFFFFFFFFFFFF AND DUP2 MSTORE PUSH1 0x20 ADD SWAP1 DUP2 MSTORE PUSH1 0x20 ADD PUSH0 KECCAK256 PUSH0 PUSH2 0x100 EXP DUP2 SLOAD DUP2 PUSH20 0xFFFFFFFFFFFFFFFFFFFFFFFFFFFFFFFFFFFFFFFF MUL NOT AND SWAP1 DUP4 PUSH20 0xFFFFFFFFFFFFFFFFFFFFFFFFFFFFFFFFFFFFFFFF AND MUL OR SWAP1 SSTORE POP POP POP POP JUMP JUMPDEST PUSH0 DUP1 PUSH0 DUP5 DUP2 MSTORE PUSH1 0x20 ADD SWAP1 DUP2 MSTORE PUSH1 0x20 ADD PUSH0 KECCAK256 PUSH0 ADD PUSH0 DUP4 PUSH20 0xFFFFFFFFFFFFFFFFFFFFFFFFFFFFFFFFFFFFFFFF AND PUSH20 0xFFFFFFFFFFFFFFFFFFFFFFFFFFFFFFFFFFFFFFFF AND DUP2 MSTORE PUSH1 0x20 ADD SWAP1 DUP2 MSTORE PUSH1 0x20 ADD PUSH0 KECCAK256 PUSH0 SWAP1 SLOAD SWAP1 PUSH2 0x100 EXP SWAP1 DIV PUSH1 0xFF AND SWAP1 POP SWAP3 SWAP2 POP POP JUMP JUMPDEST PUSH0 DUP1 PUSH0 SWAP1 POP PUSH0 JUMPDEST PUSH1 0x2 DUP1 SLOAD SWAP1 POP DUP2 LT ISZERO PUSH2 0xA9E JUMPI PUSH2 0xA84 PUSH1 0x2 DUP3 DUP2 SLOAD DUP2 LT PUSH2 0x9DE JUMPI PUSH2 0x9DD PUSH2 0x1C5F JUMP JUMPDEST JUMPDEST SWAP1 PUSH0 MSTORE PUSH1 0x20 PUSH0 KECCAK256 ADD PUSH0 SWAP1 SLOAD SWAP1 PUSH2 0x100 EXP SWAP1 DIV PUSH20 0xFFFFFFFFFFFFFFFFFFFFFFFFFFFFFFFFFFFFFFFF AND PUSH1 0x3 PUSH0 PUSH1 0x2 DUP6 DUP2 SLOAD DUP2 LT PUSH2 0xA1D JUMPI PUSH2 0xA1C PUSH2 0x1C5F JUMP JUMPDEST JUMPDEST SWAP1 PUSH0 MSTORE PUSH1 0x20 PUSH0 KECCAK256 ADD PUSH0 SWAP1 SLOAD SWAP1 PUSH2 0x100 EXP SWAP1 DIV PUSH20 0xFFFFFFFFFFFFFFFFFFFFFFFFFFFFFFFFFFFFFFFF AND PUSH20 0xFFFFFFFFFFFFFFFFFFFFFFFFFFFFFFFFFFFFFFFF AND PUSH20 0xFFFFFFFFFFFFFFFFFFFFFFFFFFFFFFFFFFFFFFFF AND DUP2 MSTORE PUSH1 0x20 ADD SWAP1 DUP2 MSTORE PUSH1 0x20 ADD PUSH0 KECCAK256 SLOAD PUSH2 0x1463 JUMP JUMPDEST DUP3 PUSH2 0xA8F SWAP2 SWAP1 PUSH2 0x1C2C JUMP JUMPDEST SWAP2 POP DUP1 DUP1 PUSH1 0x1 ADD SWAP2 POP POP PUSH2 0x9BA JUMP JUMPDEST POP DUP1 SWAP2 POP POP SWAP1 JUMP JUMPDEST PUSH0 DUP1 SHL DUP2 JUMP JUMPDEST PUSH0 DUP1 PUSH1 0x4 PUSH0 DUP6 PUSH20 0xFFFFFFFFFFFFFFFFFFFFFFFFFFFFFFFFFFFFFFFF AND PUSH20 0xFFFFFFFFFFFFFFFFFFFFFFFFFFFFFFFFFFFFFFFF AND DUP2 MSTORE PUSH1 0x20 ADD SWAP1 DUP2 MSTORE PUSH1 0x20 ADD PUSH0 KECCAK256 PUSH0 SWAP1 SLOAD SWAP1 PUSH2 0x100 EXP SWAP1 DIV PUSH20 0xFFFFFFFFFFFFFFFFFFFFFFFFFFFFFFFFFFFFFFFF AND SWAP1 POP PUSH0 PUSH20 0xFFFFFFFFFFFFFFFFFFFFFFFFFFFFFFFFFFFFFFFF AND DUP2 PUSH20 0xFFFFFFFFFFFFFFFFFFFFFFFFFFFFFFFFFFFFFFFF AND SUB PUSH2 0xB7B JUMPI PUSH1 0x40 MLOAD PUSH32 0x8C379A000000000000000000000000000000000000000000000000000000000 DUP2 MSTORE PUSH1 0x4 ADD PUSH2 0xB72 SWAP1 PUSH2 0x1CD6 JUMP JUMPDEST PUSH1 0x40 MLOAD DUP1 SWAP2 SUB SWAP1 REVERT JUMPDEST PUSH0 DUP2 PUSH20 0xFFFFFFFFFFFFFFFFFFFFFFFFFFFFFFFFFFFFFFFF AND PUSH4 0xFEAF968C PUSH1 0x40 MLOAD DUP2 PUSH4 0xFFFFFFFF AND PUSH1 0xE0 SHL DUP2 MSTORE PUSH1 0x4 ADD PUSH1 0xA0 PUSH1 0x40 MLOAD DUP1 DUP4 SUB DUP2 DUP7 GAS STATICCALL ISZERO DUP1 ISZERO PUSH2 0xBC5 JUMPI RETURNDATASIZE PUSH0 DUP1 RETURNDATACOPY RETURNDATASIZE PUSH0 REVERT JUMPDEST POP POP POP POP PUSH1 0x40 MLOAD RETURNDATASIZE PUSH1 0x1F NOT PUSH1 0x1F DUP3 ADD AND DUP3 ADD DUP1 PUSH1 0x40 MSTORE POP DUP2 ADD SWAP1 PUSH2 0xBE9 SWAP2 SWAP1 PUSH2 0x1D7A JUMP JUMPDEST POP POP POP SWAP2 POP POP PUSH0 DUP2 SGT PUSH2 0xC31 JUMPI PUSH1 0x40 MLOAD PUSH32 0x8C379A000000000000000000000000000000000000000000000000000000000 DUP2 MSTORE PUSH1 0x4 ADD PUSH2 0xC28 SWAP1 PUSH2 0x1E3B JUMP JUMPDEST PUSH1 0x40 MLOAD DUP1 SWAP2 SUB SWAP1 REVERT JUMPDEST PUSH0 DUP3 PUSH20 0xFFFFFFFFFFFFFFFFFFFFFFFFFFFFFFFFFFFFFFFF AND PUSH4 0x313CE567 PUSH1 0x40 MLOAD DUP2 PUSH4 0xFFFFFFFF AND PUSH1 0xE0 SHL DUP2 MSTORE PUSH1 0x4 ADD PUSH1 0x20 PUSH1 0x40 MLOAD DUP1 DUP4 SUB DUP2 DUP7 GAS STATICCALL ISZERO DUP1 ISZERO PUSH2 0xC7B JUMPI RETURNDATASIZE PUSH0 DUP1 RETURNDATACOPY RETURNDATASIZE PUSH0 REVERT JUMPDEST POP POP POP POP PUSH1 0x40 MLOAD RETURNDATASIZE PUSH1 0x1F NOT PUSH1 0x1F DUP3 ADD AND DUP3 ADD DUP1 PUSH1 0x40 MSTORE POP DUP2 ADD SWAP1 PUSH2 0xC9F SWAP2 SWAP1 PUSH2 0x1E8F JUMP JUMPDEST PUSH1 0xFF AND SWAP1 POP DUP1 PUSH1 0xA PUSH2 0xCB1 SWAP2 SWAP1 PUSH2 0x1FE9 JUMP JUMPDEST DUP3 DUP7 PUSH2 0xCBD SWAP2 SWAP1 PUSH2 0x1A7D JUMP JUMPDEST PUSH2 0xCC7 SWAP2 SWAP1 PUSH2 0x1AEB JUMP JUMPDEST SWAP4 POP POP POP POP SWAP3 SWAP2 POP POP JUMP JUMPDEST PUSH32 0xD1473398BB66596DE5D1EA1FC8E303FF2AC23265ADC9144B1B52065DC4F0934B PUSH2 0xCFC DUP2 PUSH2 0x11D0 JUMP JUMPDEST PUSH0 PUSH2 0xD07 DUP5 DUP5 PUSH2 0x1463 JUMP JUMPDEST SWAP1 POP PUSH0 PUSH2 0xD14 DUP8 DUP8 PUSH2 0x1463 JUMP JUMPDEST SWAP1 POP PUSH0 DUP2 DUP4 PUSH2 0xD23 SWAP2 SWAP1 PUSH2 0x2033 JUMP JUMPDEST SWAP1 POP DUP1 PUSH1 0x9 PUSH0 DUP3 DUP3 SLOAD PUSH2 0xD36 SWAP2 SWAP1 PUSH2 0x1C2C JUMP JUMPDEST SWAP3 POP POP DUP2 SWAP1 SSTORE POP POP POP POP POP POP POP POP POP JUMP JUMPDEST PUSH1 0x9 SLOAD DUP2 JUMP JUMPDEST PUSH1 0x6 PUSH1 0x20 MSTORE DUP1 PUSH0 MSTORE PUSH1 0x40 PUSH0 KECCAK256 PUSH0 SWAP2 POP SWAP1 POP SLOAD DUP2 JUMP JUMPDEST PUSH1 0x2 DUP2 DUP2 SLOAD DUP2 LT PUSH2 0xD71 JUMPI PUSH0 DUP1 REVERT JUMPDEST SWAP1 PUSH0 MSTORE PUSH1 0x20 PUSH0 KECCAK256 ADD PUSH0 SWAP2 POP SLOAD SWAP1 PUSH2 0x100 EXP SWAP1 DIV PUSH20 0xFFFFFFFFFFFFFFFFFFFFFFFFFFFFFFFFFFFFFFFF AND DUP2 JUMP JUMPDEST PUSH2 0xDA6 DUP3 PUSH2 0x569 JUMP JUMPDEST PUSH2 0xDAF DUP2 PUSH2 0x11D0 JUMP JUMPDEST PUSH2 0xDB9 DUP4 DUP4 PUSH2 0x12D8 JUMP JUMPDEST POP POP POP POP JUMP JUMPDEST DUP1 PUSH1 0x5 PUSH0 PUSH2 0xDCB PUSH2 0x12D1 JUMP JUMPDEST PUSH20 0xFFFFFFFFFFFFFFFFFFFFFFFFFFFFFFFFFFFFFFFF AND PUSH20 0xFFFFFFFFFFFFFFFFFFFFFFFFFFFFFFFFFFFFFFFF AND DUP2 MSTORE PUSH1 0x20 ADD SWAP1 DUP2 MSTORE PUSH1 0x20 ADD PUSH0 KECCAK256 PUSH1 0x1 ADD PUSH0 DUP5 PUSH20 0xFFFFFFFFFFFFFFFFFFFFFFFFFFFFFFFFFFFFFFFF AND PUSH20 0xFFFFFFFFFFFFFFFFFFFFFFFFFFFFFFFFFFFFFFFF AND DUP2 MSTORE PUSH1 0x20 ADD SWAP1 DUP2 MSTORE PUSH1 0x20 ADD PUSH0 KECCAK256 SLOAD LT ISZERO PUSH2 0xE84 JUMPI PUSH1 0x40 MLOAD PUSH32 0x8C379A000000000000000000000000000000000000000000000000000000000 DUP2 MSTORE PUSH1 0x4 ADD PUSH2 0xE7B SWAP1 PUSH2 0x20B0 JUMP JUMPDEST PUSH1 0x40 MLOAD DUP1 SWAP2 SUB SWAP1 REVERT JUMPDEST DUP1 PUSH1 0x5 PUSH0 PUSH2 0xE90 PUSH2 0x12D1 JUMP JUMPDEST PUSH20 0xFFFFFFFFFFFFFFFFFFFFFFFFFFFFFFFFFFFFFFFF AND PUSH20 0xFFFFFFFFFFFFFFFFFFFFFFFFFFFFFFFFFFFFFFFF AND DUP2 MSTORE PUSH1 0x20 ADD SWAP1 DUP2 MSTORE PUSH1 0x20 ADD PUSH0 KECCAK256 PUSH1 0x1 ADD PUSH0 DUP5 PUSH20 0xFFFFFFFFFFFFFFFFFFFFFFFFFFFFFFFFFFFFFFFF AND PUSH20 0xFFFFFFFFFFFFFFFFFFFFFFFFFFFFFFFFFFFFFFFF AND DUP2 MSTORE PUSH1 0x20 ADD SWAP1 DUP2 MSTORE PUSH1 0x20 ADD PUSH0 KECCAK256 PUSH0 DUP3 DUP3 SLOAD PUSH2 0xF15 SWAP2 SWAP1 PUSH2 0x2033 JUMP JUMPDEST SWAP3 POP POP DUP2 SWAP1 SSTORE POP DUP1 PUSH1 0x3 PUSH0 DUP5 PUSH20 0xFFFFFFFFFFFFFFFFFFFFFFFFFFFFFFFFFFFFFFFF AND PUSH20 0xFFFFFFFFFFFFFFFFFFFFFFFFFFFFFFFFFFFFFFFF AND DUP2 MSTORE PUSH1 0x20 ADD SWAP1 DUP2 MSTORE PUSH1 0x20 ADD PUSH0 KECCAK256 PUSH0 DUP3 DUP3 SLOAD PUSH2 0xF68 SWAP2 SWAP1 PUSH2 0x2033 JUMP JUMPDEST SWAP3 POP POP DUP2 SWAP1 SSTORE POP DUP2 PUSH20 0xFFFFFFFFFFFFFFFFFFFFFFFFFFFFFFFFFFFFFFFF AND PUSH4 0xA9059CBB PUSH2 0xF93 PUSH2 0x12D1 JUMP JUMPDEST DUP4 PUSH1 0x40 MLOAD DUP4 PUSH4 0xFFFFFFFF AND PUSH1 0xE0 SHL DUP2 MSTORE PUSH1 0x4 ADD PUSH2 0xFB1 SWAP3 SWAP2 SWAP1 PUSH2 0x20CE JUMP JUMPDEST PUSH1 0x20 PUSH1 0x40 MLOAD DUP1 DUP4 SUB DUP2 PUSH0 DUP8 GAS CALL ISZERO DUP1 ISZERO PUSH2 0xFCD JUMPI RETURNDATASIZE PUSH0 DUP1 RETURNDATACOPY RETURNDATASIZE PUSH0 REVERT JUMPDEST POP POP POP POP PUSH1 0x40 MLOAD RETURNDATASIZE PUSH1 0x1F NOT PUSH1 0x1F DUP3 ADD AND DUP3 ADD DUP1 PUSH1 0x40 MSTORE POP DUP2 ADD SWAP1 PUSH2 0xFF1 SWAP2 SWAP1 PUSH2 0x1C01 JUMP JUMPDEST POP PUSH0 PUSH2 0x1003 PUSH2 0xFFE PUSH2 0x12D1 JUMP JUMPDEST PUSH2 0x1553 JUMP JUMPDEST SWAP1 POP DUP1 PUSH1 0x6 PUSH0 PUSH2 0x1011 PUSH2 0x12D1 JUMP JUMPDEST PUSH20 0xFFFFFFFFFFFFFFFFFFFFFFFFFFFFFFFFFFFFFFFF AND PUSH20 0xFFFFFFFFFFFFFFFFFFFFFFFFFFFFFFFFFFFFFFFF AND DUP2 MSTORE PUSH1 0x20 ADD SWAP1 DUP2 MSTORE PUSH1 0x20 ADD PUSH0 KECCAK256 PUSH0 DUP3 DUP3 SLOAD PUSH2 0x1058 SWAP2 SWAP1 PUSH2 0x1C2C JUMP JUMPDEST SWAP3 POP POP DUP2 SWAP1 SSTORE POP PUSH2 0x1069 DUP4 DUP4 PUSH2 0x1463 JUMP JUMPDEST PUSH1 0x5 PUSH0 PUSH2 0x1074 PUSH2 0x12D1 JUMP JUMPDEST PUSH20 0xFFFFFFFFFFFFFFFFFFFFFFFFFFFFFFFFFFFFFFFF AND PUSH20 0xFFFFFFFFFFFFFFFFFFFFFFFFFFFFFFFFFFFFFFFF AND DUP2 MSTORE PUSH1 0x20 ADD SWAP1 DUP2 MSTORE PUSH1 0x20 ADD PUSH0 KECCAK256 PUSH0 ADD PUSH0 DUP3 DUP3 SLOAD PUSH2 0x10BD SWAP2 SWAP1 PUSH2 0x2033 JUMP JUMPDEST SWAP3 POP POP DUP2 SWAP1 SSTORE POP DUP2 PUSH1 0x5 PUSH0 PUSH2 0x10D0 PUSH2 0x12D1 JUMP JUMPDEST PUSH20 0xFFFFFFFFFFFFFFFFFFFFFFFFFFFFFFFFFFFFFFFF AND PUSH20 0xFFFFFFFFFFFFFFFFFFFFFFFFFFFFFFFFFFFFFFFF AND DUP2 MSTORE PUSH1 0x20 ADD SWAP1 DUP2 MSTORE PUSH1 0x20 ADD PUSH0 KECCAK256 PUSH1 0x1 ADD PUSH0 DUP6 PUSH20 0xFFFFFFFFFFFFFFFFFFFFFFFFFFFFFFFFFFFFFFFF AND PUSH20 0xFFFFFFFFFFFFFFFFFFFFFFFFFFFFFFFFFFFFFFFF AND DUP2 MSTORE PUSH1 0x20 ADD SWAP1 DUP2 MSTORE PUSH1 0x20 ADD PUSH0 KECCAK256 PUSH0 DUP3 DUP3 SLOAD PUSH2 0x1155 SWAP2 SWAP1 PUSH2 0x2033 JUMP JUMPDEST SWAP3 POP POP DUP2 SWAP1 SSTORE POP POP POP POP JUMP JUMPDEST PUSH1 0x7 SLOAD DUP2 JUMP JUMPDEST PUSH0 PUSH32 0x1FFC9A700000000000000000000000000000000000000000000000000000000 PUSH28 0xFFFFFFFFFFFFFFFFFFFFFFFFFFFFFFFFFFFFFFFFFFFFFFFFFFFFFFFF NOT AND DUP3 PUSH28 0xFFFFFFFFFFFFFFFFFFFFFFFFFFFFFFFFFFFFFFFFFFFFFFFFFFFFFFFF NOT AND EQ SWAP1 POP SWAP2 SWAP1 POP JUMP JUMPDEST PUSH2 0x11E1 DUP2 PUSH2 0x11DC PUSH2 0x12D1 JUMP JUMPDEST PUSH2 0x15EA JUMP JUMPDEST POP JUMP JUMPDEST PUSH0 SWAP1 JUMP JUMPDEST PUSH0 PUSH2 0x11F3 DUP4 DUP4 PUSH2 0x950 JUMP JUMPDEST PUSH2 0x12C7 JUMPI PUSH1 0x1 PUSH0 DUP1 DUP6 DUP2 MSTORE PUSH1 0x20 ADD SWAP1 DUP2 MSTORE PUSH1 0x20 ADD PUSH0 KECCAK256 PUSH0 ADD PUSH0 DUP5 PUSH20 0xFFFFFFFFFFFFFFFFFFFFFFFFFFFFFFFFFFFFFFFF AND PUSH20 0xFFFFFFFFFFFFFFFFFFFFFFFFFFFFFFFFFFFFFFFF AND DUP2 MSTORE PUSH1 0x20 ADD SWAP1 DUP2 MSTORE PUSH1 0x20 ADD PUSH0 KECCAK256 PUSH0 PUSH2 0x100 EXP DUP2 SLOAD DUP2 PUSH1 0xFF MUL NOT AND SWAP1 DUP4 ISZERO ISZERO MUL OR SWAP1 SSTORE POP PUSH2 0x1264 PUSH2 0x12D1 JUMP JUMPDEST PUSH20 0xFFFFFFFFFFFFFFFFFFFFFFFFFFFFFFFFFFFFFFFF AND DUP3 PUSH20 0xFFFFFFFFFFFFFFFFFFFFFFFFFFFFFFFFFFFFFFFF AND DUP5 PUSH32 0x2F8788117E7EFF1D82E926EC794901D17C78024A50270940304540A733656F0D PUSH1 0x40 MLOAD PUSH1 0x40 MLOAD DUP1 SWAP2 SUB SWAP1 LOG4 PUSH1 0x1 SWAP1 POP PUSH2 0x12CB JUMP JUMPDEST PUSH0 SWAP1 POP JUMPDEST SWAP3 SWAP2 POP POP JUMP JUMPDEST PUSH0 CALLER SWAP1 POP SWAP1 JUMP JUMPDEST PUSH0 PUSH2 0x12E3 DUP4 DUP4 PUSH2 0x950 JUMP JUMPDEST ISZERO PUSH2 0x13B7 JUMPI PUSH0 DUP1 PUSH0 DUP6 DUP2 MSTORE PUSH1 0x20 ADD SWAP1 DUP2 MSTORE PUSH1 0x20 ADD PUSH0 KECCAK256 PUSH0 ADD PUSH0 DUP5 PUSH20 0xFFFFFFFFFFFFFFFFFFFFFFFFFFFFFFFFFFFFFFFF AND PUSH20 0xFFFFFFFFFFFFFFFFFFFFFFFFFFFFFFFFFFFFFFFF AND DUP2 MSTORE PUSH1 0x20 ADD SWAP1 DUP2 MSTORE PUSH1 0x20 ADD PUSH0 KECCAK256 PUSH0 PUSH2 0x100 EXP DUP2 SLOAD DUP2 PUSH1 0xFF MUL NOT AND SWAP1 DUP4 ISZERO ISZERO MUL OR SWAP1 SSTORE POP PUSH2 0x1354 PUSH2 0x12D1 JUMP JUMPDEST PUSH20 0xFFFFFFFFFFFFFFFFFFFFFFFFFFFFFFFFFFFFFFFF AND DUP3 PUSH20 0xFFFFFFFFFFFFFFFFFFFFFFFFFFFFFFFFFFFFFFFF AND DUP5 PUSH32 0xF6391F5C32D9C69D2A47EA670B442974B53935D1EDC7FD64EB21E047A839171B PUSH1 0x40 MLOAD PUSH1 0x40 MLOAD DUP1 SWAP2 SUB SWAP1 LOG4 PUSH1 0x1 SWAP1 POP PUSH2 0x13BB JUMP JUMPDEST PUSH0 SWAP1 POP JUMPDEST SWAP3 SWAP2 POP POP JUMP JUMPDEST PUSH0 DUP1 PUSH0 SWAP1 POP JUMPDEST PUSH1 0x2 DUP1 SLOAD SWAP1 POP DUP2 LT ISZERO PUSH2 0x1459 JUMPI DUP3 PUSH20 0xFFFFFFFFFFFFFFFFFFFFFFFFFFFFFFFFFFFFFFFF AND PUSH1 0x2 DUP3 DUP2 SLOAD DUP2 LT PUSH2 0x13FF JUMPI PUSH2 0x13FE PUSH2 0x1C5F JUMP JUMPDEST JUMPDEST SWAP1 PUSH0 MSTORE PUSH1 0x20 PUSH0 KECCAK256 ADD PUSH0 SWAP1 SLOAD SWAP1 PUSH2 0x100 EXP SWAP1 DIV PUSH20 0xFFFFFFFFFFFFFFFFFFFFFFFFFFFFFFFFFFFFFFFF AND PUSH20 0xFFFFFFFFFFFFFFFFFFFFFFFFFFFFFFFFFFFFFFFF AND SUB PUSH2 0x144C JUMPI PUSH1 0x1 SWAP2 POP POP PUSH2 0x145E JUMP JUMPDEST DUP1 DUP1 PUSH1 0x1 ADD SWAP2 POP POP PUSH2 0x13C7 JUMP JUMPDEST POP PUSH0 SWAP1 POP JUMPDEST SWAP2 SWAP1 POP JUMP JUMPDEST PUSH0 DUP1 PUSH1 0x4 PUSH0 DUP6 PUSH20 0xFFFFFFFFFFFFFFFFFFFFFFFFFFFFFFFFFFFFFFFF AND PUSH20 0xFFFFFFFFFFFFFFFFFFFFFFFFFFFFFFFFFFFFFFFF AND DUP2 MSTORE PUSH1 0x20 ADD SWAP1 DUP2 MSTORE PUSH1 0x20 ADD PUSH0 KECCAK256 PUSH0 SWAP1 SLOAD SWAP1 PUSH2 0x100 EXP SWAP1 DIV PUSH20 0xFFFFFFFFFFFFFFFFFFFFFFFFFFFFFFFFFFFFFFFF AND SWAP1 POP PUSH0 DUP2 PUSH20 0xFFFFFFFFFFFFFFFFFFFFFFFFFFFFFFFFFFFFFFFF AND PUSH4 0xFEAF968C PUSH1 0x40 MLOAD DUP2 PUSH4 0xFFFFFFFF AND PUSH1 0xE0 SHL DUP2 MSTORE PUSH1 0x4 ADD PUSH1 0xA0 PUSH1 0x40 MLOAD DUP1 DUP4 SUB DUP2 DUP7 GAS STATICCALL ISZERO DUP1 ISZERO PUSH2 0x150E JUMPI RETURNDATASIZE PUSH0 DUP1 RETURNDATACOPY RETURNDATASIZE PUSH0 REVERT JUMPDEST POP POP POP POP PUSH1 0x40 MLOAD RETURNDATASIZE PUSH1 0x1F NOT PUSH1 0x1F DUP3 ADD AND DUP3 ADD DUP1 PUSH1 0x40 MSTORE POP DUP2 ADD SWAP1 PUSH2 0x1532 SWAP2 SWAP1 PUSH2 0x1D7A JUMP JUMPDEST POP POP POP SWAP2 POP POP PUSH0 DUP5 DUP3 PUSH2 0x1545 SWAP2 SWAP1 PUSH2 0x1A7D JUMP JUMPDEST SWAP1 POP DUP1 SWAP4 POP POP POP POP SWAP3 SWAP2 POP POP JUMP JUMPDEST PUSH0 DUP1 PUSH2 0x155D PUSH2 0x9B3 JUMP JUMPDEST PUSH8 0xDE0B6B3A7640000 PUSH1 0x5 PUSH0 DUP7 PUSH20 0xFFFFFFFFFFFFFFFFFFFFFFFFFFFFFFFFFFFFFFFF AND PUSH20 0xFFFFFFFFFFFFFFFFFFFFFFFFFFFFFFFFFFFFFFFF AND DUP2 MSTORE PUSH1 0x20 ADD SWAP1 DUP2 MSTORE PUSH1 0x20 ADD PUSH0 KECCAK256 PUSH0 ADD SLOAD PUSH2 0x15B0 SWAP2 SWAP1 PUSH2 0x1A7D JUMP JUMPDEST PUSH2 0x15BA SWAP2 SWAP1 PUSH2 0x1AEB JUMP JUMPDEST SWAP1 POP PUSH0 PUSH8 0xDE0B6B3A7640000 DUP3 PUSH1 0x9 SLOAD PUSH2 0x15D4 SWAP2 SWAP1 PUSH2 0x1A7D JUMP JUMPDEST PUSH2 0x15DE SWAP2 SWAP1 PUSH2 0x1AEB JUMP JUMPDEST SWAP1 POP DUP1 SWAP3 POP POP POP SWAP2 SWAP1 POP JUMP JUMPDEST PUSH2 0x15F4 DUP3 DUP3 PUSH2 0x950 JUMP JUMPDEST PUSH2 0x1637 JUMPI DUP1 DUP3 PUSH1 0x40 MLOAD PUSH32 0xE2517D3F00000000000000000000000000000000000000000000000000000000 DUP2 MSTORE PUSH1 0x4 ADD PUSH2 0x162E SWAP3 SWAP2 SWAP1 PUSH2 0x20F5 JUMP JUMPDEST PUSH1 0x40 MLOAD DUP1 SWAP2 SUB SWAP1 REVERT JUMPDEST POP POP JUMP JUMPDEST PUSH0 DUP1 REVERT JUMPDEST PUSH0 PUSH32 0xFFFFFFFF00000000000000000000000000000000000000000000000000000000 DUP3 AND SWAP1 POP SWAP2 SWAP1 POP JUMP JUMPDEST PUSH2 0x1673 DUP2 PUSH2 0x163F JUMP JUMPDEST DUP2 EQ PUSH2 0x167D JUMPI PUSH0 DUP1 REVERT JUMPDEST POP JUMP JUMPDEST PUSH0 DUP2 CALLDATALOAD SWAP1 POP PUSH2 0x168E DUP2 PUSH2 0x166A JUMP JUMPDEST SWAP3 SWAP2 POP POP JUMP JUMPDEST PUSH0 PUSH1 0x20 DUP3 DUP5 SUB SLT ISZERO PUSH2 0x16A9 JUMPI PUSH2 0x16A8 PUSH2 0x163B JUMP JUMPDEST JUMPDEST PUSH0 PUSH2 0x16B6 DUP5 DUP3 DUP6 ADD PUSH2 0x1680 JUMP JUMPDEST SWAP2 POP POP SWAP3 SWAP2 POP POP JUMP JUMPDEST PUSH0 DUP2 ISZERO ISZERO SWAP1 POP SWAP2 SWAP1 POP JUMP JUMPDEST PUSH2 0x16D3 DUP2 PUSH2 0x16BF JUMP JUMPDEST DUP3 MSTORE POP POP JUMP JUMPDEST PUSH0 PUSH1 0x20 DUP3 ADD SWAP1 POP PUSH2 0x16EC PUSH0 DUP4 ADD DUP5 PUSH2 0x16CA JUMP JUMPDEST SWAP3 SWAP2 POP POP JUMP JUMPDEST PUSH0 PUSH20 0xFFFFFFFFFFFFFFFFFFFFFFFFFFFFFFFFFFFFFFFF DUP3 AND SWAP1 POP SWAP2 SWAP1 POP JUMP JUMPDEST PUSH0 PUSH2 0x171B DUP3 PUSH2 0x16F2 JUMP JUMPDEST SWAP1 POP SWAP2 SWAP1 POP JUMP JUMPDEST PUSH2 0x172B DUP2 PUSH2 0x1711 JUMP JUMPDEST DUP2 EQ PUSH2 0x1735 JUMPI PUSH0 DUP1 REVERT JUMPDEST POP JUMP JUMPDEST PUSH0 DUP2 CALLDATALOAD SWAP1 POP PUSH2 0x1746 DUP2 PUSH2 0x1722 JUMP JUMPDEST SWAP3 SWAP2 POP POP JUMP JUMPDEST PUSH0 PUSH1 0x20 DUP3 DUP5 SUB SLT ISZERO PUSH2 0x1761 JUMPI PUSH2 0x1760 PUSH2 0x163B JUMP JUMPDEST JUMPDEST PUSH0 PUSH2 0x176E DUP5 DUP3 DUP6 ADD PUSH2 0x1738 JUMP JUMPDEST SWAP2 POP POP SWAP3 SWAP2 POP POP JUMP JUMPDEST PUSH0 DUP2 SWAP1 POP SWAP2 SWAP1 POP JUMP JUMPDEST PUSH2 0x1789 DUP2 PUSH2 0x1777 JUMP JUMPDEST DUP3 MSTORE POP POP JUMP JUMPDEST PUSH0 PUSH1 0x20 DUP3 ADD SWAP1 POP PUSH2 0x17A2 PUSH0 DUP4 ADD DUP5 PUSH2 0x1780 JUMP JUMPDEST SWAP3 SWAP2 POP POP JUMP JUMPDEST PUSH0 DUP2 SWAP1 POP SWAP2 SWAP1 POP JUMP JUMPDEST PUSH2 0x17BA DUP2 PUSH2 0x17A8 JUMP JUMPDEST DUP2 EQ PUSH2 0x17C4 JUMPI PUSH0 DUP1 REVERT JUMPDEST POP JUMP JUMPDEST PUSH0 DUP2 CALLDATALOAD SWAP1 POP PUSH2 0x17D5 DUP2 PUSH2 0x17B1 JUMP JUMPDEST SWAP3 SWAP2 POP POP JUMP JUMPDEST PUSH0 PUSH1 0x20 DUP3 DUP5 SUB SLT ISZERO PUSH2 0x17F0 JUMPI PUSH2 0x17EF PUSH2 0x163B JUMP JUMPDEST JUMPDEST PUSH0 PUSH2 0x17FD DUP5 DUP3 DUP6 ADD PUSH2 0x17C7 JUMP JUMPDEST SWAP2 POP POP SWAP3 SWAP2 POP POP JUMP JUMPDEST PUSH2 0x180F DUP2 PUSH2 0x17A8 JUMP JUMPDEST DUP3 MSTORE POP POP JUMP JUMPDEST PUSH0 PUSH1 0x20 DUP3 ADD SWAP1 POP PUSH2 0x1828 PUSH0 DUP4 ADD DUP5 PUSH2 0x1806 JUMP JUMPDEST SWAP3 SWAP2 POP POP JUMP JUMPDEST PUSH0 DUP1 PUSH1 0x40 DUP4 DUP6 SUB SLT ISZERO PUSH2 0x1844 JUMPI PUSH2 0x1843 PUSH2 0x163B JUMP JUMPDEST JUMPDEST PUSH0 PUSH2 0x1851 DUP6 DUP3 DUP7 ADD PUSH2 0x17C7 JUMP JUMPDEST SWAP3 POP POP PUSH1 0x20 PUSH2 0x1862 DUP6 DUP3 DUP7 ADD PUSH2 0x1738 JUMP JUMPDEST SWAP2 POP POP SWAP3 POP SWAP3 SWAP1 POP JUMP JUMPDEST PUSH2 0x1875 DUP2 PUSH2 0x1777 JUMP JUMPDEST DUP2 EQ PUSH2 0x187F JUMPI PUSH0 DUP1 REVERT JUMPDEST POP JUMP JUMPDEST PUSH0 DUP2 CALLDATALOAD SWAP1 POP PUSH2 0x1890 DUP2 PUSH2 0x186C JUMP JUMPDEST SWAP3 SWAP2 POP POP JUMP JUMPDEST PUSH0 DUP1 PUSH1 0x40 DUP4 DUP6 SUB SLT ISZERO PUSH2 0x18AC JUMPI PUSH2 0x18AB PUSH2 0x163B JUMP JUMPDEST JUMPDEST PUSH0 PUSH2 0x18B9 DUP6 DUP3 DUP7 ADD PUSH2 0x1738 JUMP JUMPDEST SWAP3 POP POP PUSH1 0x20 PUSH2 0x18CA DUP6 DUP3 DUP7 ADD PUSH2 0x1882 JUMP JUMPDEST SWAP2 POP POP SWAP3 POP SWAP3 SWAP1 POP JUMP JUMPDEST PUSH0 DUP1 PUSH1 0x40 DUP4 DUP6 SUB SLT ISZERO PUSH2 0x18EA JUMPI PUSH2 0x18E9 PUSH2 0x163B JUMP JUMPDEST JUMPDEST PUSH0 PUSH2 0x18F7 DUP6 DUP3 DUP7 ADD PUSH2 0x1738 JUMP JUMPDEST SWAP3 POP POP PUSH1 0x20 PUSH2 0x1908 DUP6 DUP3 DUP7 ADD PUSH2 0x1738 JUMP JUMPDEST SWAP2 POP POP SWAP3 POP SWAP3 SWAP1 POP JUMP JUMPDEST PUSH0 PUSH2 0x191C DUP3 PUSH2 0x1711 JUMP JUMPDEST SWAP1 POP SWAP2 SWAP1 POP JUMP JUMPDEST PUSH2 0x192C DUP2 PUSH2 0x1912 JUMP JUMPDEST DUP2 EQ PUSH2 0x1936 JUMPI PUSH0 DUP1 REVERT JUMPDEST POP JUMP JUMPDEST PUSH0 DUP2 CALLDATALOAD SWAP1 POP PUSH2 0x1947 DUP2 PUSH2 0x1923 JUMP JUMPDEST SWAP3 SWAP2 POP POP JUMP JUMPDEST PUSH0 DUP1 PUSH0 DUP1 PUSH1 0x80 DUP6 DUP8 SUB SLT ISZERO PUSH2 0x1965 JUMPI PUSH2 0x1964 PUSH2 0x163B JUMP JUMPDEST JUMPDEST PUSH0 PUSH2 0x1972 DUP8 DUP3 DUP9 ADD PUSH2 0x1939 JUMP JUMPDEST SWAP5 POP POP PUSH1 0x20 PUSH2 0x1983 DUP8 DUP3 DUP9 ADD PUSH2 0x1882 JUMP JUMPDEST SWAP4 POP POP PUSH1 0x40 PUSH2 0x1994 DUP8 DUP3 DUP9 ADD PUSH2 0x1939 JUMP JUMPDEST SWAP3 POP POP PUSH1 0x60 PUSH2 0x19A5 DUP8 DUP3 DUP9 ADD PUSH2 0x1882 JUMP JUMPDEST SWAP2 POP POP SWAP3 SWAP6 SWAP2 SWAP5 POP SWAP3 POP JUMP JUMPDEST PUSH0 PUSH1 0x20 DUP3 DUP5 SUB SLT ISZERO PUSH2 0x19C6 JUMPI PUSH2 0x19C5 PUSH2 0x163B JUMP JUMPDEST JUMPDEST PUSH0 PUSH2 0x19D3 DUP5 DUP3 DUP6 ADD PUSH2 0x1882 JUMP JUMPDEST SWAP2 POP POP SWAP3 SWAP2 POP POP JUMP JUMPDEST PUSH0 DUP2 SWAP1 POP SWAP2 SWAP1 POP JUMP JUMPDEST PUSH0 PUSH2 0x19FF PUSH2 0x19FA PUSH2 0x19F5 DUP5 PUSH2 0x16F2 JUMP JUMPDEST PUSH2 0x19DC JUMP JUMPDEST PUSH2 0x16F2 JUMP JUMPDEST SWAP1 POP SWAP2 SWAP1 POP JUMP JUMPDEST PUSH0 PUSH2 0x1A10 DUP3 PUSH2 0x19E5 JUMP JUMPDEST SWAP1 POP SWAP2 SWAP1 POP JUMP JUMPDEST PUSH0 PUSH2 0x1A21 DUP3 PUSH2 0x1A06 JUMP JUMPDEST SWAP1 POP SWAP2 SWAP1 POP JUMP JUMPDEST PUSH2 0x1A31 DUP2 PUSH2 0x1A17 JUMP JUMPDEST DUP3 MSTORE POP POP JUMP JUMPDEST PUSH0 PUSH1 0x20 DUP3 ADD SWAP1 POP PUSH2 0x1A4A PUSH0 DUP4 ADD DUP5 PUSH2 0x1A28 JUMP JUMPDEST SWAP3 SWAP2 POP POP JUMP JUMPDEST PUSH32 0x4E487B7100000000000000000000000000000000000000000000000000000000 PUSH0 MSTORE PUSH1 0x11 PUSH1 0x4 MSTORE PUSH1 0x24 PUSH0 REVERT JUMPDEST PUSH0 PUSH2 0x1A87 DUP3 PUSH2 0x1777 JUMP JUMPDEST SWAP2 POP PUSH2 0x1A92 DUP4 PUSH2 0x1777 JUMP JUMPDEST SWAP3 POP DUP3 DUP3 MUL PUSH2 0x1AA0 DUP2 PUSH2 0x1777 JUMP JUMPDEST SWAP2 POP DUP3 DUP3 DIV DUP5 EQ DUP4 ISZERO OR PUSH2 0x1AB7 JUMPI PUSH2 0x1AB6 PUSH2 0x1A50 JUMP JUMPDEST JUMPDEST POP SWAP3 SWAP2 POP POP JUMP JUMPDEST PUSH32 0x4E487B7100000000000000000000000000000000000000000000000000000000 PUSH0 MSTORE PUSH1 0x12 PUSH1 0x4 MSTORE PUSH1 0x24 PUSH0 REVERT JUMPDEST PUSH0 PUSH2 0x1AF5 DUP3 PUSH2 0x1777 JUMP JUMPDEST SWAP2 POP PUSH2 0x1B00 DUP4 PUSH2 0x1777 JUMP JUMPDEST SWAP3 POP DUP3 PUSH2 0x1B10 JUMPI PUSH2 0x1B0F PUSH2 0x1ABE JUMP JUMPDEST JUMPDEST DUP3 DUP3 DIV SWAP1 POP SWAP3 SWAP2 POP POP JUMP JUMPDEST PUSH0 DUP3 DUP3 MSTORE PUSH1 0x20 DUP3 ADD SWAP1 POP SWAP3 SWAP2 POP POP JUMP JUMPDEST PUSH32 0x4173736574206E6F7420737570706F7274656400000000000000000000000000 PUSH0 DUP3 ADD MSTORE POP JUMP JUMPDEST PUSH0 PUSH2 0x1B5F PUSH1 0x13 DUP4 PUSH2 0x1B1B JUMP JUMPDEST SWAP2 POP PUSH2 0x1B6A DUP3 PUSH2 0x1B2B JUMP JUMPDEST PUSH1 0x20 DUP3 ADD SWAP1 POP SWAP2 SWAP1 POP JUMP JUMPDEST PUSH0 PUSH1 0x20 DUP3 ADD SWAP1 POP DUP2 DUP2 SUB PUSH0 DUP4 ADD MSTORE PUSH2 0x1B8C DUP2 PUSH2 0x1B53 JUMP JUMPDEST SWAP1 POP SWAP2 SWAP1 POP JUMP JUMPDEST PUSH2 0x1B9C DUP2 PUSH2 0x1711 JUMP JUMPDEST DUP3 MSTORE POP POP JUMP JUMPDEST PUSH0 PUSH1 0x60 DUP3 ADD SWAP1 POP PUSH2 0x1BB5 PUSH0 DUP4 ADD DUP7 PUSH2 0x1B93 JUMP JUMPDEST PUSH2 0x1BC2 PUSH1 0x20 DUP4 ADD DUP6 PUSH2 0x1B93 JUMP JUMPDEST PUSH2 0x1BCF PUSH1 0x40 DUP4 ADD DUP5 PUSH2 0x1780 JUMP JUMPDEST SWAP5 SWAP4 POP POP POP POP JUMP JUMPDEST PUSH2 0x1BE0 DUP2 PUSH2 0x16BF JUMP JUMPDEST DUP2 EQ PUSH2 0x1BEA JUMPI PUSH0 DUP1 REVERT JUMPDEST POP JUMP JUMPDEST PUSH0 DUP2 MLOAD SWAP1 POP PUSH2 0x1BFB DUP2 PUSH2 0x1BD7 JUMP JUMPDEST SWAP3 SWAP2 POP POP JUMP JUMPDEST PUSH0 PUSH1 0x20 DUP3 DUP5 SUB SLT ISZERO PUSH2 0x1C16 JUMPI PUSH2 0x1C15 PUSH2 0x163B JUMP JUMPDEST JUMPDEST PUSH0 PUSH2 0x1C23 DUP5 DUP3 DUP6 ADD PUSH2 0x1BED JUMP JUMPDEST SWAP2 POP POP SWAP3 SWAP2 POP POP JUMP JUMPDEST PUSH0 PUSH2 0x1C36 DUP3 PUSH2 0x1777 JUMP JUMPDEST SWAP2 POP PUSH2 0x1C41 DUP4 PUSH2 0x1777 JUMP JUMPDEST SWAP3 POP DUP3 DUP3 ADD SWAP1 POP DUP1 DUP3 GT ISZERO PUSH2 0x1C59 JUMPI PUSH2 0x1C58 PUSH2 0x1A50 JUMP JUMPDEST JUMPDEST SWAP3 SWAP2 POP POP JUMP JUMPDEST PUSH32 0x4E487B7100000000000000000000000000000000000000000000000000000000 PUSH0 MSTORE PUSH1 0x32 PUSH1 0x4 MSTORE PUSH1 0x24 PUSH0 REVERT JUMPDEST PUSH32 0x4F7261636C65206E6F742073657420666F722061737365740000000000000000 PUSH0 DUP3 ADD MSTORE POP JUMP JUMPDEST PUSH0 PUSH2 0x1CC0 PUSH1 0x18 DUP4 PUSH2 0x1B1B JUMP JUMPDEST SWAP2 POP PUSH2 0x1CCB DUP3 PUSH2 0x1C8C JUMP JUMPDEST PUSH1 0x20 DUP3 ADD SWAP1 POP SWAP2 SWAP1 POP JUMP JUMPDEST PUSH0 PUSH1 0x20 DUP3 ADD SWAP1 POP DUP2 DUP2 SUB PUSH0 DUP4 ADD MSTORE PUSH2 0x1CED DUP2 PUSH2 0x1CB4 JUMP JUMPDEST SWAP1 POP SWAP2 SWAP1 POP JUMP JUMPDEST PUSH0 PUSH10 0xFFFFFFFFFFFFFFFFFFFF DUP3 AND SWAP1 POP SWAP2 SWAP1 POP JUMP JUMPDEST PUSH2 0x1D12 DUP2 PUSH2 0x1CF4 JUMP JUMPDEST DUP2 EQ PUSH2 0x1D1C JUMPI PUSH0 DUP1 REVERT JUMPDEST POP JUMP JUMPDEST PUSH0 DUP2 MLOAD SWAP1 POP PUSH2 0x1D2D DUP2 PUSH2 0x1D09 JUMP JUMPDEST SWAP3 SWAP2 POP POP JUMP JUMPDEST PUSH0 DUP2 SWAP1 POP SWAP2 SWAP1 POP JUMP JUMPDEST PUSH2 0x1D45 DUP2 PUSH2 0x1D33 JUMP JUMPDEST DUP2 EQ PUSH2 0x1D4F JUMPI PUSH0 DUP1 REVERT JUMPDEST POP JUMP JUMPDEST PUSH0 DUP2 MLOAD SWAP1 POP PUSH2 0x1D60 DUP2 PUSH2 0x1D3C JUMP JUMPDEST SWAP3 SWAP2 POP POP JUMP JUMPDEST PUSH0 DUP2 MLOAD SWAP1 POP PUSH2 0x1D74 DUP2 PUSH2 0x186C JUMP JUMPDEST SWAP3 SWAP2 POP POP JUMP JUMPDEST PUSH0 DUP1 PUSH0 DUP1 PUSH0 PUSH1 0xA0 DUP7 DUP9 SUB SLT ISZERO PUSH2 0x1D93 JUMPI PUSH2 0x1D92 PUSH2 0x163B JUMP JUMPDEST JUMPDEST PUSH0 PUSH2 0x1DA0 DUP9 DUP3 DUP10 ADD PUSH2 0x1D1F JUMP JUMPDEST SWAP6 POP POP PUSH1 0x20 PUSH2 0x1DB1 DUP9 DUP3 DUP10 ADD PUSH2 0x1D52 JUMP JUMPDEST SWAP5 POP POP PUSH1 0x40 PUSH2 0x1DC2 DUP9 DUP3 DUP10 ADD PUSH2 0x1D66 JUMP JUMPDEST SWAP4 POP POP PUSH1 0x60 PUSH2 0x1DD3 DUP9 DUP3 DUP10 ADD PUSH2 0x1D66 JUMP JUMPDEST SWAP3 POP POP PUSH1 0x80 PUSH2 0x1DE4 DUP9 DUP3 DUP10 ADD PUSH2 0x1D1F JUMP JUMPDEST SWAP2 POP POP SWAP3 SWAP6 POP SWAP3 SWAP6 SWAP1 SWAP4 POP JUMP JUMPDEST PUSH32 0x496E76616C696420707269636520646174610000000000000000000000000000 PUSH0 DUP3 ADD MSTORE POP JUMP JUMPDEST PUSH0 PUSH2 0x1E25 PUSH1 0x12 DUP4 PUSH2 0x1B1B JUMP JUMPDEST SWAP2 POP PUSH2 0x1E30 DUP3 PUSH2 0x1DF1 JUMP JUMPDEST PUSH1 0x20 DUP3 ADD SWAP1 POP SWAP2 SWAP1 POP JUMP JUMPDEST PUSH0 PUSH1 0x20 DUP3 ADD SWAP1 POP DUP2 DUP2 SUB PUSH0 DUP4 ADD MSTORE PUSH2 0x1E52 DUP2 PUSH2 0x1E19 JUMP JUMPDEST SWAP1 POP SWAP2 SWAP1 POP JUMP JUMPDEST PUSH0 PUSH1 0xFF DUP3 AND SWAP1 POP SWAP2 SWAP1 POP JUMP JUMPDEST PUSH2 0x1E6E DUP2 PUSH2 0x1E59 JUMP JUMPDEST DUP2 EQ PUSH2 0x1E78 JUMPI PUSH0 DUP1 REVERT JUMPDEST POP JUMP JUMPDEST PUSH0 DUP2 MLOAD SWAP1 POP PUSH2 0x1E89 DUP2 PUSH2 0x1E65 JUMP JUMPDEST SWAP3 SWAP2 POP POP JUMP JUMPDEST PUSH0 PUSH1 0x20 DUP3 DUP5 SUB SLT ISZERO PUSH2 0x1EA4 JUMPI PUSH2 0x1EA3 PUSH2 0x163B JUMP JUMPDEST JUMPDEST PUSH0 PUSH2 0x1EB1 DUP5 DUP3 DUP6 ADD PUSH2 0x1E7B JUMP JUMPDEST SWAP2 POP POP SWAP3 SWAP2 POP POP JUMP JUMPDEST PUSH0 DUP2 PUSH1 0x1 SHR SWAP1 POP SWAP2 SWAP1 POP JUMP JUMPDEST PUSH0 DUP1 DUP3 SWAP2 POP DUP4 SWAP1 POP JUMPDEST PUSH1 0x1 DUP6 GT ISZERO PUSH2 0x1F0F JUMPI DUP1 DUP7 DIV DUP2 GT ISZERO PUSH2 0x1EEB JUMPI PUSH2 0x1EEA PUSH2 0x1A50 JUMP JUMPDEST JUMPDEST PUSH1 0x1 DUP6 AND ISZERO PUSH2 0x1EFA JUMPI DUP1 DUP3 MUL SWAP2 POP JUMPDEST DUP1 DUP2 MUL SWAP1 POP PUSH2 0x1F08 DUP6 PUSH2 0x1EBA JUMP JUMPDEST SWAP5 POP PUSH2 0x1ECF JUMP JUMPDEST SWAP5 POP SWAP5 SWAP3 POP POP POP JUMP JUMPDEST PUSH0 DUP3 PUSH2 0x1F27 JUMPI PUSH1 0x1 SWAP1 POP PUSH2 0x1FE2 JUMP JUMPDEST DUP2 PUSH2 0x1F34 JUMPI PUSH0 SWAP1 POP PUSH2 0x1FE2 JUMP JUMPDEST DUP2 PUSH1 0x1 DUP2 EQ PUSH2 0x1F4A JUMPI PUSH1 0x2 DUP2 EQ PUSH2 0x1F54 JUMPI PUSH2 0x1F83 JUMP JUMPDEST PUSH1 0x1 SWAP2 POP POP PUSH2 0x1FE2 JUMP JUMPDEST PUSH1 0xFF DUP5 GT ISZERO PUSH2 0x1F66 JUMPI PUSH2 0x1F65 PUSH2 0x1A50 JUMP JUMPDEST JUMPDEST DUP4 PUSH1 0x2 EXP SWAP2 POP DUP5 DUP3 GT ISZERO PUSH2 0x1F7D JUMPI PUSH2 0x1F7C PUSH2 0x1A50 JUMP JUMPDEST JUMPDEST POP PUSH2 0x1FE2 JUMP JUMPDEST POP PUSH1 0x20 DUP4 LT PUSH2 0x133 DUP4 LT AND PUSH1 0x4E DUP5 LT PUSH1 0xB DUP5 LT AND OR ISZERO PUSH2 0x1FB8 JUMPI DUP3 DUP3 EXP SWAP1 POP DUP4 DUP2 GT ISZERO PUSH2 0x1FB3 JUMPI PUSH2 0x1FB2 PUSH2 0x1A50 JUMP JUMPDEST JUMPDEST PUSH2 0x1FE2 JUMP JUMPDEST PUSH2 0x1FC5 DUP5 DUP5 DUP5 PUSH1 0x1 PUSH2 0x1EC6 JUMP JUMPDEST SWAP3 POP SWAP1 POP DUP2 DUP5 DIV DUP2 GT ISZERO PUSH2 0x1FDC JUMPI PUSH2 0x1FDB PUSH2 0x1A50 JUMP JUMPDEST JUMPDEST DUP2 DUP2 MUL SWAP1 POP JUMPDEST SWAP4 SWAP3 POP POP POP JUMP JUMPDEST PUSH0 PUSH2 0x1FF3 DUP3 PUSH2 0x1777 JUMP JUMPDEST SWAP2 POP PUSH2 0x1FFE DUP4 PUSH2 0x1777 JUMP JUMPDEST SWAP3 POP PUSH2 0x202B PUSH32 0xFFFFFFFFFFFFFFFFFFFFFFFFFFFFFFFFFFFFFFFFFFFFFFFFFFFFFFFFFFFFFFFF DUP5 DUP5 PUSH2 0x1F18 JUMP JUMPDEST SWAP1 POP SWAP3 SWAP2 POP POP JUMP JUMPDEST PUSH0 PUSH2 0x203D DUP3 PUSH2 0x1777 JUMP JUMPDEST SWAP2 POP PUSH2 0x2048 DUP4 PUSH2 0x1777 JUMP JUMPDEST SWAP3 POP DUP3 DUP3 SUB SWAP1 POP DUP2 DUP2 GT ISZERO PUSH2 0x2060 JUMPI PUSH2 0x205F PUSH2 0x1A50 JUMP JUMPDEST JUMPDEST SWAP3 SWAP2 POP POP JUMP JUMPDEST PUSH32 0x496E73756666696369656E742062616C616E6365000000000000000000000000 PUSH0 DUP3 ADD MSTORE POP JUMP JUMPDEST PUSH0 PUSH2 0x209A PUSH1 0x14 DUP4 PUSH2 0x1B1B JUMP JUMPDEST SWAP2 POP PUSH2 0x20A5 DUP3 PUSH2 0x2066 JUMP JUMPDEST PUSH1 0x20 DUP3 ADD SWAP1 POP SWAP2 SWAP1 POP JUMP JUMPDEST PUSH0 PUSH1 0x20 DUP3 ADD SWAP1 POP DUP2 DUP2 SUB PUSH0 DUP4 ADD MSTORE PUSH2 0x20C7 DUP2 PUSH2 0x208E JUMP JUMPDEST SWAP1 POP SWAP2 SWAP1 POP JUMP JUMPDEST PUSH0 PUSH1 0x40 DUP3 ADD SWAP1 POP PUSH2 0x20E1 PUSH0 DUP4 ADD DUP6 PUSH2 0x1B93 JUMP JUMPDEST PUSH2 0x20EE PUSH1 0x20 DUP4 ADD DUP5 PUSH2 0x1780 JUMP JUMPDEST SWAP4 SWAP3 POP POP POP JUMP JUMPDEST PUSH0 PUSH1 0x40 DUP3 ADD SWAP1 POP PUSH2 0x2108 PUSH0 DUP4 ADD DUP6 PUSH2 0x1B93 JUMP JUMPDEST PUSH2 0x2115 PUSH1 0x20 DUP4 ADD DUP5 PUSH2 0x1806 JUMP JUMPDEST SWAP4 SWAP3 POP POP POP JUMP INVALID LOG2 PUSH5 0x6970667358 0x22 SLT KECCAK256 BALANCE 0x22 GT EXTCODESIZE 0xE7 0xF 0xFB 0xCF 0xA8 SWAP7 ADDRESS NOT PUSH18 0xA9EE8C4AEA628265C5674C75ED26967E7E4C SWAP9 PUSH5 0x736F6C6343 STOP ADDMOD OR STOP CALLER "
				},
				"gasEstimates": {
					"creation": {
						"codeDepositCost": "1706000",
						"executionCost": "infinite",
						"totalCost": "infinite"
					},
					"external": {
						"ADMIN_ROLE()": "458",
						"DEFAULT_ADMIN_ROLE()": "419",
						"VAULT_MANAGER_ROLE()": "436",
						"collectPerformanceFee()": "2969",
						"deposit(address,uint256)": "infinite",
						"estimateAssetValueUSD(address,uint256)": "infinite",
						"estimateVaultValue()": "infinite",
						"getRoleAdmin(bytes32)": "infinite",
						"grantRole(bytes32,address)": "infinite",
						"hasRole(bytes32,address)": "3167",
						"lastRecordedProfit()": "2514",
						"performanceFeePercentage()": "2557",
						"renounceRole(bytes32,address)": "infinite",
						"revokeRole(bytes32,address)": "infinite",
						"setAssetToOracle(address,address)": "infinite",
						"supportedAssets(uint256)": "infinite",
						"supportsInterface(bytes4)": "741",
						"totalProfits()": "2447",
						"totalVaultBalance(address)": "2825",
						"trade(address,uint256,address,uint256)": "infinite",
						"userDeposits(address)": "2883",
						"userProfits(address)": "2846",
						"withdraw(address,uint256)": "infinite"
					},
					"internal": {
						"calculateProfits()": "14",
						"calculateUserProfitShare(address)": "infinite",
						"estimateAssetValue(address,uint256)": "infinite",
						"isAssetSupported(contract IERC20)": "infinite"
					}
				},
				"methodIdentifiers": {
					"ADMIN_ROLE()": "75b238fc",
					"DEFAULT_ADMIN_ROLE()": "a217fddf",
					"VAULT_MANAGER_ROLE()": "5e5a24a4",
					"collectPerformanceFee()": "06f34c2f",
					"deposit(address,uint256)": "47e7ef24",
					"estimateAssetValueUSD(address,uint256)": "a356efc4",
					"estimateVaultValue()": "9e4a9369",
					"getRoleAdmin(bytes32)": "248a9ca3",
					"grantRole(bytes32,address)": "2f2ff15d",
					"hasRole(bytes32,address)": "91d14854",
					"lastRecordedProfit()": "523820a1",
					"performanceFeePercentage()": "f4457fab",
					"renounceRole(bytes32,address)": "36568abe",
					"revokeRole(bytes32,address)": "d547741f",
					"setAssetToOracle(address,address)": "90805c34",
					"supportedAssets(uint256)": "c68dbb37",
					"supportsInterface(bytes4)": "01ffc9a7",
					"totalProfits()": "bd998cb3",
					"totalVaultBalance(address)": "30e5065e",
					"trade(address,uint256,address,uint256)": "bb39a960",
					"userDeposits(address)": "0ba36dcd",
					"userProfits(address)": "be354836",
					"withdraw(address,uint256)": "f3fef3a3"
				}
			},
			"storageLayout": {
				"storage": [
					{
						"astId": 72,
						"contract": "contracts/vault/AssetVault/AssetVault.sol:AssetVault",
						"label": "_roles",
						"offset": 0,
						"slot": "0",
						"type": "t_mapping(t_bytes32,t_struct(RoleData)67_storage)"
					},
					{
						"astId": 588,
						"contract": "contracts/vault/AssetVault/AssetVault.sol:AssetVault",
						"label": "dataFeed",
						"offset": 0,
						"slot": "1",
						"type": "t_contract(AggregatorV3Interface)45"
					},
					{
						"astId": 602,
						"contract": "contracts/vault/AssetVault/AssetVault.sol:AssetVault",
						"label": "supportedAssets",
						"offset": 0,
						"slot": "2",
						"type": "t_array(t_contract(IERC20)502)dyn_storage"
					},
					{
						"astId": 606,
						"contract": "contracts/vault/AssetVault/AssetVault.sol:AssetVault",
						"label": "totalVaultBalance",
						"offset": 0,
						"slot": "3",
						"type": "t_mapping(t_address,t_uint256)"
					},
					{
						"astId": 611,
						"contract": "contracts/vault/AssetVault/AssetVault.sol:AssetVault",
						"label": "assetToOracle",
						"offset": 0,
						"slot": "4",
						"type": "t_mapping(t_address,t_contract(AggregatorV3Interface)45)"
					},
					{
						"astId": 616,
						"contract": "contracts/vault/AssetVault/AssetVault.sol:AssetVault",
						"label": "userDeposits",
						"offset": 0,
						"slot": "5",
						"type": "t_mapping(t_address,t_struct(UserDeposit)585_storage)"
					},
					{
						"astId": 620,
						"contract": "contracts/vault/AssetVault/AssetVault.sol:AssetVault",
						"label": "userProfits",
						"offset": 0,
						"slot": "6",
						"type": "t_mapping(t_address,t_uint256)"
					},
					{
						"astId": 622,
						"contract": "contracts/vault/AssetVault/AssetVault.sol:AssetVault",
						"label": "performanceFeePercentage",
						"offset": 0,
						"slot": "7",
						"type": "t_uint256"
					},
					{
						"astId": 624,
						"contract": "contracts/vault/AssetVault/AssetVault.sol:AssetVault",
						"label": "lastRecordedProfit",
						"offset": 0,
						"slot": "8",
						"type": "t_uint256"
					},
					{
						"astId": 626,
						"contract": "contracts/vault/AssetVault/AssetVault.sol:AssetVault",
						"label": "totalProfits",
						"offset": 0,
						"slot": "9",
						"type": "t_uint256"
					}
				],
				"types": {
					"t_address": {
						"encoding": "inplace",
						"label": "address",
						"numberOfBytes": "20"
					},
					"t_array(t_contract(IERC20)502)dyn_storage": {
						"base": "t_contract(IERC20)502",
						"encoding": "dynamic_array",
						"label": "contract IERC20[]",
						"numberOfBytes": "32"
					},
					"t_bool": {
						"encoding": "inplace",
						"label": "bool",
						"numberOfBytes": "1"
					},
					"t_bytes32": {
						"encoding": "inplace",
						"label": "bytes32",
						"numberOfBytes": "32"
					},
					"t_contract(AggregatorV3Interface)45": {
						"encoding": "inplace",
						"label": "contract AggregatorV3Interface",
						"numberOfBytes": "20"
					},
					"t_contract(IERC20)502": {
						"encoding": "inplace",
						"label": "contract IERC20",
						"numberOfBytes": "20"
					},
					"t_mapping(t_address,t_bool)": {
						"encoding": "mapping",
						"key": "t_address",
						"label": "mapping(address => bool)",
						"numberOfBytes": "32",
						"value": "t_bool"
					},
					"t_mapping(t_address,t_contract(AggregatorV3Interface)45)": {
						"encoding": "mapping",
						"key": "t_address",
						"label": "mapping(address => contract AggregatorV3Interface)",
						"numberOfBytes": "32",
						"value": "t_contract(AggregatorV3Interface)45"
					},
					"t_mapping(t_address,t_struct(UserDeposit)585_storage)": {
						"encoding": "mapping",
						"key": "t_address",
						"label": "mapping(address => struct AssetVault.UserDeposit)",
						"numberOfBytes": "32",
						"value": "t_struct(UserDeposit)585_storage"
					},
					"t_mapping(t_address,t_uint256)": {
						"encoding": "mapping",
						"key": "t_address",
						"label": "mapping(address => uint256)",
						"numberOfBytes": "32",
						"value": "t_uint256"
					},
					"t_mapping(t_bytes32,t_struct(RoleData)67_storage)": {
						"encoding": "mapping",
						"key": "t_bytes32",
						"label": "mapping(bytes32 => struct AccessControl.RoleData)",
						"numberOfBytes": "32",
						"value": "t_struct(RoleData)67_storage"
					},
					"t_struct(RoleData)67_storage": {
						"encoding": "inplace",
						"label": "struct AccessControl.RoleData",
						"members": [
							{
								"astId": 64,
								"contract": "contracts/vault/AssetVault/AssetVault.sol:AssetVault",
								"label": "hasRole",
								"offset": 0,
								"slot": "0",
								"type": "t_mapping(t_address,t_bool)"
							},
							{
								"astId": 66,
								"contract": "contracts/vault/AssetVault/AssetVault.sol:AssetVault",
								"label": "adminRole",
								"offset": 0,
								"slot": "1",
								"type": "t_bytes32"
							}
						],
						"numberOfBytes": "64"
					},
					"t_struct(UserDeposit)585_storage": {
						"encoding": "inplace",
						"label": "struct AssetVault.UserDeposit",
						"members": [
							{
								"astId": 580,
								"contract": "contracts/vault/AssetVault/AssetVault.sol:AssetVault",
								"label": "totalValue",
								"offset": 0,
								"slot": "0",
								"type": "t_uint256"
							},
							{
								"astId": 584,
								"contract": "contracts/vault/AssetVault/AssetVault.sol:AssetVault",
								"label": "assetBalances",
								"offset": 0,
								"slot": "1",
								"type": "t_mapping(t_address,t_uint256)"
							}
						],
						"numberOfBytes": "64"
					},
					"t_uint256": {
						"encoding": "inplace",
						"label": "uint256",
						"numberOfBytes": "32"
					}
				}
			},
			"userdoc": {
				"kind": "user",
				"methods": {},
				"version": 1
			}
		}
	}
}