{
	"data": {
		"bytecode": {
			"linkReferences": {},
			"object": "60a060405234801561000f575f80fd5b50604051610b4f380380610b4f833981810160405281019061003191906100c9565b8073ffffffffffffffffffffffffffffffffffffffff1660808173ffffffffffffffffffffffffffffffffffffffff1681525050506100f4565b5f80fd5b5f73ffffffffffffffffffffffffffffffffffffffff82169050919050565b5f6100988261006f565b9050919050565b6100a88161008e565b81146100b2575f80fd5b50565b5f815190506100c38161009f565b92915050565b5f602082840312156100de576100dd61006b565b5b5f6100eb848285016100b5565b91505092915050565b608051610a366101195f395f818160990152818161015a01526101ff0152610a365ff3fe608060405234801561000f575f80fd5b5060043610610034575f3560e01c80638ebb36c714610038578063c31c9c0714610068575b5f80fd5b610052600480360381019061004d919061058b565b610086565b60405161005f9190610611565b60405180910390f35b6100706101fd565b60405161007d9190610685565b60405180910390f35b5f61009386843087610221565b6100be867f000000000000000000000000000000000000000000000000000000000000000086610373565b5f6040518061010001604052808873ffffffffffffffffffffffffffffffffffffffff1681526020018773ffffffffffffffffffffffffffffffffffffffff1681526020018462ffffff1681526020018573ffffffffffffffffffffffffffffffffffffffff1681526020014281526020018681526020015f81526020015f73ffffffffffffffffffffffffffffffffffffffff1681525090507f000000000000000000000000000000000000000000000000000000000000000073ffffffffffffffffffffffffffffffffffffffff1663414bf389826040518263ffffffff1660e01b81526004016101b1919061077a565b6020604051808303815f875af11580156101cd573d5f803e3d5ffd5b505050506040513d601f19601f820116820180604052508101906101f191906107a8565b91505095945050505050565b7f000000000000000000000000000000000000000000000000000000000000000081565b5f808573ffffffffffffffffffffffffffffffffffffffff166323b872dd60e01b868686604051602401610257939291906107e2565b604051602081830303815290604052907bffffffffffffffffffffffffffffffffffffffffffffffffffffffff19166020820180517bffffffffffffffffffffffffffffffffffffffffffffffffffffffff83818316178352505050506040516102c19190610883565b5f604051808303815f865af19150503d805f81146102fa576040519150601f19603f3d011682016040523d82523d5f602084013e6102ff565b606091505b509150915081801561032c57505f8151148061032b57508080602001905181019061032a91906108ce565b5b5b61036b576040517f08c379a000000000000000000000000000000000000000000000000000000000815260040161036290610953565b60405180910390fd5b505050505050565b5f808473ffffffffffffffffffffffffffffffffffffffff1663095ea7b360e01b85856040516024016103a7929190610971565b604051602081830303815290604052907bffffffffffffffffffffffffffffffffffffffffffffffffffffffff19166020820180517bffffffffffffffffffffffffffffffffffffffffffffffffffffffff83818316178352505050506040516104119190610883565b5f604051808303815f865af19150503d805f811461044a576040519150601f19603f3d011682016040523d82523d5f602084013e61044f565b606091505b509150915081801561047c57505f8151148061047b57508080602001905181019061047a91906108ce565b5b5b6104bb576040517f08c379a00000000000000000000000000000000000000000000000000000000081526004016104b2906109e2565b60405180910390fd5b5050505050565b5f80fd5b5f73ffffffffffffffffffffffffffffffffffffffff82169050919050565b5f6104ef826104c6565b9050919050565b6104ff816104e5565b8114610509575f80fd5b50565b5f8135905061051a816104f6565b92915050565b5f819050919050565b61053281610520565b811461053c575f80fd5b50565b5f8135905061054d81610529565b92915050565b5f62ffffff82169050919050565b61056a81610553565b8114610574575f80fd5b50565b5f8135905061058581610561565b92915050565b5f805f805f60a086880312156105a4576105a36104c2565b5b5f6105b18882890161050c565b95505060206105c28882890161050c565b94505060406105d38882890161053f565b93505060606105e48882890161050c565b92505060806105f588828901610577565b9150509295509295909350565b61060b81610520565b82525050565b5f6020820190506106245f830184610602565b92915050565b5f819050919050565b5f61064d610648610643846104c6565b61062a565b6104c6565b9050919050565b5f61065e82610633565b9050919050565b5f61066f82610654565b9050919050565b61067f81610665565b82525050565b5f6020820190506106985f830184610676565b92915050565b6106a7816104e5565b82525050565b6106b681610553565b82525050565b6106c581610520565b82525050565b6106d4816104c6565b82525050565b61010082015f8201516106ef5f85018261069e565b506020820151610702602085018261069e565b50604082015161071560408501826106ad565b506060820151610728606085018261069e565b50608082015161073b60808501826106bc565b5060a082015161074e60a08501826106bc565b5060c082015161076160c08501826106bc565b5060e082015161077460e08501826106cb565b50505050565b5f6101008201905061078e5f8301846106da565b92915050565b5f815190506107a281610529565b92915050565b5f602082840312156107bd576107bc6104c2565b5b5f6107ca84828501610794565b91505092915050565b6107dc816104e5565b82525050565b5f6060820190506107f55f8301866107d3565b61080260208301856107d3565b61080f6040830184610602565b949350505050565b5f81519050919050565b5f81905092915050565b5f5b8381101561084857808201518184015260208101905061082d565b5f8484015250505050565b5f61085d82610817565b6108678185610821565b935061087781856020860161082b565b80840191505092915050565b5f61088e8284610853565b915081905092915050565b5f8115159050919050565b6108ad81610899565b81146108b7575f80fd5b50565b5f815190506108c8816108a4565b92915050565b5f602082840312156108e3576108e26104c2565b5b5f6108f0848285016108ba565b91505092915050565b5f82825260208201905092915050565b7f53544600000000000000000000000000000000000000000000000000000000005f82015250565b5f61093d6003836108f9565b915061094882610909565b602082019050919050565b5f6020820190508181035f83015261096a81610931565b9050919050565b5f6040820190506109845f8301856107d3565b6109916020830184610602565b9392505050565b7f53410000000000000000000000000000000000000000000000000000000000005f82015250565b5f6109cc6002836108f9565b91506109d782610998565b602082019050919050565b5f6020820190508181035f8301526109f9816109c0565b905091905056fea2646970667358221220beda2ee0f3971509d32163911ebfe893d50d0e1569ce6c4dd4156879e2549bdc64736f6c63430008170033",
			"opcodes": "PUSH1 0xA0 PUSH1 0x40 MSTORE CALLVALUE DUP1 ISZERO PUSH2 0xF JUMPI PUSH0 DUP1 REVERT JUMPDEST POP PUSH1 0x40 MLOAD PUSH2 0xB4F CODESIZE SUB DUP1 PUSH2 0xB4F DUP4 CODECOPY DUP2 DUP2 ADD PUSH1 0x40 MSTORE DUP2 ADD SWAP1 PUSH2 0x31 SWAP2 SWAP1 PUSH2 0xC9 JUMP JUMPDEST DUP1 PUSH20 0xFFFFFFFFFFFFFFFFFFFFFFFFFFFFFFFFFFFFFFFF AND PUSH1 0x80 DUP2 PUSH20 0xFFFFFFFFFFFFFFFFFFFFFFFFFFFFFFFFFFFFFFFF AND DUP2 MSTORE POP POP POP PUSH2 0xF4 JUMP JUMPDEST PUSH0 DUP1 REVERT JUMPDEST PUSH0 PUSH20 0xFFFFFFFFFFFFFFFFFFFFFFFFFFFFFFFFFFFFFFFF DUP3 AND SWAP1 POP SWAP2 SWAP1 POP JUMP JUMPDEST PUSH0 PUSH2 0x98 DUP3 PUSH2 0x6F JUMP JUMPDEST SWAP1 POP SWAP2 SWAP1 POP JUMP JUMPDEST PUSH2 0xA8 DUP2 PUSH2 0x8E JUMP JUMPDEST DUP2 EQ PUSH2 0xB2 JUMPI PUSH0 DUP1 REVERT JUMPDEST POP JUMP JUMPDEST PUSH0 DUP2 MLOAD SWAP1 POP PUSH2 0xC3 DUP2 PUSH2 0x9F JUMP JUMPDEST SWAP3 SWAP2 POP POP JUMP JUMPDEST PUSH0 PUSH1 0x20 DUP3 DUP5 SUB SLT ISZERO PUSH2 0xDE JUMPI PUSH2 0xDD PUSH2 0x6B JUMP JUMPDEST JUMPDEST PUSH0 PUSH2 0xEB DUP5 DUP3 DUP6 ADD PUSH2 0xB5 JUMP JUMPDEST SWAP2 POP POP SWAP3 SWAP2 POP POP JUMP JUMPDEST PUSH1 0x80 MLOAD PUSH2 0xA36 PUSH2 0x119 PUSH0 CODECOPY PUSH0 DUP2 DUP2 PUSH1 0x99 ADD MSTORE DUP2 DUP2 PUSH2 0x15A ADD MSTORE PUSH2 0x1FF ADD MSTORE PUSH2 0xA36 PUSH0 RETURN INVALID PUSH1 0x80 PUSH1 0x40 MSTORE CALLVALUE DUP1 ISZERO PUSH2 0xF JUMPI PUSH0 DUP1 REVERT JUMPDEST POP PUSH1 0x4 CALLDATASIZE LT PUSH2 0x34 JUMPI PUSH0 CALLDATALOAD PUSH1 0xE0 SHR DUP1 PUSH4 0x8EBB36C7 EQ PUSH2 0x38 JUMPI DUP1 PUSH4 0xC31C9C07 EQ PUSH2 0x68 JUMPI JUMPDEST PUSH0 DUP1 REVERT JUMPDEST PUSH2 0x52 PUSH1 0x4 DUP1 CALLDATASIZE SUB DUP2 ADD SWAP1 PUSH2 0x4D SWAP2 SWAP1 PUSH2 0x58B JUMP JUMPDEST PUSH2 0x86 JUMP JUMPDEST PUSH1 0x40 MLOAD PUSH2 0x5F SWAP2 SWAP1 PUSH2 0x611 JUMP JUMPDEST PUSH1 0x40 MLOAD DUP1 SWAP2 SUB SWAP1 RETURN JUMPDEST PUSH2 0x70 PUSH2 0x1FD JUMP JUMPDEST PUSH1 0x40 MLOAD PUSH2 0x7D SWAP2 SWAP1 PUSH2 0x685 JUMP JUMPDEST PUSH1 0x40 MLOAD DUP1 SWAP2 SUB SWAP1 RETURN JUMPDEST PUSH0 PUSH2 0x93 DUP7 DUP5 ADDRESS DUP8 PUSH2 0x221 JUMP JUMPDEST PUSH2 0xBE DUP7 PUSH32 0x0 DUP7 PUSH2 0x373 JUMP JUMPDEST PUSH0 PUSH1 0x40 MLOAD DUP1 PUSH2 0x100 ADD PUSH1 0x40 MSTORE DUP1 DUP9 PUSH20 0xFFFFFFFFFFFFFFFFFFFFFFFFFFFFFFFFFFFFFFFF AND DUP2 MSTORE PUSH1 0x20 ADD DUP8 PUSH20 0xFFFFFFFFFFFFFFFFFFFFFFFFFFFFFFFFFFFFFFFF AND DUP2 MSTORE PUSH1 0x20 ADD DUP5 PUSH3 0xFFFFFF AND DUP2 MSTORE PUSH1 0x20 ADD DUP6 PUSH20 0xFFFFFFFFFFFFFFFFFFFFFFFFFFFFFFFFFFFFFFFF AND DUP2 MSTORE PUSH1 0x20 ADD TIMESTAMP DUP2 MSTORE PUSH1 0x20 ADD DUP7 DUP2 MSTORE PUSH1 0x20 ADD PUSH0 DUP2 MSTORE PUSH1 0x20 ADD PUSH0 PUSH20 0xFFFFFFFFFFFFFFFFFFFFFFFFFFFFFFFFFFFFFFFF AND DUP2 MSTORE POP SWAP1 POP PUSH32 0x0 PUSH20 0xFFFFFFFFFFFFFFFFFFFFFFFFFFFFFFFFFFFFFFFF AND PUSH4 0x414BF389 DUP3 PUSH1 0x40 MLOAD DUP3 PUSH4 0xFFFFFFFF AND PUSH1 0xE0 SHL DUP2 MSTORE PUSH1 0x4 ADD PUSH2 0x1B1 SWAP2 SWAP1 PUSH2 0x77A JUMP JUMPDEST PUSH1 0x20 PUSH1 0x40 MLOAD DUP1 DUP4 SUB DUP2 PUSH0 DUP8 GAS CALL ISZERO DUP1 ISZERO PUSH2 0x1CD JUMPI RETURNDATASIZE PUSH0 DUP1 RETURNDATACOPY RETURNDATASIZE PUSH0 REVERT JUMPDEST POP POP POP POP PUSH1 0x40 MLOAD RETURNDATASIZE PUSH1 0x1F NOT PUSH1 0x1F DUP3 ADD AND DUP3 ADD DUP1 PUSH1 0x40 MSTORE POP DUP2 ADD SWAP1 PUSH2 0x1F1 SWAP2 SWAP1 PUSH2 0x7A8 JUMP JUMPDEST SWAP2 POP POP SWAP6 SWAP5 POP POP POP POP POP JUMP JUMPDEST PUSH32 0x0 DUP2 JUMP JUMPDEST PUSH0 DUP1 DUP6 PUSH20 0xFFFFFFFFFFFFFFFFFFFFFFFFFFFFFFFFFFFFFFFF AND PUSH4 0x23B872DD PUSH1 0xE0 SHL DUP7 DUP7 DUP7 PUSH1 0x40 MLOAD PUSH1 0x24 ADD PUSH2 0x257 SWAP4 SWAP3 SWAP2 SWAP1 PUSH2 0x7E2 JUMP JUMPDEST PUSH1 0x40 MLOAD PUSH1 0x20 DUP2 DUP4 SUB SUB DUP2 MSTORE SWAP1 PUSH1 0x40 MSTORE SWAP1 PUSH28 0xFFFFFFFFFFFFFFFFFFFFFFFFFFFFFFFFFFFFFFFFFFFFFFFFFFFFFFFF NOT AND PUSH1 0x20 DUP3 ADD DUP1 MLOAD PUSH28 0xFFFFFFFFFFFFFFFFFFFFFFFFFFFFFFFFFFFFFFFFFFFFFFFFFFFFFFFF DUP4 DUP2 DUP4 AND OR DUP4 MSTORE POP POP POP POP PUSH1 0x40 MLOAD PUSH2 0x2C1 SWAP2 SWAP1 PUSH2 0x883 JUMP JUMPDEST PUSH0 PUSH1 0x40 MLOAD DUP1 DUP4 SUB DUP2 PUSH0 DUP7 GAS CALL SWAP2 POP POP RETURNDATASIZE DUP1 PUSH0 DUP2 EQ PUSH2 0x2FA JUMPI PUSH1 0x40 MLOAD SWAP2 POP PUSH1 0x1F NOT PUSH1 0x3F RETURNDATASIZE ADD AND DUP3 ADD PUSH1 0x40 MSTORE RETURNDATASIZE DUP3 MSTORE RETURNDATASIZE PUSH0 PUSH1 0x20 DUP5 ADD RETURNDATACOPY PUSH2 0x2FF JUMP JUMPDEST PUSH1 0x60 SWAP2 POP JUMPDEST POP SWAP2 POP SWAP2 POP DUP2 DUP1 ISZERO PUSH2 0x32C JUMPI POP PUSH0 DUP2 MLOAD EQ DUP1 PUSH2 0x32B JUMPI POP DUP1 DUP1 PUSH1 0x20 ADD SWAP1 MLOAD DUP2 ADD SWAP1 PUSH2 0x32A SWAP2 SWAP1 PUSH2 0x8CE JUMP JUMPDEST JUMPDEST JUMPDEST PUSH2 0x36B JUMPI PUSH1 0x40 MLOAD PUSH32 0x8C379A000000000000000000000000000000000000000000000000000000000 DUP2 MSTORE PUSH1 0x4 ADD PUSH2 0x362 SWAP1 PUSH2 0x953 JUMP JUMPDEST PUSH1 0x40 MLOAD DUP1 SWAP2 SUB SWAP1 REVERT JUMPDEST POP POP POP POP POP POP JUMP JUMPDEST PUSH0 DUP1 DUP5 PUSH20 0xFFFFFFFFFFFFFFFFFFFFFFFFFFFFFFFFFFFFFFFF AND PUSH4 0x95EA7B3 PUSH1 0xE0 SHL DUP6 DUP6 PUSH1 0x40 MLOAD PUSH1 0x24 ADD PUSH2 0x3A7 SWAP3 SWAP2 SWAP1 PUSH2 0x971 JUMP JUMPDEST PUSH1 0x40 MLOAD PUSH1 0x20 DUP2 DUP4 SUB SUB DUP2 MSTORE SWAP1 PUSH1 0x40 MSTORE SWAP1 PUSH28 0xFFFFFFFFFFFFFFFFFFFFFFFFFFFFFFFFFFFFFFFFFFFFFFFFFFFFFFFF NOT AND PUSH1 0x20 DUP3 ADD DUP1 MLOAD PUSH28 0xFFFFFFFFFFFFFFFFFFFFFFFFFFFFFFFFFFFFFFFFFFFFFFFFFFFFFFFF DUP4 DUP2 DUP4 AND OR DUP4 MSTORE POP POP POP POP PUSH1 0x40 MLOAD PUSH2 0x411 SWAP2 SWAP1 PUSH2 0x883 JUMP JUMPDEST PUSH0 PUSH1 0x40 MLOAD DUP1 DUP4 SUB DUP2 PUSH0 DUP7 GAS CALL SWAP2 POP POP RETURNDATASIZE DUP1 PUSH0 DUP2 EQ PUSH2 0x44A JUMPI PUSH1 0x40 MLOAD SWAP2 POP PUSH1 0x1F NOT PUSH1 0x3F RETURNDATASIZE ADD AND DUP3 ADD PUSH1 0x40 MSTORE RETURNDATASIZE DUP3 MSTORE RETURNDATASIZE PUSH0 PUSH1 0x20 DUP5 ADD RETURNDATACOPY PUSH2 0x44F JUMP JUMPDEST PUSH1 0x60 SWAP2 POP JUMPDEST POP SWAP2 POP SWAP2 POP DUP2 DUP1 ISZERO PUSH2 0x47C JUMPI POP PUSH0 DUP2 MLOAD EQ DUP1 PUSH2 0x47B JUMPI POP DUP1 DUP1 PUSH1 0x20 ADD SWAP1 MLOAD DUP2 ADD SWAP1 PUSH2 0x47A SWAP2 SWAP1 PUSH2 0x8CE JUMP JUMPDEST JUMPDEST JUMPDEST PUSH2 0x4BB JUMPI PUSH1 0x40 MLOAD PUSH32 0x8C379A000000000000000000000000000000000000000000000000000000000 DUP2 MSTORE PUSH1 0x4 ADD PUSH2 0x4B2 SWAP1 PUSH2 0x9E2 JUMP JUMPDEST PUSH1 0x40 MLOAD DUP1 SWAP2 SUB SWAP1 REVERT JUMPDEST POP POP POP POP POP JUMP JUMPDEST PUSH0 DUP1 REVERT JUMPDEST PUSH0 PUSH20 0xFFFFFFFFFFFFFFFFFFFFFFFFFFFFFFFFFFFFFFFF DUP3 AND SWAP1 POP SWAP2 SWAP1 POP JUMP JUMPDEST PUSH0 PUSH2 0x4EF DUP3 PUSH2 0x4C6 JUMP JUMPDEST SWAP1 POP SWAP2 SWAP1 POP JUMP JUMPDEST PUSH2 0x4FF DUP2 PUSH2 0x4E5 JUMP JUMPDEST DUP2 EQ PUSH2 0x509 JUMPI PUSH0 DUP1 REVERT JUMPDEST POP JUMP JUMPDEST PUSH0 DUP2 CALLDATALOAD SWAP1 POP PUSH2 0x51A DUP2 PUSH2 0x4F6 JUMP JUMPDEST SWAP3 SWAP2 POP POP JUMP JUMPDEST PUSH0 DUP2 SWAP1 POP SWAP2 SWAP1 POP JUMP JUMPDEST PUSH2 0x532 DUP2 PUSH2 0x520 JUMP JUMPDEST DUP2 EQ PUSH2 0x53C JUMPI PUSH0 DUP1 REVERT JUMPDEST POP JUMP JUMPDEST PUSH0 DUP2 CALLDATALOAD SWAP1 POP PUSH2 0x54D DUP2 PUSH2 0x529 JUMP JUMPDEST SWAP3 SWAP2 POP POP JUMP JUMPDEST PUSH0 PUSH3 0xFFFFFF DUP3 AND SWAP1 POP SWAP2 SWAP1 POP JUMP JUMPDEST PUSH2 0x56A DUP2 PUSH2 0x553 JUMP JUMPDEST DUP2 EQ PUSH2 0x574 JUMPI PUSH0 DUP1 REVERT JUMPDEST POP JUMP JUMPDEST PUSH0 DUP2 CALLDATALOAD SWAP1 POP PUSH2 0x585 DUP2 PUSH2 0x561 JUMP JUMPDEST SWAP3 SWAP2 POP POP JUMP JUMPDEST PUSH0 DUP1 PUSH0 DUP1 PUSH0 PUSH1 0xA0 DUP7 DUP9 SUB SLT ISZERO PUSH2 0x5A4 JUMPI PUSH2 0x5A3 PUSH2 0x4C2 JUMP JUMPDEST JUMPDEST PUSH0 PUSH2 0x5B1 DUP9 DUP3 DUP10 ADD PUSH2 0x50C JUMP JUMPDEST SWAP6 POP POP PUSH1 0x20 PUSH2 0x5C2 DUP9 DUP3 DUP10 ADD PUSH2 0x50C JUMP JUMPDEST SWAP5 POP POP PUSH1 0x40 PUSH2 0x5D3 DUP9 DUP3 DUP10 ADD PUSH2 0x53F JUMP JUMPDEST SWAP4 POP POP PUSH1 0x60 PUSH2 0x5E4 DUP9 DUP3 DUP10 ADD PUSH2 0x50C JUMP JUMPDEST SWAP3 POP POP PUSH1 0x80 PUSH2 0x5F5 DUP9 DUP3 DUP10 ADD PUSH2 0x577 JUMP JUMPDEST SWAP2 POP POP SWAP3 SWAP6 POP SWAP3 SWAP6 SWAP1 SWAP4 POP JUMP JUMPDEST PUSH2 0x60B DUP2 PUSH2 0x520 JUMP JUMPDEST DUP3 MSTORE POP POP JUMP JUMPDEST PUSH0 PUSH1 0x20 DUP3 ADD SWAP1 POP PUSH2 0x624 PUSH0 DUP4 ADD DUP5 PUSH2 0x602 JUMP JUMPDEST SWAP3 SWAP2 POP POP JUMP JUMPDEST PUSH0 DUP2 SWAP1 POP SWAP2 SWAP1 POP JUMP JUMPDEST PUSH0 PUSH2 0x64D PUSH2 0x648 PUSH2 0x643 DUP5 PUSH2 0x4C6 JUMP JUMPDEST PUSH2 0x62A JUMP JUMPDEST PUSH2 0x4C6 JUMP JUMPDEST SWAP1 POP SWAP2 SWAP1 POP JUMP JUMPDEST PUSH0 PUSH2 0x65E DUP3 PUSH2 0x633 JUMP JUMPDEST SWAP1 POP SWAP2 SWAP1 POP JUMP JUMPDEST PUSH0 PUSH2 0x66F DUP3 PUSH2 0x654 JUMP JUMPDEST SWAP1 POP SWAP2 SWAP1 POP JUMP JUMPDEST PUSH2 0x67F DUP2 PUSH2 0x665 JUMP JUMPDEST DUP3 MSTORE POP POP JUMP JUMPDEST PUSH0 PUSH1 0x20 DUP3 ADD SWAP1 POP PUSH2 0x698 PUSH0 DUP4 ADD DUP5 PUSH2 0x676 JUMP JUMPDEST SWAP3 SWAP2 POP POP JUMP JUMPDEST PUSH2 0x6A7 DUP2 PUSH2 0x4E5 JUMP JUMPDEST DUP3 MSTORE POP POP JUMP JUMPDEST PUSH2 0x6B6 DUP2 PUSH2 0x553 JUMP JUMPDEST DUP3 MSTORE POP POP JUMP JUMPDEST PUSH2 0x6C5 DUP2 PUSH2 0x520 JUMP JUMPDEST DUP3 MSTORE POP POP JUMP JUMPDEST PUSH2 0x6D4 DUP2 PUSH2 0x4C6 JUMP JUMPDEST DUP3 MSTORE POP POP JUMP JUMPDEST PUSH2 0x100 DUP3 ADD PUSH0 DUP3 ADD MLOAD PUSH2 0x6EF PUSH0 DUP6 ADD DUP3 PUSH2 0x69E JUMP JUMPDEST POP PUSH1 0x20 DUP3 ADD MLOAD PUSH2 0x702 PUSH1 0x20 DUP6 ADD DUP3 PUSH2 0x69E JUMP JUMPDEST POP PUSH1 0x40 DUP3 ADD MLOAD PUSH2 0x715 PUSH1 0x40 DUP6 ADD DUP3 PUSH2 0x6AD JUMP JUMPDEST POP PUSH1 0x60 DUP3 ADD MLOAD PUSH2 0x728 PUSH1 0x60 DUP6 ADD DUP3 PUSH2 0x69E JUMP JUMPDEST POP PUSH1 0x80 DUP3 ADD MLOAD PUSH2 0x73B PUSH1 0x80 DUP6 ADD DUP3 PUSH2 0x6BC JUMP JUMPDEST POP PUSH1 0xA0 DUP3 ADD MLOAD PUSH2 0x74E PUSH1 0xA0 DUP6 ADD DUP3 PUSH2 0x6BC JUMP JUMPDEST POP PUSH1 0xC0 DUP3 ADD MLOAD PUSH2 0x761 PUSH1 0xC0 DUP6 ADD DUP3 PUSH2 0x6BC JUMP JUMPDEST POP PUSH1 0xE0 DUP3 ADD MLOAD PUSH2 0x774 PUSH1 0xE0 DUP6 ADD DUP3 PUSH2 0x6CB JUMP JUMPDEST POP POP POP POP JUMP JUMPDEST PUSH0 PUSH2 0x100 DUP3 ADD SWAP1 POP PUSH2 0x78E PUSH0 DUP4 ADD DUP5 PUSH2 0x6DA JUMP JUMPDEST SWAP3 SWAP2 POP POP JUMP JUMPDEST PUSH0 DUP2 MLOAD SWAP1 POP PUSH2 0x7A2 DUP2 PUSH2 0x529 JUMP JUMPDEST SWAP3 SWAP2 POP POP JUMP JUMPDEST PUSH0 PUSH1 0x20 DUP3 DUP5 SUB SLT ISZERO PUSH2 0x7BD JUMPI PUSH2 0x7BC PUSH2 0x4C2 JUMP JUMPDEST JUMPDEST PUSH0 PUSH2 0x7CA DUP5 DUP3 DUP6 ADD PUSH2 0x794 JUMP JUMPDEST SWAP2 POP POP SWAP3 SWAP2 POP POP JUMP JUMPDEST PUSH2 0x7DC DUP2 PUSH2 0x4E5 JUMP JUMPDEST DUP3 MSTORE POP POP JUMP JUMPDEST PUSH0 PUSH1 0x60 DUP3 ADD SWAP1 POP PUSH2 0x7F5 PUSH0 DUP4 ADD DUP7 PUSH2 0x7D3 JUMP JUMPDEST PUSH2 0x802 PUSH1 0x20 DUP4 ADD DUP6 PUSH2 0x7D3 JUMP JUMPDEST PUSH2 0x80F PUSH1 0x40 DUP4 ADD DUP5 PUSH2 0x602 JUMP JUMPDEST SWAP5 SWAP4 POP POP POP POP JUMP JUMPDEST PUSH0 DUP2 MLOAD SWAP1 POP SWAP2 SWAP1 POP JUMP JUMPDEST PUSH0 DUP2 SWAP1 POP SWAP3 SWAP2 POP POP JUMP JUMPDEST PUSH0 JUMPDEST DUP4 DUP2 LT ISZERO PUSH2 0x848 JUMPI DUP1 DUP3 ADD MLOAD DUP2 DUP5 ADD MSTORE PUSH1 0x20 DUP2 ADD SWAP1 POP PUSH2 0x82D JUMP JUMPDEST PUSH0 DUP5 DUP5 ADD MSTORE POP POP POP POP JUMP JUMPDEST PUSH0 PUSH2 0x85D DUP3 PUSH2 0x817 JUMP JUMPDEST PUSH2 0x867 DUP2 DUP6 PUSH2 0x821 JUMP JUMPDEST SWAP4 POP PUSH2 0x877 DUP2 DUP6 PUSH1 0x20 DUP7 ADD PUSH2 0x82B JUMP JUMPDEST DUP1 DUP5 ADD SWAP2 POP POP SWAP3 SWAP2 POP POP JUMP JUMPDEST PUSH0 PUSH2 0x88E DUP3 DUP5 PUSH2 0x853 JUMP JUMPDEST SWAP2 POP DUP2 SWAP1 POP SWAP3 SWAP2 POP POP JUMP JUMPDEST PUSH0 DUP2 ISZERO ISZERO SWAP1 POP SWAP2 SWAP1 POP JUMP JUMPDEST PUSH2 0x8AD DUP2 PUSH2 0x899 JUMP JUMPDEST DUP2 EQ PUSH2 0x8B7 JUMPI PUSH0 DUP1 REVERT JUMPDEST POP JUMP JUMPDEST PUSH0 DUP2 MLOAD SWAP1 POP PUSH2 0x8C8 DUP2 PUSH2 0x8A4 JUMP JUMPDEST SWAP3 SWAP2 POP POP JUMP JUMPDEST PUSH0 PUSH1 0x20 DUP3 DUP5 SUB SLT ISZERO PUSH2 0x8E3 JUMPI PUSH2 0x8E2 PUSH2 0x4C2 JUMP JUMPDEST JUMPDEST PUSH0 PUSH2 0x8F0 DUP5 DUP3 DUP6 ADD PUSH2 0x8BA JUMP JUMPDEST SWAP2 POP POP SWAP3 SWAP2 POP POP JUMP JUMPDEST PUSH0 DUP3 DUP3 MSTORE PUSH1 0x20 DUP3 ADD SWAP1 POP SWAP3 SWAP2 POP POP JUMP JUMPDEST PUSH32 0x5354460000000000000000000000000000000000000000000000000000000000 PUSH0 DUP3 ADD MSTORE POP JUMP JUMPDEST PUSH0 PUSH2 0x93D PUSH1 0x3 DUP4 PUSH2 0x8F9 JUMP JUMPDEST SWAP2 POP PUSH2 0x948 DUP3 PUSH2 0x909 JUMP JUMPDEST PUSH1 0x20 DUP3 ADD SWAP1 POP SWAP2 SWAP1 POP JUMP JUMPDEST PUSH0 PUSH1 0x20 DUP3 ADD SWAP1 POP DUP2 DUP2 SUB PUSH0 DUP4 ADD MSTORE PUSH2 0x96A DUP2 PUSH2 0x931 JUMP JUMPDEST SWAP1 POP SWAP2 SWAP1 POP JUMP JUMPDEST PUSH0 PUSH1 0x40 DUP3 ADD SWAP1 POP PUSH2 0x984 PUSH0 DUP4 ADD DUP6 PUSH2 0x7D3 JUMP JUMPDEST PUSH2 0x991 PUSH1 0x20 DUP4 ADD DUP5 PUSH2 0x602 JUMP JUMPDEST SWAP4 SWAP3 POP POP POP JUMP JUMPDEST PUSH32 0x5341000000000000000000000000000000000000000000000000000000000000 PUSH0 DUP3 ADD MSTORE POP JUMP JUMPDEST PUSH0 PUSH2 0x9CC PUSH1 0x2 DUP4 PUSH2 0x8F9 JUMP JUMPDEST SWAP2 POP PUSH2 0x9D7 DUP3 PUSH2 0x998 JUMP JUMPDEST PUSH1 0x20 DUP3 ADD SWAP1 POP SWAP2 SWAP1 POP JUMP JUMPDEST PUSH0 PUSH1 0x20 DUP3 ADD SWAP1 POP DUP2 DUP2 SUB PUSH0 DUP4 ADD MSTORE PUSH2 0x9F9 DUP2 PUSH2 0x9C0 JUMP JUMPDEST SWAP1 POP SWAP2 SWAP1 POP JUMP INVALID LOG2 PUSH5 0x6970667358 0x22 SLT KECCAK256 0xBE 0xDA 0x2E 0xE0 RETURN SWAP8 ISZERO MULMOD 0xD3 0x21 PUSH4 0x911EBFE8 SWAP4 0xD5 0xD 0xE ISZERO PUSH10 0xCE6C4DD4156879E2549B 0xDC PUSH5 0x736F6C6343 STOP ADDMOD OR STOP CALLER "
		},
		"gasEstimates": {
			"creation": {
				"codeDepositCost": "522800",
				"executionCost": "infinite",
				"totalCost": "infinite"
			},
			"external": {
				"swapExactInputSingle(address,address,uint256,address,uint24)": "infinite",
				"swapRouter()": "infinite"
			}
		},
		"methodIdentifiers": {
			"swapExactInputSingle(address,address,uint256,address,uint24)": "8ebb36c7",
			"swapRouter()": "c31c9c07"
		}
	},
	"abi": [
		{
			"inputs": [
				{
					"internalType": "address",
					"name": "_swapRouter",
					"type": "address"
				}
			],
			"stateMutability": "nonpayable",
			"type": "constructor"
		},
		{
			"inputs": [
				{
					"internalType": "address",
					"name": "tokenIn",
					"type": "address"
				},
				{
					"internalType": "address",
					"name": "tokenOut",
					"type": "address"
				},
				{
					"internalType": "uint256",
					"name": "amountIn",
					"type": "uint256"
				},
				{
					"internalType": "address",
					"name": "recipient",
					"type": "address"
				},
				{
					"internalType": "uint24",
					"name": "poolFee",
					"type": "uint24"
				}
			],
			"name": "swapExactInputSingle",
			"outputs": [
				{
					"internalType": "uint256",
					"name": "amountOut",
					"type": "uint256"
				}
			],
			"stateMutability": "nonpayable",
			"type": "function"
		},
		{
			"inputs": [],
			"name": "swapRouter",
			"outputs": [
				{
					"internalType": "contract ISwapRouter",
					"name": "",
					"type": "address"
				}
			],
			"stateMutability": "view",
			"type": "function"
		}
	]
}