{
	"data": {
		"bytecode": {
			"linkReferences": {},
			"object": "608060405234801562000010575f80fd5b50604051620028a0380380620028a083398181016040528101906200003691906200062f565b620000687fd1473398bb66596de5d1ea1fc8e303ff2ac23265adc9144b1b52065dc4f0934b856200017e60201b60201c565b6200007c5f801b826200017e60201b60201c565b620000ce7fd1473398bb66596de5d1ea1fc8e303ff2ac23265adc9144b1b52065dc4f0934b7fa49807205ce4d355092ef5a8a18f56e8913cf4a201fbe287825b095693c21775620001b860201b60201c565b5f5b835181101562000165576002848281518110620000f257620000f1620006bd565b5b6020026020010151908060018154018082558091505060019003905f5260205f20015f9091909190916101000a81548173ffffffffffffffffffffffffffffffffffffffff021916908373ffffffffffffffffffffffffffffffffffffffff1602179055508080600101915050620000d0565b50816007819055505f6008819055505050505062000740565b6200018f826200021860201b60201c565b620001a0816200023460201b60201c565b620001b283836200025860201b60201c565b50505050565b5f620001ca836200021860201b60201c565b9050815f808581526020019081526020015f20600101819055508181847fbd79b86ffe0ab8e8776151514217cd7cacd52c909f66475c3af44e129f0b00ff60405160405180910390a4505050565b5f805f8381526020019081526020015f20600101549050919050565b6200025581620002496200035360201b60201c565b6200035a60201b60201c565b50565b5f6200026b8383620003b660201b60201c565b620003495760015f808581526020019081526020015f205f015f8473ffffffffffffffffffffffffffffffffffffffff1673ffffffffffffffffffffffffffffffffffffffff1681526020019081526020015f205f6101000a81548160ff021916908315150217905550620002e56200035360201b60201c565b73ffffffffffffffffffffffffffffffffffffffff168273ffffffffffffffffffffffffffffffffffffffff16847f2f8788117e7eff1d82e926ec794901d17c78024a50270940304540a733656f0d60405160405180910390a4600190506200034d565b5f90505b92915050565b5f33905090565b6200036c8282620003b660201b60201c565b620003b25780826040517fe2517d3f000000000000000000000000000000000000000000000000000000008152600401620003a992919062000715565b60405180910390fd5b5050565b5f805f8481526020019081526020015f205f015f8373ffffffffffffffffffffffffffffffffffffffff1673ffffffffffffffffffffffffffffffffffffffff1681526020019081526020015f205f9054906101000a900460ff16905092915050565b5f604051905090565b5f80fd5b5f80fd5b5f73ffffffffffffffffffffffffffffffffffffffff82169050919050565b5f62000455826200042a565b9050919050565b620004678162000449565b811462000472575f80fd5b50565b5f8151905062000485816200045c565b92915050565b5f80fd5b5f601f19601f8301169050919050565b7f4e487b71000000000000000000000000000000000000000000000000000000005f52604160045260245ffd5b620004d7826200048f565b810181811067ffffffffffffffff82111715620004f957620004f86200049f565b5b80604052505050565b5f6200050d62000419565b90506200051b8282620004cc565b919050565b5f67ffffffffffffffff8211156200053d576200053c6200049f565b5b602082029050602081019050919050565b5f80fd5b5f62000568620005628462000520565b62000502565b905080838252602082019050602084028301858111156200058e576200058d6200054e565b5b835b81811015620005bb5780620005a6888262000475565b84526020840193505060208101905062000590565b5050509392505050565b5f82601f830112620005dc57620005db6200048b565b5b8151620005ee84826020860162000552565b91505092915050565b5f819050919050565b6200060b81620005f7565b811462000616575f80fd5b50565b5f81519050620006298162000600565b92915050565b5f805f80608085870312156200064a576200064962000422565b5b5f620006598782880162000475565b945050602085015167ffffffffffffffff8111156200067d576200067c62000426565b5b6200068b87828801620005c5565b93505060406200069e8782880162000619565b9250506060620006b18782880162000475565b91505092959194509250565b7f4e487b71000000000000000000000000000000000000000000000000000000005f52603260045260245ffd5b620006f58162000449565b82525050565b5f819050919050565b6200070f81620006fb565b82525050565b5f6040820190506200072a5f830185620006ea565b62000739602083018462000704565b9392505050565b612152806200074e5f395ff3fe608060405234801561000f575f80fd5b506004361061014b575f3560e01c806390805c34116100c1578063bd998cb31161007a578063bd998cb31461039b578063be354836146103b9578063c68dbb37146103e9578063d547741f14610419578063f3fef3a314610435578063f4457fab146104515761014b565b806390805c34146102c757806391d14854146102e35780639e4a936914610313578063a217fddf14610331578063a356efc41461034f578063bb39a9601461037f5761014b565b806330e5065e1161011357806330e5065e1461020557806336568abe1461023557806347e7ef2414610251578063523820a11461026d5780635e5a24a41461028b57806375b238fc146102a95761014b565b806301ffc9a71461014f57806306f34c2f1461017f5780630ba36dcd14610189578063248a9ca3146101b95780632f2ff15d146101e9575b5f80fd5b61016960048036038101906101649190611694565b61046f565b60405161017691906116d9565b60405180910390f35b6101876104e8565b005b6101a3600480360381019061019e919061174c565b61054f565b6040516101b0919061178f565b60405180910390f35b6101d360048036038101906101ce91906117db565b610569565b6040516101e09190611815565b60405180910390f35b61020360048036038101906101fe919061182e565b610585565b005b61021f600480360381019061021a919061174c565b6105a7565b60405161022c919061178f565b60405180910390f35b61024f600480360381019061024a919061182e565b6105bc565b005b61026b60048036038101906102669190611896565b610637565b005b610275610858565b604051610282919061178f565b60405180910390f35b61029361085e565b6040516102a09190611815565b60405180910390f35b6102b1610882565b6040516102be9190611815565b60405180910390f35b6102e160048036038101906102dc91906118d4565b6108a6565b005b6102fd60048036038101906102f8919061182e565b610950565b60405161030a91906116d9565b60405180910390f35b61031b6109b3565b604051610328919061178f565b60405180910390f35b610339610aa6565b6040516103469190611815565b60405180910390f35b61036960048036038101906103649190611896565b610aac565b604051610376919061178f565b60405180910390f35b6103996004803603810190610394919061194d565b610cd2565b005b6103a3610d47565b6040516103b0919061178f565b60405180910390f35b6103d360048036038101906103ce919061174c565b610d4d565b6040516103e0919061178f565b60405180910390f35b61040360048036038101906103fe91906119b1565b610d62565b6040516104109190611a37565b60405180910390f35b610433600480360381019061042e919061182e565b610d9d565b005b61044f600480360381019061044a9190611896565b610dbf565b005b610459611161565b604051610466919061178f565b60405180910390f35b5f7f7965db0b000000000000000000000000000000000000000000000000000000007bffffffffffffffffffffffffffffffffffffffffffffffffffffffff1916827bffffffffffffffffffffffffffffffffffffffffffffffffffffffff191614806104e157506104e082611167565b5b9050919050565b7fd1473398bb66596de5d1ea1fc8e303ff2ac23265adc9144b1b52065dc4f0934b610512816111d0565b5f61051b6111e4565b90505f81111561054b575f6064600754836105369190611a7d565b6105409190611aeb565b905080600881905550505b5050565b6005602052805f5260405f205f91509050805f0154905081565b5f805f8381526020019081526020015f20600101549050919050565b61058e82610569565b610597816111d0565b6105a183836111e8565b50505050565b6003602052805f5260405f205f915090505481565b6105c46112d1565b73ffffffffffffffffffffffffffffffffffffffff168173ffffffffffffffffffffffffffffffffffffffff1614610628576040517f6697b23200000000000000000000000000000000000000000000000000000000815260040160405180910390fd5b61063282826112d8565b505050565b610640826113c1565b61067f576040517f08c379a000000000000000000000000000000000000000000000000000000000815260040161067690611b75565b60405180910390fd5b8173ffffffffffffffffffffffffffffffffffffffff166323b872dd6106a36112d1565b30846040518463ffffffff1660e01b81526004016106c393929190611ba2565b6020604051808303815f875af11580156106df573d5f803e3d5ffd5b505050506040513d601f19601f820116820180604052508101906107039190611c01565b508060035f8473ffffffffffffffffffffffffffffffffffffffff1673ffffffffffffffffffffffffffffffffffffffff1681526020019081526020015f205f8282546107509190611c2c565b925050819055506107618282611463565b60055f61076c6112d1565b73ffffffffffffffffffffffffffffffffffffffff1673ffffffffffffffffffffffffffffffffffffffff1681526020019081526020015f205f015f8282546107b59190611c2c565b925050819055508060055f6107c86112d1565b73ffffffffffffffffffffffffffffffffffffffff1673ffffffffffffffffffffffffffffffffffffffff1681526020019081526020015f206001015f8473ffffffffffffffffffffffffffffffffffffffff1673ffffffffffffffffffffffffffffffffffffffff1681526020019081526020015f205f82825461084d9190611c2c565b925050819055505050565b60085481565b7fd1473398bb66596de5d1ea1fc8e303ff2ac23265adc9144b1b52065dc4f0934b81565b7fa49807205ce4d355092ef5a8a18f56e8913cf4a201fbe287825b095693c2177581565b7fa49807205ce4d355092ef5a8a18f56e8913cf4a201fbe287825b095693c217756108d0816111d0565b8160045f8573ffffffffffffffffffffffffffffffffffffffff1673ffffffffffffffffffffffffffffffffffffffff1681526020019081526020015f205f6101000a81548173ffffffffffffffffffffffffffffffffffffffff021916908373ffffffffffffffffffffffffffffffffffffffff160217905550505050565b5f805f8481526020019081526020015f205f015f8373ffffffffffffffffffffffffffffffffffffffff1673ffffffffffffffffffffffffffffffffffffffff1681526020019081526020015f205f9054906101000a900460ff16905092915050565b5f805f90505f5b600280549050811015610a9e57610a84600282815481106109de576109dd611c5f565b5b905f5260205f20015f9054906101000a900473ffffffffffffffffffffffffffffffffffffffff1660035f60028581548110610a1d57610a1c611c5f565b5b905f5260205f20015f9054906101000a900473ffffffffffffffffffffffffffffffffffffffff1673ffffffffffffffffffffffffffffffffffffffff1673ffffffffffffffffffffffffffffffffffffffff1681526020019081526020015f2054611463565b82610a8f9190611c2c565b915080806001019150506109ba565b508091505090565b5f801b81565b5f8060045f8573ffffffffffffffffffffffffffffffffffffffff1673ffffffffffffffffffffffffffffffffffffffff1681526020019081526020015f205f9054906101000a900473ffffffffffffffffffffffffffffffffffffffff1690505f73ffffffffffffffffffffffffffffffffffffffff168173ffffffffffffffffffffffffffffffffffffffff1603610b7b576040517f08c379a0000000000000000000000000000000000000000000000000000000008152600401610b7290611cd6565b60405180910390fd5b5f8173ffffffffffffffffffffffffffffffffffffffff1663feaf968c6040518163ffffffff1660e01b815260040160a060405180830381865afa158015610bc5573d5f803e3d5ffd5b505050506040513d601f19601f82011682018060405250810190610be99190611d7a565b5050509150505f8113610c31576040517f08c379a0000000000000000000000000000000000000000000000000000000008152600401610c2890611e3b565b60405180910390fd5b5f8273ffffffffffffffffffffffffffffffffffffffff1663313ce5676040518163ffffffff1660e01b8152600401602060405180830381865afa158015610c7b573d5f803e3d5ffd5b505050506040513d601f19601f82011682018060405250810190610c9f9190611e8f565b60ff16905080600a610cb19190611fe9565b8286610cbd9190611a7d565b610cc79190611aeb565b935050505092915050565b7fd1473398bb66596de5d1ea1fc8e303ff2ac23265adc9144b1b52065dc4f0934b610cfc816111d0565b5f610d078484611463565b90505f610d148787611463565b90505f8183610d239190612033565b90508060095f828254610d369190611c2c565b925050819055505050505050505050565b60095481565b6006602052805f5260405f205f915090505481565b60028181548110610d71575f80fd5b905f5260205f20015f915054906101000a900473ffffffffffffffffffffffffffffffffffffffff1681565b610da682610569565b610daf816111d0565b610db983836112d8565b50505050565b8060055f610dcb6112d1565b73ffffffffffffffffffffffffffffffffffffffff1673ffffffffffffffffffffffffffffffffffffffff1681526020019081526020015f206001015f8473ffffffffffffffffffffffffffffffffffffffff1673ffffffffffffffffffffffffffffffffffffffff1681526020019081526020015f20541015610e84576040517f08c379a0000000000000000000000000000000000000000000000000000000008152600401610e7b906120b0565b60405180910390fd5b8060055f610e906112d1565b73ffffffffffffffffffffffffffffffffffffffff1673ffffffffffffffffffffffffffffffffffffffff1681526020019081526020015f206001015f8473ffffffffffffffffffffffffffffffffffffffff1673ffffffffffffffffffffffffffffffffffffffff1681526020019081526020015f205f828254610f159190612033565b925050819055508060035f8473ffffffffffffffffffffffffffffffffffffffff1673ffffffffffffffffffffffffffffffffffffffff1681526020019081526020015f205f828254610f689190612033565b925050819055508173ffffffffffffffffffffffffffffffffffffffff1663a9059cbb610f936112d1565b836040518363ffffffff1660e01b8152600401610fb19291906120ce565b6020604051808303815f875af1158015610fcd573d5f803e3d5ffd5b505050506040513d601f19601f82011682018060405250810190610ff19190611c01565b505f611003610ffe6112d1565b611553565b90508060065f6110116112d1565b73ffffffffffffffffffffffffffffffffffffffff1673ffffffffffffffffffffffffffffffffffffffff1681526020019081526020015f205f8282546110589190611c2c565b925050819055506110698383611463565b60055f6110746112d1565b73ffffffffffffffffffffffffffffffffffffffff1673ffffffffffffffffffffffffffffffffffffffff1681526020019081526020015f205f015f8282546110bd9190612033565b925050819055508160055f6110d06112d1565b73ffffffffffffffffffffffffffffffffffffffff1673ffffffffffffffffffffffffffffffffffffffff1681526020019081526020015f206001015f8573ffffffffffffffffffffffffffffffffffffffff1673ffffffffffffffffffffffffffffffffffffffff1681526020019081526020015f205f8282546111559190612033565b92505081905550505050565b60075481565b5f7f01ffc9a7000000000000000000000000000000000000000000000000000000007bffffffffffffffffffffffffffffffffffffffffffffffffffffffff1916827bffffffffffffffffffffffffffffffffffffffffffffffffffffffff1916149050919050565b6111e1816111dc6112d1565b6115ea565b50565b5f90565b5f6111f38383610950565b6112c75760015f808581526020019081526020015f205f015f8473ffffffffffffffffffffffffffffffffffffffff1673ffffffffffffffffffffffffffffffffffffffff1681526020019081526020015f205f6101000a81548160ff0219169083151502179055506112646112d1565b73ffffffffffffffffffffffffffffffffffffffff168273ffffffffffffffffffffffffffffffffffffffff16847f2f8788117e7eff1d82e926ec794901d17c78024a50270940304540a733656f0d60405160405180910390a4600190506112cb565b5f90505b92915050565b5f33905090565b5f6112e38383610950565b156113b7575f805f8581526020019081526020015f205f015f8473ffffffffffffffffffffffffffffffffffffffff1673ffffffffffffffffffffffffffffffffffffffff1681526020019081526020015f205f6101000a81548160ff0219169083151502179055506113546112d1565b73ffffffffffffffffffffffffffffffffffffffff168273ffffffffffffffffffffffffffffffffffffffff16847ff6391f5c32d9c69d2a47ea670b442974b53935d1edc7fd64eb21e047a839171b60405160405180910390a4600190506113bb565b5f90505b92915050565b5f805f90505b600280549050811015611459578273ffffffffffffffffffffffffffffffffffffffff16600282815481106113ff576113fe611c5f565b5b905f5260205f20015f9054906101000a900473ffffffffffffffffffffffffffffffffffffffff1673ffffffffffffffffffffffffffffffffffffffff160361144c57600191505061145e565b80806001019150506113c7565b505f90505b919050565b5f8060045f8573ffffffffffffffffffffffffffffffffffffffff1673ffffffffffffffffffffffffffffffffffffffff1681526020019081526020015f205f9054906101000a900473ffffffffffffffffffffffffffffffffffffffff1690505f8173ffffffffffffffffffffffffffffffffffffffff1663feaf968c6040518163ffffffff1660e01b815260040160a060405180830381865afa15801561150e573d5f803e3d5ffd5b505050506040513d601f19601f820116820180604052508101906115329190611d7a565b5050509150505f84826115459190611a7d565b905080935050505092915050565b5f8061155d6109b3565b670de0b6b3a764000060055f8673ffffffffffffffffffffffffffffffffffffffff1673ffffffffffffffffffffffffffffffffffffffff1681526020019081526020015f205f01546115b09190611a7d565b6115ba9190611aeb565b90505f670de0b6b3a7640000826009546115d49190611a7d565b6115de9190611aeb565b90508092505050919050565b6115f48282610950565b6116375780826040517fe2517d3f00000000000000000000000000000000000000000000000000000000815260040161162e9291906120f5565b60405180910390fd5b5050565b5f80fd5b5f7fffffffff0000000000000000000000000000000000000000000000000000000082169050919050565b6116738161163f565b811461167d575f80fd5b50565b5f8135905061168e8161166a565b92915050565b5f602082840312156116a9576116a861163b565b5b5f6116b684828501611680565b91505092915050565b5f8115159050919050565b6116d3816116bf565b82525050565b5f6020820190506116ec5f8301846116ca565b92915050565b5f73ffffffffffffffffffffffffffffffffffffffff82169050919050565b5f61171b826116f2565b9050919050565b61172b81611711565b8114611735575f80fd5b50565b5f8135905061174681611722565b92915050565b5f602082840312156117615761176061163b565b5b5f61176e84828501611738565b91505092915050565b5f819050919050565b61178981611777565b82525050565b5f6020820190506117a25f830184611780565b92915050565b5f819050919050565b6117ba816117a8565b81146117c4575f80fd5b50565b5f813590506117d5816117b1565b92915050565b5f602082840312156117f0576117ef61163b565b5b5f6117fd848285016117c7565b91505092915050565b61180f816117a8565b82525050565b5f6020820190506118285f830184611806565b92915050565b5f80604083850312156118445761184361163b565b5b5f611851858286016117c7565b925050602061186285828601611738565b9150509250929050565b61187581611777565b811461187f575f80fd5b50565b5f813590506118908161186c565b92915050565b5f80604083850312156118ac576118ab61163b565b5b5f6118b985828601611738565b92505060206118ca85828601611882565b9150509250929050565b5f80604083850312156118ea576118e961163b565b5b5f6118f785828601611738565b925050602061190885828601611738565b9150509250929050565b5f61191c82611711565b9050919050565b61192c81611912565b8114611936575f80fd5b50565b5f8135905061194781611923565b92915050565b5f805f80608085870312156119655761196461163b565b5b5f61197287828801611939565b945050602061198387828801611882565b935050604061199487828801611939565b92505060606119a587828801611882565b91505092959194509250565b5f602082840312156119c6576119c561163b565b5b5f6119d384828501611882565b91505092915050565b5f819050919050565b5f6119ff6119fa6119f5846116f2565b6119dc565b6116f2565b9050919050565b5f611a10826119e5565b9050919050565b5f611a2182611a06565b9050919050565b611a3181611a17565b82525050565b5f602082019050611a4a5f830184611a28565b92915050565b7f4e487b71000000000000000000000000000000000000000000000000000000005f52601160045260245ffd5b5f611a8782611777565b9150611a9283611777565b9250828202611aa081611777565b91508282048414831517611ab757611ab6611a50565b5b5092915050565b7f4e487b71000000000000000000000000000000000000000000000000000000005f52601260045260245ffd5b5f611af582611777565b9150611b0083611777565b925082611b1057611b0f611abe565b5b828204905092915050565b5f82825260208201905092915050565b7f4173736574206e6f7420737570706f72746564000000000000000000000000005f82015250565b5f611b5f601383611b1b565b9150611b6a82611b2b565b602082019050919050565b5f6020820190508181035f830152611b8c81611b53565b9050919050565b611b9c81611711565b82525050565b5f606082019050611bb55f830186611b93565b611bc26020830185611b93565b611bcf6040830184611780565b949350505050565b611be0816116bf565b8114611bea575f80fd5b50565b5f81519050611bfb81611bd7565b92915050565b5f60208284031215611c1657611c1561163b565b5b5f611c2384828501611bed565b91505092915050565b5f611c3682611777565b9150611c4183611777565b9250828201905080821115611c5957611c58611a50565b5b92915050565b7f4e487b71000000000000000000000000000000000000000000000000000000005f52603260045260245ffd5b7f4f7261636c65206e6f742073657420666f7220617373657400000000000000005f82015250565b5f611cc0601883611b1b565b9150611ccb82611c8c565b602082019050919050565b5f6020820190508181035f830152611ced81611cb4565b9050919050565b5f69ffffffffffffffffffff82169050919050565b611d1281611cf4565b8114611d1c575f80fd5b50565b5f81519050611d2d81611d09565b92915050565b5f819050919050565b611d4581611d33565b8114611d4f575f80fd5b50565b5f81519050611d6081611d3c565b92915050565b5f81519050611d748161186c565b92915050565b5f805f805f60a08688031215611d9357611d9261163b565b5b5f611da088828901611d1f565b9550506020611db188828901611d52565b9450506040611dc288828901611d66565b9350506060611dd388828901611d66565b9250506080611de488828901611d1f565b9150509295509295909350565b7f496e76616c6964207072696365206461746100000000000000000000000000005f82015250565b5f611e25601283611b1b565b9150611e3082611df1565b602082019050919050565b5f6020820190508181035f830152611e5281611e19565b9050919050565b5f60ff82169050919050565b611e6e81611e59565b8114611e78575f80fd5b50565b5f81519050611e8981611e65565b92915050565b5f60208284031215611ea457611ea361163b565b5b5f611eb184828501611e7b565b91505092915050565b5f8160011c9050919050565b5f808291508390505b6001851115611f0f57808604811115611eeb57611eea611a50565b5b6001851615611efa5780820291505b8081029050611f0885611eba565b9450611ecf565b94509492505050565b5f82611f275760019050611fe2565b81611f34575f9050611fe2565b8160018114611f4a5760028114611f5457611f83565b6001915050611fe2565b60ff841115611f6657611f65611a50565b5b8360020a915084821115611f7d57611f7c611a50565b5b50611fe2565b5060208310610133831016604e8410600b8410161715611fb85782820a905083811115611fb357611fb2611a50565b5b611fe2565b611fc58484846001611ec6565b92509050818404811115611fdc57611fdb611a50565b5b81810290505b9392505050565b5f611ff382611777565b9150611ffe83611777565b925061202b7fffffffffffffffffffffffffffffffffffffffffffffffffffffffffffffffff8484611f18565b905092915050565b5f61203d82611777565b915061204883611777565b92508282039050818111156120605761205f611a50565b5b92915050565b7f496e73756666696369656e742062616c616e63650000000000000000000000005f82015250565b5f61209a601483611b1b565b91506120a582612066565b602082019050919050565b5f6020820190508181035f8301526120c78161208e565b9050919050565b5f6040820190506120e15f830185611b93565b6120ee6020830184611780565b9392505050565b5f6040820190506121085f830185611b93565b6121156020830184611806565b939250505056fea26469706673582212201bcc35feb7816cfa18c93fdfb997a25e431d0f95a915ffec4e50612d5f451dc364736f6c63430008170033",
			"opcodes": "PUSH1 0x80 PUSH1 0x40 MSTORE CALLVALUE DUP1 ISZERO PUSH3 0x10 JUMPI PUSH0 DUP1 REVERT JUMPDEST POP PUSH1 0x40 MLOAD PUSH3 0x28A0 CODESIZE SUB DUP1 PUSH3 0x28A0 DUP4 CODECOPY DUP2 DUP2 ADD PUSH1 0x40 MSTORE DUP2 ADD SWAP1 PUSH3 0x36 SWAP2 SWAP1 PUSH3 0x62F JUMP JUMPDEST PUSH3 0x68 PUSH32 0xD1473398BB66596DE5D1EA1FC8E303FF2AC23265ADC9144B1B52065DC4F0934B DUP6 PUSH3 0x17E PUSH1 0x20 SHL PUSH1 0x20 SHR JUMP JUMPDEST PUSH3 0x7C PUSH0 DUP1 SHL DUP3 PUSH3 0x17E PUSH1 0x20 SHL PUSH1 0x20 SHR JUMP JUMPDEST PUSH3 0xCE PUSH32 0xD1473398BB66596DE5D1EA1FC8E303FF2AC23265ADC9144B1B52065DC4F0934B PUSH32 0xA49807205CE4D355092EF5A8A18F56E8913CF4A201FBE287825B095693C21775 PUSH3 0x1B8 PUSH1 0x20 SHL PUSH1 0x20 SHR JUMP JUMPDEST PUSH0 JUMPDEST DUP4 MLOAD DUP2 LT ISZERO PUSH3 0x165 JUMPI PUSH1 0x2 DUP5 DUP3 DUP2 MLOAD DUP2 LT PUSH3 0xF2 JUMPI PUSH3 0xF1 PUSH3 0x6BD JUMP JUMPDEST JUMPDEST PUSH1 0x20 MUL PUSH1 0x20 ADD ADD MLOAD SWAP1 DUP1 PUSH1 0x1 DUP2 SLOAD ADD DUP1 DUP3 SSTORE DUP1 SWAP2 POP POP PUSH1 0x1 SWAP1 SUB SWAP1 PUSH0 MSTORE PUSH1 0x20 PUSH0 KECCAK256 ADD PUSH0 SWAP1 SWAP2 SWAP1 SWAP2 SWAP1 SWAP2 PUSH2 0x100 EXP DUP2 SLOAD DUP2 PUSH20 0xFFFFFFFFFFFFFFFFFFFFFFFFFFFFFFFFFFFFFFFF MUL NOT AND SWAP1 DUP4 PUSH20 0xFFFFFFFFFFFFFFFFFFFFFFFFFFFFFFFFFFFFFFFF AND MUL OR SWAP1 SSTORE POP DUP1 DUP1 PUSH1 0x1 ADD SWAP2 POP POP PUSH3 0xD0 JUMP JUMPDEST POP DUP2 PUSH1 0x7 DUP2 SWAP1 SSTORE POP PUSH0 PUSH1 0x8 DUP2 SWAP1 SSTORE POP POP POP POP POP PUSH3 0x740 JUMP JUMPDEST PUSH3 0x18F DUP3 PUSH3 0x218 PUSH1 0x20 SHL PUSH1 0x20 SHR JUMP JUMPDEST PUSH3 0x1A0 DUP2 PUSH3 0x234 PUSH1 0x20 SHL PUSH1 0x20 SHR JUMP JUMPDEST PUSH3 0x1B2 DUP4 DUP4 PUSH3 0x258 PUSH1 0x20 SHL PUSH1 0x20 SHR JUMP JUMPDEST POP POP POP POP JUMP JUMPDEST PUSH0 PUSH3 0x1CA DUP4 PUSH3 0x218 PUSH1 0x20 SHL PUSH1 0x20 SHR JUMP JUMPDEST SWAP1 POP DUP2 PUSH0 DUP1 DUP6 DUP2 MSTORE PUSH1 0x20 ADD SWAP1 DUP2 MSTORE PUSH1 0x20 ADD PUSH0 KECCAK256 PUSH1 0x1 ADD DUP2 SWAP1 SSTORE POP DUP2 DUP2 DUP5 PUSH32 0xBD79B86FFE0AB8E8776151514217CD7CACD52C909F66475C3AF44E129F0B00FF PUSH1 0x40 MLOAD PUSH1 0x40 MLOAD DUP1 SWAP2 SUB SWAP1 LOG4 POP POP POP JUMP JUMPDEST PUSH0 DUP1 PUSH0 DUP4 DUP2 MSTORE PUSH1 0x20 ADD SWAP1 DUP2 MSTORE PUSH1 0x20 ADD PUSH0 KECCAK256 PUSH1 0x1 ADD SLOAD SWAP1 POP SWAP2 SWAP1 POP JUMP JUMPDEST PUSH3 0x255 DUP2 PUSH3 0x249 PUSH3 0x353 PUSH1 0x20 SHL PUSH1 0x20 SHR JUMP JUMPDEST PUSH3 0x35A PUSH1 0x20 SHL PUSH1 0x20 SHR JUMP JUMPDEST POP JUMP JUMPDEST PUSH0 PUSH3 0x26B DUP4 DUP4 PUSH3 0x3B6 PUSH1 0x20 SHL PUSH1 0x20 SHR JUMP JUMPDEST PUSH3 0x349 JUMPI PUSH1 0x1 PUSH0 DUP1 DUP6 DUP2 MSTORE PUSH1 0x20 ADD SWAP1 DUP2 MSTORE PUSH1 0x20 ADD PUSH0 KECCAK256 PUSH0 ADD PUSH0 DUP5 PUSH20 0xFFFFFFFFFFFFFFFFFFFFFFFFFFFFFFFFFFFFFFFF AND PUSH20 0xFFFFFFFFFFFFFFFFFFFFFFFFFFFFFFFFFFFFFFFF AND DUP2 MSTORE PUSH1 0x20 ADD SWAP1 DUP2 MSTORE PUSH1 0x20 ADD PUSH0 KECCAK256 PUSH0 PUSH2 0x100 EXP DUP2 SLOAD DUP2 PUSH1 0xFF MUL NOT AND SWAP1 DUP4 ISZERO ISZERO MUL OR SWAP1 SSTORE POP PUSH3 0x2E5 PUSH3 0x353 PUSH1 0x20 SHL PUSH1 0x20 SHR JUMP JUMPDEST PUSH20 0xFFFFFFFFFFFFFFFFFFFFFFFFFFFFFFFFFFFFFFFF AND DUP3 PUSH20 0xFFFFFFFFFFFFFFFFFFFFFFFFFFFFFFFFFFFFFFFF AND DUP5 PUSH32 0x2F8788117E7EFF1D82E926EC794901D17C78024A50270940304540A733656F0D PUSH1 0x40 MLOAD PUSH1 0x40 MLOAD DUP1 SWAP2 SUB SWAP1 LOG4 PUSH1 0x1 SWAP1 POP PUSH3 0x34D JUMP JUMPDEST PUSH0 SWAP1 POP JUMPDEST SWAP3 SWAP2 POP POP JUMP JUMPDEST PUSH0 CALLER SWAP1 POP SWAP1 JUMP JUMPDEST PUSH3 0x36C DUP3 DUP3 PUSH3 0x3B6 PUSH1 0x20 SHL PUSH1 0x20 SHR JUMP JUMPDEST PUSH3 0x3B2 JUMPI DUP1 DUP3 PUSH1 0x40 MLOAD PUSH32 0xE2517D3F00000000000000000000000000000000000000000000000000000000 DUP2 MSTORE PUSH1 0x4 ADD PUSH3 0x3A9 SWAP3 SWAP2 SWAP1 PUSH3 0x715 JUMP JUMPDEST PUSH1 0x40 MLOAD DUP1 SWAP2 SUB SWAP1 REVERT JUMPDEST POP POP JUMP JUMPDEST PUSH0 DUP1 PUSH0 DUP5 DUP2 MSTORE PUSH1 0x20 ADD SWAP1 DUP2 MSTORE PUSH1 0x20 ADD PUSH0 KECCAK256 PUSH0 ADD PUSH0 DUP4 PUSH20 0xFFFFFFFFFFFFFFFFFFFFFFFFFFFFFFFFFFFFFFFF AND PUSH20 0xFFFFFFFFFFFFFFFFFFFFFFFFFFFFFFFFFFFFFFFF AND DUP2 MSTORE PUSH1 0x20 ADD SWAP1 DUP2 MSTORE PUSH1 0x20 ADD PUSH0 KECCAK256 PUSH0 SWAP1 SLOAD SWAP1 PUSH2 0x100 EXP SWAP1 DIV PUSH1 0xFF AND SWAP1 POP SWAP3 SWAP2 POP POP JUMP JUMPDEST PUSH0 PUSH1 0x40 MLOAD SWAP1 POP SWAP1 JUMP JUMPDEST PUSH0 DUP1 REVERT JUMPDEST PUSH0 DUP1 REVERT JUMPDEST PUSH0 PUSH20 0xFFFFFFFFFFFFFFFFFFFFFFFFFFFFFFFFFFFFFFFF DUP3 AND SWAP1 POP SWAP2 SWAP1 POP JUMP JUMPDEST PUSH0 PUSH3 0x455 DUP3 PUSH3 0x42A JUMP JUMPDEST SWAP1 POP SWAP2 SWAP1 POP JUMP JUMPDEST PUSH3 0x467 DUP2 PUSH3 0x449 JUMP JUMPDEST DUP2 EQ PUSH3 0x472 JUMPI PUSH0 DUP1 REVERT JUMPDEST POP JUMP JUMPDEST PUSH0 DUP2 MLOAD SWAP1 POP PUSH3 0x485 DUP2 PUSH3 0x45C JUMP JUMPDEST SWAP3 SWAP2 POP POP JUMP JUMPDEST PUSH0 DUP1 REVERT JUMPDEST PUSH0 PUSH1 0x1F NOT PUSH1 0x1F DUP4 ADD AND SWAP1 POP SWAP2 SWAP1 POP JUMP JUMPDEST PUSH32 0x4E487B7100000000000000000000000000000000000000000000000000000000 PUSH0 MSTORE PUSH1 0x41 PUSH1 0x4 MSTORE PUSH1 0x24 PUSH0 REVERT JUMPDEST PUSH3 0x4D7 DUP3 PUSH3 0x48F JUMP JUMPDEST DUP2 ADD DUP2 DUP2 LT PUSH8 0xFFFFFFFFFFFFFFFF DUP3 GT OR ISZERO PUSH3 0x4F9 JUMPI PUSH3 0x4F8 PUSH3 0x49F JUMP JUMPDEST JUMPDEST DUP1 PUSH1 0x40 MSTORE POP POP POP JUMP JUMPDEST PUSH0 PUSH3 0x50D PUSH3 0x419 JUMP JUMPDEST SWAP1 POP PUSH3 0x51B DUP3 DUP3 PUSH3 0x4CC JUMP JUMPDEST SWAP2 SWAP1 POP JUMP JUMPDEST PUSH0 PUSH8 0xFFFFFFFFFFFFFFFF DUP3 GT ISZERO PUSH3 0x53D JUMPI PUSH3 0x53C PUSH3 0x49F JUMP JUMPDEST JUMPDEST PUSH1 0x20 DUP3 MUL SWAP1 POP PUSH1 0x20 DUP2 ADD SWAP1 POP SWAP2 SWAP1 POP JUMP JUMPDEST PUSH0 DUP1 REVERT JUMPDEST PUSH0 PUSH3 0x568 PUSH3 0x562 DUP5 PUSH3 0x520 JUMP JUMPDEST PUSH3 0x502 JUMP JUMPDEST SWAP1 POP DUP1 DUP4 DUP3 MSTORE PUSH1 0x20 DUP3 ADD SWAP1 POP PUSH1 0x20 DUP5 MUL DUP4 ADD DUP6 DUP2 GT ISZERO PUSH3 0x58E JUMPI PUSH3 0x58D PUSH3 0x54E JUMP JUMPDEST JUMPDEST DUP4 JUMPDEST DUP2 DUP2 LT ISZERO PUSH3 0x5BB JUMPI DUP1 PUSH3 0x5A6 DUP9 DUP3 PUSH3 0x475 JUMP JUMPDEST DUP5 MSTORE PUSH1 0x20 DUP5 ADD SWAP4 POP POP PUSH1 0x20 DUP2 ADD SWAP1 POP PUSH3 0x590 JUMP JUMPDEST POP POP POP SWAP4 SWAP3 POP POP POP JUMP JUMPDEST PUSH0 DUP3 PUSH1 0x1F DUP4 ADD SLT PUSH3 0x5DC JUMPI PUSH3 0x5DB PUSH3 0x48B JUMP JUMPDEST JUMPDEST DUP2 MLOAD PUSH3 0x5EE DUP5 DUP3 PUSH1 0x20 DUP7 ADD PUSH3 0x552 JUMP JUMPDEST SWAP2 POP POP SWAP3 SWAP2 POP POP JUMP JUMPDEST PUSH0 DUP2 SWAP1 POP SWAP2 SWAP1 POP JUMP JUMPDEST PUSH3 0x60B DUP2 PUSH3 0x5F7 JUMP JUMPDEST DUP2 EQ PUSH3 0x616 JUMPI PUSH0 DUP1 REVERT JUMPDEST POP JUMP JUMPDEST PUSH0 DUP2 MLOAD SWAP1 POP PUSH3 0x629 DUP2 PUSH3 0x600 JUMP JUMPDEST SWAP3 SWAP2 POP POP JUMP JUMPDEST PUSH0 DUP1 PUSH0 DUP1 PUSH1 0x80 DUP6 DUP8 SUB SLT ISZERO PUSH3 0x64A JUMPI PUSH3 0x649 PUSH3 0x422 JUMP JUMPDEST JUMPDEST PUSH0 PUSH3 0x659 DUP8 DUP3 DUP9 ADD PUSH3 0x475 JUMP JUMPDEST SWAP5 POP POP PUSH1 0x20 DUP6 ADD MLOAD PUSH8 0xFFFFFFFFFFFFFFFF DUP2 GT ISZERO PUSH3 0x67D JUMPI PUSH3 0x67C PUSH3 0x426 JUMP JUMPDEST JUMPDEST PUSH3 0x68B DUP8 DUP3 DUP9 ADD PUSH3 0x5C5 JUMP JUMPDEST SWAP4 POP POP PUSH1 0x40 PUSH3 0x69E DUP8 DUP3 DUP9 ADD PUSH3 0x619 JUMP JUMPDEST SWAP3 POP POP PUSH1 0x60 PUSH3 0x6B1 DUP8 DUP3 DUP9 ADD PUSH3 0x475 JUMP JUMPDEST SWAP2 POP POP SWAP3 SWAP6 SWAP2 SWAP5 POP SWAP3 POP JUMP JUMPDEST PUSH32 0x4E487B7100000000000000000000000000000000000000000000000000000000 PUSH0 MSTORE PUSH1 0x32 PUSH1 0x4 MSTORE PUSH1 0x24 PUSH0 REVERT JUMPDEST PUSH3 0x6F5 DUP2 PUSH3 0x449 JUMP JUMPDEST DUP3 MSTORE POP POP JUMP JUMPDEST PUSH0 DUP2 SWAP1 POP SWAP2 SWAP1 POP JUMP JUMPDEST PUSH3 0x70F DUP2 PUSH3 0x6FB JUMP JUMPDEST DUP3 MSTORE POP POP JUMP JUMPDEST PUSH0 PUSH1 0x40 DUP3 ADD SWAP1 POP PUSH3 0x72A PUSH0 DUP4 ADD DUP6 PUSH3 0x6EA JUMP JUMPDEST PUSH3 0x739 PUSH1 0x20 DUP4 ADD DUP5 PUSH3 0x704 JUMP JUMPDEST SWAP4 SWAP3 POP POP POP JUMP JUMPDEST PUSH2 0x2152 DUP1 PUSH3 0x74E PUSH0 CODECOPY PUSH0 RETURN INVALID PUSH1 0x80 PUSH1 0x40 MSTORE CALLVALUE DUP1 ISZERO PUSH2 0xF JUMPI PUSH0 DUP1 REVERT JUMPDEST POP PUSH1 0x4 CALLDATASIZE LT PUSH2 0x14B JUMPI PUSH0 CALLDATALOAD PUSH1 0xE0 SHR DUP1 PUSH4 0x90805C34 GT PUSH2 0xC1 JUMPI DUP1 PUSH4 0xBD998CB3 GT PUSH2 0x7A JUMPI DUP1 PUSH4 0xBD998CB3 EQ PUSH2 0x39B JUMPI DUP1 PUSH4 0xBE354836 EQ PUSH2 0x3B9 JUMPI DUP1 PUSH4 0xC68DBB37 EQ PUSH2 0x3E9 JUMPI DUP1 PUSH4 0xD547741F EQ PUSH2 0x419 JUMPI DUP1 PUSH4 0xF3FEF3A3 EQ PUSH2 0x435 JUMPI DUP1 PUSH4 0xF4457FAB EQ PUSH2 0x451 JUMPI PUSH2 0x14B JUMP JUMPDEST DUP1 PUSH4 0x90805C34 EQ PUSH2 0x2C7 JUMPI DUP1 PUSH4 0x91D14854 EQ PUSH2 0x2E3 JUMPI DUP1 PUSH4 0x9E4A9369 EQ PUSH2 0x313 JUMPI DUP1 PUSH4 0xA217FDDF EQ PUSH2 0x331 JUMPI DUP1 PUSH4 0xA356EFC4 EQ PUSH2 0x34F JUMPI DUP1 PUSH4 0xBB39A960 EQ PUSH2 0x37F JUMPI PUSH2 0x14B JUMP JUMPDEST DUP1 PUSH4 0x30E5065E GT PUSH2 0x113 JUMPI DUP1 PUSH4 0x30E5065E EQ PUSH2 0x205 JUMPI DUP1 PUSH4 0x36568ABE EQ PUSH2 0x235 JUMPI DUP1 PUSH4 0x47E7EF24 EQ PUSH2 0x251 JUMPI DUP1 PUSH4 0x523820A1 EQ PUSH2 0x26D JUMPI DUP1 PUSH4 0x5E5A24A4 EQ PUSH2 0x28B JUMPI DUP1 PUSH4 0x75B238FC EQ PUSH2 0x2A9 JUMPI PUSH2 0x14B JUMP JUMPDEST DUP1 PUSH4 0x1FFC9A7 EQ PUSH2 0x14F JUMPI DUP1 PUSH4 0x6F34C2F EQ PUSH2 0x17F JUMPI DUP1 PUSH4 0xBA36DCD EQ PUSH2 0x189 JUMPI DUP1 PUSH4 0x248A9CA3 EQ PUSH2 0x1B9 JUMPI DUP1 PUSH4 0x2F2FF15D EQ PUSH2 0x1E9 JUMPI JUMPDEST PUSH0 DUP1 REVERT JUMPDEST PUSH2 0x169 PUSH1 0x4 DUP1 CALLDATASIZE SUB DUP2 ADD SWAP1 PUSH2 0x164 SWAP2 SWAP1 PUSH2 0x1694 JUMP JUMPDEST PUSH2 0x46F JUMP JUMPDEST PUSH1 0x40 MLOAD PUSH2 0x176 SWAP2 SWAP1 PUSH2 0x16D9 JUMP JUMPDEST PUSH1 0x40 MLOAD DUP1 SWAP2 SUB SWAP1 RETURN JUMPDEST PUSH2 0x187 PUSH2 0x4E8 JUMP JUMPDEST STOP JUMPDEST PUSH2 0x1A3 PUSH1 0x4 DUP1 CALLDATASIZE SUB DUP2 ADD SWAP1 PUSH2 0x19E SWAP2 SWAP1 PUSH2 0x174C JUMP JUMPDEST PUSH2 0x54F JUMP JUMPDEST PUSH1 0x40 MLOAD PUSH2 0x1B0 SWAP2 SWAP1 PUSH2 0x178F JUMP JUMPDEST PUSH1 0x40 MLOAD DUP1 SWAP2 SUB SWAP1 RETURN JUMPDEST PUSH2 0x1D3 PUSH1 0x4 DUP1 CALLDATASIZE SUB DUP2 ADD SWAP1 PUSH2 0x1CE SWAP2 SWAP1 PUSH2 0x17DB JUMP JUMPDEST PUSH2 0x569 JUMP JUMPDEST PUSH1 0x40 MLOAD PUSH2 0x1E0 SWAP2 SWAP1 PUSH2 0x1815 JUMP JUMPDEST PUSH1 0x40 MLOAD DUP1 SWAP2 SUB SWAP1 RETURN JUMPDEST PUSH2 0x203 PUSH1 0x4 DUP1 CALLDATASIZE SUB DUP2 ADD SWAP1 PUSH2 0x1FE SWAP2 SWAP1 PUSH2 0x182E JUMP JUMPDEST PUSH2 0x585 JUMP JUMPDEST STOP JUMPDEST PUSH2 0x21F PUSH1 0x4 DUP1 CALLDATASIZE SUB DUP2 ADD SWAP1 PUSH2 0x21A SWAP2 SWAP1 PUSH2 0x174C JUMP JUMPDEST PUSH2 0x5A7 JUMP JUMPDEST PUSH1 0x40 MLOAD PUSH2 0x22C SWAP2 SWAP1 PUSH2 0x178F JUMP JUMPDEST PUSH1 0x40 MLOAD DUP1 SWAP2 SUB SWAP1 RETURN JUMPDEST PUSH2 0x24F PUSH1 0x4 DUP1 CALLDATASIZE SUB DUP2 ADD SWAP1 PUSH2 0x24A SWAP2 SWAP1 PUSH2 0x182E JUMP JUMPDEST PUSH2 0x5BC JUMP JUMPDEST STOP JUMPDEST PUSH2 0x26B PUSH1 0x4 DUP1 CALLDATASIZE SUB DUP2 ADD SWAP1 PUSH2 0x266 SWAP2 SWAP1 PUSH2 0x1896 JUMP JUMPDEST PUSH2 0x637 JUMP JUMPDEST STOP JUMPDEST PUSH2 0x275 PUSH2 0x858 JUMP JUMPDEST PUSH1 0x40 MLOAD PUSH2 0x282 SWAP2 SWAP1 PUSH2 0x178F JUMP JUMPDEST PUSH1 0x40 MLOAD DUP1 SWAP2 SUB SWAP1 RETURN JUMPDEST PUSH2 0x293 PUSH2 0x85E JUMP JUMPDEST PUSH1 0x40 MLOAD PUSH2 0x2A0 SWAP2 SWAP1 PUSH2 0x1815 JUMP JUMPDEST PUSH1 0x40 MLOAD DUP1 SWAP2 SUB SWAP1 RETURN JUMPDEST PUSH2 0x2B1 PUSH2 0x882 JUMP JUMPDEST PUSH1 0x40 MLOAD PUSH2 0x2BE SWAP2 SWAP1 PUSH2 0x1815 JUMP JUMPDEST PUSH1 0x40 MLOAD DUP1 SWAP2 SUB SWAP1 RETURN JUMPDEST PUSH2 0x2E1 PUSH1 0x4 DUP1 CALLDATASIZE SUB DUP2 ADD SWAP1 PUSH2 0x2DC SWAP2 SWAP1 PUSH2 0x18D4 JUMP JUMPDEST PUSH2 0x8A6 JUMP JUMPDEST STOP JUMPDEST PUSH2 0x2FD PUSH1 0x4 DUP1 CALLDATASIZE SUB DUP2 ADD SWAP1 PUSH2 0x2F8 SWAP2 SWAP1 PUSH2 0x182E JUMP JUMPDEST PUSH2 0x950 JUMP JUMPDEST PUSH1 0x40 MLOAD PUSH2 0x30A SWAP2 SWAP1 PUSH2 0x16D9 JUMP JUMPDEST PUSH1 0x40 MLOAD DUP1 SWAP2 SUB SWAP1 RETURN JUMPDEST PUSH2 0x31B PUSH2 0x9B3 JUMP JUMPDEST PUSH1 0x40 MLOAD PUSH2 0x328 SWAP2 SWAP1 PUSH2 0x178F JUMP JUMPDEST PUSH1 0x40 MLOAD DUP1 SWAP2 SUB SWAP1 RETURN JUMPDEST PUSH2 0x339 PUSH2 0xAA6 JUMP JUMPDEST PUSH1 0x40 MLOAD PUSH2 0x346 SWAP2 SWAP1 PUSH2 0x1815 JUMP JUMPDEST PUSH1 0x40 MLOAD DUP1 SWAP2 SUB SWAP1 RETURN JUMPDEST PUSH2 0x369 PUSH1 0x4 DUP1 CALLDATASIZE SUB DUP2 ADD SWAP1 PUSH2 0x364 SWAP2 SWAP1 PUSH2 0x1896 JUMP JUMPDEST PUSH2 0xAAC JUMP JUMPDEST PUSH1 0x40 MLOAD PUSH2 0x376 SWAP2 SWAP1 PUSH2 0x178F JUMP JUMPDEST PUSH1 0x40 MLOAD DUP1 SWAP2 SUB SWAP1 RETURN JUMPDEST PUSH2 0x399 PUSH1 0x4 DUP1 CALLDATASIZE SUB DUP2 ADD SWAP1 PUSH2 0x394 SWAP2 SWAP1 PUSH2 0x194D JUMP JUMPDEST PUSH2 0xCD2 JUMP JUMPDEST STOP JUMPDEST PUSH2 0x3A3 PUSH2 0xD47 JUMP JUMPDEST PUSH1 0x40 MLOAD PUSH2 0x3B0 SWAP2 SWAP1 PUSH2 0x178F JUMP JUMPDEST PUSH1 0x40 MLOAD DUP1 SWAP2 SUB SWAP1 RETURN JUMPDEST PUSH2 0x3D3 PUSH1 0x4 DUP1 CALLDATASIZE SUB DUP2 ADD SWAP1 PUSH2 0x3CE SWAP2 SWAP1 PUSH2 0x174C JUMP JUMPDEST PUSH2 0xD4D JUMP JUMPDEST PUSH1 0x40 MLOAD PUSH2 0x3E0 SWAP2 SWAP1 PUSH2 0x178F JUMP JUMPDEST PUSH1 0x40 MLOAD DUP1 SWAP2 SUB SWAP1 RETURN JUMPDEST PUSH2 0x403 PUSH1 0x4 DUP1 CALLDATASIZE SUB DUP2 ADD SWAP1 PUSH2 0x3FE SWAP2 SWAP1 PUSH2 0x19B1 JUMP JUMPDEST PUSH2 0xD62 JUMP JUMPDEST PUSH1 0x40 MLOAD PUSH2 0x410 SWAP2 SWAP1 PUSH2 0x1A37 JUMP JUMPDEST PUSH1 0x40 MLOAD DUP1 SWAP2 SUB SWAP1 RETURN JUMPDEST PUSH2 0x433 PUSH1 0x4 DUP1 CALLDATASIZE SUB DUP2 ADD SWAP1 PUSH2 0x42E SWAP2 SWAP1 PUSH2 0x182E JUMP JUMPDEST PUSH2 0xD9D JUMP JUMPDEST STOP JUMPDEST PUSH2 0x44F PUSH1 0x4 DUP1 CALLDATASIZE SUB DUP2 ADD SWAP1 PUSH2 0x44A SWAP2 SWAP1 PUSH2 0x1896 JUMP JUMPDEST PUSH2 0xDBF JUMP JUMPDEST STOP JUMPDEST PUSH2 0x459 PUSH2 0x1161 JUMP JUMPDEST PUSH1 0x40 MLOAD PUSH2 0x466 SWAP2 SWAP1 PUSH2 0x178F JUMP JUMPDEST PUSH1 0x40 MLOAD DUP1 SWAP2 SUB SWAP1 RETURN JUMPDEST PUSH0 PUSH32 0x7965DB0B00000000000000000000000000000000000000000000000000000000 PUSH28 0xFFFFFFFFFFFFFFFFFFFFFFFFFFFFFFFFFFFFFFFFFFFFFFFFFFFFFFFF NOT AND DUP3 PUSH28 0xFFFFFFFFFFFFFFFFFFFFFFFFFFFFFFFFFFFFFFFFFFFFFFFFFFFFFFFF NOT AND EQ DUP1 PUSH2 0x4E1 JUMPI POP PUSH2 0x4E0 DUP3 PUSH2 0x1167 JUMP JUMPDEST JUMPDEST SWAP1 POP SWAP2 SWAP1 POP JUMP JUMPDEST PUSH32 0xD1473398BB66596DE5D1EA1FC8E303FF2AC23265ADC9144B1B52065DC4F0934B PUSH2 0x512 DUP2 PUSH2 0x11D0 JUMP JUMPDEST PUSH0 PUSH2 0x51B PUSH2 0x11E4 JUMP JUMPDEST SWAP1 POP PUSH0 DUP2 GT ISZERO PUSH2 0x54B JUMPI PUSH0 PUSH1 0x64 PUSH1 0x7 SLOAD DUP4 PUSH2 0x536 SWAP2 SWAP1 PUSH2 0x1A7D JUMP JUMPDEST PUSH2 0x540 SWAP2 SWAP1 PUSH2 0x1AEB JUMP JUMPDEST SWAP1 POP DUP1 PUSH1 0x8 DUP2 SWAP1 SSTORE POP POP JUMPDEST POP POP JUMP JUMPDEST PUSH1 0x5 PUSH1 0x20 MSTORE DUP1 PUSH0 MSTORE PUSH1 0x40 PUSH0 KECCAK256 PUSH0 SWAP2 POP SWAP1 POP DUP1 PUSH0 ADD SLOAD SWAP1 POP DUP2 JUMP JUMPDEST PUSH0 DUP1 PUSH0 DUP4 DUP2 MSTORE PUSH1 0x20 ADD SWAP1 DUP2 MSTORE PUSH1 0x20 ADD PUSH0 KECCAK256 PUSH1 0x1 ADD SLOAD SWAP1 POP SWAP2 SWAP1 POP JUMP JUMPDEST PUSH2 0x58E DUP3 PUSH2 0x569 JUMP JUMPDEST PUSH2 0x597 DUP2 PUSH2 0x11D0 JUMP JUMPDEST PUSH2 0x5A1 DUP4 DUP4 PUSH2 0x11E8 JUMP JUMPDEST POP POP POP POP JUMP JUMPDEST PUSH1 0x3 PUSH1 0x20 MSTORE DUP1 PUSH0 MSTORE PUSH1 0x40 PUSH0 KECCAK256 PUSH0 SWAP2 POP SWAP1 POP SLOAD DUP2 JUMP JUMPDEST PUSH2 0x5C4 PUSH2 0x12D1 JUMP JUMPDEST PUSH20 0xFFFFFFFFFFFFFFFFFFFFFFFFFFFFFFFFFFFFFFFF AND DUP2 PUSH20 0xFFFFFFFFFFFFFFFFFFFFFFFFFFFFFFFFFFFFFFFF AND EQ PUSH2 0x628 JUMPI PUSH1 0x40 MLOAD PUSH32 0x6697B23200000000000000000000000000000000000000000000000000000000 DUP2 MSTORE PUSH1 0x4 ADD PUSH1 0x40 MLOAD DUP1 SWAP2 SUB SWAP1 REVERT JUMPDEST PUSH2 0x632 DUP3 DUP3 PUSH2 0x12D8 JUMP JUMPDEST POP POP POP JUMP JUMPDEST PUSH2 0x640 DUP3 PUSH2 0x13C1 JUMP JUMPDEST PUSH2 0x67F JUMPI PUSH1 0x40 MLOAD PUSH32 0x8C379A000000000000000000000000000000000000000000000000000000000 DUP2 MSTORE PUSH1 0x4 ADD PUSH2 0x676 SWAP1 PUSH2 0x1B75 JUMP JUMPDEST PUSH1 0x40 MLOAD DUP1 SWAP2 SUB SWAP1 REVERT JUMPDEST DUP2 PUSH20 0xFFFFFFFFFFFFFFFFFFFFFFFFFFFFFFFFFFFFFFFF AND PUSH4 0x23B872DD PUSH2 0x6A3 PUSH2 0x12D1 JUMP JUMPDEST ADDRESS DUP5 PUSH1 0x40 MLOAD DUP5 PUSH4 0xFFFFFFFF AND PUSH1 0xE0 SHL DUP2 MSTORE PUSH1 0x4 ADD PUSH2 0x6C3 SWAP4 SWAP3 SWAP2 SWAP1 PUSH2 0x1BA2 JUMP JUMPDEST PUSH1 0x20 PUSH1 0x40 MLOAD DUP1 DUP4 SUB DUP2 PUSH0 DUP8 GAS CALL ISZERO DUP1 ISZERO PUSH2 0x6DF JUMPI RETURNDATASIZE PUSH0 DUP1 RETURNDATACOPY RETURNDATASIZE PUSH0 REVERT JUMPDEST POP POP POP POP PUSH1 0x40 MLOAD RETURNDATASIZE PUSH1 0x1F NOT PUSH1 0x1F DUP3 ADD AND DUP3 ADD DUP1 PUSH1 0x40 MSTORE POP DUP2 ADD SWAP1 PUSH2 0x703 SWAP2 SWAP1 PUSH2 0x1C01 JUMP JUMPDEST POP DUP1 PUSH1 0x3 PUSH0 DUP5 PUSH20 0xFFFFFFFFFFFFFFFFFFFFFFFFFFFFFFFFFFFFFFFF AND PUSH20 0xFFFFFFFFFFFFFFFFFFFFFFFFFFFFFFFFFFFFFFFF AND DUP2 MSTORE PUSH1 0x20 ADD SWAP1 DUP2 MSTORE PUSH1 0x20 ADD PUSH0 KECCAK256 PUSH0 DUP3 DUP3 SLOAD PUSH2 0x750 SWAP2 SWAP1 PUSH2 0x1C2C JUMP JUMPDEST SWAP3 POP POP DUP2 SWAP1 SSTORE POP PUSH2 0x761 DUP3 DUP3 PUSH2 0x1463 JUMP JUMPDEST PUSH1 0x5 PUSH0 PUSH2 0x76C PUSH2 0x12D1 JUMP JUMPDEST PUSH20 0xFFFFFFFFFFFFFFFFFFFFFFFFFFFFFFFFFFFFFFFF AND PUSH20 0xFFFFFFFFFFFFFFFFFFFFFFFFFFFFFFFFFFFFFFFF AND DUP2 MSTORE PUSH1 0x20 ADD SWAP1 DUP2 MSTORE PUSH1 0x20 ADD PUSH0 KECCAK256 PUSH0 ADD PUSH0 DUP3 DUP3 SLOAD PUSH2 0x7B5 SWAP2 SWAP1 PUSH2 0x1C2C JUMP JUMPDEST SWAP3 POP POP DUP2 SWAP1 SSTORE POP DUP1 PUSH1 0x5 PUSH0 PUSH2 0x7C8 PUSH2 0x12D1 JUMP JUMPDEST PUSH20 0xFFFFFFFFFFFFFFFFFFFFFFFFFFFFFFFFFFFFFFFF AND PUSH20 0xFFFFFFFFFFFFFFFFFFFFFFFFFFFFFFFFFFFFFFFF AND DUP2 MSTORE PUSH1 0x20 ADD SWAP1 DUP2 MSTORE PUSH1 0x20 ADD PUSH0 KECCAK256 PUSH1 0x1 ADD PUSH0 DUP5 PUSH20 0xFFFFFFFFFFFFFFFFFFFFFFFFFFFFFFFFFFFFFFFF AND PUSH20 0xFFFFFFFFFFFFFFFFFFFFFFFFFFFFFFFFFFFFFFFF AND DUP2 MSTORE PUSH1 0x20 ADD SWAP1 DUP2 MSTORE PUSH1 0x20 ADD PUSH0 KECCAK256 PUSH0 DUP3 DUP3 SLOAD PUSH2 0x84D SWAP2 SWAP1 PUSH2 0x1C2C JUMP JUMPDEST SWAP3 POP POP DUP2 SWAP1 SSTORE POP POP POP JUMP JUMPDEST PUSH1 0x8 SLOAD DUP2 JUMP JUMPDEST PUSH32 0xD1473398BB66596DE5D1EA1FC8E303FF2AC23265ADC9144B1B52065DC4F0934B DUP2 JUMP JUMPDEST PUSH32 0xA49807205CE4D355092EF5A8A18F56E8913CF4A201FBE287825B095693C21775 DUP2 JUMP JUMPDEST PUSH32 0xA49807205CE4D355092EF5A8A18F56E8913CF4A201FBE287825B095693C21775 PUSH2 0x8D0 DUP2 PUSH2 0x11D0 JUMP JUMPDEST DUP2 PUSH1 0x4 PUSH0 DUP6 PUSH20 0xFFFFFFFFFFFFFFFFFFFFFFFFFFFFFFFFFFFFFFFF AND PUSH20 0xFFFFFFFFFFFFFFFFFFFFFFFFFFFFFFFFFFFFFFFF AND DUP2 MSTORE PUSH1 0x20 ADD SWAP1 DUP2 MSTORE PUSH1 0x20 ADD PUSH0 KECCAK256 PUSH0 PUSH2 0x100 EXP DUP2 SLOAD DUP2 PUSH20 0xFFFFFFFFFFFFFFFFFFFFFFFFFFFFFFFFFFFFFFFF MUL NOT AND SWAP1 DUP4 PUSH20 0xFFFFFFFFFFFFFFFFFFFFFFFFFFFFFFFFFFFFFFFF AND MUL OR SWAP1 SSTORE POP POP POP POP JUMP JUMPDEST PUSH0 DUP1 PUSH0 DUP5 DUP2 MSTORE PUSH1 0x20 ADD SWAP1 DUP2 MSTORE PUSH1 0x20 ADD PUSH0 KECCAK256 PUSH0 ADD PUSH0 DUP4 PUSH20 0xFFFFFFFFFFFFFFFFFFFFFFFFFFFFFFFFFFFFFFFF AND PUSH20 0xFFFFFFFFFFFFFFFFFFFFFFFFFFFFFFFFFFFFFFFF AND DUP2 MSTORE PUSH1 0x20 ADD SWAP1 DUP2 MSTORE PUSH1 0x20 ADD PUSH0 KECCAK256 PUSH0 SWAP1 SLOAD SWAP1 PUSH2 0x100 EXP SWAP1 DIV PUSH1 0xFF AND SWAP1 POP SWAP3 SWAP2 POP POP JUMP JUMPDEST PUSH0 DUP1 PUSH0 SWAP1 POP PUSH0 JUMPDEST PUSH1 0x2 DUP1 SLOAD SWAP1 POP DUP2 LT ISZERO PUSH2 0xA9E JUMPI PUSH2 0xA84 PUSH1 0x2 DUP3 DUP2 SLOAD DUP2 LT PUSH2 0x9DE JUMPI PUSH2 0x9DD PUSH2 0x1C5F JUMP JUMPDEST JUMPDEST SWAP1 PUSH0 MSTORE PUSH1 0x20 PUSH0 KECCAK256 ADD PUSH0 SWAP1 SLOAD SWAP1 PUSH2 0x100 EXP SWAP1 DIV PUSH20 0xFFFFFFFFFFFFFFFFFFFFFFFFFFFFFFFFFFFFFFFF AND PUSH1 0x3 PUSH0 PUSH1 0x2 DUP6 DUP2 SLOAD DUP2 LT PUSH2 0xA1D JUMPI PUSH2 0xA1C PUSH2 0x1C5F JUMP JUMPDEST JUMPDEST SWAP1 PUSH0 MSTORE PUSH1 0x20 PUSH0 KECCAK256 ADD PUSH0 SWAP1 SLOAD SWAP1 PUSH2 0x100 EXP SWAP1 DIV PUSH20 0xFFFFFFFFFFFFFFFFFFFFFFFFFFFFFFFFFFFFFFFF AND PUSH20 0xFFFFFFFFFFFFFFFFFFFFFFFFFFFFFFFFFFFFFFFF AND PUSH20 0xFFFFFFFFFFFFFFFFFFFFFFFFFFFFFFFFFFFFFFFF AND DUP2 MSTORE PUSH1 0x20 ADD SWAP1 DUP2 MSTORE PUSH1 0x20 ADD PUSH0 KECCAK256 SLOAD PUSH2 0x1463 JUMP JUMPDEST DUP3 PUSH2 0xA8F SWAP2 SWAP1 PUSH2 0x1C2C JUMP JUMPDEST SWAP2 POP DUP1 DUP1 PUSH1 0x1 ADD SWAP2 POP POP PUSH2 0x9BA JUMP JUMPDEST POP DUP1 SWAP2 POP POP SWAP1 JUMP JUMPDEST PUSH0 DUP1 SHL DUP2 JUMP JUMPDEST PUSH0 DUP1 PUSH1 0x4 PUSH0 DUP6 PUSH20 0xFFFFFFFFFFFFFFFFFFFFFFFFFFFFFFFFFFFFFFFF AND PUSH20 0xFFFFFFFFFFFFFFFFFFFFFFFFFFFFFFFFFFFFFFFF AND DUP2 MSTORE PUSH1 0x20 ADD SWAP1 DUP2 MSTORE PUSH1 0x20 ADD PUSH0 KECCAK256 PUSH0 SWAP1 SLOAD SWAP1 PUSH2 0x100 EXP SWAP1 DIV PUSH20 0xFFFFFFFFFFFFFFFFFFFFFFFFFFFFFFFFFFFFFFFF AND SWAP1 POP PUSH0 PUSH20 0xFFFFFFFFFFFFFFFFFFFFFFFFFFFFFFFFFFFFFFFF AND DUP2 PUSH20 0xFFFFFFFFFFFFFFFFFFFFFFFFFFFFFFFFFFFFFFFF AND SUB PUSH2 0xB7B JUMPI PUSH1 0x40 MLOAD PUSH32 0x8C379A000000000000000000000000000000000000000000000000000000000 DUP2 MSTORE PUSH1 0x4 ADD PUSH2 0xB72 SWAP1 PUSH2 0x1CD6 JUMP JUMPDEST PUSH1 0x40 MLOAD DUP1 SWAP2 SUB SWAP1 REVERT JUMPDEST PUSH0 DUP2 PUSH20 0xFFFFFFFFFFFFFFFFFFFFFFFFFFFFFFFFFFFFFFFF AND PUSH4 0xFEAF968C PUSH1 0x40 MLOAD DUP2 PUSH4 0xFFFFFFFF AND PUSH1 0xE0 SHL DUP2 MSTORE PUSH1 0x4 ADD PUSH1 0xA0 PUSH1 0x40 MLOAD DUP1 DUP4 SUB DUP2 DUP7 GAS STATICCALL ISZERO DUP1 ISZERO PUSH2 0xBC5 JUMPI RETURNDATASIZE PUSH0 DUP1 RETURNDATACOPY RETURNDATASIZE PUSH0 REVERT JUMPDEST POP POP POP POP PUSH1 0x40 MLOAD RETURNDATASIZE PUSH1 0x1F NOT PUSH1 0x1F DUP3 ADD AND DUP3 ADD DUP1 PUSH1 0x40 MSTORE POP DUP2 ADD SWAP1 PUSH2 0xBE9 SWAP2 SWAP1 PUSH2 0x1D7A JUMP JUMPDEST POP POP POP SWAP2 POP POP PUSH0 DUP2 SGT PUSH2 0xC31 JUMPI PUSH1 0x40 MLOAD PUSH32 0x8C379A000000000000000000000000000000000000000000000000000000000 DUP2 MSTORE PUSH1 0x4 ADD PUSH2 0xC28 SWAP1 PUSH2 0x1E3B JUMP JUMPDEST PUSH1 0x40 MLOAD DUP1 SWAP2 SUB SWAP1 REVERT JUMPDEST PUSH0 DUP3 PUSH20 0xFFFFFFFFFFFFFFFFFFFFFFFFFFFFFFFFFFFFFFFF AND PUSH4 0x313CE567 PUSH1 0x40 MLOAD DUP2 PUSH4 0xFFFFFFFF AND PUSH1 0xE0 SHL DUP2 MSTORE PUSH1 0x4 ADD PUSH1 0x20 PUSH1 0x40 MLOAD DUP1 DUP4 SUB DUP2 DUP7 GAS STATICCALL ISZERO DUP1 ISZERO PUSH2 0xC7B JUMPI RETURNDATASIZE PUSH0 DUP1 RETURNDATACOPY RETURNDATASIZE PUSH0 REVERT JUMPDEST POP POP POP POP PUSH1 0x40 MLOAD RETURNDATASIZE PUSH1 0x1F NOT PUSH1 0x1F DUP3 ADD AND DUP3 ADD DUP1 PUSH1 0x40 MSTORE POP DUP2 ADD SWAP1 PUSH2 0xC9F SWAP2 SWAP1 PUSH2 0x1E8F JUMP JUMPDEST PUSH1 0xFF AND SWAP1 POP DUP1 PUSH1 0xA PUSH2 0xCB1 SWAP2 SWAP1 PUSH2 0x1FE9 JUMP JUMPDEST DUP3 DUP7 PUSH2 0xCBD SWAP2 SWAP1 PUSH2 0x1A7D JUMP JUMPDEST PUSH2 0xCC7 SWAP2 SWAP1 PUSH2 0x1AEB JUMP JUMPDEST SWAP4 POP POP POP POP SWAP3 SWAP2 POP POP JUMP JUMPDEST PUSH32 0xD1473398BB66596DE5D1EA1FC8E303FF2AC23265ADC9144B1B52065DC4F0934B PUSH2 0xCFC DUP2 PUSH2 0x11D0 JUMP JUMPDEST PUSH0 PUSH2 0xD07 DUP5 DUP5 PUSH2 0x1463 JUMP JUMPDEST SWAP1 POP PUSH0 PUSH2 0xD14 DUP8 DUP8 PUSH2 0x1463 JUMP JUMPDEST SWAP1 POP PUSH0 DUP2 DUP4 PUSH2 0xD23 SWAP2 SWAP1 PUSH2 0x2033 JUMP JUMPDEST SWAP1 POP DUP1 PUSH1 0x9 PUSH0 DUP3 DUP3 SLOAD PUSH2 0xD36 SWAP2 SWAP1 PUSH2 0x1C2C JUMP JUMPDEST SWAP3 POP POP DUP2 SWAP1 SSTORE POP POP POP POP POP POP POP POP POP JUMP JUMPDEST PUSH1 0x9 SLOAD DUP2 JUMP JUMPDEST PUSH1 0x6 PUSH1 0x20 MSTORE DUP1 PUSH0 MSTORE PUSH1 0x40 PUSH0 KECCAK256 PUSH0 SWAP2 POP SWAP1 POP SLOAD DUP2 JUMP JUMPDEST PUSH1 0x2 DUP2 DUP2 SLOAD DUP2 LT PUSH2 0xD71 JUMPI PUSH0 DUP1 REVERT JUMPDEST SWAP1 PUSH0 MSTORE PUSH1 0x20 PUSH0 KECCAK256 ADD PUSH0 SWAP2 POP SLOAD SWAP1 PUSH2 0x100 EXP SWAP1 DIV PUSH20 0xFFFFFFFFFFFFFFFFFFFFFFFFFFFFFFFFFFFFFFFF AND DUP2 JUMP JUMPDEST PUSH2 0xDA6 DUP3 PUSH2 0x569 JUMP JUMPDEST PUSH2 0xDAF DUP2 PUSH2 0x11D0 JUMP JUMPDEST PUSH2 0xDB9 DUP4 DUP4 PUSH2 0x12D8 JUMP JUMPDEST POP POP POP POP JUMP JUMPDEST DUP1 PUSH1 0x5 PUSH0 PUSH2 0xDCB PUSH2 0x12D1 JUMP JUMPDEST PUSH20 0xFFFFFFFFFFFFFFFFFFFFFFFFFFFFFFFFFFFFFFFF AND PUSH20 0xFFFFFFFFFFFFFFFFFFFFFFFFFFFFFFFFFFFFFFFF AND DUP2 MSTORE PUSH1 0x20 ADD SWAP1 DUP2 MSTORE PUSH1 0x20 ADD PUSH0 KECCAK256 PUSH1 0x1 ADD PUSH0 DUP5 PUSH20 0xFFFFFFFFFFFFFFFFFFFFFFFFFFFFFFFFFFFFFFFF AND PUSH20 0xFFFFFFFFFFFFFFFFFFFFFFFFFFFFFFFFFFFFFFFF AND DUP2 MSTORE PUSH1 0x20 ADD SWAP1 DUP2 MSTORE PUSH1 0x20 ADD PUSH0 KECCAK256 SLOAD LT ISZERO PUSH2 0xE84 JUMPI PUSH1 0x40 MLOAD PUSH32 0x8C379A000000000000000000000000000000000000000000000000000000000 DUP2 MSTORE PUSH1 0x4 ADD PUSH2 0xE7B SWAP1 PUSH2 0x20B0 JUMP JUMPDEST PUSH1 0x40 MLOAD DUP1 SWAP2 SUB SWAP1 REVERT JUMPDEST DUP1 PUSH1 0x5 PUSH0 PUSH2 0xE90 PUSH2 0x12D1 JUMP JUMPDEST PUSH20 0xFFFFFFFFFFFFFFFFFFFFFFFFFFFFFFFFFFFFFFFF AND PUSH20 0xFFFFFFFFFFFFFFFFFFFFFFFFFFFFFFFFFFFFFFFF AND DUP2 MSTORE PUSH1 0x20 ADD SWAP1 DUP2 MSTORE PUSH1 0x20 ADD PUSH0 KECCAK256 PUSH1 0x1 ADD PUSH0 DUP5 PUSH20 0xFFFFFFFFFFFFFFFFFFFFFFFFFFFFFFFFFFFFFFFF AND PUSH20 0xFFFFFFFFFFFFFFFFFFFFFFFFFFFFFFFFFFFFFFFF AND DUP2 MSTORE PUSH1 0x20 ADD SWAP1 DUP2 MSTORE PUSH1 0x20 ADD PUSH0 KECCAK256 PUSH0 DUP3 DUP3 SLOAD PUSH2 0xF15 SWAP2 SWAP1 PUSH2 0x2033 JUMP JUMPDEST SWAP3 POP POP DUP2 SWAP1 SSTORE POP DUP1 PUSH1 0x3 PUSH0 DUP5 PUSH20 0xFFFFFFFFFFFFFFFFFFFFFFFFFFFFFFFFFFFFFFFF AND PUSH20 0xFFFFFFFFFFFFFFFFFFFFFFFFFFFFFFFFFFFFFFFF AND DUP2 MSTORE PUSH1 0x20 ADD SWAP1 DUP2 MSTORE PUSH1 0x20 ADD PUSH0 KECCAK256 PUSH0 DUP3 DUP3 SLOAD PUSH2 0xF68 SWAP2 SWAP1 PUSH2 0x2033 JUMP JUMPDEST SWAP3 POP POP DUP2 SWAP1 SSTORE POP DUP2 PUSH20 0xFFFFFFFFFFFFFFFFFFFFFFFFFFFFFFFFFFFFFFFF AND PUSH4 0xA9059CBB PUSH2 0xF93 PUSH2 0x12D1 JUMP JUMPDEST DUP4 PUSH1 0x40 MLOAD DUP4 PUSH4 0xFFFFFFFF AND PUSH1 0xE0 SHL DUP2 MSTORE PUSH1 0x4 ADD PUSH2 0xFB1 SWAP3 SWAP2 SWAP1 PUSH2 0x20CE JUMP JUMPDEST PUSH1 0x20 PUSH1 0x40 MLOAD DUP1 DUP4 SUB DUP2 PUSH0 DUP8 GAS CALL ISZERO DUP1 ISZERO PUSH2 0xFCD JUMPI RETURNDATASIZE PUSH0 DUP1 RETURNDATACOPY RETURNDATASIZE PUSH0 REVERT JUMPDEST POP POP POP POP PUSH1 0x40 MLOAD RETURNDATASIZE PUSH1 0x1F NOT PUSH1 0x1F DUP3 ADD AND DUP3 ADD DUP1 PUSH1 0x40 MSTORE POP DUP2 ADD SWAP1 PUSH2 0xFF1 SWAP2 SWAP1 PUSH2 0x1C01 JUMP JUMPDEST POP PUSH0 PUSH2 0x1003 PUSH2 0xFFE PUSH2 0x12D1 JUMP JUMPDEST PUSH2 0x1553 JUMP JUMPDEST SWAP1 POP DUP1 PUSH1 0x6 PUSH0 PUSH2 0x1011 PUSH2 0x12D1 JUMP JUMPDEST PUSH20 0xFFFFFFFFFFFFFFFFFFFFFFFFFFFFFFFFFFFFFFFF AND PUSH20 0xFFFFFFFFFFFFFFFFFFFFFFFFFFFFFFFFFFFFFFFF AND DUP2 MSTORE PUSH1 0x20 ADD SWAP1 DUP2 MSTORE PUSH1 0x20 ADD PUSH0 KECCAK256 PUSH0 DUP3 DUP3 SLOAD PUSH2 0x1058 SWAP2 SWAP1 PUSH2 0x1C2C JUMP JUMPDEST SWAP3 POP POP DUP2 SWAP1 SSTORE POP PUSH2 0x1069 DUP4 DUP4 PUSH2 0x1463 JUMP JUMPDEST PUSH1 0x5 PUSH0 PUSH2 0x1074 PUSH2 0x12D1 JUMP JUMPDEST PUSH20 0xFFFFFFFFFFFFFFFFFFFFFFFFFFFFFFFFFFFFFFFF AND PUSH20 0xFFFFFFFFFFFFFFFFFFFFFFFFFFFFFFFFFFFFFFFF AND DUP2 MSTORE PUSH1 0x20 ADD SWAP1 DUP2 MSTORE PUSH1 0x20 ADD PUSH0 KECCAK256 PUSH0 ADD PUSH0 DUP3 DUP3 SLOAD PUSH2 0x10BD SWAP2 SWAP1 PUSH2 0x2033 JUMP JUMPDEST SWAP3 POP POP DUP2 SWAP1 SSTORE POP DUP2 PUSH1 0x5 PUSH0 PUSH2 0x10D0 PUSH2 0x12D1 JUMP JUMPDEST PUSH20 0xFFFFFFFFFFFFFFFFFFFFFFFFFFFFFFFFFFFFFFFF AND PUSH20 0xFFFFFFFFFFFFFFFFFFFFFFFFFFFFFFFFFFFFFFFF AND DUP2 MSTORE PUSH1 0x20 ADD SWAP1 DUP2 MSTORE PUSH1 0x20 ADD PUSH0 KECCAK256 PUSH1 0x1 ADD PUSH0 DUP6 PUSH20 0xFFFFFFFFFFFFFFFFFFFFFFFFFFFFFFFFFFFFFFFF AND PUSH20 0xFFFFFFFFFFFFFFFFFFFFFFFFFFFFFFFFFFFFFFFF AND DUP2 MSTORE PUSH1 0x20 ADD SWAP1 DUP2 MSTORE PUSH1 0x20 ADD PUSH0 KECCAK256 PUSH0 DUP3 DUP3 SLOAD PUSH2 0x1155 SWAP2 SWAP1 PUSH2 0x2033 JUMP JUMPDEST SWAP3 POP POP DUP2 SWAP1 SSTORE POP POP POP POP JUMP JUMPDEST PUSH1 0x7 SLOAD DUP2 JUMP JUMPDEST PUSH0 PUSH32 0x1FFC9A700000000000000000000000000000000000000000000000000000000 PUSH28 0xFFFFFFFFFFFFFFFFFFFFFFFFFFFFFFFFFFFFFFFFFFFFFFFFFFFFFFFF NOT AND DUP3 PUSH28 0xFFFFFFFFFFFFFFFFFFFFFFFFFFFFFFFFFFFFFFFFFFFFFFFFFFFFFFFF NOT AND EQ SWAP1 POP SWAP2 SWAP1 POP JUMP JUMPDEST PUSH2 0x11E1 DUP2 PUSH2 0x11DC PUSH2 0x12D1 JUMP JUMPDEST PUSH2 0x15EA JUMP JUMPDEST POP JUMP JUMPDEST PUSH0 SWAP1 JUMP JUMPDEST PUSH0 PUSH2 0x11F3 DUP4 DUP4 PUSH2 0x950 JUMP JUMPDEST PUSH2 0x12C7 JUMPI PUSH1 0x1 PUSH0 DUP1 DUP6 DUP2 MSTORE PUSH1 0x20 ADD SWAP1 DUP2 MSTORE PUSH1 0x20 ADD PUSH0 KECCAK256 PUSH0 ADD PUSH0 DUP5 PUSH20 0xFFFFFFFFFFFFFFFFFFFFFFFFFFFFFFFFFFFFFFFF AND PUSH20 0xFFFFFFFFFFFFFFFFFFFFFFFFFFFFFFFFFFFFFFFF AND DUP2 MSTORE PUSH1 0x20 ADD SWAP1 DUP2 MSTORE PUSH1 0x20 ADD PUSH0 KECCAK256 PUSH0 PUSH2 0x100 EXP DUP2 SLOAD DUP2 PUSH1 0xFF MUL NOT AND SWAP1 DUP4 ISZERO ISZERO MUL OR SWAP1 SSTORE POP PUSH2 0x1264 PUSH2 0x12D1 JUMP JUMPDEST PUSH20 0xFFFFFFFFFFFFFFFFFFFFFFFFFFFFFFFFFFFFFFFF AND DUP3 PUSH20 0xFFFFFFFFFFFFFFFFFFFFFFFFFFFFFFFFFFFFFFFF AND DUP5 PUSH32 0x2F8788117E7EFF1D82E926EC794901D17C78024A50270940304540A733656F0D PUSH1 0x40 MLOAD PUSH1 0x40 MLOAD DUP1 SWAP2 SUB SWAP1 LOG4 PUSH1 0x1 SWAP1 POP PUSH2 0x12CB JUMP JUMPDEST PUSH0 SWAP1 POP JUMPDEST SWAP3 SWAP2 POP POP JUMP JUMPDEST PUSH0 CALLER SWAP1 POP SWAP1 JUMP JUMPDEST PUSH0 PUSH2 0x12E3 DUP4 DUP4 PUSH2 0x950 JUMP JUMPDEST ISZERO PUSH2 0x13B7 JUMPI PUSH0 DUP1 PUSH0 DUP6 DUP2 MSTORE PUSH1 0x20 ADD SWAP1 DUP2 MSTORE PUSH1 0x20 ADD PUSH0 KECCAK256 PUSH0 ADD PUSH0 DUP5 PUSH20 0xFFFFFFFFFFFFFFFFFFFFFFFFFFFFFFFFFFFFFFFF AND PUSH20 0xFFFFFFFFFFFFFFFFFFFFFFFFFFFFFFFFFFFFFFFF AND DUP2 MSTORE PUSH1 0x20 ADD SWAP1 DUP2 MSTORE PUSH1 0x20 ADD PUSH0 KECCAK256 PUSH0 PUSH2 0x100 EXP DUP2 SLOAD DUP2 PUSH1 0xFF MUL NOT AND SWAP1 DUP4 ISZERO ISZERO MUL OR SWAP1 SSTORE POP PUSH2 0x1354 PUSH2 0x12D1 JUMP JUMPDEST PUSH20 0xFFFFFFFFFFFFFFFFFFFFFFFFFFFFFFFFFFFFFFFF AND DUP3 PUSH20 0xFFFFFFFFFFFFFFFFFFFFFFFFFFFFFFFFFFFFFFFF AND DUP5 PUSH32 0xF6391F5C32D9C69D2A47EA670B442974B53935D1EDC7FD64EB21E047A839171B PUSH1 0x40 MLOAD PUSH1 0x40 MLOAD DUP1 SWAP2 SUB SWAP1 LOG4 PUSH1 0x1 SWAP1 POP PUSH2 0x13BB JUMP JUMPDEST PUSH0 SWAP1 POP JUMPDEST SWAP3 SWAP2 POP POP JUMP JUMPDEST PUSH0 DUP1 PUSH0 SWAP1 POP JUMPDEST PUSH1 0x2 DUP1 SLOAD SWAP1 POP DUP2 LT ISZERO PUSH2 0x1459 JUMPI DUP3 PUSH20 0xFFFFFFFFFFFFFFFFFFFFFFFFFFFFFFFFFFFFFFFF AND PUSH1 0x2 DUP3 DUP2 SLOAD DUP2 LT PUSH2 0x13FF JUMPI PUSH2 0x13FE PUSH2 0x1C5F JUMP JUMPDEST JUMPDEST SWAP1 PUSH0 MSTORE PUSH1 0x20 PUSH0 KECCAK256 ADD PUSH0 SWAP1 SLOAD SWAP1 PUSH2 0x100 EXP SWAP1 DIV PUSH20 0xFFFFFFFFFFFFFFFFFFFFFFFFFFFFFFFFFFFFFFFF AND PUSH20 0xFFFFFFFFFFFFFFFFFFFFFFFFFFFFFFFFFFFFFFFF AND SUB PUSH2 0x144C JUMPI PUSH1 0x1 SWAP2 POP POP PUSH2 0x145E JUMP JUMPDEST DUP1 DUP1 PUSH1 0x1 ADD SWAP2 POP POP PUSH2 0x13C7 JUMP JUMPDEST POP PUSH0 SWAP1 POP JUMPDEST SWAP2 SWAP1 POP JUMP JUMPDEST PUSH0 DUP1 PUSH1 0x4 PUSH0 DUP6 PUSH20 0xFFFFFFFFFFFFFFFFFFFFFFFFFFFFFFFFFFFFFFFF AND PUSH20 0xFFFFFFFFFFFFFFFFFFFFFFFFFFFFFFFFFFFFFFFF AND DUP2 MSTORE PUSH1 0x20 ADD SWAP1 DUP2 MSTORE PUSH1 0x20 ADD PUSH0 KECCAK256 PUSH0 SWAP1 SLOAD SWAP1 PUSH2 0x100 EXP SWAP1 DIV PUSH20 0xFFFFFFFFFFFFFFFFFFFFFFFFFFFFFFFFFFFFFFFF AND SWAP1 POP PUSH0 DUP2 PUSH20 0xFFFFFFFFFFFFFFFFFFFFFFFFFFFFFFFFFFFFFFFF AND PUSH4 0xFEAF968C PUSH1 0x40 MLOAD DUP2 PUSH4 0xFFFFFFFF AND PUSH1 0xE0 SHL DUP2 MSTORE PUSH1 0x4 ADD PUSH1 0xA0 PUSH1 0x40 MLOAD DUP1 DUP4 SUB DUP2 DUP7 GAS STATICCALL ISZERO DUP1 ISZERO PUSH2 0x150E JUMPI RETURNDATASIZE PUSH0 DUP1 RETURNDATACOPY RETURNDATASIZE PUSH0 REVERT JUMPDEST POP POP POP POP PUSH1 0x40 MLOAD RETURNDATASIZE PUSH1 0x1F NOT PUSH1 0x1F DUP3 ADD AND DUP3 ADD DUP1 PUSH1 0x40 MSTORE POP DUP2 ADD SWAP1 PUSH2 0x1532 SWAP2 SWAP1 PUSH2 0x1D7A JUMP JUMPDEST POP POP POP SWAP2 POP POP PUSH0 DUP5 DUP3 PUSH2 0x1545 SWAP2 SWAP1 PUSH2 0x1A7D JUMP JUMPDEST SWAP1 POP DUP1 SWAP4 POP POP POP POP SWAP3 SWAP2 POP POP JUMP JUMPDEST PUSH0 DUP1 PUSH2 0x155D PUSH2 0x9B3 JUMP JUMPDEST PUSH8 0xDE0B6B3A7640000 PUSH1 0x5 PUSH0 DUP7 PUSH20 0xFFFFFFFFFFFFFFFFFFFFFFFFFFFFFFFFFFFFFFFF AND PUSH20 0xFFFFFFFFFFFFFFFFFFFFFFFFFFFFFFFFFFFFFFFF AND DUP2 MSTORE PUSH1 0x20 ADD SWAP1 DUP2 MSTORE PUSH1 0x20 ADD PUSH0 KECCAK256 PUSH0 ADD SLOAD PUSH2 0x15B0 SWAP2 SWAP1 PUSH2 0x1A7D JUMP JUMPDEST PUSH2 0x15BA SWAP2 SWAP1 PUSH2 0x1AEB JUMP JUMPDEST SWAP1 POP PUSH0 PUSH8 0xDE0B6B3A7640000 DUP3 PUSH1 0x9 SLOAD PUSH2 0x15D4 SWAP2 SWAP1 PUSH2 0x1A7D JUMP JUMPDEST PUSH2 0x15DE SWAP2 SWAP1 PUSH2 0x1AEB JUMP JUMPDEST SWAP1 POP DUP1 SWAP3 POP POP POP SWAP2 SWAP1 POP JUMP JUMPDEST PUSH2 0x15F4 DUP3 DUP3 PUSH2 0x950 JUMP JUMPDEST PUSH2 0x1637 JUMPI DUP1 DUP3 PUSH1 0x40 MLOAD PUSH32 0xE2517D3F00000000000000000000000000000000000000000000000000000000 DUP2 MSTORE PUSH1 0x4 ADD PUSH2 0x162E SWAP3 SWAP2 SWAP1 PUSH2 0x20F5 JUMP JUMPDEST PUSH1 0x40 MLOAD DUP1 SWAP2 SUB SWAP1 REVERT JUMPDEST POP POP JUMP JUMPDEST PUSH0 DUP1 REVERT JUMPDEST PUSH0 PUSH32 0xFFFFFFFF00000000000000000000000000000000000000000000000000000000 DUP3 AND SWAP1 POP SWAP2 SWAP1 POP JUMP JUMPDEST PUSH2 0x1673 DUP2 PUSH2 0x163F JUMP JUMPDEST DUP2 EQ PUSH2 0x167D JUMPI PUSH0 DUP1 REVERT JUMPDEST POP JUMP JUMPDEST PUSH0 DUP2 CALLDATALOAD SWAP1 POP PUSH2 0x168E DUP2 PUSH2 0x166A JUMP JUMPDEST SWAP3 SWAP2 POP POP JUMP JUMPDEST PUSH0 PUSH1 0x20 DUP3 DUP5 SUB SLT ISZERO PUSH2 0x16A9 JUMPI PUSH2 0x16A8 PUSH2 0x163B JUMP JUMPDEST JUMPDEST PUSH0 PUSH2 0x16B6 DUP5 DUP3 DUP6 ADD PUSH2 0x1680 JUMP JUMPDEST SWAP2 POP POP SWAP3 SWAP2 POP POP JUMP JUMPDEST PUSH0 DUP2 ISZERO ISZERO SWAP1 POP SWAP2 SWAP1 POP JUMP JUMPDEST PUSH2 0x16D3 DUP2 PUSH2 0x16BF JUMP JUMPDEST DUP3 MSTORE POP POP JUMP JUMPDEST PUSH0 PUSH1 0x20 DUP3 ADD SWAP1 POP PUSH2 0x16EC PUSH0 DUP4 ADD DUP5 PUSH2 0x16CA JUMP JUMPDEST SWAP3 SWAP2 POP POP JUMP JUMPDEST PUSH0 PUSH20 0xFFFFFFFFFFFFFFFFFFFFFFFFFFFFFFFFFFFFFFFF DUP3 AND SWAP1 POP SWAP2 SWAP1 POP JUMP JUMPDEST PUSH0 PUSH2 0x171B DUP3 PUSH2 0x16F2 JUMP JUMPDEST SWAP1 POP SWAP2 SWAP1 POP JUMP JUMPDEST PUSH2 0x172B DUP2 PUSH2 0x1711 JUMP JUMPDEST DUP2 EQ PUSH2 0x1735 JUMPI PUSH0 DUP1 REVERT JUMPDEST POP JUMP JUMPDEST PUSH0 DUP2 CALLDATALOAD SWAP1 POP PUSH2 0x1746 DUP2 PUSH2 0x1722 JUMP JUMPDEST SWAP3 SWAP2 POP POP JUMP JUMPDEST PUSH0 PUSH1 0x20 DUP3 DUP5 SUB SLT ISZERO PUSH2 0x1761 JUMPI PUSH2 0x1760 PUSH2 0x163B JUMP JUMPDEST JUMPDEST PUSH0 PUSH2 0x176E DUP5 DUP3 DUP6 ADD PUSH2 0x1738 JUMP JUMPDEST SWAP2 POP POP SWAP3 SWAP2 POP POP JUMP JUMPDEST PUSH0 DUP2 SWAP1 POP SWAP2 SWAP1 POP JUMP JUMPDEST PUSH2 0x1789 DUP2 PUSH2 0x1777 JUMP JUMPDEST DUP3 MSTORE POP POP JUMP JUMPDEST PUSH0 PUSH1 0x20 DUP3 ADD SWAP1 POP PUSH2 0x17A2 PUSH0 DUP4 ADD DUP5 PUSH2 0x1780 JUMP JUMPDEST SWAP3 SWAP2 POP POP JUMP JUMPDEST PUSH0 DUP2 SWAP1 POP SWAP2 SWAP1 POP JUMP JUMPDEST PUSH2 0x17BA DUP2 PUSH2 0x17A8 JUMP JUMPDEST DUP2 EQ PUSH2 0x17C4 JUMPI PUSH0 DUP1 REVERT JUMPDEST POP JUMP JUMPDEST PUSH0 DUP2 CALLDATALOAD SWAP1 POP PUSH2 0x17D5 DUP2 PUSH2 0x17B1 JUMP JUMPDEST SWAP3 SWAP2 POP POP JUMP JUMPDEST PUSH0 PUSH1 0x20 DUP3 DUP5 SUB SLT ISZERO PUSH2 0x17F0 JUMPI PUSH2 0x17EF PUSH2 0x163B JUMP JUMPDEST JUMPDEST PUSH0 PUSH2 0x17FD DUP5 DUP3 DUP6 ADD PUSH2 0x17C7 JUMP JUMPDEST SWAP2 POP POP SWAP3 SWAP2 POP POP JUMP JUMPDEST PUSH2 0x180F DUP2 PUSH2 0x17A8 JUMP JUMPDEST DUP3 MSTORE POP POP JUMP JUMPDEST PUSH0 PUSH1 0x20 DUP3 ADD SWAP1 POP PUSH2 0x1828 PUSH0 DUP4 ADD DUP5 PUSH2 0x1806 JUMP JUMPDEST SWAP3 SWAP2 POP POP JUMP JUMPDEST PUSH0 DUP1 PUSH1 0x40 DUP4 DUP6 SUB SLT ISZERO PUSH2 0x1844 JUMPI PUSH2 0x1843 PUSH2 0x163B JUMP JUMPDEST JUMPDEST PUSH0 PUSH2 0x1851 DUP6 DUP3 DUP7 ADD PUSH2 0x17C7 JUMP JUMPDEST SWAP3 POP POP PUSH1 0x20 PUSH2 0x1862 DUP6 DUP3 DUP7 ADD PUSH2 0x1738 JUMP JUMPDEST SWAP2 POP POP SWAP3 POP SWAP3 SWAP1 POP JUMP JUMPDEST PUSH2 0x1875 DUP2 PUSH2 0x1777 JUMP JUMPDEST DUP2 EQ PUSH2 0x187F JUMPI PUSH0 DUP1 REVERT JUMPDEST POP JUMP JUMPDEST PUSH0 DUP2 CALLDATALOAD SWAP1 POP PUSH2 0x1890 DUP2 PUSH2 0x186C JUMP JUMPDEST SWAP3 SWAP2 POP POP JUMP JUMPDEST PUSH0 DUP1 PUSH1 0x40 DUP4 DUP6 SUB SLT ISZERO PUSH2 0x18AC JUMPI PUSH2 0x18AB PUSH2 0x163B JUMP JUMPDEST JUMPDEST PUSH0 PUSH2 0x18B9 DUP6 DUP3 DUP7 ADD PUSH2 0x1738 JUMP JUMPDEST SWAP3 POP POP PUSH1 0x20 PUSH2 0x18CA DUP6 DUP3 DUP7 ADD PUSH2 0x1882 JUMP JUMPDEST SWAP2 POP POP SWAP3 POP SWAP3 SWAP1 POP JUMP JUMPDEST PUSH0 DUP1 PUSH1 0x40 DUP4 DUP6 SUB SLT ISZERO PUSH2 0x18EA JUMPI PUSH2 0x18E9 PUSH2 0x163B JUMP JUMPDEST JUMPDEST PUSH0 PUSH2 0x18F7 DUP6 DUP3 DUP7 ADD PUSH2 0x1738 JUMP JUMPDEST SWAP3 POP POP PUSH1 0x20 PUSH2 0x1908 DUP6 DUP3 DUP7 ADD PUSH2 0x1738 JUMP JUMPDEST SWAP2 POP POP SWAP3 POP SWAP3 SWAP1 POP JUMP JUMPDEST PUSH0 PUSH2 0x191C DUP3 PUSH2 0x1711 JUMP JUMPDEST SWAP1 POP SWAP2 SWAP1 POP JUMP JUMPDEST PUSH2 0x192C DUP2 PUSH2 0x1912 JUMP JUMPDEST DUP2 EQ PUSH2 0x1936 JUMPI PUSH0 DUP1 REVERT JUMPDEST POP JUMP JUMPDEST PUSH0 DUP2 CALLDATALOAD SWAP1 POP PUSH2 0x1947 DUP2 PUSH2 0x1923 JUMP JUMPDEST SWAP3 SWAP2 POP POP JUMP JUMPDEST PUSH0 DUP1 PUSH0 DUP1 PUSH1 0x80 DUP6 DUP8 SUB SLT ISZERO PUSH2 0x1965 JUMPI PUSH2 0x1964 PUSH2 0x163B JUMP JUMPDEST JUMPDEST PUSH0 PUSH2 0x1972 DUP8 DUP3 DUP9 ADD PUSH2 0x1939 JUMP JUMPDEST SWAP5 POP POP PUSH1 0x20 PUSH2 0x1983 DUP8 DUP3 DUP9 ADD PUSH2 0x1882 JUMP JUMPDEST SWAP4 POP POP PUSH1 0x40 PUSH2 0x1994 DUP8 DUP3 DUP9 ADD PUSH2 0x1939 JUMP JUMPDEST SWAP3 POP POP PUSH1 0x60 PUSH2 0x19A5 DUP8 DUP3 DUP9 ADD PUSH2 0x1882 JUMP JUMPDEST SWAP2 POP POP SWAP3 SWAP6 SWAP2 SWAP5 POP SWAP3 POP JUMP JUMPDEST PUSH0 PUSH1 0x20 DUP3 DUP5 SUB SLT ISZERO PUSH2 0x19C6 JUMPI PUSH2 0x19C5 PUSH2 0x163B JUMP JUMPDEST JUMPDEST PUSH0 PUSH2 0x19D3 DUP5 DUP3 DUP6 ADD PUSH2 0x1882 JUMP JUMPDEST SWAP2 POP POP SWAP3 SWAP2 POP POP JUMP JUMPDEST PUSH0 DUP2 SWAP1 POP SWAP2 SWAP1 POP JUMP JUMPDEST PUSH0 PUSH2 0x19FF PUSH2 0x19FA PUSH2 0x19F5 DUP5 PUSH2 0x16F2 JUMP JUMPDEST PUSH2 0x19DC JUMP JUMPDEST PUSH2 0x16F2 JUMP JUMPDEST SWAP1 POP SWAP2 SWAP1 POP JUMP JUMPDEST PUSH0 PUSH2 0x1A10 DUP3 PUSH2 0x19E5 JUMP JUMPDEST SWAP1 POP SWAP2 SWAP1 POP JUMP JUMPDEST PUSH0 PUSH2 0x1A21 DUP3 PUSH2 0x1A06 JUMP JUMPDEST SWAP1 POP SWAP2 SWAP1 POP JUMP JUMPDEST PUSH2 0x1A31 DUP2 PUSH2 0x1A17 JUMP JUMPDEST DUP3 MSTORE POP POP JUMP JUMPDEST PUSH0 PUSH1 0x20 DUP3 ADD SWAP1 POP PUSH2 0x1A4A PUSH0 DUP4 ADD DUP5 PUSH2 0x1A28 JUMP JUMPDEST SWAP3 SWAP2 POP POP JUMP JUMPDEST PUSH32 0x4E487B7100000000000000000000000000000000000000000000000000000000 PUSH0 MSTORE PUSH1 0x11 PUSH1 0x4 MSTORE PUSH1 0x24 PUSH0 REVERT JUMPDEST PUSH0 PUSH2 0x1A87 DUP3 PUSH2 0x1777 JUMP JUMPDEST SWAP2 POP PUSH2 0x1A92 DUP4 PUSH2 0x1777 JUMP JUMPDEST SWAP3 POP DUP3 DUP3 MUL PUSH2 0x1AA0 DUP2 PUSH2 0x1777 JUMP JUMPDEST SWAP2 POP DUP3 DUP3 DIV DUP5 EQ DUP4 ISZERO OR PUSH2 0x1AB7 JUMPI PUSH2 0x1AB6 PUSH2 0x1A50 JUMP JUMPDEST JUMPDEST POP SWAP3 SWAP2 POP POP JUMP JUMPDEST PUSH32 0x4E487B7100000000000000000000000000000000000000000000000000000000 PUSH0 MSTORE PUSH1 0x12 PUSH1 0x4 MSTORE PUSH1 0x24 PUSH0 REVERT JUMPDEST PUSH0 PUSH2 0x1AF5 DUP3 PUSH2 0x1777 JUMP JUMPDEST SWAP2 POP PUSH2 0x1B00 DUP4 PUSH2 0x1777 JUMP JUMPDEST SWAP3 POP DUP3 PUSH2 0x1B10 JUMPI PUSH2 0x1B0F PUSH2 0x1ABE JUMP JUMPDEST JUMPDEST DUP3 DUP3 DIV SWAP1 POP SWAP3 SWAP2 POP POP JUMP JUMPDEST PUSH0 DUP3 DUP3 MSTORE PUSH1 0x20 DUP3 ADD SWAP1 POP SWAP3 SWAP2 POP POP JUMP JUMPDEST PUSH32 0x4173736574206E6F7420737570706F7274656400000000000000000000000000 PUSH0 DUP3 ADD MSTORE POP JUMP JUMPDEST PUSH0 PUSH2 0x1B5F PUSH1 0x13 DUP4 PUSH2 0x1B1B JUMP JUMPDEST SWAP2 POP PUSH2 0x1B6A DUP3 PUSH2 0x1B2B JUMP JUMPDEST PUSH1 0x20 DUP3 ADD SWAP1 POP SWAP2 SWAP1 POP JUMP JUMPDEST PUSH0 PUSH1 0x20 DUP3 ADD SWAP1 POP DUP2 DUP2 SUB PUSH0 DUP4 ADD MSTORE PUSH2 0x1B8C DUP2 PUSH2 0x1B53 JUMP JUMPDEST SWAP1 POP SWAP2 SWAP1 POP JUMP JUMPDEST PUSH2 0x1B9C DUP2 PUSH2 0x1711 JUMP JUMPDEST DUP3 MSTORE POP POP JUMP JUMPDEST PUSH0 PUSH1 0x60 DUP3 ADD SWAP1 POP PUSH2 0x1BB5 PUSH0 DUP4 ADD DUP7 PUSH2 0x1B93 JUMP JUMPDEST PUSH2 0x1BC2 PUSH1 0x20 DUP4 ADD DUP6 PUSH2 0x1B93 JUMP JUMPDEST PUSH2 0x1BCF PUSH1 0x40 DUP4 ADD DUP5 PUSH2 0x1780 JUMP JUMPDEST SWAP5 SWAP4 POP POP POP POP JUMP JUMPDEST PUSH2 0x1BE0 DUP2 PUSH2 0x16BF JUMP JUMPDEST DUP2 EQ PUSH2 0x1BEA JUMPI PUSH0 DUP1 REVERT JUMPDEST POP JUMP JUMPDEST PUSH0 DUP2 MLOAD SWAP1 POP PUSH2 0x1BFB DUP2 PUSH2 0x1BD7 JUMP JUMPDEST SWAP3 SWAP2 POP POP JUMP JUMPDEST PUSH0 PUSH1 0x20 DUP3 DUP5 SUB SLT ISZERO PUSH2 0x1C16 JUMPI PUSH2 0x1C15 PUSH2 0x163B JUMP JUMPDEST JUMPDEST PUSH0 PUSH2 0x1C23 DUP5 DUP3 DUP6 ADD PUSH2 0x1BED JUMP JUMPDEST SWAP2 POP POP SWAP3 SWAP2 POP POP JUMP JUMPDEST PUSH0 PUSH2 0x1C36 DUP3 PUSH2 0x1777 JUMP JUMPDEST SWAP2 POP PUSH2 0x1C41 DUP4 PUSH2 0x1777 JUMP JUMPDEST SWAP3 POP DUP3 DUP3 ADD SWAP1 POP DUP1 DUP3 GT ISZERO PUSH2 0x1C59 JUMPI PUSH2 0x1C58 PUSH2 0x1A50 JUMP JUMPDEST JUMPDEST SWAP3 SWAP2 POP POP JUMP JUMPDEST PUSH32 0x4E487B7100000000000000000000000000000000000000000000000000000000 PUSH0 MSTORE PUSH1 0x32 PUSH1 0x4 MSTORE PUSH1 0x24 PUSH0 REVERT JUMPDEST PUSH32 0x4F7261636C65206E6F742073657420666F722061737365740000000000000000 PUSH0 DUP3 ADD MSTORE POP JUMP JUMPDEST PUSH0 PUSH2 0x1CC0 PUSH1 0x18 DUP4 PUSH2 0x1B1B JUMP JUMPDEST SWAP2 POP PUSH2 0x1CCB DUP3 PUSH2 0x1C8C JUMP JUMPDEST PUSH1 0x20 DUP3 ADD SWAP1 POP SWAP2 SWAP1 POP JUMP JUMPDEST PUSH0 PUSH1 0x20 DUP3 ADD SWAP1 POP DUP2 DUP2 SUB PUSH0 DUP4 ADD MSTORE PUSH2 0x1CED DUP2 PUSH2 0x1CB4 JUMP JUMPDEST SWAP1 POP SWAP2 SWAP1 POP JUMP JUMPDEST PUSH0 PUSH10 0xFFFFFFFFFFFFFFFFFFFF DUP3 AND SWAP1 POP SWAP2 SWAP1 POP JUMP JUMPDEST PUSH2 0x1D12 DUP2 PUSH2 0x1CF4 JUMP JUMPDEST DUP2 EQ PUSH2 0x1D1C JUMPI PUSH0 DUP1 REVERT JUMPDEST POP JUMP JUMPDEST PUSH0 DUP2 MLOAD SWAP1 POP PUSH2 0x1D2D DUP2 PUSH2 0x1D09 JUMP JUMPDEST SWAP3 SWAP2 POP POP JUMP JUMPDEST PUSH0 DUP2 SWAP1 POP SWAP2 SWAP1 POP JUMP JUMPDEST PUSH2 0x1D45 DUP2 PUSH2 0x1D33 JUMP JUMPDEST DUP2 EQ PUSH2 0x1D4F JUMPI PUSH0 DUP1 REVERT JUMPDEST POP JUMP JUMPDEST PUSH0 DUP2 MLOAD SWAP1 POP PUSH2 0x1D60 DUP2 PUSH2 0x1D3C JUMP JUMPDEST SWAP3 SWAP2 POP POP JUMP JUMPDEST PUSH0 DUP2 MLOAD SWAP1 POP PUSH2 0x1D74 DUP2 PUSH2 0x186C JUMP JUMPDEST SWAP3 SWAP2 POP POP JUMP JUMPDEST PUSH0 DUP1 PUSH0 DUP1 PUSH0 PUSH1 0xA0 DUP7 DUP9 SUB SLT ISZERO PUSH2 0x1D93 JUMPI PUSH2 0x1D92 PUSH2 0x163B JUMP JUMPDEST JUMPDEST PUSH0 PUSH2 0x1DA0 DUP9 DUP3 DUP10 ADD PUSH2 0x1D1F JUMP JUMPDEST SWAP6 POP POP PUSH1 0x20 PUSH2 0x1DB1 DUP9 DUP3 DUP10 ADD PUSH2 0x1D52 JUMP JUMPDEST SWAP5 POP POP PUSH1 0x40 PUSH2 0x1DC2 DUP9 DUP3 DUP10 ADD PUSH2 0x1D66 JUMP JUMPDEST SWAP4 POP POP PUSH1 0x60 PUSH2 0x1DD3 DUP9 DUP3 DUP10 ADD PUSH2 0x1D66 JUMP JUMPDEST SWAP3 POP POP PUSH1 0x80 PUSH2 0x1DE4 DUP9 DUP3 DUP10 ADD PUSH2 0x1D1F JUMP JUMPDEST SWAP2 POP POP SWAP3 SWAP6 POP SWAP3 SWAP6 SWAP1 SWAP4 POP JUMP JUMPDEST PUSH32 0x496E76616C696420707269636520646174610000000000000000000000000000 PUSH0 DUP3 ADD MSTORE POP JUMP JUMPDEST PUSH0 PUSH2 0x1E25 PUSH1 0x12 DUP4 PUSH2 0x1B1B JUMP JUMPDEST SWAP2 POP PUSH2 0x1E30 DUP3 PUSH2 0x1DF1 JUMP JUMPDEST PUSH1 0x20 DUP3 ADD SWAP1 POP SWAP2 SWAP1 POP JUMP JUMPDEST PUSH0 PUSH1 0x20 DUP3 ADD SWAP1 POP DUP2 DUP2 SUB PUSH0 DUP4 ADD MSTORE PUSH2 0x1E52 DUP2 PUSH2 0x1E19 JUMP JUMPDEST SWAP1 POP SWAP2 SWAP1 POP JUMP JUMPDEST PUSH0 PUSH1 0xFF DUP3 AND SWAP1 POP SWAP2 SWAP1 POP JUMP JUMPDEST PUSH2 0x1E6E DUP2 PUSH2 0x1E59 JUMP JUMPDEST DUP2 EQ PUSH2 0x1E78 JUMPI PUSH0 DUP1 REVERT JUMPDEST POP JUMP JUMPDEST PUSH0 DUP2 MLOAD SWAP1 POP PUSH2 0x1E89 DUP2 PUSH2 0x1E65 JUMP JUMPDEST SWAP3 SWAP2 POP POP JUMP JUMPDEST PUSH0 PUSH1 0x20 DUP3 DUP5 SUB SLT ISZERO PUSH2 0x1EA4 JUMPI PUSH2 0x1EA3 PUSH2 0x163B JUMP JUMPDEST JUMPDEST PUSH0 PUSH2 0x1EB1 DUP5 DUP3 DUP6 ADD PUSH2 0x1E7B JUMP JUMPDEST SWAP2 POP POP SWAP3 SWAP2 POP POP JUMP JUMPDEST PUSH0 DUP2 PUSH1 0x1 SHR SWAP1 POP SWAP2 SWAP1 POP JUMP JUMPDEST PUSH0 DUP1 DUP3 SWAP2 POP DUP4 SWAP1 POP JUMPDEST PUSH1 0x1 DUP6 GT ISZERO PUSH2 0x1F0F JUMPI DUP1 DUP7 DIV DUP2 GT ISZERO PUSH2 0x1EEB JUMPI PUSH2 0x1EEA PUSH2 0x1A50 JUMP JUMPDEST JUMPDEST PUSH1 0x1 DUP6 AND ISZERO PUSH2 0x1EFA JUMPI DUP1 DUP3 MUL SWAP2 POP JUMPDEST DUP1 DUP2 MUL SWAP1 POP PUSH2 0x1F08 DUP6 PUSH2 0x1EBA JUMP JUMPDEST SWAP5 POP PUSH2 0x1ECF JUMP JUMPDEST SWAP5 POP SWAP5 SWAP3 POP POP POP JUMP JUMPDEST PUSH0 DUP3 PUSH2 0x1F27 JUMPI PUSH1 0x1 SWAP1 POP PUSH2 0x1FE2 JUMP JUMPDEST DUP2 PUSH2 0x1F34 JUMPI PUSH0 SWAP1 POP PUSH2 0x1FE2 JUMP JUMPDEST DUP2 PUSH1 0x1 DUP2 EQ PUSH2 0x1F4A JUMPI PUSH1 0x2 DUP2 EQ PUSH2 0x1F54 JUMPI PUSH2 0x1F83 JUMP JUMPDEST PUSH1 0x1 SWAP2 POP POP PUSH2 0x1FE2 JUMP JUMPDEST PUSH1 0xFF DUP5 GT ISZERO PUSH2 0x1F66 JUMPI PUSH2 0x1F65 PUSH2 0x1A50 JUMP JUMPDEST JUMPDEST DUP4 PUSH1 0x2 EXP SWAP2 POP DUP5 DUP3 GT ISZERO PUSH2 0x1F7D JUMPI PUSH2 0x1F7C PUSH2 0x1A50 JUMP JUMPDEST JUMPDEST POP PUSH2 0x1FE2 JUMP JUMPDEST POP PUSH1 0x20 DUP4 LT PUSH2 0x133 DUP4 LT AND PUSH1 0x4E DUP5 LT PUSH1 0xB DUP5 LT AND OR ISZERO PUSH2 0x1FB8 JUMPI DUP3 DUP3 EXP SWAP1 POP DUP4 DUP2 GT ISZERO PUSH2 0x1FB3 JUMPI PUSH2 0x1FB2 PUSH2 0x1A50 JUMP JUMPDEST JUMPDEST PUSH2 0x1FE2 JUMP JUMPDEST PUSH2 0x1FC5 DUP5 DUP5 DUP5 PUSH1 0x1 PUSH2 0x1EC6 JUMP JUMPDEST SWAP3 POP SWAP1 POP DUP2 DUP5 DIV DUP2 GT ISZERO PUSH2 0x1FDC JUMPI PUSH2 0x1FDB PUSH2 0x1A50 JUMP JUMPDEST JUMPDEST DUP2 DUP2 MUL SWAP1 POP JUMPDEST SWAP4 SWAP3 POP POP POP JUMP JUMPDEST PUSH0 PUSH2 0x1FF3 DUP3 PUSH2 0x1777 JUMP JUMPDEST SWAP2 POP PUSH2 0x1FFE DUP4 PUSH2 0x1777 JUMP JUMPDEST SWAP3 POP PUSH2 0x202B PUSH32 0xFFFFFFFFFFFFFFFFFFFFFFFFFFFFFFFFFFFFFFFFFFFFFFFFFFFFFFFFFFFFFFFF DUP5 DUP5 PUSH2 0x1F18 JUMP JUMPDEST SWAP1 POP SWAP3 SWAP2 POP POP JUMP JUMPDEST PUSH0 PUSH2 0x203D DUP3 PUSH2 0x1777 JUMP JUMPDEST SWAP2 POP PUSH2 0x2048 DUP4 PUSH2 0x1777 JUMP JUMPDEST SWAP3 POP DUP3 DUP3 SUB SWAP1 POP DUP2 DUP2 GT ISZERO PUSH2 0x2060 JUMPI PUSH2 0x205F PUSH2 0x1A50 JUMP JUMPDEST JUMPDEST SWAP3 SWAP2 POP POP JUMP JUMPDEST PUSH32 0x496E73756666696369656E742062616C616E6365000000000000000000000000 PUSH0 DUP3 ADD MSTORE POP JUMP JUMPDEST PUSH0 PUSH2 0x209A PUSH1 0x14 DUP4 PUSH2 0x1B1B JUMP JUMPDEST SWAP2 POP PUSH2 0x20A5 DUP3 PUSH2 0x2066 JUMP JUMPDEST PUSH1 0x20 DUP3 ADD SWAP1 POP SWAP2 SWAP1 POP JUMP JUMPDEST PUSH0 PUSH1 0x20 DUP3 ADD SWAP1 POP DUP2 DUP2 SUB PUSH0 DUP4 ADD MSTORE PUSH2 0x20C7 DUP2 PUSH2 0x208E JUMP JUMPDEST SWAP1 POP SWAP2 SWAP1 POP JUMP JUMPDEST PUSH0 PUSH1 0x40 DUP3 ADD SWAP1 POP PUSH2 0x20E1 PUSH0 DUP4 ADD DUP6 PUSH2 0x1B93 JUMP JUMPDEST PUSH2 0x20EE PUSH1 0x20 DUP4 ADD DUP5 PUSH2 0x1780 JUMP JUMPDEST SWAP4 SWAP3 POP POP POP JUMP JUMPDEST PUSH0 PUSH1 0x40 DUP3 ADD SWAP1 POP PUSH2 0x2108 PUSH0 DUP4 ADD DUP6 PUSH2 0x1B93 JUMP JUMPDEST PUSH2 0x2115 PUSH1 0x20 DUP4 ADD DUP5 PUSH2 0x1806 JUMP JUMPDEST SWAP4 SWAP3 POP POP POP JUMP INVALID LOG2 PUSH5 0x6970667358 0x22 SLT KECCAK256 SHL 0xCC CALLDATALOAD INVALID 0xB7 DUP2 PUSH13 0xFA18C93FDFB997A25E431D0F95 0xA9 ISZERO SELFDESTRUCT 0xEC 0x4E POP PUSH2 0x2D5F GASLIMIT SAR 0xC3 PUSH5 0x736F6C6343 STOP ADDMOD OR STOP CALLER "
		},
		"gasEstimates": {
			"creation": {
				"codeDepositCost": "1706000",
				"executionCost": "infinite",
				"totalCost": "infinite"
			},
			"external": {
				"ADMIN_ROLE()": "458",
				"DEFAULT_ADMIN_ROLE()": "419",
				"VAULT_MANAGER_ROLE()": "436",
				"collectPerformanceFee()": "2969",
				"deposit(address,uint256)": "infinite",
				"estimateAssetValueUSD(address,uint256)": "infinite",
				"estimateVaultValue()": "infinite",
				"getRoleAdmin(bytes32)": "infinite",
				"grantRole(bytes32,address)": "infinite",
				"hasRole(bytes32,address)": "3167",
				"lastRecordedProfit()": "2514",
				"performanceFeePercentage()": "2557",
				"renounceRole(bytes32,address)": "infinite",
				"revokeRole(bytes32,address)": "infinite",
				"setAssetToOracle(address,address)": "infinite",
				"supportedAssets(uint256)": "infinite",
				"supportsInterface(bytes4)": "741",
				"totalProfits()": "2447",
				"totalVaultBalance(address)": "2825",
				"trade(address,uint256,address,uint256)": "infinite",
				"userDeposits(address)": "2883",
				"userProfits(address)": "2846",
				"withdraw(address,uint256)": "infinite"
			},
			"internal": {
				"calculateProfits()": "14",
				"calculateUserProfitShare(address)": "infinite",
				"estimateAssetValue(address,uint256)": "infinite",
				"isAssetSupported(contract IERC20)": "infinite"
			}
		},
		"methodIdentifiers": {
			"ADMIN_ROLE()": "75b238fc",
			"DEFAULT_ADMIN_ROLE()": "a217fddf",
			"VAULT_MANAGER_ROLE()": "5e5a24a4",
			"collectPerformanceFee()": "06f34c2f",
			"deposit(address,uint256)": "47e7ef24",
			"estimateAssetValueUSD(address,uint256)": "a356efc4",
			"estimateVaultValue()": "9e4a9369",
			"getRoleAdmin(bytes32)": "248a9ca3",
			"grantRole(bytes32,address)": "2f2ff15d",
			"hasRole(bytes32,address)": "91d14854",
			"lastRecordedProfit()": "523820a1",
			"performanceFeePercentage()": "f4457fab",
			"renounceRole(bytes32,address)": "36568abe",
			"revokeRole(bytes32,address)": "d547741f",
			"setAssetToOracle(address,address)": "90805c34",
			"supportedAssets(uint256)": "c68dbb37",
			"supportsInterface(bytes4)": "01ffc9a7",
			"totalProfits()": "bd998cb3",
			"totalVaultBalance(address)": "30e5065e",
			"trade(address,uint256,address,uint256)": "bb39a960",
			"userDeposits(address)": "0ba36dcd",
			"userProfits(address)": "be354836",
			"withdraw(address,uint256)": "f3fef3a3"
		}
	},
	"abi": [
		{
			"inputs": [
				{
					"internalType": "address",
					"name": "_vaultManager",
					"type": "address"
				},
				{
					"internalType": "address[]",
					"name": "_initialAssets",
					"type": "address[]"
				},
				{
					"internalType": "uint256",
					"name": "_performanceFee",
					"type": "uint256"
				},
				{
					"internalType": "address",
					"name": "_owner",
					"type": "address"
				}
			],
			"stateMutability": "nonpayable",
			"type": "constructor"
		},
		{
			"inputs": [],
			"name": "AccessControlBadConfirmation",
			"type": "error"
		},
		{
			"inputs": [
				{
					"internalType": "address",
					"name": "account",
					"type": "address"
				},
				{
					"internalType": "bytes32",
					"name": "neededRole",
					"type": "bytes32"
				}
			],
			"name": "AccessControlUnauthorizedAccount",
			"type": "error"
		},
		{
			"anonymous": false,
			"inputs": [
				{
					"indexed": true,
					"internalType": "bytes32",
					"name": "role",
					"type": "bytes32"
				},
				{
					"indexed": true,
					"internalType": "bytes32",
					"name": "previousAdminRole",
					"type": "bytes32"
				},
				{
					"indexed": true,
					"internalType": "bytes32",
					"name": "newAdminRole",
					"type": "bytes32"
				}
			],
			"name": "RoleAdminChanged",
			"type": "event"
		},
		{
			"anonymous": false,
			"inputs": [
				{
					"indexed": true,
					"internalType": "bytes32",
					"name": "role",
					"type": "bytes32"
				},
				{
					"indexed": true,
					"internalType": "address",
					"name": "account",
					"type": "address"
				},
				{
					"indexed": true,
					"internalType": "address",
					"name": "sender",
					"type": "address"
				}
			],
			"name": "RoleGranted",
			"type": "event"
		},
		{
			"anonymous": false,
			"inputs": [
				{
					"indexed": true,
					"internalType": "bytes32",
					"name": "role",
					"type": "bytes32"
				},
				{
					"indexed": true,
					"internalType": "address",
					"name": "account",
					"type": "address"
				},
				{
					"indexed": true,
					"internalType": "address",
					"name": "sender",
					"type": "address"
				}
			],
			"name": "RoleRevoked",
			"type": "event"
		},
		{
			"inputs": [],
			"name": "ADMIN_ROLE",
			"outputs": [
				{
					"internalType": "bytes32",
					"name": "",
					"type": "bytes32"
				}
			],
			"stateMutability": "view",
			"type": "function"
		},
		{
			"inputs": [],
			"name": "DEFAULT_ADMIN_ROLE",
			"outputs": [
				{
					"internalType": "bytes32",
					"name": "",
					"type": "bytes32"
				}
			],
			"stateMutability": "view",
			"type": "function"
		},
		{
			"inputs": [],
			"name": "VAULT_MANAGER_ROLE",
			"outputs": [
				{
					"internalType": "bytes32",
					"name": "",
					"type": "bytes32"
				}
			],
			"stateMutability": "view",
			"type": "function"
		},
		{
			"inputs": [],
			"name": "collectPerformanceFee",
			"outputs": [],
			"stateMutability": "nonpayable",
			"type": "function"
		},
		{
			"inputs": [
				{
					"internalType": "address",
					"name": "_asset",
					"type": "address"
				},
				{
					"internalType": "uint256",
					"name": "_amount",
					"type": "uint256"
				}
			],
			"name": "deposit",
			"outputs": [],
			"stateMutability": "nonpayable",
			"type": "function"
		},
		{
			"inputs": [
				{
					"internalType": "address",
					"name": "_asset",
					"type": "address"
				},
				{
					"internalType": "uint256",
					"name": "_amount",
					"type": "uint256"
				}
			],
			"name": "estimateAssetValueUSD",
			"outputs": [
				{
					"internalType": "uint256",
					"name": "valueUSD",
					"type": "uint256"
				}
			],
			"stateMutability": "view",
			"type": "function"
		},
		{
			"inputs": [],
			"name": "estimateVaultValue",
			"outputs": [
				{
					"internalType": "uint256",
					"name": "",
					"type": "uint256"
				}
			],
			"stateMutability": "view",
			"type": "function"
		},
		{
			"inputs": [
				{
					"internalType": "bytes32",
					"name": "role",
					"type": "bytes32"
				}
			],
			"name": "getRoleAdmin",
			"outputs": [
				{
					"internalType": "bytes32",
					"name": "",
					"type": "bytes32"
				}
			],
			"stateMutability": "view",
			"type": "function"
		},
		{
			"inputs": [
				{
					"internalType": "bytes32",
					"name": "role",
					"type": "bytes32"
				},
				{
					"internalType": "address",
					"name": "account",
					"type": "address"
				}
			],
			"name": "grantRole",
			"outputs": [],
			"stateMutability": "nonpayable",
			"type": "function"
		},
		{
			"inputs": [
				{
					"internalType": "bytes32",
					"name": "role",
					"type": "bytes32"
				},
				{
					"internalType": "address",
					"name": "account",
					"type": "address"
				}
			],
			"name": "hasRole",
			"outputs": [
				{
					"internalType": "bool",
					"name": "",
					"type": "bool"
				}
			],
			"stateMutability": "view",
			"type": "function"
		},
		{
			"inputs": [],
			"name": "lastRecordedProfit",
			"outputs": [
				{
					"internalType": "uint256",
					"name": "",
					"type": "uint256"
				}
			],
			"stateMutability": "view",
			"type": "function"
		},
		{
			"inputs": [],
			"name": "performanceFeePercentage",
			"outputs": [
				{
					"internalType": "uint256",
					"name": "",
					"type": "uint256"
				}
			],
			"stateMutability": "view",
			"type": "function"
		},
		{
			"inputs": [
				{
					"internalType": "bytes32",
					"name": "role",
					"type": "bytes32"
				},
				{
					"internalType": "address",
					"name": "callerConfirmation",
					"type": "address"
				}
			],
			"name": "renounceRole",
			"outputs": [],
			"stateMutability": "nonpayable",
			"type": "function"
		},
		{
			"inputs": [
				{
					"internalType": "bytes32",
					"name": "role",
					"type": "bytes32"
				},
				{
					"internalType": "address",
					"name": "account",
					"type": "address"
				}
			],
			"name": "revokeRole",
			"outputs": [],
			"stateMutability": "nonpayable",
			"type": "function"
		},
		{
			"inputs": [
				{
					"internalType": "address",
					"name": "_asset",
					"type": "address"
				},
				{
					"internalType": "address",
					"name": "_oracle",
					"type": "address"
				}
			],
			"name": "setAssetToOracle",
			"outputs": [],
			"stateMutability": "nonpayable",
			"type": "function"
		},
		{
			"inputs": [
				{
					"internalType": "uint256",
					"name": "",
					"type": "uint256"
				}
			],
			"name": "supportedAssets",
			"outputs": [
				{
					"internalType": "contract IERC20",
					"name": "",
					"type": "address"
				}
			],
			"stateMutability": "view",
			"type": "function"
		},
		{
			"inputs": [
				{
					"internalType": "bytes4",
					"name": "interfaceId",
					"type": "bytes4"
				}
			],
			"name": "supportsInterface",
			"outputs": [
				{
					"internalType": "bool",
					"name": "",
					"type": "bool"
				}
			],
			"stateMutability": "view",
			"type": "function"
		},
		{
			"inputs": [],
			"name": "totalProfits",
			"outputs": [
				{
					"internalType": "uint256",
					"name": "",
					"type": "uint256"
				}
			],
			"stateMutability": "view",
			"type": "function"
		},
		{
			"inputs": [
				{
					"internalType": "address",
					"name": "",
					"type": "address"
				}
			],
			"name": "totalVaultBalance",
			"outputs": [
				{
					"internalType": "uint256",
					"name": "",
					"type": "uint256"
				}
			],
			"stateMutability": "view",
			"type": "function"
		},
		{
			"inputs": [
				{
					"internalType": "contract IERC20",
					"name": "_asset1",
					"type": "address"
				},
				{
					"internalType": "uint256",
					"name": "_amount1",
					"type": "uint256"
				},
				{
					"internalType": "contract IERC20",
					"name": "_asset2",
					"type": "address"
				},
				{
					"internalType": "uint256",
					"name": "_amount2",
					"type": "uint256"
				}
			],
			"name": "trade",
			"outputs": [],
			"stateMutability": "nonpayable",
			"type": "function"
		},
		{
			"inputs": [
				{
					"internalType": "address",
					"name": "",
					"type": "address"
				}
			],
			"name": "userDeposits",
			"outputs": [
				{
					"internalType": "uint256",
					"name": "totalValue",
					"type": "uint256"
				}
			],
			"stateMutability": "view",
			"type": "function"
		},
		{
			"inputs": [
				{
					"internalType": "address",
					"name": "",
					"type": "address"
				}
			],
			"name": "userProfits",
			"outputs": [
				{
					"internalType": "uint256",
					"name": "",
					"type": "uint256"
				}
			],
			"stateMutability": "view",
			"type": "function"
		},
		{
			"inputs": [
				{
					"internalType": "address",
					"name": "_asset",
					"type": "address"
				},
				{
					"internalType": "uint256",
					"name": "_amount",
					"type": "uint256"
				}
			],
			"name": "withdraw",
			"outputs": [],
			"stateMutability": "nonpayable",
			"type": "function"
		}
	]
}